S00E00004157535F496F542E73333790
S21400000000800120E9010000150200001502000032
S214000010150200001502000015020000150200007F
S214000020150200001502000015020000150200006F
S214000030150200001402000015020000FD14000066
S214000040150200001502000015020000150200004F
S214000050150200001502000015020000150200003F
S214000060150200001502000015020000150200002F
S214000070410C0000150200001502000015020000E9
S214000080150200001502000015020000150200000F
S2140000901502000001120000150200001502000003
S2140000A015020000890C0000150200001502000071
S2140000B015020000150200001502000015020000DF
S2140000C015020000150200001502000015020000CF
S2140000D015020000150200001502000015020000BF
S2140000E015020000150200001502000015020000AF
S2140000F0150200001502000015020000150200009F
S214000100150200001502000015020000150200008E
S214000110150200001502000015020000150200007E
S214000120150200001502000015020000150200006E
S2140001301502000010B5054C237833B9044B13B1F3
S214000140044800E000BF0123237010BDF812002011
S214000150000000000C59010008B5034B1BB1034911
S214000160034800E000BF08BD00000000FC120020AD
S2140001700C590100154B002B08BF134B9D46A3F5E9
S214000180803A00218B460F461348144A121A13F081
S21400019012FB0F4B002B00D098470E4B002B00D0C5
S2140001A098470020002104000D000D48002802D0CA
S2140001B00C4800E000BF13F0A7FA2000290000F06A
S2140001C09BFB13F08DFA00BF0000080000800120A2
S2140001D00000000000000000F8120020A05A0020D6
S2140001E00000000000000000064880470649074A55
S2140001F0074B9A42BEBF51F8040B42F8040BF8E7CF
S214000200FFF7B8FF1902000018590100000000208F
S214000210F8120020FEE700BF80B400AF074B084A84
S2140002209A60064BD3F88830044A43F47003C2F849
S214000230883000BFBD465DF8047B704700ED00E0E7
S2140002400000000080B400AF034B1B681846BD4694
S2140002505DF8047B704700BF0800002080B582B0C0
S21400026000AF00237B600E4B1B6F03F00703022BCF
S21400027004D0032B06D0012B08D00AE0FFF7E2FFDC
S214000280786007E0074B1B687B6003E0064B7B60EB
S21400029000E0FEE77B6818460837BD4680BD00BF15
S2140002A00080004000000020002D310180B582B0A3
S2140002B000AFFFF7D3FF7860094B1B6F1B0B03F0F3
S2140002C003033B603B6801337A68B2FBF3F37B6061
S2140002D0044A7B6813607B6818460837BD4680BDB5
S2140002E0008000400C00002080B400AF024B18468F
S2140002F0BD465DF8047B704700B4C40480B400AF0C
S214000300034B1B681846BD465DF8047B704700BF6C
S2140003100000002080B400AF00231846BD465DF8FC
S214000320047B704780B400AF024B1846BD465DF8AC
S214000330047B7047002D310180B483B000AF0023EA
S2140003407B602C4B9B681B0C03F01F030C2B48D8C0
S21400035001A252F823F000BF8D030000E303000063
S214000360E3030000E3030000E3030000E3030000F0
S214000370BF030000C5030000CB030000E30300003A
S214000380D1030000D7030000DD030000194B9B6873
S21400039003F04073B3F1807F07D0B3F1007F07D03E
S2140003A0002B08D1144B7B6008E0144B7B6005E003
S2140003B0134B7B6002E000237B6000BF12E0114B12
S2140003C07B600FE0104B7B600CE0104B7B6009E01D
S2140003D00F4B7B6006E00F4B7B6003E00E4B7B60B1
S2140003E000E000BF7B6818460C37BD465DF8047B0E
S2140003F0704700BF0040014A00093D0080841E008F
S21400040040420F00405DC6000024F400C0EA21010F
S21400041080BA8C010048E801005A620280B400AF3E
S2140004204FF400431846BD465DF8047B704780B421
S21400043000AF4FF47A731846BD465DF8047B7047EC
S21400044080B400AF034B1B681846BD465DF8047BBE
S214000450704700BF0400002080B483B000AF03469E
S2140004600A46FB711346BB7100BF0C37BD465DF8EC
S214000470047B704780B586B000AFF860B9603B601B
S2140004801346FB80FF23FB75184813F09DF90121E6
S2140004901520FFF7E1FF164B1B78DBB2002B10D1BF
S2140004A0012304220021012012F0AEFD104B012290
S2140004B01A70104813F088F900F09AF90346FB7595
S2140004C00FE0002304220021012012F09DFD084BBE
S2140004D000221A70084813F077F900F089F90346ED
S2140004E0FB7500BF1837BD4680BD00BFCC4A010073
S2140004F072180020F04A0100044B010080B485B059
S21400050000AF0346B9607A60FB8100BF1437BD4672
S2140005105DF8047B7047000080B584B000AF78605B
S2140005203960FF23FB73144813F04EF97B68002BE9
S2140005301DD078680AF0C2FC0346002B03D00F4893
S21400054013F042F914E00E4813F03EF978680BF009
S2140005504BFE0346FB7397F90F30032B03D1094874
S21400056013F032F904E0084813F02EF900E000BF5B
S2140005701037BD4680BD00BF184B0100284B010058
S214000580684B0100A44B0100C04B010080B58EB043
S21400059004AF00237B62092387F8233007F110039A
S2140005A000221A605A609A60DA601A823B4600227D
S2140005B01A605A609A60C3F80B2043F69821724876
S2140005C000F0D6FF78627B6A002B04DB7B6A43F67A
S2140005D09822934201DD7B6AD1E0312001F0E4FAF3
S2140005E078627B6A002B05D0796A684813F0ECF8CD
S2140005F07B6AC4E0664813F0E7F80021002001F0AB
S21400060025F978627B6A002B05D0796A614813F079
S214000610DBF87B6AB3E0604813F0D6F801F0F6F931
S21400062078627B6A002B05D0796A5C4813F0CCF8B8
S2140006307B6AA4E05A4813F0C7F83B460F221946D7
S214000640012011F0C5F978627B6A002B05D0796A23
S214000650544813F0B9F87B6A91E000220021052087
S21400066011F096F9786200220021032011F090F92B
S214000670786200220021042011F08AF9786240F2A4
S214000680BC524949052011F083F978627B6A002B39
S21400069005D0796A454813F097F87B6A6FE04448BE
S2140006A013F092F84FF499624249032011F070F962
S2140006B078627B6A002B05D0796A3F4813F084F88D
S2140006C07B6A5CE03D4813F07FF840F28F623C495D
S2140006D0042011F05DF978627B6A002B05D0796AF8
S2140006E0384813F071F87B6A49E0374813F06CF825
S2140006F0002300220021354810F046FA78627B6A13
S214000700002B05D0796A324813F05EF87B6A36E033
S214000710304813F059F8304A02212C4810F0C4FB38
S21400072078627B6A002B05D0796A2C4813F04CF867
S2140007307B6A24E02A4813F047F897F82310002332
S21400074003931223029307F11003019300230093EF
S21400075000230022042010F0EFFE78627B6A002B54
S21400076005D0796A1F4813F02FF87B6A07E01E4809
S21400077013F02AF81D49022011F020FB002318462A
S2140007802837BD4680BD00BF40190020D44B01006D
S214000790084C01002C4C0100644C0100884C010000
S2140007A0BC4C0100DC4C01006C0B0020084D010025
S2140007B0404D010010000020644D0100A04D0100D6
S2140007C0DC040020C84D01000C4E01003C4E010028
S2140007D04C4E0100784E0100944E0100A04E0100E0
S2140007E0D04E0100EC4E0100144F0100FD04000045
S2140007F080B58AB000AFFF2387F827300023FB7050
S21400080000233B75344BFB6100237B75324813F0A5
S21400081072F803463B6201233B71304BFB600023BA
S2140008207B712E4813F067F803463B612C4B1B7810
S214000830DBB2012B24D12B4813F05DF803469AB2A5
S2140008403B1D284928480BF0AAFE034687F82730A8
S21400085097F9273013F11C0F03D1244812F0B4FF88
S21400086033E097F92730002B03D1214812F0ACFF74
S2140008702BE097F9273019461E4812F0A5FF24E012
S214000880184813F038F803469AB207F114031549CE
S21400089015480BF084FE034687F8273097F9273073
S2140008A013F11C0F03D1114812F08EFF0DE097F9DB
S2140008B02730002B03D10E4812F086FF05E097F98B
S2140008C0273019460B4812F07FFF97F92730184655
S2140008D02837BD4680BD00BF4C1100202C110020DB
S2140008E0721800202C4F010014130020684F0100DE
S2140008F0884F0100B84F0100B0B5AAB002AFFF2381
S21400090087F89F307E4B07F168041D460FCD0FC455
S2140009100FCD0FC495E80F0084E80F00794B07F160
S21400092030041D460FCD0FC40FCD0FC40FCD0FC41E
S21400093095E8030084E80300002387F86830724BCC
S214000940FB66724B1B689BB2A7F87030704B7B67D8
S214000950704BBB67704BFB6744F62063C7F8843068
S21400096041F28833C7F88830012387F88C306B4B08
S214000970C7F890300023C7F894304FF41673FB87FF
S214000980012387F84030042387F83430644BBB6378
S214000990634812F0B0FF03469BB2BB87002387F87C
S2140009A04130604BBB655F4812F0A5FF03469BB223
S2140009B0A7F85C305C4B3B665B4812F09CFF034636
S2140009C09BB2A7F86430594B07F114041D460FCDAF
S2140009D00FC495E8070084E80700554B3C1D0FCB75
S2140009E084E80F00C823C7F89830474B7B61474B15
S2140009F01B689BB23B83474B3B62474B7B62444B37
S214000A00FB61002387F828300023FB62FFF7BEFD5A
S214000A1007F16803194647480AF02AF9034687F89B
S214000A209F3097F99F30002B03D0434812F0CCFE3E
S214000A3002E0424812F0C8FE414B7B60384BBB6078
S214000A40374812F058FF03469BB2BB813D4812F070
S214000A50BBFE07F13003194636480BF0DBFA0346B7
S214000A6087F89F3097F99F30002B05D0364812F054
S214000A70ABFE97F99F303FE0344812F0A5FE3448AD
S214000A8012F0A2FE01212B480AF02AFA034687F844
S214000A909F3097F99F30002B03D02E4812F094FE1B
S214000AA002E02D4812F090FE2C4812F08DFE2C48E5
S214000AB012F021FF03469AB22A4B01932A4B009369
S214000AC0002327491B480CF0C2F8034687F89F30DE
S214000AD097F99F30002B03D0244812F075FE02E0F1
S214000AE0234812F071FE234812F06EFE42F2107197
S214000AF010480CF0F7FBF9E71846A037BD46B0BD26
S214000B0098540100C854010084110020841200206B
S214000B106C0B002010000020DC04002019050000EB
S214000B20D84F01006C1100207811002000560100FB
S214000B301C56010014130020E84F01000C50010061
S214000B402C50010038500100545001006C50010038
S214000B5088500100A8500100D0500100F05001005C
S214000B600C5101006015002075040000445101007E
S214000B70585101007851010080B483B000AF03469D
S214000B80FB7197F90730002B0BDBFB7903F01F0294
S214000B90074997F907305B09012000FA02F241F88D
S214000BA0232000BF0C37BD465DF8047B704700BFAE
S214000BB000E100E080B483B000AF0346FB7197F914
S214000BC00730002B10DBFB7903F01F02094997F969
S214000BD007305B09012000FA02F2203341F8232097
S214000BE0BFF34F8FBFF36F8F00BF0C37BD465DF866
S214000BF0047B704700E100E080B483B000AF78600B
S214000C00054B03F5105320337A681A6000BF0C3783
S214000C10BD465DF8047B704700C0034080B483B0D7
S214000C2000AF786039607B6803F5015308333A6893
S214000C301A6000BF0C37BD465DF8047B70470000A5
S214000C4080B500AF0C4B586A0C4B1B685A1C0B49FE
S214000C500A60C1B20A4AD154084B1B68092B05D852
S214000C60064B1B68074AD25C034BDA630121024835
S214000C70FFF7D4FF00BF80BD00800540F85300207A
S214000C80DC530020EC53002080B500AF064B1B68F9
S214000C90002B02D0044B1B6898474AF6AA20FFF7A1
S214000CA0ABFF00BF80BD00BFE853002080B483B018
S214000CB000AF7860044A7B68136000BF0C37BD46FF
S214000CC05DF8047B704700BFE853002080B500AF96
S214000CD01920FFF76FFF00BF80BD80B500AF192059
S214000CE0FFF74AFF00BF80BD80B483B000AF7860D6
S214000CF039607B681A683B6822FA03F303F0010345
S214000D0018460C37BD465DF8047B704780B582B048
S214000D1000AF03463960FB71FB79002B07D0FB79E7
S214000D20012B04D0FB79022B01D0FB79032BFA7937
S214000D3013465B0013441B01143303F1804303F591
S214000D40703339681846FFF7CFFF03461846083752
S214000D50BD4680BD80B483B000AF03463960FB71EA
S214000D60FB79002B07D0FB79012B04D0FB79022BF3
S214000D7001D0FB79032B01223B6802FA03F30949F1
S214000D80FA79184613465B0013441B010B4403F51F
S214000D9000531033186000BF0C37BD465DF8047B67
S214000DA0704700BF00C0034080B483B000AF034666
S214000DB00A46FB711346BB7100BF0C37BD465DF893
S214000DC0047B704780B582B000AF0346FB710B46CC
S214000DD0BB7113467B7101211520FFF7E5FF002349
S214000DE004220021012012F00FF90021012012F048
S214000DF091F903467B71002301220321032012F0A0
S214000E0003F90321032012F085F903467B710123C1
S214000E1004220221032012F0F7F80221032012F028
S214000E2079F903467B7100BF0837BD4680BD80B5A3
S214000E3082B000AF0346FB71FB79042B05D101237A
S214000E4004220021012012F0DFF8FB79032B05D1E4
S214000E50012301220321032012F0D6F8FB79012B8F
S214000E6006D1012307220221032012F0CDF800BF8D
S214000E7000BF0837BD4680BD80B584B000AF0346CE
S214000E80FB710023FB73FB79042B05D102210320A1
S214000E90FFF73CFF0346FB73FB79032B05D10321C9
S214000EA00320FFF733FF0346FB73FB79022B05D1C4
S214000EB001210120FFF72AFF0346FB73FB7B184640
S214000EC01037BD4680BD80B582B000AF0346FB71CB
S214000ED0FB79042B03D102210320FFF73BFFFB79AC
S214000EE0032B03D103210320FFF734FFFB79012BEB
S214000EF004D100210120FFF72DFF00BF00BF0837F7
S214000F00BD4680BD80B483B000AF03463960FB7138
S214000F1097F90730002B0ADB3B68DAB20C4997F9E1
S214000F2007301201D2B20B4483F800230AE03B6874
S214000F30DAB20849FB7903F00F03043B1201D2B280
S214000F400B441A7600BF0C37BD465DF8047B70472D
S214000F5000E100E000ED00E080B582B000AF786010
S214000F607B68013BB3F1807F01D301230FE00A4A7F
S214000F707B68013B53600F214FF0FF30FFF7C2FF45
S214000F80054B00229A60044B07221A60002318467D
S214000F900837BD4680BD00BF10E000E080B483B0D7
S214000FA000AF78604FF06043D3F8803E03F0010353
S214000FB0002B13D04FF06043D3F8003E03F001033C
S214000FC0002B0BD000E000BF4FF060431B68002BE7
S214000FD0F9D04FF060437A68D2B21A707B68184630
S214000FE00C37BD465DF8047B704780B483B000AF15
S214000FF003460A46FB711346BB7100BF0C37BD465D
S2140010005DF8047B7047000080B584B000AF3B1DE0
S214001010184612F007FA224B9B6D03F48033002B20
S21400102019D1204B1B6823F4FF0323F4FE431D4A0B
S21400103043F4BC1343F4A06313601B4B1B6823F4F8
S2140010407043194A43F440431360174B1B68164A13
S21400105043F4E06313607B79012B14D13B79002BBA
S21400106011D14FF00053FB600023BB6008E0FB6823
S2140010701B68FB6803F58043FB60BB680133BB60FD
S214001080BB68052BF3D9094BD3F88030074A43F0E9
S2140010900303C2F8803000BF1037BD4680BD00BFD6
S2140010A000C0004034C0004030C000400080004017
S2140010B080B483B000AF7860054B03F5015310335E
S2140010C07A681A6000BF0C37BD465DF8047B70472F
S2140010D00000044080B400AF034B1B6D1846BD46AD
S2140010E05DF8047B704700BF0000044080B582B006
S2140010F000AF0346FB71FB791846FFF74FFF034628
S21400110018460837BD4680BD80B400AF0023184699
S214001110BD465DF8047B704780B500AF0121152001
S214001120FFF763FF002301220121022011F06CFF6C
S214001130002304220021022011F066FF002304226F
S2140011400221022011F060FF012304220321022065
S21400115011F05AFF00BF80BDB0B586B000AF0121C8
S2140011602120FFF742FF184B3C461D460FCD0FC40B
S21400117095E8030084E803000123BB7301237B7515
S2140011800423FB750423BB75104BBB60104B114A40
S214001190C3F8BC250E4B0222C3F8C4250C4B4FF0F7
S2140011A00212C3F8C0250A4B0B4AC3F8B025084BF9
S2140011B01D22C3F8AC253B461946084812F0A8F98C
S2140011C000BF1837BD46B0BDFC520100101B7F00A3
S2140011D000C003400200010002000300008005403A
S2140011E080B582B000AF054B1B687B603B1D184680
S2140011F012F04AF800BF0837BD4680BD1453010000
S21400120080B582B000AFFFF765FF78607B6803F0BB
S2140012100203002B02D00220FFF74AFF7B6803F090
S2140012200103002B05D00120FFF742FF054B0122EA
S2140012301A707B68002B00DA00BE00BF0837BD4678
S21400124080BD00BFFC53002080B582B000AF2B4BA2
S2140012505B682A4A23F470435360284B5B68274A2E
S21400126043F480435360254BD3F84434234A43F079
S2140012700103C2F8443405210C2011F047F90C2074
S21400128010F036FF02461E4BA3FB0223DB0C013B8D
S2140012907B601C4B1B681B4A43F001031360194B11
S2140012A0DB68184A43F08073D360174B40F2FF3276
S2140012B01A60164A7B681361144B0222C3F8F020AA
S2140012C0124B4FF48072C3F804234FF06043104A69
S2140012D0C3F8B02F4FF060430E4AC3F8802E4FF08D
S2140012E06043D3F8003E4FF0604243F00103C2F87B
S2140012F0003E00BF0837BD4680BD00BF00C00340AB
S214001300DD40699BF0ED00E0001000E0000004E026
S21400131055CEACC50900010080B582B002AFFFF71C
S21400132073FEFFF791FFFFF7F7FEFFF715FFFFF7D6
S21400133057FF0F2010F0DCFE02460D4BA3FB0223E6
S2140013409B091846FFF708FE002301220121012011
S21400135011F05AFE0123019300230093012301227A
S2140013600121012011F0F0FD00BFBD4680BD00BF89
S214001370D34D621080B584B000AFF860B9601146F6
S2140013801A460B46FB8013467B71FB68002B02D186
S2140013903C4BFB6004E0BB68002B01D1394BBB60C3
S2140013A0FB88013B9BB2C3F30A0398B2F968364B3D
S2140013B01A460023136053609360D360324A138842
S2140013C060F30E131380304A937843F01003937043
S2140013D02D4AD37843F03003D3702B4B59602A4BF9
S2140013E02A4A9A602A4B1A46002313605360936079
S2140013F0D360274B274A1A60FB88013B9BB2C3F396
S2140014000A0398B2B968244B1A4600231360536047
S2140014109360D360204A138860F30E1313801E4A2D
S214001420937843F0100393701B4AD37843F003037A
S214001430D370194B194A5A60174B9960184B1A46C5
S2140014400023136053609360D360154B4FF48022E3
S2140014501A60144B00221A700F4A1149002011F02E
S2140014604FFF094A0A49012011F04AFF00BF0D4B01
S2140014701B78DBB2002BFAD0002318461037BD4687
S21400148080BD00BF40540020005400203C80054032
S2140014903054002002000400105400202480054030
S2140014A020540020FC53002080B483B000AF3B6083
S2140014B00346FB710B46BB7113467B71002318462F
S2140014C00C37BD465DF8047B704780B584B000AF2E
S2140014D078607B68002B0CD000F01EF8F86000F0F7
S2140014E01BF80246FB68D31A7A689A42F7D800BF00
S2140014F000E000BF1037BD4680BD000080B400AFDE
S214001500044B1B680133034A136000BFBD465DF8F9
S214001510047B70472818002080B400AF034B1B687C
S2140015201846BD465DF8047B704700BF28180020AB
S21400153080B400AF044B1B68DB685B681846BD468A
S2140015405DF8047B704700BF2C18002080B483B081
S21400155000AF7860054B1B68DB687A685A6000BF8E
S2140015600C37BD465DF8047B704700BF2C18002082
S21400157080B586B002AF786039600023FB60002338
S214001580BB607B6803F00303002B0BD07B6803F083
S21400159003023B681344043B3B607B68033323F041
S2140015A003037B603A680021786812F004F900F0C3
S2140015B0E9FA03461A46BB681344BB603A68BB6840
S2140015C09A4201D2BB6828E1964A7B6813607B6822
S2140015D03A681A607B6804337B60934A7B681360C2
S2140015E07B68AC337B60914A7B6813607B682033F2
S2140015F07B608F4A7B6813607B6844337B608D4AD0
S2140016007B6813607B68F0337B608B4A7B68136073
S2140016107B6803F5A0637B60884A7B6813607B6801
S214001620D0337B60864A7B6813607B68C4337B60FC
S2140016307D4B1B687A681A647B680C337B600EF0FF
S2140016401FFD794B1B6818464FF4C8634FF4CA62F7
S214001650796805F0E1F87B6803F5CA637B60794A30
S2140016607B6813607B6854337B606F4B1B687A68BB
S214001670DA607B6840337B606B4B1B68DB68184620
S21400168003F026FA684B1B68DB6803F1140064233A
S2140016907422796805F0C0F87B6874337B60624B0F
S2140016A01B687A681A627B6838337B605E4B1B68FF
S2140016B01B6A184605F0E8FB5B4B1B681B6A03F1C8
S2140016C014004FF4C8634FF4CA62796805F0A4F8B2
S2140016D07B6803F5CA637B60534B1B68343318463C
S2140016E005F060F904F0B0FC4F4B1B682433184635
S2140016F005F0DAF84C4B1B681033184605F0D4F8A2
S214001700494B1B687A68DA667B68D0337B60464B49
S2140017101B68DB6E184601F051FB434B1B68DB6E03
S21400172003F11C004FF496734FF49E72796805F02F
S21400173073F87B6803F59E737B603B4B1B687033C6
S214001740184605F0B1F8384B1B687A68C3F8902045
S2140017507B68D0337B60344B1B68D3F890301846D8
S21400176001F02CFB304B1B68D3F8903003F11C00C3
S2140017704FF482634FF48462796805F04DF87B6815
S21400178003F584637B60284B1B687A68C3F8A42043
S2140017907B68D0337B60244B1B68D3F8A430184694
S2140017A001F00CFB204B1B68D3F8A43003F11C009F
S2140017B04FF496734FF49E72796805F02DF87B68A7
S2140017C003F59E737B60184B1B687A689A667B6885
S2140017D010337B60144B1B687968184601F032FBA7
S2140017E003461A467B6813447B607B680D4A126882
S2140017F09B1A1A463B68934204D27B68094A1268D1
S2140018009B1A0AE0104B00930123012201210020BD
S214001810FFF74AFE03F0D1FDBB6818461037BD46F9
S21400182080BD00BF301800202C1800208C5A0020E5
S214001830885A0020845A0020805A0020945A00209B
S214001840905A002034180020F569000080B588B052
S21400185000AF03460A46FB801346BB800023FB61AD
S214001860674B1B68DB68BB61654B1B681B6A7B614B
S214001870BB69BA881A86BB691B8E23F001039AB22D
S214001880BB691A8607F108034EF66021184605F074
S214001890C6F810E05A4B1B683433184605F096F825
S2140018A007F10803184605F0CAF80346002B02D0D5
S2140018B06FF01703A0E0BB691B78DBB2002BE9D002
S2140018C07B695B78DBB2002B3ED07B695B78DBB252
S2140018D0092B04D07B695B78DBB20A2B16D17B69B7
S2140018E01B78DBB2022B06D9BB691B8E43F00103C3
S2140018F09AB2BB691A867B6900225A7000BFFFF74E
S21400190017FEF861FB69002B13D010E03D4B1B68F7
S21400191010333D49184604F0FDFE0346002BD4D094
S2140019206FF01D00FFF712FE6FF01D0364E0FB6909
S21400193062E010F03FF8F861FB69002B01D0FB690C
S2140019405AE045F65A2357E0BB691B78DBB2012BF9
S21400195002D06FF002034FE00121002003F064FD87
S2140019600346002B3CD1BB691433184604F070FFC5
S21400197038613B69002B06D10021002003F054FD9E
S2140019806FF0030338E03B69143328220021184621
S21400199011F011FF3B691433FB607B69FA88DA8625
S2140019A0F868BB881A04FB881343194605F072F8DA
S2140019B03969102003F0EAF8F861124B1B681433FB
S2140019C04EF66021184603F017FD0021002003F0B4
S2140019D02BFDFFF7ADFDF861FB69002B0BD102E094
S2140019E06FF0220308E0BB880D2B02D0BB88052BC6
S2140019F001D101F051FAFB6918462037BD4680BD7B
S214001A002C18002034180020400D030080B584B048
S214001A1000AF0023FB60264B1B68DB68BB60012120
S214001A20002003F001FD0346002B3AD1BB681433B7
S214001A30184604F00DFF78607B68002B06D1002165
S214001A40002003F0F1FC6FF003032CE07B681433F6
S214001A503B603B6800221A703B6801225A703B6864
S214001A6000229A703B680022DA703B6801221A71E5
S214001A703B6830229A607968C82003F087F8F860DF
S214001A800C4B1B6814334EF66021184603F0B4FC6A
S214001A900021002003F0C8FCFFF74AFDF860FB6851
S214001AA001E06FF0220318461037BD4680BD00BF28
S214001AB02C1800203418002080B586B000AF78605F
S214001AC00B467B8000237B612B4B1B68DB683B61EE
S214001AD03B691B78DBB2002B0BD105E0264B1B685D
S214001AE03433184604F072FF3B691B78DBB2012BD7
S214001AF0F4D10121002003F097FC0346002B34D1DB
S214001B003B691433184604F0A3FEF860FB68002B0C
S214001B1006D10021002003F087FC6FF0030326E0C7
S214001B207B68002B06D03B697A685A637A883B69E3
S214001B309A6305E03B6900225A633B6900229A6378
S214001B40F968492003F022F878610C4B1B681433BF
S214001B500B49184603F050FC0021002003F064FCFB
S214001B60FFF7E6FC78617B6901E06FF02203184618
S214001B701837BD4680BD00BF2C1800203418002042
S214001B8020A1070080B483B000AF00237B607B6891
S214001B9003F5085324337B607B6818460C37BD4634
S214001BA05DF8047B7047000080B584B000AF034644
S214001BB0FB710023FB60FFF7AFFB03F0AFFC0346AF
S214001BC0FB60FB68002B01D0FB6853E06420FFF746
S214001BD07CFC00F017FB0346FB60FB68002B01D083
S214001BE0FB6847E007F108034EF66021184604F04C
S214001BF016FF03F0A7FC0346FB60FB68002B05DA24
S214001C00FB6813F10C0F01D0FB6833E007F1080303
S214001C10184604F014FF0346002B02D06FF018039A
S214001C2028E0FB6813F10C0FE3D0FB79312B03D1CE
S214001C30002000F083FA0CE0FB79712B09D102201A
S214001C4000F07CFA0346FB60FB68002B01DAFB68B9
S214001C5010E0FB79184603F0B9FC0346FB60FB680E
S214001C60002B01DAFB6805E00448FFF71FF8FFF7D2
S214001C7034F8FB6818461037BD4680BD3D59000055
S214001C8090B587B000AF786007F10C03184600F0F7
S214001C905FF80346FB82B7F91630002B02D0B7F97F
S214001CA0163020E007F10C030233184604F008FF54
S214001CB00346043B9CB207F10C03184604F000FFF1
S214001CC00346043B9BB21A462146786800F08EF81D
S214001CD00346FB82B7F91630002B02D0B7F9163050
S214001CE001E0B7F9163018461C37BD4690BD80B5E2
S214001CF086B000AFF860B9601346FB80F86800F065
S214001D00E9F80346FB82B7F91630002B02D0B7F984
S214001D10163019E0FB88002B14D0FB8803339BB2E7
S214001D2023F00303FB80F88800230022B96800F044
S214001D3011F90346FB82B7F91630002B02D0B7F92B
S214001D40163001E0B7F9163018461837BD4680BD84
S214001D5080B584B000AF78605C23FB730023BB7350
S214001D6004237B7300233B73BA7BFB7B1146184628
S214001D7000F04CF903467B81B7F90A30002B02D0FD
S214001D80B7F90A302CE03A7B7B7B1146184600F008
S214001D9085F903467B81B7F90A30002B02D0B7F9E4
S214001DA00A301DE00121104800F09AF903467B81B5
S214001DB0B7F90A30002B02D0B7F90A3010E0012339
S214001DC0042279680020FFF7D5FA03467B81B7F92D
S214001DD00A30002B02D0B7F90A3001E0B7F90A3012
S214001DE018461037BD4680BD20A1070080B588B0D4
S214001DF000AF78600B467B8013463B800023BB61B8
S214001E003B88033323F00303BB615D23FB7500238C
S214001E10BB75BB697B75BB691B0A3B75BA7DFB7DD1
S214001E201146184600F0F2F80346FB83B7F91E3059
S214001E30002B02D0B7F91E3046E03A7D7B7D114676
S214001E40184600F02BF90346FB83B7F91E30002B2B
S214001E5002D0B7F91E3037E001211D4800F040F9E6
S214001E600346FB83B7F91E30002B02D0B7F91E30AD
S214001E702AE07B88002B0FD07A8807F10C0100231C
S214001E800020FFF777FA0346FB83B7F91E30002BD6
S214001E9002D0B7F91E3017E07B68002B12D0BB6962
S214001EA09AB27B88D31A9AB2012379680020FFF78A
S214001EB061FA0346FB83B7F91E30002B02D0B7F950
S214001EC01E3001E0B7F91E3018462037BD4680BDEB
S214001ED020A1070080B588B000AF78607C23FB7730
S214001EE00023BB7710237B7700233B77BA7FFB7FEB
S214001EF01146184600F08AF803467B83B7F91A3075
S214001F00002B02D0B7F91A3020E03A7F7B7F1146CB
S214001F10184600F0C3F803467B83B7F91A30002B47
S214001F2002D0B7F91A3011E0786807F108010123EA
S214001F301022FFF71FFA03467B83B7F91A30002BEF
S214001F4002D0B7F91A3001E0B7F91A301846203730
S214001F50BD4680BD80B586B000AFB9607B600346E5
S214001F60FB811346BB81FA89BB891344BB827C2361
S214001F70FB740023BB74BB8A7B74BB8A1B0A9BB2B0
S214001F803B74BA7CFB7C1146184600F03FF80346CB
S214001F90FB82B7F91630002B02D0B7F9163031E0C5
S214001FA03A7C7B7C1146184600F078F80346FB82A4
S214001FB0B7F91630002B02D0B7F9163022E0FA89AE
S214001FC001230021B868FFF7D5F90346FB82B7F96D
S214001FD01630002B02D0B7F9163013E0BB89002B61
S214001FE00ED0BA89012300217868FFF7C3F90346AB
S214001FF0FB82B7F91630002B02D0B7F9163001E095
S214002000B7F9163018461837BD4680BD80B588B07B
S21400201000AF03460A46FB711346BB714CF25033C1
S214002020BB611D4B1B6800221A64FB793B75BB79AC
S2140020307B75194B1A68136C591C1164BA699A425D
S21400204003D24FF6E973FB8320E007F10C0107F19A
S214002050140000230222FFF78DF90346FB837B7BE7
S214002060582B02D07B7B002B02D10023FB830DE094
S2140020707B7B522B03D14FF6FE73FB8306E07B7B04
S214002080542BD2D14FF6FF73FB83CEE7B7F91E3041
S21400209018462037BD4680BD3418002080B584B071
S2140020A000AF03460A46FB711346BB71FB793B73D0
S2140020B0BB797B7307F10C00002302220021FFF797
S2140020C059F90346FB81B7F90E30002B02D0B7F959
S2140020D00E3001E0B7F90E3018461037BD4680BD09
S2140020E080B584B000AF78600B46FB70124B1B685F
S2140020F000221A64104B1A68136C591C11647A6813
S2140021009A4203D24FF6FF73FB810FE000237B73E6
S214002110FB7807F10D0101220020FFF72BF903469B
S214002120FB817B7B552BE5D10023FB81B7F90E3075
S21400213018461037BD4680BD3418002080B584B0E0
S21400214000AF786000233B7300237B7307F10C031A
S2140021501A460221144800F0F5F80346FB81B7F949
S2140021600E30002B1AD17B7B23F00303DBB27B738C
S2140021707A7B7B68DBB21343DBB27B7307F10C031D
S2140021801A460221084800F079F80346FB81B7F9A1
S2140021900E30002B02D0B7F90E3001E0B7F90E3042
S2140021A018461037BD4680BD0000054180B584B096
S2140021B000AF78604CF25033BB60114B1B680022B6
S2140021C05A640F4B1A68536C591C5164BA689A4289
S2140021D003D24FF6E973FB810CE07968002000F02B
S2140021E02DF90346FB81B7F90E30B3F1FF3F00D15E
S2140021F0E7E700BFB7F90E3018461037BD4680BD7A
S2140022003418002080B584B000AF00237B60002324
S214002210FB810A23BB81184B1B6800221A64164BED
S2140022201A68136C591C1164BA89934203D94FF685
S214002230E973FB811AE012233B724A237B725C230C
S214002240BB720023FB72391D07F10800002304222D
S214002250FFF790F80346FB81FB79582B02D1002349
S214002260FB8103E04FF6FF73FB81D8E7B7F90E302A
S21400227018461037BD4680BD3418002080B58AB099
S21400228000AFF8600B467A607B81742387F82730AE
S214002290002387F826307B8987F825307B891B0A40
S2140022A09BB287F8243007F11C03F968184604F03F
S2140022B0F1FB97F8262097F8273011461846FFF7C7
S2140022C0A5FE03467B84B7F92230002B02D0B7F96F
S2140022D0223032E097F8242097F825301146184629
S2140022E0FFF7DCFE03467B84B7F92230002B02D0D2
S2140022F0B7F9223021E007F1140107F11C00002392
S2140023000422FFF737F803467B84B7F92230002B08
S21400231002D0B7F9223010E07A89002300217868CD
S214002320FFF728F803467B84B7F92230002B02D04B
S214002330B7F9223001E0B7F9223018462837BD46F3
S21400234080BD000080B58AB000AFF8600B467A60AA
S2140023507B81542387F82730002387F826307B8933
S21400236087F825307B891B0A9BB287F82430FB68E8
S214002370DBB23B77FB681B0ADBB27B77FB681B0C88
S214002380DBB2BB77FB681B0EDBB2FB7797F8262029
S21400239097F8273011461846FFF738FE03467B8429
S2140023A0B7F92230002B02D0B7F922303FE097F879
S2140023B0242097F8253011461846FFF76FFE03468F
S2140023C07B84B7F92230002B02D0B7F922302EE0FA
S2140023D007F1140107F11C0000230422FEF7CAFFD0
S2140023E003467B84B7F92230002B02D0B7F922309F
S2140023F01DE000211048FFF773FE03467B84B7F903
S2140024002230002B02D0B7F9223010E07A89002360
S21400241079680020FEF7AEFF03467B84B7F92230CA
S214002420002B02D0B7F9223001E0B7F92230184667
S2140024302837BD4680BD00BF20A1070080B584B008
S21400244000AF03463960FB714123FB730023BB7367
S214002450BA7BFB791343BB73BA7BFB7B11461846EA
S214002460FFF7D4FD0346BB81B7F90C30002B02D032
S214002470B7F90C3016E000210C48FFF731FE034692
S214002480BB81B7F90C30002B02D0B7F90C3009E04D
S2140024900023012239680020FEF76CFF0346BB814B
S2140024A0B7F90C3018461037BD4680BD20A107008E
S2140024B080B485B000AF03463960FB80FF23FB8104
S2140024C0FB8841F2060293421DD1754B1B68DB6EFA
S2140024D0DB7C002B07D10223FB81714B1B68D3F8F2
S2140024E090203B681A606E4B1B68DB6EDB7C012B12
S2140024F007D10323FB816A4B1B68D3F8A4203B68F3
S2140025001A60FB89A9E1FB8840F2055293422FD05E
S214002510FB88002B02D0FB88072B29D9FB888C2B45
S21400252002D9FB888F2B23D9FB88A62B20D0FB88CB
S214002530A72B1DD0FB88B3F5977F19D0FB8848F2F0
S2140025401002934214D0FB8848F2150293420FD033
S214002550FB8848F21C0293420AD0FB889A2B07D0CD
S214002560FB88BE2B04D0FB8840F22F12934207D183
S2140025700123FB814A4B1B68DA6E3B681A606BE1ED
S214002580FB88072B02D9FB883D2B7FD9FB883D2B88
S21400259002D9FB88412B79D9FB88912B76D0FB8812
S2140025A0972B02D9FB889B2B70D9FB889C2B02D9D2
S2140025B0FB88A02B6AD9FB88A92B67D0FB88CB2B7E
S2140025C002D9FB88F12B61D9FB8840F209129342AD
S2140025D05CD0FB88FE2B59D0FB88FF2B56D0FB889F
S2140025E0B3F5817F03D3FB88B3F5827F4ED9FB8892
S2140025F0B3F5805F04D3FB8841F21702934245D9B6
S214002600FB88B3F5885F04D3FB8841F2021293423D
S2140026103CD9FB88B3F5905F04D3FB8841F20C22CB
S214002620934233D9FB88B3F5985F04D3FB8841F215
S2140026301D3293422AD9FB88B3F5A05F04D3FB88EA
S21400264041F21442934221D9FB8841F24F42934211
S21400265004D9FB8841F25242934217D9FB88B3F55E
S214002660A35F13D0FB8841F2614293420ED0FB88F1
S21400267041F23E52934209D0FB8841F23F529342C8
S21400268004D0FB8840F20D1293420BD10223FB814B
S214002690034B1B68D3F890203B681A60DCE000BF51
S2140026A02C180020FB88B3F5997F00F08180FB880A
S2140026B040F2351293427BD0FB88B3F59B7F77D0F0
S2140026C0FB8840F26112934272D0FB88B3F59A7F82
S2140026D06ED0FB8841F22F52934269D0FB8841F2BC
S2140026E03052934264D0FB8841F2315293425FD01D
S2140026F0FB8841F2335293425AD0FB8841F234525F
S214002700934255D0FB8841F23552934250D0FB8815
S21400271041F2365293424BD0FB8841F237529342F5
S21400272046D0FB8841F23852934241D0FB8841F2B2
S214002730325293423CD0FB88B3F5B47F38D0FB8846
S21400274041F23952934233D0FB8840F269129342E9
S2140027502ED0FB88B3F5B57F2AD0FB8840F26B12EB
S214002760934225D0FB88B3F5B67F21D0FB8840F294
S2140027706D1293421CD0FB88B3F5B77F18D0FB8848
S21400278041F23A52934213D0FB8841F23B529342B5
S2140027900ED0FB8841F22E52934209D0FB8841F2BC
S2140027A03E52934204D0FB8840F20D12934208D169
S2140027B00223FB812C4B1B68D3F890203B681A60E1
S2140027C04AE0FB88742B02D9FB888C2B3CD9FB880B
S2140027D0912B02D9FB88972B36D9FB889C2B33D0BC
S2140027E0FB88A02B02D9FB88A52B2DD9FB88A82B0C
S2140027F02AD0FB88A92B02D9FB88B82B24D9FB88C2
S214002800B92B02D9FB88C02B1ED9FB88C12B1BD045
S214002810FB88F12B02D9FB88FD2B15D9FB8840F2EB
S2140028200112934210D0FB88B3F5827F03D9FB8850
S214002830B3F5867F08D9FB88B3F5A85F0CD3FB8871
S21400284041F23D52934207D80323FB81064B1B6897
S214002850D3F8A4203B681A60FB8918461437BD4697
S2140028605DF8047B704700BF2C18002080B586B04A
S21400287000AF786000237B610023FB7400233B825B
S2140028800023FB607B6804337B617B690233184658
S21400289004F016F903463B8207F10C023B8A114608
S2140028A01846FFF705FE0346FB74FB7CFF2B14D08F
S2140028B0FB681C337968184603F0E0FFFB689B7CD6
S2140028C0002B0BD1FB680021184600F00AF8FB68C5
S2140028D01833184603F08EFF00E000BF1837BD46D9
S2140028E080BD80B483B000AF786039607B683A689A
S2140028F01A6000BF0C37BD465DF8047B704780B495
S21400290083B000AF78607B681B6818460C37BD46FE
S2140029105DF8047B7047000080B584B000AF786037
S2140029200023FB731D4B1B68D3F8A430BB60002349
S214002930FB732BE07868FA7B1346DB0013445B00DE
S2140029403833BA68134402330622194610F000FFE3
S2140029500346002B17D1FA7BB9681346DB001344F5
S2140029605B000B44413319787B689B79FA7B0B44F8
S214002970D8B2B9681346DB0013445B000B444133FE
S21400298002461A7005E0FB7B0133FB73FB7B032BCF
S214002990D0D900BF1037BD4680BD00BF2C18002020
S2140029A080B584B000AF78600023FB732A4B1B68A9
S2140029B0D3F8A430BB600023FB7345E0FA7BB9680C
S2140029C01346DB0013445B000B4446331B78002B96
S2140029D037D1FA7B1346DB0013445B003833BA6802
S2140029E01344981C7B6801330622194610F0BFFE7C
S2140029F0FA7BB9681346DB0013445B000B4446338E
S214002A0001221A70FA7BB9681346DB0013445B0098
S214002A100B44423301221A70FA7BB9681346DB0076
S214002A2013445B000B44413301221A70FA7BB968E9
S214002A301346DB0013445B000B444A3301221A7032
S214002A4005E0FB7B0133FB73FB7B032BB6D900BF92
S214002A501037BD4680BD00BF2C18002080B584B05E
S214002A6000AF78600023FB732F4B1B68D3F8A430AD
S214002A70BB600023FB7350E07868FA7B1346DB00EC
S214002A8013445B003833BA681344023306221946EF
S214002A9010F05EFE0346002B3CD1FA7BB968134665
S214002AA0DB0013445B000B44463300221A70FA7BAB
S214002AB0B9681346DB0013445B000B444133002225
S214002AC01A70FA7BB9681346DB0013445B000B44AC
S214002AD0473300221A70FA7BB9681346DB001344AA
S214002AE05B000B44423300221A70FA7BB968134627
S214002AF0DB0013445B000B44483300221A80FA7B49
S214002B00B9681346DB0013445B000B444A330022CB
S214002B101A7005E0FB7B0133FB73FB7B032BABD901
S214002B2000BF1037BD4680BD2C18002090B58BB076
S214002B3000AFF860B9607A6000237B8400233B8492
S214002B400023FB6100237B83BB680433FB61FB69C6
S214002B500233184603F0B4FF03467B84BB68143385
S214002B607B62F86903F0ACFF0346C3F30B033B83B9
S214002B70FB690C33184603F0A3FF03463B84B7F902
S214002B8020301946F868FFF7ACFEFB681B8A7A8C83
S214002B909A4240F0A280FB681B8A40F2055293429C
S214002BA003D1FB6801229A8002E0FB6800229A802B
S214002BB0FB681B8A7B83FB6800221A82FB68DB6843
S214002BC0002B0CD0FB68DB683A8B796A184610F04D
S214002BD0CEFDFB68DB687B62FB680022DA60FB6880
S214002BE09B7C002B6FD07B8BB3F5847F65D1B7F9C8
S214002BF02030002B61D17B6A7B61FB6893F8CC3078
S214002C0019467B699879FA680B46DB000B445B0033
S214002C1013444A3302461A707B699B79002B2AD1EB
S214002C207B69DA79FB6893F8CC30194613461A4666
S214002C30920013445B00D8B2FA680B46DB000B44E4
S214002C405B001344423302461A707B69DA79FB68EC
S214002C5093F8CC30194613461A46920013445B008C
S214002C60D8B2FA680B46DB000B445B0013444133D2
S214002C7002461A701DE0FB6893F8CC3019467B6953
S214002C80D879FA680B46DB000B445B0013444233EA
S214002C9002461A70FB6893F8CC3019467B69D879DF
S214002CA0FA680B46DB000B445B00134441330246D4
S214002CB01A70FB68002283F8CC20FB68183318468D
S214002CC003F098FD12E07B68002B0FD03B8B798CCD
S214002CD07C687A6AF868A04708E07B68002B05D015
S214002CE03B8B798C7C687A6AF868A047B7F9203005
S214002CF018462C37BD4690BD80B588B000AF7860CA
S214002D000023BB610023FB750023BB820023FB83EB
S214002D100023FB6000233B617B680433BB61BB6917
S214002D200233184603F0CCFE0346BB82BB8A41F250
S214002D300602934208D17B6814333B611C4B1B6828
S214002D40DB6E3A699279DA7407F10C02BB8A114697
S214002D501846FFF7ADFB0346FB75FB7DFF2B01D145
S214002D60002320E0FB7D012B08D1FB680022796858
S214002D701846FFF7DBFE0346FB8313E0FB7D022BC2
S214002D8008D1FB680B4A79681846FFF7CFFE034662
S214002D90FB8307E0FB68084A79681846FFF7C6FE1B
S214002DA00346FB83FB8B18462037BD4680BD00BF1D
S214002DB02C180020D12E00005542000080B584B0AB
S214002DC000AF78600023FB737B68002B02D16FF0A6
S214002DD0010333E07B6800229A807B6800221A6039
S214002DE07B6800221A827B680022DA607B681833D0
S214002DF00021184603F07FFC0346FB7397F90F305B
S214002E00002B02D06FF0270318E07B6814330021F4
S214002E10184603F070FC0346FB7397F90F30002B3F
S214002E2002D06FF0270309E07B681433184603F0DE
S214002E30E1FC7B6800229A6297F90F30184610373B
S214002E40BD4680BD80B485B000AF786039607B68D1
S214002E509B6EFB6000237B81FB683A685A607B6848
S214002E60D3F8A430FA681A637B89D0337B817B89D8
S214002E703A681A44FB689A607B68D3F89030FA6820
S214002E801A637B8903F5DE737B817B8918461437CA
S214002E90BD465DF8047B704780B582B000AF0A4B34
S214002EA01B68DB6E7B607B6840F205521A827B688B
S214002EB001229A747B6818330449184603F02AFCEA
S214002EC000BF0837BD4680BD2C18002000E2040075
S214002ED080B588B000AFF8607A601A460B467B81F2
S214002EE013463B81FB681B6B9B68FB61EA4B1B68C8
S214002EF0DB68BB610023FB82F868FFF700FD034632
S214002F00FB827B8941F21232934200F08A8541F2BD
S214002F101232934200F3408141F21702934200F0CE
S214002F20D28241F21702934200F3918041F20902E5
S214002F30934200F0658341F2090293423EDC41F27F
S214002F400202934200F0A58241F20202934215DC8F
S214002F50D02B00F02484D02B05DC1D2B00F07282D1
S214002F601E2B01F072B9B3F5805F00F0788241F253
S214002F700102934200F0808201F067B941F2050237
S214002F80934200F0BA8241F2050293420BDC41F212
S214002F900302934200F08A8241F20402934200F058
S214002FA09F8201F052B941F20702934200F0C682B6
S214002FB041F20702934200F3CE82ABE241F21002E6
S214002FC0934200F0918341F2100293421FDC41F2DB
S214002FD00C02934200F03A8341F20C0293420BDC5F
S214002FE041F20A02934200F0188341F20B02934228
S214002FF000F0208301F029B941F20E02934200F05E
S2140030003F8341F20E02934200F3A2832BE341F288
S2140030101302934200F0828341F2130293420BDCC8
S21400302041F21102934200F06C8341F21202934285
S21400303000F0918201F009B941F21502934200F0C6
S214003040978241F21502934200F3CB8273E341F27A
S2140030500A22934200F0188441F20A2293424DDC81
S21400306041F20222934200F0A98341F202229342E7
S2140030701EDC41F20212934200F0298341F2021252
S21400308093420ADCB3F5885F00F0078341F2011231
S214003090934200F00F8301F0D8B8B3F5905F00F0CC
S2140030A0648341F20122934200F06C8301F0CDB8B4
S2140030B041F20522934200F0A88341F20522934292
S2140030C00BDC41F20322934200F0858341F2042296
S2140030D0934200F08D8301F0B8B841F20722934284
S2140030E000F0B48341F207229342C0F29B8341F280
S2140030F00822934200F0B98301F0A7B841F20532E6
S214003100934200F0388441F2053293421EDC41F2CD
S2140031100132934200F0E58341F2013293420ADC29
S21400312041F20C22934200F0BE83B3F5985F00F0A4
S214003130C98301F08AB841F20332934200F0EF836C
S21400314041F20332934200F30884D9E341F2083295
S214003150934200F02C8441F2083293420BDC41F299
S2140031600632934200F0EA8341F20732934200F0BF
S214003170108401F06AB841F20A32934200F03384B8
S21400318041F20A329342C0F2208441F21132934255
S21400319000F0378401F059B841F20F42934200F034
S2140031A0AE8541F20F42934200F3A58041F2014200
S2140031B0934200F0E08441F2014293424EDC41F239
S2140031C01832934200F0798441F21832934220DCA0
S2140031D041F21532934200F04C8441F2153293428C
S2140031E00BDC41F21332934200F0278441F2143292
S2140031F0934200F0328401F028B841F2163293422E
S21400320000F0438441F21732934200F04A8401F002
S2140032101CB841F21B32934200F0778441F21B3215
S21400322093420BDC41F21932934200F0528441F291
S2140032301A32934200F05D8401F007B841F21D3265
S214003240934200F07E8441F21D329342C0F26984BC
S214003250B3F5A05F00F0818400F0F7BF41F20842AA
S214003260934200F0EA8441F20842934222DC41F2A3
S2140032700442934200F0A98441F2044293420DDCDA
S21400328041F20242934200F0848441F203429342A8
S21400329000F08D8400F0D9BF2C18002041F20642C1
S2140032A0934200F0AE8441F20642934200F3B784A4
S2140032B000F099BC41F20B42934200F0E88441F2E0
S2140032C00B4293420BDC41F20942934200F0C38466
S2140032D041F20A42934200F0CC8400F0B6BF41F2BD
S2140032E00D42934200F0EF8441F20D42934200F308
S2140032F0F88400F0DABC41F23052934200F06F8559
S21400330041F2305293424DDC41F25042934200F07B
S2140033100E8641F25042934220DC41F21242934222
S21400332000F0178541F2124293420BDC41F2104244
S214003330934200F0F28441F21142934200F0FB8483
S21400334000F083BF41F21342934200F0108541F231
S2140033501442934200F0198500F077BFB3F5A35FDF
S21400336000F00F86B3F5A35F0BDC41F251429342A7
S21400337000F0EB8541F25242934200F0F48500F0F3
S21400338064BF41F22E52934200F00D8541F22E5258
S214003390934200F3168541F26142934200F0FF85A6
S2140033A000F053BF41F23752934200F06C8541F271
S2140033B03752934220DC41F23352934200F02B8581
S2140033C041F2335293420BDC41F23152934200F009
S2140033D0148541F23252934200F09B8500F035BFCF
S2140033E041F23552934200F0328541F23552934213
S2140033F000F33B8500F01DBD41F23A52934200F0C7
S2140034006C8541F23A5293420BDC41F238529342B9
S21400341000F0478541F23952934200F0508500F0A3
S21400342014BF41F23E52934200F0B18041F23F5247
S214003430934200F0BB8041F23B52934200F05B8522
S21400344000F003BFFB691B6C002B00F03186FB69A4
S2140034501B6CFA8A79681046984700F029BEFB690B
S2140034601B68002B00F02686FB691B68FA8A7968C1
S2140034701046984700F01EBEFB699B68002B00F0C4
S2140034801B86FB699B68FA8A79681046984700F0A5
S21400349013BEFB695B68002B00F01086FB695B6857
S2140034A0FA8A79681046984700F008BEFB691B69DF
S2140034B0002B00F00586FB691B69FA8A79681046BE
S2140034C0984700F0FDBDFB691B6D002B00F0FA85E8
S2140034D0FB691B6DFA8A79681046984700F0F2BDC2
S2140034E0FB695B69002B00F0EF85FB695B69FA8A74
S2140034F079681046984700F0E7BDFB69DB69002B4A
S21400350000F0E485FB69DB69FA8A7968104698471B
S21400351000F0DCBDFB69DB68002B00F0D985BB69D9
S214003520002283F82C20BB6900229A62FB69DB68C4
S214003530FA8A79681046984700F0CABDFB691B6A8C
S214003540002B00F0C785FB691B6AFA8A796810466B
S214003550984700F0BFBDFB699B69002B00F0BC8557
S214003560FB699B69FA8A79681046984700F0B4BDF3
S214003570FB69D3F85831002B00F0B085FB69D3F80F
S2140035805831FA8A79681046984700F0A7BDFB695B
S214003590D3F88031002B00F0A385FB69D3F8803187
S2140035A0FA8A79681046984700F09ABDA54B1B68C2
S2140035B01B69002B0CD17B681B781846FDF7C6FFED
S2140035C0A14B1B681433184603F014F900F03DBEF7
S2140035D09C4B1B681B69FA8A79681046984700F06E
S2140035E034BEFB69D3F87C31002B00F07B85FB6989
S2140035F0D3F87C31FA8A79681046984700F072BD95
S214003600FB695B6A002B00F06F85FB695B6AFA8AD0
S21400361079681046984700F067BDFB699B6A002BE7
S21400362000F06485FB699B6AFA8A796810469847B9
S21400363000F05CBDFB69DB6A002B00F05985FB6976
S214003640DB6AFA8A1046984700F052BDFB691B6B8E
S214003650002B00F04F85FB691B6BFA8A79681046D1
S214003660984700F047BDFB695B6B002B00F0448574
S214003670FB695B6BFA8A79681046984700F03CBD98
S214003680FB69DB6B002B00F03985FB69DB6BFA8A84
S21400369079681046984700F031BDFB695B6E002BD9
S2140036A000F02E85FB695B6EFA8A796810469847AB
S2140036B000F026BDFB69DB6D002B00F02385FB695F
S2140036C0DB6DFA8A79681046984700F01BBDFB69E7
S2140036D01B6E002B00F01885FB691B6EFA8A796852
S2140036E01046984700F010BDFB699B6C002B00F05D
S2140036F00D85FB699B6CFA8A79681046984700F03E
S21400370005BDFB69DB6C002B00F00285FB69DB6CFA
S214003710FA8A79681046984700F0FABCFB695B6D38
S214003720002B00F0F784FB695B6DFA8A7968104617
S214003730984700F0EFBCFB699B6D002B00F0EC8413
S214003740FB699B6DFA8A79681046984700F0E4BCDE
S214003750FB699B6B002B00F0E184FB699B6BFA8A8C
S21400376079681046984700F0D9BCFB699B6E002B21
S21400377000F0D684FB699B6EFA8A796810469847F3
S21400378000F0CEBCFB69DB6E002B00F0CB84FB693F
S214003790DB6EFA8A79681046984700F0C3BCFB696E
S2140037A0D3F88C30002B00F0BF84FB69D3F88C3044
S2140037B0FA8A79681046984700F0B6BCFB691B6F1A
S2140037C0002B00F0B384FB691B6FFA8A79681046F9
S2140037D0984700F0ABBCFB695B6F002B00F0A88439
S2140037E0FB695B6FFA8A79681046984700F0A0BCC0
S2140037F0FB699B6F002B00F09D84FB699B6FFA8A28
S21400380079681046984700F095BCFB69DB6F002B83
S21400381000F09284FB69DB6FFA8A79681046984755
S21400382000F08ABCFB69D3F88030002B00F0868459
S214003830FB69D3F88030FA8A79681046984700F01A
S2140038407DBC00BF905A002034180020FB69D3F8D6
S2140038508430002B00F07484FB69D3F88430FA8A35
S21400386079681046984700F06BBCFB69D3F888303F
S214003870002B00F06784FB69D3F88830FA8A7968F1
S2140038801046984700F05EBCFB69D3F89030002BDA
S21400389000F05A84FB69D3F89030FA8A79681046AB
S2140038A0984700F051BCFB69D3F89430002B00F029
S2140038B04D84FB69D3F89430FA8A796810469847A5
S2140038C000F044BCFB69D3F89830002B00F040842D
S2140038D0FB69D3F89830FA8A79681046984700F062
S2140038E037BCFB69D3F89C30002B00F03384FB69AF
S2140038F0D3F89C30FA8A79681046984700F02ABCBC
S214003900FB69D3F8A030002B00F02684FB69D3F8BF
S214003910A030FA8A79681046984700F01DBCFB690B
S214003920D3F8A430002B00F01984FB69D3F8A43038
S214003930FA8A79681046984700F010BCFB69D3F8FD
S214003940A830002B00F00C84FB69D3F8A830FA8A64
S21400395079681046984700F003BCFB69D3F8AC3092
S214003960002B00F0FF83FB69D3F8AC30FA8A796845
S21400397010469847F6E3FB69D3F8B030002B00F00A
S214003980F383FB69D3F8B030FA8A79681046984713
S214003990EAE3FB69D3F8B430002B00F0E783FB6959
S2140039A0D3F8B430FA8A796810469847DEE3FB69A4
S2140039B0D3F8B830002B00F0DB83FB69D3F8B830BF
S2140039C0FA8A796810469847D2E3FB69D3F8BC3088
S2140039D0002B00F0CF83FB69D3F8BC30FA8A7968F5
S2140039E010469847C6E3FB69D3F8C030002B00F0BA
S2140039F0C383FB69D3F8C030FA8A796810469847C3
S214003A00BAE3FB69D3F8C430002B00F0B783FB6938
S214003A10D3F8C4307A680632127811467868984728
S214003A20ACE3FB69D3F8C830002B00F0A983FB6930
S214003A30D3F8C83078689847A2E3FB69D3F8CC304F
S214003A40002B00F09F83FB69D3F8CC307A680632EF
S214003A50127811467868984794E3FB69D3F8D0301B
S214003A60002B00F09183FB69D3F8D0307868984734
S214003A708AE3FB69D3F8D430002B00F08783FB6918
S214003A80D3F8D4307868984780E3FB69D3F8D83009
S214003A90002B00F07D83FB69D3F8D8307868984710
S214003AA076E3FB69D3F8DC30002B00F07383FB6908
S214003AB0D3F8DC30786898476CE3FB69D3F8E030DD
S214003AC0002B00F06983FB69D3F8E03078689847EC
S214003AD062E3FB69D3F8E430002B00F05F83FB69F8
S214003AE0D3F8E4307A680632127811467868984738
S214003AF054E3FB69D3F8E830002B00F05183FB69F0
S214003B00D3F8E830786898474AE3FB69D3F8EC3096
S214003B10002B00F04783FB69D3F8EC3078689847B1
S214003B2040E3FB69D3F8F030002B00F03D83FB69DF
S214003B30D3F8F0307A6806321278114678689847DB
S214003B4032E3FB69D3F8F430002B00F02F83FB69D7
S214003B50D3F8F4307868984728E3FB69D3F8F83050
S214003B60002B00F02583FB69D3F8F830FA8A7968D1
S214003B70104698471CE3FB69D3F8FC30002B00F096
S214003B801983FB69D3F8FC30FA8A7968104698479F
S214003B9010E3FB69D3F80031002B00F00D83FB69BE
S214003BA0D3F80031FA8A79681046984704E3FB692F
S214003BB0D3F80431002B00F00183FB69D3F80431FD
S214003BC0FA8A796810469847F8E2FB69D3F8083114
S214003BD0002B00F0F582FB69D3F80831FA8A796881
S214003BE010469847ECE2FB69D3F80C31002B00F046
S214003BF0E982FB69D3F80C31FA8A7968104698474F
S214003C00E0E2FB69D3F81031002B00F0DD82FB699F
S214003C10D3F81031FA8A796810469847D4E2FB69DF
S214003C20D3F81431002B00F0D182FB69D3F814319D
S214003C30FA8A796810469847C8E2FB69D3F81831C3
S214003C40002B00F0C582FB69D3F81831FA8A796830
S214003C5010469847BCE2FB69D3F81C31002B00F0F5
S214003C60B982FB69D3F81C31FA8A796810469847FE
S214003C70B0E2FB69D3F82031002B00F0AD82FB697F
S214003C80D3F82031FA8A796810469847A4E2FB698F
S214003C90D3F82431002B00F0A182FB69D3F824313D
S214003CA0FA8A79681046984798E2FB69D3F8283173
S214003CB0002B00F09582FB69D3F82831FA8A7968E0
S214003CC0104698478CE2FB69D3F82C31002B00F0A5
S214003CD08982FB69D3F82C31FA8A796810469847AE
S214003CE080E2FB69D3F83031002B00F07D82FB695F
S214003CF0D3F83031FA8A79681046984774E2FB693F
S214003D00D3F83431002B00F07182FB69D3F83431DC
S214003D10FA8A79681046984768E2FB69D3F8383122
S214003D20002B00F06582FB69D3F83831FA8A79688F
S214003D30104698475CE2FB69D3F83C31002B00F054
S214003D405982FB69D3F83C31FA8A7968104698475D
S214003D5050E2FB69D3F84031002B00F04D82FB693E
S214003D60D3F84031FA8A79681046984744E2FB69EE
S214003D70D3F84431002B00F04182FB69D3F844317C
S214003D80FA8A79681046984738E2FB69D3F84831D2
S214003D90002B00F03582FB69D3F84831FA8A79683F
S214003DA0104698472CE2FB69D3F88431002B00F0CC
S214003DB02982FB69D3F88431FA8A796810469847D5
S214003DC020E2FB69D3F88831002B00F01D82FB69E6
S214003DD0D3F88831FA8A79681046984714E2FB6966
S214003DE0D3F88C31002B00F01182FB69D3F88C31AC
S214003DF0FA8A79681046984708E2FB69D3F890314A
S214003E00002B00F00582FB69D3F89031FA8A7968B6
S214003E1010469847FCE1FB69D3F89831002B00F078
S214003E20F981FB69D3F89831FA8A79681046984781
S214003E30F0E1FB69D3F89C31002B00F0ED81FB69C3
S214003E40D3F89C31FA8A796810469847E4E1FB6912
S214003E50D3F8A031002B00F0E181FB69D3F8A03144
S214003E60FA8A796810469847D8E1FB69D3F8A431F6
S214003E70002B00F0D581FB69D3F8A431FA8A796863
S214003E8010469847CCE1FB69D3F8A831002B00F028
S214003E90C981FB69D3F8A831FA8A79681046984731
S214003EA0C0E1FB69D3F8AC31002B00F0BD81FB69A3
S214003EB0D3F8AC31FA8A796810469847B4E1FB69C2
S214003EC0D3F8B031002B00F0B181FB69D3F8B031E4
S214003ED0FA8A796810469847A8E1FB69D3F8B431A6
S214003EE0002B00F0A581FB69D3F8B431FA8A796813
S214003EF0104698479CE1FB69D3F8B831002B00F0D8
S214003F009981FB69D3F8B831FA8A796810469847E0
S214003F1090E1FB69D3F89431002B00F08D81FB69AA
S214003F20D3F89431FA8A79681046984784E1FB6999
S214003F30D3F84C31002B00F08181FB69D3F84C316B
S214003F40FA8A79681046984778E1FB69D3F85031C9
S214003F50002B00F07581FB69D3F85031FA8A796836
S214003F60104698476CE1FB69D3F85431002B00F0FB
S214003F706981FB69D3F85431FA8A79681046984704
S214003F8060E1FB69D3F85C31002B00F05D81FB69D2
S214003F90D3F85C31FA8A79681046984754E17B6812
S214003FA03B613B695B7A1B09DBB20A2B72D801A224
S214003FB052F823F0E13F0000FB3F00009540000070
S214003FC095400000154000002F40000049400000CA
S214003FD06340000095400000954000007B400000D4
S214003FE0FB69D3F86431002B56D0FB69D3F86431F3
S214003FF0FA8A7968104698474EE0FB69D3F868312C
S214004000002B4BD0FB69D3F86831FA8A79681046E2
S214004010984743E0FB69D3F86C31002B40D0FB692E
S214004020D3F86C31FA8A79681046984738E0FB690D
S214004030D3F87031002B35D0FB69D3F87031FA8A8B
S2140040407968104698472DE0FB69D3F87431002B49
S2140040502AD0FB69D3F87431FA8A796810469847F3
S21400406022E0FB69D3F87831002B06D0FB69D3F841
S2140040707831FA8A796810469847FB69D3F8603138
S214004080002B13D0FB69D3F86031FA8A79681046A2
S21400409098470BE000BFD8E000BFD6E000BFD4E0F2
S2140040A000BFD2E000BFD0E000BFCEE000BFCCE053
S2140040B000BFCAE000BFC8E000BFC6E000BFC4E063
S2140040C000BFC2E000BFC0E000BFBEE000BFBCE073
S2140040D000BFBAE000BFB8E000BFB6E000BFB4E083
S2140040E000BFB2E000BFB0E000BFAEE000BFACE093
S2140040F000BFAAE000BFA8E000BFA6E000BFA4E0A3
S21400410000BFA2E000BFA0E000BF9EE000BF9CE0B2
S21400411000BF9AE000BF98E000BF96E000BF94E0C2
S21400412000BF92E000BF90E000BF8EE000BF8CE0D2
S21400413000BF8AE000BF88E000BF86E000BF84E0E2
S21400414000BF82E000BF80E000BF7EE000BF7CE0F2
S21400415000BF7AE000BF78E000BF76E000BF74E002
S21400416000BF72E000BF70E000BF6EE000BF6CE012
S21400417000BF6AE000BF68E000BF66E000BF64E022
S21400418000BF62E000BF60E000BF5EE000BF5CE032
S21400419000BF5AE000BF58E000BF56E000BF54E042
S2140041A000BF52E000BF50E000BF4EE000BF4CE052
S2140041B000BF4AE000BF48E000BF46E000BF44E062
S2140041C000BF42E000BF40E000BF3EE000BF3CE072
S2140041D000BF3AE000BF38E000BF36E000BF34E082
S2140041E000BF32E000BF30E000BF2EE000BF2CE092
S2140041F000BF2AE000BF28E000BF26E000BF24E0A2
S21400420000BF22E000BF20E000BF1EE000BF1CE0B1
S21400421000BF1AE000BF18E000BF16E000BF14E0C1
S21400422000BF12E000BF10E000BF0EE000BF0CE0D1
S21400423000BF0AE000BF08E000BF06E000BF04E0E1
S21400424000BF02E000BF00E000BF00BF2037BD4651
S21400425080BD00BF80B588B000AFF8607A601A46AF
S2140042600B467B8113463B81FB681B6B5B68BB611F
S2140042700023FB820023FB77F868FEF740FB03462B
S214004280FB827B8941F21252934200F0118241F286
S2140042901252934279DC41F20252934200F06A8154
S2140042A041F2025293422EDC872B15DC852B80F2DE
S2140042B07382812B00F04C82812B06DC7F2B00F072
S2140042C02F82802B00F03882ADE3832B00F06482CF
S2140042D0832B00F3558247E241F20602934200F038
S2140042E0128141F20602934203DC8C2B00F39B837F
S2140042F05EE2B3F5A85F00F0168141F201529342E8
S21400430000F01E818FE341F20A52934200F0798159
S21400431041F20A52934219DC41F20552934200F0F0
S214004320528141F2055293420ADC41F20352934213
S21400433000F02D8141F20452934200F0358172E381
S21400434041F20852934240F34D8106E141F20E528B
S214004350934200F0B48041F20E5293420ADC41F2DE
S2140043600C52934200F04D8141F20C52934200F3FE
S214004370578164E141F21052934200F06F8141F29E
S2140043801052934200F37481A3E041F2215293420B
S21400439000F0AB8041F2215293423BDC41F21952CD
S2140043A0934200F0328241F21952934214DC41F2F9
S2140043B01552934205DC41F21452934280F2048275
S2140043C080E141F21752934200F0FE8141F217520B
S2140043D0934200F310828BE141F21D52934200F0AB
S2140043E0938141F21D5293420ADC41F21B529342E2
S2140043F000F0238241F21B52934200F3F18110E257
S21400440041F21F52934200F03082B3F5A95F80F26A
S21400441038821EE241F22A52934200F04A8241F26A
S2140044202A52934223DC41F22452934200F05982EE
S21400443041F2245293420ADC41F22252934200F0A7
S2140044402C8241F22352934200F03F82EBE241F28B
S2140044502652934200F05F8241F226529342C0F207
S2140044604C8241F22752934200F06082DBE241F236
S2140044703052934200F0108141F2305293420FDCEA
S21400448041F22C52934200F0678241F22C52934242
S214004490C0F2578241F22D52934200F06682C2E289
S2140044A041F23D52934200F0ED80B3F5AA5F00F072
S2140044B0158141F23C52934200F06382B3E2BB693D
S2140044C01B68002B00F06882BB691B6878689847F9
S2140044D062E2BB695B68002B03D0BB695B687868E7
S2140044E098477868FEF75CFA9DE2BB69D3F8A0307F
S2140044F0002B04D0BB69D3F8A0307868984778685A
S214004500FEF74EFA8FE2BB699B68002B07D0BB69AB
S2140045109B68FA68126892B211467868984778687D
S214004520FEF79CFA7FE2BB69DB6E002B05D0BB6909
S214004530DB6EFA8A7968104698470123FB7772E2A9
S214004540BB691B6F002B05D0BB691B6FFA8A7968A5
S214004550104698470123FB7765E2BB695B6F002B2B
S21400456005D0BB695B6FFA8A7968104698470123C5
S214004570FB7758E2BB699B6F002B05D0BB699B6F2E
S214004580FA8A7968104698470123FB774BE2BB69A5
S214004590DB6F002B05D0BB69DB6FFA8A79681046A3
S2140045A098470123FB773EE2BB69D3F88030002BA7
S2140045B006D0BB69D3F88030FA8A796810469847E7
S2140045C00123FB772FE2BB69D3F88430002B06D09B
S2140045D0BB69D3F88430FA8A796810469847012375
S2140045E0FB7720E2BB69D3F88830002B06D0BB6986
S2140045F0D3F88830FA8A7968104698470123FB7703
S21400460011E2BB69D3F88C30002B06D0BB69D3F817
S2140046108C30FA8A7968104698470123FB7702E2C5
S214004620BB69D3F89030002B06D0BB69D3F8903026
S214004630FA8A7968104698470123FB77F3E1BB694D
S214004640D3F89430002B06D0BB69D3F89430FA8A9E
S2140046507968104698470123FB77E4E1BB691B6A3B
S214004660002B00F09B81BB691B6A7868984795E130
S214004670BB695B6A002B00F09381BB695B6A786854
S21400468098478DE1BB699B6A002B00F08B81BB6964
S2140046909B6A7868984785E1BB69D3F8CC30002BD5
S2140046A000F08281BB69D3F8CC30786898477BE10C
S2140046B0BB69DB6A002B00F07981BB69DB6A78682E
S2140046C0984773E1BB691B6B002B00F07181BB69D7
S2140046D01B6BFA8A79681046984769E1BB699B6B41
S2140046E0002B00F06781BB699B6B7868984761E197
S2140046F0BB695B6B002B00F05F81BB695B6BFA8A62
S21400470079681046984757E1BB69D3F8AC30002B60
S21400471000F05481BB69D3F8AC30786898474DE117
S214004720BB69DB6B002B00F04B81BB69DB6BFA8A45
S21400473079681046984743E1BB691B6C002B00F074
S2140047404181BB691B6CFA8A79681046984739E143
S214004750BB695B6C002B00F03781BB695B6CFA8A27
S2140047607968104698472FE1BB699B6C002B00F0D8
S2140047702D81BB699B6CFA8A79681046984725E1BB
S214004780BB69DB6C002B00F02381BB69DB6CFA8A0B
S2140047907968104698471BE1BB691B6D002B00F03B
S2140047A01981BB691B6D7989F88A7A68984711E187
S2140047B0BB695B6D002B00F00F81BB695B6D79896F
S2140047C0FA8A1046984707E1BB699B6D002B00F0FC
S2140047D00581BB699B6D7A89796810469847FDE02C
S2140047E0BB699B6E002B03D0BB699B6E78689847AD
S2140047F00123FB7717E1BB69DB68002B00F0F08034
S214004800BB69DB6878689847EAE0BB69DB6D002B1C
S21400481000F0E880BB69DB6D7A89796810469847B6
S214004820E0E0BB691B6E002B00F0DE80BB691B6EF0
S2140048307A89796810469847D6E0BB695B6E002B8C
S21400484000F0D480BB695B6E7A8979681046984719
S214004850CCE0BB69D3F89830002B00F0C980BB6968
S214004860D3F8983078689847C2E0BB69D3F89C3094
S214004870002B00F0BF80BB69D3F89C30786898475F
S214004880B8E0BB69D3F8B030002B00F0B580BB6948
S214004890D3F8B03078689847AEE0BB69D3F8A43058
S2140048A0002B00F0AB80BB69D3F8A430786898473B
S2140048B0A4E0BB69D3F8A830002B00F0A180BB6948
S2140048C0D3F8A830786898479AE0BB69D3F8B43034
S2140048D0002B00F09780BB69D3F8B430786898470F
S2140048E090E0BB69D3F8B830002B00F08D80BB6930
S2140048F0D3F8B8307868984786E0BB69D3F8BC3000
S214004900002B00F08380BB69D3F8BC30FA8A1146CE
S214004910786898477AE0BB69D3F8C030002B77D028
S214004920BB69D3F8C0307868984771E0BB69D3F8A4
S214004930C430002B6ED0BB69D3F8C4307868984773
S21400494068E0BB691B69002B66D0BB691B69FA8AE5
S2140049501146786898475FE0BB695B69002B5DD0BD
S214004960BB695B697868984758E07868FDF7D4FFBC
S214004970BB699B69002B53D0BB699B6978689847D5
S2140049804EE0BB69DB69002B4CD0BB69DB69FA8A59
S21400499011467868984745E000BF44E000BF42E013
S2140049A000BF40E000BF3EE000BF3CE000BF3AE092
S2140049B000BF38E000BF36E000BF34E000BF32E0A2
S2140049C000BF30E000BF2EE000BF2CE000BF2AE0B2
S2140049D000BF28E000BF26E000BF24E000BF22E0C2
S2140049E000BF20E000BF1EE000BF1CE000BF1AE0D2
S2140049F000BF18E000BF16E000BF14E000BF12E0E2
S214004A0000BF10E000BF0EE000BF0CE000BF0AE0F1
S214004A1000BF08E000BF06E000BF04E000BF02E001
S214004A2000BF00E000BFFB7F002B4CD00023BB770D
S214004A307B683B610023BB7742E0BA7F1346DB000E
S214004A4013445B003833FA6813440233062239698C
S214004A5018460EF07DFE0346002B2ED1BA7FF9686D
S214004A601346DB0013445B000B4447331B78002BD4
S214004A7023D07B89B3F5A85F0BD0BA7FF9681346BD
S214004A80DB0013445B000B4448331B887A899A4248
S214004A9013D1BA7FF9681346DB0013445B000B445E
S214004AA0473300221A70BA7FF9681346DB001344B6
S214004AB05B000B44483300221A80BB7F0133BB7770
S214004AC0BB7F042BB9D900BF2037BD4680BD000090
S214004AD080B584B000AF78600023FB737B68002B42
S214004AE002D16FF001034AE07B6800221A707B68EF
S214004AF000225A607B680833184601F0CDFD224B31
S214004B001B680833184601F0C7FD1F4B1B68183397
S214004B100021184601F0EFFD0346FB7397F90F30AE
S214004B20002B02D06FF0270329E0174B1B681833C1
S214004B30184601F05FFE7B6800221A737B6810330C
S214004B400021184601F0D7FD0346FB7397F90F3096
S214004B50002B02D06FF0270311E00B4B1B681433B9
S214004B600021184601F0C7FD0346FB7397F90F3086
S214004B70002B02D06FF0270301E097F90F3018469C
S214004B801037BD4680BD00BF3418002080B588B001
S214004B9000AF03463960FB710023FB830023BB6133
S214004BA08A4B1B68DB687B613B6804333B611022E1
S214004BB0002138690EF0FFFDFB79772B00F0D580D9
S214004BC0772B11DC1B2B00F0CA801B2B05DC102B6F
S214004BD01DD0152B00F0E18020E11C2B00F0D480C6
S214004BE0262B00F0BF8019E1C82B00F0CA80C82B26
S214004BF006DC922B00F0BC80A42B00F0CB800DE1ED
S214004C00E92B00F0B880F22B00F0B88006E13B6894
S214004C101433BB60BB6804330521184601F03AFF25
S214004C20BB6808336A49184601F034FFBB680C338A
S214004C304FF00041184601F02DFFBB681033654960
S214004C40184601F027FFBB6818336349184601F081
S214004C5021FFBB6824330021184601F01BFFBB6808
S214004C60184601F043FF03461B0C9BB20D2B11D0D8
S214004C70BB68184601F03AFF03461B0C9BB2052B97
S214004C8008D0BB68184601F031FF03461B0C9BB2E8
S214004C90092B61D1BB68DB7B63F07F03DAB2BB68AC
S214004CA0DA73BB68DB7C63F07F03DAB2BB68DA7466
S214004CB0BB6814330021184601F0ECFEBB68DB7DB0
S214004CC063F07F03DAB2BB68DA75BB681C3343490E
S214004CD0184601F0DFFEBB68DB7F63F07F03DAB2C5
S214004CE0BB68DA77BB68203340F60401184601F04B
S214004CF0D1FEBB6893F82120BB6883F82120BB68EF
S214004D0093F82120BB6883F82120BB6893F8222003
S214004D10BB6883F82220BB68DB7D43F04003DAB231
S214004D20BB68DA75BB681A7DBB681A75BB689B7F63
S214004D3043F01E03DAB2BB689A77BB68DA7FBB68BB
S214004D40DA77BB68DB7F43F04003DAB2BB68DA771A
S214004D50BB68DA7FBB68DA772823FB835EE0032331
S214004D60FB835BE00823FB8358E00123FB8355E0CD
S214004D700823FB8352E01C23FB834FE01C23FB83AA
S214004D804CE00C23FB8349E0104B1B68DB680022D9
S214004D901A7043E00123FB8340E03B681433FB605A
S214004DA0FB681B78002B2DD07B6993F820300A2BEC
S214004DB003D1FB6802225A7015E07B6993F8203015
S214004DC0082B0DD1FB6801225A700CE02C1800202D
S214004DD0040520800A00300000080040503A000811
S214004DE0FB6801225A70FB6800229A70FB68322228
S214004DF09A80FB6800229A71254B1B68B3F8BE2088
S214004E00FB681A81FB685B78022B04D1214B1B6878
S214004E10DB6800221A700A23FB8300BFFB8BC3F3F8
S214004E200B039BB21946386901F01EFE3B6901333D
S214004E301A783B69013342F04002D2B21A703B69DD
S214004E400233FA791A70FB79152B05D0FB79102BF3
S214004E5002D0FB791C2B0BD10E4B1B682433184653
S214004E6001F078FD0B4B1B687033184601F072FD9D
S214004E70084B1B6810333968184601F029FD0120DD
S214004E8001F07CF8BB6918462037BD4680BD00BFE0
S214004E90905A00202C18002080B58AB000AF7860A9
S214004EA000237B627B680433FB61002387F8233092
S214004EB0AD4B1B68DB68BB61AB4B1B681B6A7B6139
S214004EC07B689B79FB74FB690C33184601F0F8FD90
S214004ED003467B627B681433FB60F86901F0F0FDE3
S214004EE00346C3F30B037B81786AFCF72FFBFB7C3E
S214004EF0262B00F0AA80262B0DDC152B79D0152B3F
S214004F0002DC102B57D08FE11B2B00F096801C2B59
S214004F1000F0AB8088E1B02B00F04B81B02B05DCB5
S214004F20492B00F00481892B07D07DE1C82B00F0C7
S214004F309480F22B00F0208176E17B6A002B40F013
S214004F406681BB6901221A70FB690F331B7803F078
S214004F500403002B13D07B6908225A70834B1B680E
S214004F60D3F8A430002B00F05281804B1B68D3F896
S214004F70A4307A6A92B204211046984747E1FB694A
S214004F800F331B7803F00203002B00F040817B698F
S214004F900A225A70754B1B68D3F8A430002B00F019
S214004FA03681724B1B68D3F8A4307A6A92B202211B
S214004FB0104698472BE1FB690C33184601F080FD3C
S214004FC003467B627B6A002B40F023817B690122CB
S214004FD01A70BB6902221A70634B1B68243318468A
S214004FE001F0CCFC604B1B687033184601F0C6FC21
S214004FF00FE1FB690C33184601F062FD03467B6245
S2140050007B6A002B40F00781BB6993F82C30002B9D
S21400501003D0BB69012283F82D20534B1B68243331
S214005020184601F0ABFC504B1B687033184601F075
S214005030A5FCBB6900229A62EDE0FB690C331846BA
S21400504001F03EFD03467B62EEE0FB690C3318463A
S21400505001F036FD03467B62E6E0FB690C3318463A
S21400506001F02EFD03467B62DEE0FB690C3318463A
S21400507001F026FD03467B62BB6901221A707B693C
S21400508000221A70002387F8233012E0384B196884
S21400509097F8232013461B019B1A9B000B443C22C7
S2140050A0002118460EF087FB97F82330013387F867
S2140050B02330304B1B681B7B97F823209A42E5D39E
S2140050C0FB690F331B7803F00403002B13D07B69B6
S2140050D008225A70254B1B68D3F8A430002B00F02A
S2140050E09C80224B1B68D3F8A4307A6A92B20421C3
S2140050F01046984791E0FB690F331B7803F00203D4
S214005100002B00F08A807B690A225A70174B1B68B6
S214005110D3F8A430002B00F08080144B1B68D3F823
S214005120A4307A6A92B202211046984775E07B6AEC
S214005130002B74D1BB695B6B002B70D0BB699B6B7B
S214005140002B6CD0BB699A6B7B89934228BF1346B1
S2140051503B81BB695B6B3A89F96818460EF007FB22
S214005160BB6900225A635AE02C180020905A00208F
S214005170845A0020985A00207B6A002B51D1BB69C4
S2140051805B6B002B4DD0BB699B6B002B49D0BB697A
S2140051909A6B7B89934228BF13463B81BB695B6B46
S2140051A03A89F96818460EF0E2FABB6900225A639B
S2140051B037E0FB690C33184601F082FC03467B623D
S2140051C0F86901F07DFC0346C3F30B037B817B6823
S2140051D01433FB607B6A002B25D1BB695B6B002B0D
S2140051E021D0BB699B6B002B1DD0BB699A6B7B895A
S2140051F0934228BF13463B81BB695B6B3A89F968CB
S21400520018460EF0B4FABB6900225A630BE000BFE2
S2140052100AE000BF08E000BF06E000BF04E000BFF1
S21400522002E000BF00E000BFFB7C892B39D0FB7C8E
S214005230772B1AD1BB6993F83C30002B06D01B4B5A
S2140052401B681433184601F0D5FA2AE0184B1B6881
S2140052501B69002B02D17B6A002B22D0134B1B68E4
S2140052601433184601F0C6FA1BE0FB7C152B12D14E
S2140052700E4B1B6893F85030DBB2152B11D10B4B3D
S2140052801B68002283F85020084B1B68143318460E
S21400529001F0B0FA05E0054B1B681433184601F020
S2140052A0A9FA002318462837BD4680BD34180020CA
S2140052B0905A002080B586B000AF0346FB710023ED
S2140052C0FB75354B1B68DB683B61334B1B681B6A01
S2140052D0FB60FB79DD2B0BD0DE2B02D0CD2B0ED066
S2140052E056E03B6901229A62012000F047FE4FE03B
S2140052F03B6903229A62012000F07CFE48E03B698D
S21400530001221A70FB6800221A700023FB751DE04C
S214005310224B1968FA7D13461B019B1A9B000B440F
S2140053203C22002118460EF046FA1D4B1968FA7DFD
S21400533013469B0013449B010B444FF4A0720021BC
S21400534018460EF038FAFB7D0133FB75154B1B68CB
S2140053501B7BFA7D9A42DBD3134B1B68002283F833
S214005360BC20114B1B680022DA60FB6800221A730F
S2140053703B6900221A7300F019F83B6920331022AB
S214005380002118460EF017FA012000F033FE00BF89
S21400539000BF1837BD4680BD2C180020845A002058
S2140053A0805A0020985A0020905A002080B500AFFE
S2140053B00420FBF788FD00BF80BD80B500AF00224B
S2140053C000210320FBF7FEFC0120FBF730FD002246
S2140053D001210420FBF7F6FC0420FBF774FD00BF58
S2140053E080BD80B582B000AF7860002004F0ACFECF
S2140053F000BF0837BD4680BD80B582B000AF78607C
S21400540039603968786801F085F90346002B06D0C4
S2140054106FF01D00FCF79AF86FF01D0300E0002304
S21400542018460837BD4680BD80B584B000AF034639
S2140054300A46FB711346BB710023FB60FB79012B08
S21400544019D0022B2DD0002B56D1BB79012B08D1B9
S214005450304B1B6818334EF660211846FFF7CCFF1A
S2140054604EE0BB79002B4BD12A4B1B6818331846ED
S21400547001F0C0F944E0BB79012B08D1254B1B682D
S2140054801C334EF66021184604F066FF3AE0BB79FE
S214005490002B37D11F4B1B681C33184601F0AAF9A6
S2140054A030E0BB79012B12D11A4B1B6893F82820E9
S2140054B0184B1B6842F00202D2B283F82820154B24
S2140054C01B6820331449184600F0F2FD1CE0BB7937
S2140054D0002B19D10F4B1B6893F828200D4B1B6827
S2140054E022F00202D2B283F828200A4B1B6820332F
S2140054F0184601F07FF907E06FF00103FB6004E057
S21400550000BF02E000BF00E000BFFB68184610378F
S214005510BD4680BD34180020C027090080B500AF06
S214005520002201210120FBF74DFC0120FBF7CBFCFC
S2140055306420FBF7CAFF0120FBF779FC002318461E
S21400554080BD000080B582B000AF0023FB80002342
S214005550BB803B1D1946D12000F0FAF80346FB80BD
S214005560B7F90630002B02DAB7F9063028E0BB8818
S21400557003F47F43B3F52B4F20D1BB88DBB2F12B6E
S21400558002D16FF008031BE0BB88DBB2F22B02D11E
S2140055906FF0090314E0BB88DBB2102B04D10A4B72
S2140055A01B6801221A6007E0BB88DBB2112B03D10F
S2140055B0054B1B6802221A60002301E06FF00B0304
S2140055C018460837BD4680BD3418002080B586B022
S2140055D000AF0346FB710023BB820023FB8200233F
S2140055E07B8207F114031A4602215648FCF746FE52
S2140055F00346FB82B7F91630002B02DAB7F91630ED
S2140056009CE0FB79422B07D1FB791AB24E4B134331
S2140056101BB29BB2BB8206E0FB791AB24B4B13431C
S2140056201BB29BB2BB8207F114031946D22000F0CE
S2140056308FF80346FB82B7F91630002B02DAB7F96B
S21400564016307BE007F10C034FF49671184601F014
S214005650E6F929E007F112031946D12000F078F8A0
S2140056600346FB82B7F91630002B02DAB7F916307C
S21400567064E0FB79422B05D17B8A4AF632329342AC
S21400568007D119E07B8A1A46FB7943F42B439A42EA
S21400569011D007F10C03184601F0D1F90346002B90
S2140056A002D06FF01B0349E0FB79312B04D0FB7965
S2140056B0712BCFD100E000BFFB79312B02D0FB79F4
S2140056C0712B39D107F10C0340F6B831184601F0BA
S2140056D0A6F907F112031946D12000F039F803465F
S2140056E0FB82B7F91630002B02DAB7F9163025E040
S2140056F07B8A03F47043B3F5204F11D17B8ADBB26B
S214005700232B02D16FF00D0318E07B8ADBB2F32B5C
S21400571002D16FF00E0311E07B8ADBB2AA2B0AD00F
S21400572007F10C03184601F08AF90346002BD0D087
S2140057306FF01B0302E000BFB7F9163018461837A3
S214005740BD4680BD3C00054100A0FFFF00ABFFFF4B
S21400575080B588B000AF03463960FB710023FB8339
S21400576000237B610023BB6100237B8200233B82F6
S214005770FB79D12B11D0D12B08DC422B7AD0712BA0
S21400578000F0C080312B00F0B080C8E0D42B45D0AC
S214005790D52B17D0D22B0DD0C1E007F110031A4637
S2140057A002216448FCF7CEFD0346FB833A8A3B6839
S2140057B01A80B8E03A6802215F48FCF75FFD0346AE
S2140057C0FB83B0E00023BB6117E0BB6903F54043F1
S2140057D05800BB695A003B6813441A460221FCF77E
S2140057E04DFD0346FB83B7F91E30002B02DAB7F9EE
S2140057F01E309AE0BB690133BB61BB69B3F5006F2D
S214005800E3D34AF649337B8207F112031A46022194
S2140058104948FCF733FD0346FB8384E00023BB6165
S21400582017E0BB6903F548435800BB695A003B685C
S21400583013441A460221FCF721FD0346FB83B7F901
S2140058401E30002B02DAB7F91E306EE0BB6901335A
S214005850BB61BB69B3F5006FE3D34AF64F337B8277
S21400586007F112031A4602213348FCF707FD0346E8
S214005870FB8358E04AF642337B6107F114031A466D
S21400588002212D48FCF7FAFC0346FB83B7F91E30CD
S214005890002B02DAB7F91E3047E007F10C034FF48D
S2140058A09671184601F0BBF807F110031A4602215C
S2140058B02048FCF747FD0346FB83B7F91E30002B54
S2140058C002DAB7F91E3030E007F10C03184601F093
