S01100005468726F7567687075742E733337A9
S113000000800120E9010000150200001502000033
S11300101502000015020000150200001502000080
S11300201502000015020000150200001502000070
S11300301502000014020000150200007D120000E9
S11300401502000015020000150200001502000050
S11300501502000015020000150200001502000040
S11300601502000015020000150200001502000030
S1130070C10900001502000015020000150200006D
S11300801502000015020000150200001502000010
S113009015020000810F0000150200001502000087
S11300A015020000090A00001502000015020000F4
S11300B015020000150200001502000015020000E0
S11300C015020000150200001502000015020000D0
S11300D015020000150200001502000015020000C0
S11300E015020000150200001502000015020000B0
S11300F015020000150200001502000015020000A0
S1130100150200001502000015020000150200008F
S1130110150200001502000015020000150200007F
S1130120150200001502000015020000150200006F
S11301301502000010B5054C237833B9044B13B1F4
S1130140044800E000BF0123237010BD7C000020A0
S1130150000000007CE2000008B5034B1BB103491A
S1130160034800E000BF08BD00000000800000203C
S11301707CE20000154B002B08BF134B9D46A3F5F2
S1130180803A00218B460F461348144A121A0CF089
S113019019FC0F4B002B00D098470E4B002B00D0BE
S11301A098470020002104000D000D48002802D0CB
S11301B00C4800E000BF0CF0C7FB2000290000F051
S11301C04FFB0CF0ADFB00BF0000080000800120D5
S11301D000000000000000007C00002054420020C9
S11301E00000000000000000064880470649074A56
S11301F0074B9A42BEBF51F8040B42F8040BF8E7D0
S1130200FFF7B8FF1902000088E200000000002098
S11302107C000020FEE700BF80B400AF074B084A13
S11302209A60064BD3F88830044A43F47003C2F84A
S1130230883000BFBD465DF8047B704700ED00E0E8
S11302400000000080B400AF034B1B681846BD4695
S11302505DF8047B704700BF0800002080B582B0C1
S113026000AF00237B600E4B1B6F03F00703022BD0
S113027004D0032B06D0012B08D00AE0FFF7E2FFDD
S1130280786007E0074B1B687B6003E0064B7B60EC
S113029000E0FEE77B6818460837BD4680BD00BF16
S11302A00080004000000020002D310180B582B0A4
S11302B000AFFFF7D3FF7860094B1B6F1B0B03F0F4
S11302C003033B603B6801337A68B2FBF3F37B6062
S11302D0044A7B6813607B6818460837BD4680BDB6
S11302E0008000400C00002080B400AF024B184690
S11302F0BD465DF8047B704700B4C40480B400AF0D
S1130300034B1B681846BD465DF8047B704700BF6D
S11303100000002080B400AF00231846BD465DF8FD
S1130320047B704780B400AF024B1846BD465DF8AD
S1130330047B7047002D310180B483B000AF0023EB
S11303407B602C4B9B681B0C03F01F030C2B48D8C1
S113035001A252F823F000BF8D030000E303000064
S1130360E3030000E3030000E3030000E3030000F1
S1130370BF030000C5030000CB030000E30300003B
S1130380D1030000D7030000DD030000194B9B6874
S113039003F04073B3F1807F07D0B3F1007F07D03F
S11303A0002B08D1144B7B6008E0144B7B6005E004
S11303B0134B7B6002E000237B6000BF12E0114B13
S11303C07B600FE0104B7B600CE0104B7B6009E01E
S11303D00F4B7B6006E00F4B7B6003E00E4B7B60B2
S11303E000E000BF7B6818460C37BD465DF8047B0F
S11303F0704700BF0040014A00093D0080841E0090
S113040040420F00405DC6000024F400C0EA210110
S113041080BA8C010048E801005A620280B400AF3F
S11304204FF400431846BD465DF8047B704780B422
S113043000AF4FF47A731846BD465DF8047B7047ED
S113044080B400AF034B1B681846BD465DF8047BBF
S1130450704700BF0400002080B584B000AF78600E
S1130460396000F019FF02462E4B1A603B68002BDE
S11304700DD12D4B1A687B6813442B4A13602A4B09
S11304801B68FB60294B1B68294A13600CE0294B4D
S11304901A687B681344274A1360264B1B68FB6069
S11304A0254B1B68224A13601E4B1A68204B1B689D
S11304B0D31A47F22F52934230D9FB6807EE903A91
S11304C0F8EE676A174B1A68194B1B68D31A07EEC4
S11304D0903AB8EE677AC6EE877AB2EE007A67EEA3
S11304E0877AC7ED027A97ED027ADFED146AC7EED8
S11304F0267AC7ED027A3B68002B07D1094B1B68AB
S11305000A4A1360084B00221A6007E0054B1B6877
S1130510094A1360074B00221A6000BF00BF10375E
S1130520BD4680BDA80000209C000020A000002043
S1130530AC000020F0000020A400002000007A4459
S113054080B5ADF5B86D04AF0023C7F8A835012315
S113055087F87B35002387F87A35092387F8A73590
S11305600023A7F8AE350021002000F0B9FFC7F83A
S1130570A805D7F8A835002B07D0D7F8A8159D48AB
S11305800CF028FAD7F8A8352EE19B480CF022FA93
S113059001F07AF8C7F8A805D7F8A835002B07D0DA
S11305A0D7F8A81595480CF015FAD7F8A8351BE12B
S11305B093480CF00FFA934902200AF01FFD0AF049
S11305C0D1FCC7F8A805D7F8A835002B02D0D7F876
S11305D0A83509E10023002200218B4809F00AFF15
S11305E0C7F8A805D7F8A835002B07D0D7F8A81561
S11305F086480CF0EFF9D7F8A835F5E084480CF0FC
S1130600E9F9844A022180480AF084F8C7F8A80569
S1130610D7F8A835002B07D0D7F8A8157E480CF0DA
S1130620D9F9D7F8A835DFE07C480CF0D3F997F86E
S1130630A7150023039314230293794B01930023FA
S113064000930023002204200AF0ACFBC7F8A8059D
S1130650D7F8A835002B07D0D7F8A81571480CF0A7
S1130660B9F9D7F8A835BFE06F480CF0B3F9002307
S1130670A7F8AE350BE0B7F8AE35B7F8AE2551B2F2
S11306803A46D154B7F8AE350133A7F8AE35B7F8CA
S1130690AE35B3F5AF6FEED364480CF09BF900228E
S11306A00121022007F0AAF8C7F8A005D7F8A03561
S11306B0002B0BDA0AF048FCC7F8A805D7F8A815F0
S11306C05B480CF087F9D7F8A8358DE059480CF051
S11306D081F907F5B0631022002118460CF072F975
S11306E00223A7F8803541F28933A7F8823507F54C
S11306F0B06310221946D7F8A00507F0B9F8C7F877
S1130700A805D7F8A835002B10D00AF01DFCC7F8AF
S1130710A8050021D7F8A00507F066FAD7F8A815B0
S113072045480CF057F9D7F8A8355DE043480CF07C
S113073051F907F5B2631022002118460CF042F972
S11307400223A7F8903541F28933A7F892353C4B40
S1130750C7F8943507F5B26310221946D7F8A005F7
S113076007F096F8C7F8A805D7F8A835002B10D0DD
S11307700AF0EAFBC7F8A8050021D7F8A00507F09E
S113078033FAD7F8A8152F480CF024F9D7F8A83570
S11307902AE02D480CF01EF92C480CF01BF93946C0
S11307A000234FF4AF62D7F8A00507F099F8C7F813
S11307B0A805D7F8A835002B10DA0AF0C5FBC7F84E
S11307C0A8050021D7F8A00507F00EFAD7F8A81558
S11307D01F480CF0FFF8D7F8A83505E000214FF4C6
S11307E0AF60FFF739FEDAE7184607F5B667BD468E
S11307F080BD00BF50D9000088D90000ACD90000EA
S1130800E0D90000C908000000DA000010DA000096
S11308103CDA000058DA000064DA000094DA0000E0
S1130820D4000020B0DA0000D8DA0000F0DA0000CA
S113083000DB00002CDB000048DB00006CDB000068
S1130840C0A82B7580DB0000B8DB0000E0DB0000F3
S1130850F4DB000080B500AF00F06CFFFCE70000A3
S113086080B582B000AF43F69821144800F040FDF3
S113087078607B68002B04DB7B6843F69822934204
S113088001DD7B6815E0312000F070FF78607B6843
S1130890002B05D079680A480CF09CF87B6808E0C6
S11308A008480CF097F8FFF74BFE7860FFF7D2FF8B
S11308B07B6818460837BD4680BD00BFF80000209D
S11308C030DC000064DC000080B584B000AF034677
S11308D0B9607A60FB81064B01221A7000F0DCFCDF
S11308E00246044B1A6000BF1037BD4680BD00BFEE
S11308F098000020EC00002080B483B000AF0346D1
S1130900FB7197F90730002B0BDBFB7903F01F0217
S1130910074997F907305B09012000FA02F241F810
S1130920232000BF0C37BD465DF8047B704700BF31
S113093000E100E080B483B000AF0346FB7197F997
S11309400730002B10DBFB7903F01F02094997F9EC
S113095007305B09012000FA02F2203341F823201A
S1130960BFF34F8FBFF36F8F00BF0C37BD465DF8E9
S1130970047B704700E100E080B483B000AF78608E
S1130980054B03F5105320337A681A6000BF0C3707
S1130990BD465DF8047B704700C0034080B483B05B
S11309A000AF786039607B6803F5015308333A6817
S11309B01A6000BF0C37BD465DF8047B7047000029
S11309C080B500AF0C4B586A0C4B1B685A1C0B4982
S11309D00A60C1B20A4AD154084B1B68092B05D8D6
S11309E0064B1B68074AD25C034BDA6301210248B9
S11309F0FFF7D4FF00BF80BD00800540AC3B002062
S1130A00903B0020A03B002080B500AF064B1B6844
S1130A10002B02D0044B1B6898474AF6AA20FFF724
S1130A20ABFF00BF80BD00BF9C3B002080B483B0FF
S1130A3000AF7860044A7B68136000BF0C37BD4682
S1130A405DF8047B704700BF9C3B002080B500AF7D
S1130A501920FFF76FFF00BF80BD80B500AF1920DC
S1130A60FFF74AFF00BF80BD80B483B000AF786059
S1130A7039607B681A683B6822FA03F303F00103C8
S1130A8018460C37BD465DF8047B704780B582B0CC
S1130A9000AF03463960FB71FB79002B07D0FB796B
S1130AA0012B04D0FB79022B01D0FB79032BFA79BB
S1130AB013465B0013441B01143303F1804303F515
S1130AC0703339681846FFF7CFFF034618460837D6
S1130AD0BD4680BD80B483B000AF03463960FB716E
S1130AE0FB79002B07D0FB79012B04D0FB79022B77
S1130AF001D0FB79032B01223B6802FA03F3094975
S1130B00FA79184613465B0013441B010B4403F5A2
S1130B1000531033186000BF0C37BD465DF8047BEA
S1130B20704700BF00C0034080B483B000AF0346E9
S1130B300A46FB711346BB7100BF0C37BD465DF816
S1130B40047B704780B582B000AF0346FB710B464F
S1130B50BB7113467B7101211520FFF7E5FF0023CC
S1130B600422002101200BF06FFB002101200BF077
S1130B70F1FB03467B7100230122032103200BF0C8
S1130B8063FB032103200BF0E5FB03467B71012388
S1130B900422022103200BF057FB022103200BF057
S1130BA0D9FB03467B7100BF0837BD4680BD80B5C5
S1130BB082B000AF0346FB71FB79042B05D10123FE
S1130BC00422002101200BF03FFBFB79032B05D10C
S1130BD001230122032103200BF036FBFB79012BB7
S1130BE006D101230722022103200BF02DFB00BFB5
S1130BF000BF0837BD4680BD80B584B000AF034652
S1130C00FB710023FB73FB79042B05D10221032024
S1130C10FFF73CFF0346FB73FB79032B05D103214C
S1130C200320FFF733FF0346FB73FB79022B05D147
S1130C3001210120FFF72AFF0346FB73FB7B1846C3
S1130C401037BD4680BD80B582B000AF0346FB714E
S1130C50FB79042B03D102210320FFF73BFFFB792F
S1130C60032B03D103210320FFF734FFFB79012B6E
S1130C7004D100210120FFF72DFF00BF00BF08377A
S1130C80BD4680BD80B483B000AF03463960FB71BC
S1130C9097F90730002B0ADB3B68DAB20C4997F965
S1130CA007301201D2B20B4483F800230AE03B68F8
S1130CB0DAB20849FB7903F00F03043B1201D2B204
S1130CC00B441A7600BF0C37BD465DF8047B7047B1
S1130CD000E100E000ED00E080B582B000AF786094
S1130CE07B68013BB3F1807F01D301230FE00A4A03
S1130CF07B68013B53600F214FF0FF30FFF7C2FFC9
S1130D00054B00229A60044B07221A600023184600
S1130D100837BD4680BD00BF10E000E080B483B05A
S1130D2000AF78604FF06043D3F8803E03F00103D6
S1130D30002B13D04FF06043D3F8003E03F00103BF
S1130D40002B0BD000E000BF4FF060431B68002B6A
S1130D50F9D04FF060437A68D2B21A707B681846B3
S1130D600C37BD465DF8047B704780B483B000AF98
S1130D7003460A46FB711346BB7100BF0C37BD46E0
S1130D805DF8047B7047000080B584B000AF3B1D64
S1130D9018460BF067FC224B9B6D03F48033002B49
S1130DA019D1204B1B6823F4FF0323F4FE431D4A8F
S1130DB043F4BC1343F4A06313601B4B1B6823F47C
S1130DC07043194A43F440431360174B1B68164A97
S1130DD043F4E06313607B79012B14D13B79002B3E
S1130DE011D14FF00053FB600023BB6008E0FB68A7
S1130DF01B68FB6803F58043FB60BB680133BB6081
S1130E00BB68052BF3D9094BD3F88030074A43F06C
S1130E100303C2F8803000BF1037BD4680BD00BF59
S1130E2000C0004034C0004030C00040008000409A
S1130E3080B483B000AF7860054B03F501531033E1
S1130E407A681A6000BF0C37BD465DF8047B7047B2
S1130E500000044080B400AF034B1B6D1846BD4630
S1130E605DF8047B704700BF0000044080B582B089
S1130E7000AF0346FB71FB791846FFF74FFF0346AB
S1130E8018460837BD4680BD80B400AF002318461D
S1130E90BD465DF8047B704780B500AF0121152085
S1130EA0FFF763FF00230122012102200BF0CCF99C
S1130EB000230422002102200BF0C6F9002304229F
S1130EC0022102200BF0C0F9012304220321022095
S1130ED00BF0BAF900BF80BDB0B586B000AF0121F8
S1130EE02120FFF742FF184B3C461D460FCD0FC48F
S1130EF095E8030084E803000123BB7301237B7599
S1130F000423FB750423BB75104BBB60104B114AC3
S1130F10C3F8BC250E4B0222C3F8C4250C4B4FF07A
S1130F200212C3F8C0250A4B0B4AC3F8B025084B7C
S1130F301D22C3F8AC253B46194608480BF008FCB3
S1130F4000BF1837BD46B0BDECDD0000101B7F00AC
S1130F5000C00340020001000200030000800540BD
S1130F6080B582B000AF054B1B687B603B1D184603
S1130F700BF0AAFA00BF0837BD4680BD04DE0000AE
S1130F8080B582B000AFFFF765FF78607B6803F03F
S1130F900203002B02D00220FFF74AFF7B6803F014
S1130FA00103002B05D00120FFF742FF054B01226E
S1130FB01A707B68002B00DA00BE00BF0837BD46FC
S1130FC080BD00BFB03B002080B582B000AF2B4B8A
S1130FD05B682A4A23F470435360284B5B68274AB2
S1130FE043F480435360254BD3F84434234A43F0FD
S1130FF00103C2F8443405210C200AF0A7FB0C209D
S11310000AF096F902461E4BA3FB0223DB0C013BBC
S11310107B601C4B1B681B4A43F001031360194B94
S1131020DB68184A43F08073D360174B40F2FF32F9
S11310301A60164A7B681361144B0222C3F8F0202D
S1131040124B4FF48072C3F804234FF06043104AEC
S1131050C3F8B02F4FF060430E4AC3F8802E4FF010
S11310606043D3F8003E4FF0604243F00103C2F8FE
S1131070003E00BF0837BD4680BD00BF00C003402E
S1131080DD40699BF0ED00E0001000E0000004E0AA
S113109055CEACC50900010080B582B002AFFFF7A0
S11310A073FEFFF791FFFFF7F7FEFFF715FFFFF75A
S11310B057FF0F200AF03CF902460D4BA3FB022315
S11310C09B091846FFF708FE002301220121012095
S11310D00BF0BAF8012301930023009301230122AA
S11310E0012101200BF050F800BFBD4680BD00BFB8
S11310F0D34D621080B584B000AFF860B96011467A
S11311001A460B46FB8013467B71FB68002B02D109
S11311103C4BFB6004E0BB68002B01D1394BBB6046
S1131120FB88013B9BB2C3F30A0398B2F968364BC0
S11311301A460023136053609360D360324A1388C5
S113114060F30E131380304A937843F010039370C6
S11311502D4AD37843F03003D3702B4B59602A4B7C
S11311602A4A9A602A4B1A460023136053609360FC
S1131170D360274B274A1A60FB88013B9BB2C3F319
S11311800A0398B2B968244B1A46002313605360CB
S11311909360D360204A138860F30E1313801E4AB1
S11311A0937843F0100393701B4AD37843F00303FE
S11311B0D370194B194A5A60174B9960184B1A4649
S11311C00023136053609360D360154B4FF4802267
S11311D01A60144B00221A700F4A114900200BF0B8
S11311E0AFF9094A0A4901200BF0AAF900BF0D4BD7
S11311F01B78DBB2002BFAD0002318461037BD460B
S113120080BD00BFF43B0020B43B00203C8005407F
S1131210E43B002002000400C43B0020248005407D
S1131220D43B0020B03B002080B483B000AF3B60CF
S11312300346FB710B46BB7113467B7100231846B2
S11312400C37BD465DF8047B704780B584B000AFB1
S113125078607B68002B0CD000F01EF8F86000F07A
S11312601BF80246FB68D31A7A689A42F7D800BF83
S113127000E000BF1037BD4680BD000080B400AF61
S1131280044B1B680133034A136000BFBD465DF87D
S1131290047B7047B000002080B400AF034B1B6890
S11312A01846BD465DF8047B704700BFB0000020BF
S11312B080B400AF044B1B68DB685B681846BD460E
S11312C05DF8047B704700BFB400002080B483B095
S11312D000AF7860054B1B68DB687A685A6000BF12
S11312E00C37BD465DF8047B704700BFB400002096
S11312F080B586B002AF786039600023FB600023BC
S1131300BB607B6803F00303002B0BD07B6803F006
S113131003023B681344043B3B607B68033323F0C4
S113132003037B603A68002178680BF04BFB00F004
S11313300DFA03461A46BB681344BB603A68BB689F
S11313409A4201D2BB68B3E05B4A7B6813607B6856
S11313503A681A607B6804337B60584A7B68136080
S11313607B686C337B60564A7B6813607B682033F0
S11313707B60544A7B6813607B6844337B60524AC9
S11313807B6813607B68F0337B60504A7B68136032
S11313907B6803F5A0637B604D4A7B6813607B68C0
S11313A0D0337B604B4A7B6813607B68C4337B60BB
S11313B0424B1B687A681A647B680C337B6008F0C4
S11313C097FA3E4B1B6818464FF4C8634FF4CA6241
S11313D0796802F03DFC7B6803F5CA637B603E4A92
S11313E07B6813607B6854337B60344B1B687A687A
S11313F0DA607B6840337B60304B1B68DB681846DF
S113140000F060FE2D4B1B68DB6803F114006423BD
S11314107422796802F01CFC7B6874337B60274B70
S11314201B687A681A627B6838337B60234B1B68BD
S11314301B6A184602F044FF204B1B681B6A03F129
S113144014004FF4C8634FF4CA62796802F000FCD8
S11314507B6803F5CA637B60184B1B6834331846FA
S113146002F0BCFC02F018F8144B1B682433184635
S113147002F036FC114B1B681033184602F030FCA6
S11314807B680D4A12689B1A1A463B68934204D241
S11314907B68094A12689B1A0AE0104B00930123E7
S11314A0012201210020FFF7BFFE01F0ECF9BB6827
S11314B018461037BD4680BDB8000020B400002097
S11314C0404200203C4200203842002034420020A8
S11314D04842002044420020BC0000202D3E000071
S11314E080B588B000AF03460A46FB801346BB8034
S11314F00023FB61614B1B68DB68BB615F4B1B68AE
S11315001B6A7B61BB69BA881A86BB691B8E23F090
S113151001039AB2BB691A8607F108034EF66021EB
S1131520184602F098FC10E0544B1B6834331846FC
S113153002F068FC07F10803184602F09CFC03461D
S1131540002B02D06FF0170394E0BB691B78DBB269
S1131550002BE9D07B695B78DBB2002B3ED07B6942
S11315605B78DBB2092B04D07B695B78DBB20A2B96
S113157016D17B691B78DBB2022B06D9BB691B8EA3
S113158043F001039AB2BB691A867B6900225A7040
S113159000BFFFF78DFEF861FB69002B13D010E04C
S11315A0374B1B6810333749184602F0CFFA03460D
S11315B0002BD4D06FF01D00FFF788FE6FF01D03E1
S11315C058E0FB6956E009F0BFFCF861FB69002BA9
S11315D001D0FB694EE045F65A234BE0BB691B780A
S11315E0DBB2012B02D06FF0020343E001210020A3
S11315F001F080F90346002B3AD1BB691433184635
S113160002F042FB38613B69002B06D10021002027
S113161001F070F96FF003032CE03B6914332822C6
S1131620002118460BF0CEF93B691433FB607B694B
S1131630FA88DA86F868BB881A04FB8813431946CB
S113164002F044FC3969102000F09AFDF8610C4B5B
S11316501B6814334EF66021184601F033F900215B
S1131660002001F047F9FFF723FEF861FB6901E070
S11316706FF0220318462037BD4680BDB400002019
S1131680BC000020400D030080B584B000AF0023EF
S1131690FB60264B1B68DB68BB600121002001F066
S11316A029F90346002B3AD1BB681433184602F0DB
S11316B0EBFA78607B68002B06D10021002001F052
S11316C019F96FF003032CE07B6814333B603B682B
S11316D001221A703B6801225A703B6800229A70FA
S11316E03B680022DA703B6801221A713B680022D1
S11316F09A607968C82000F043FDF8600C4B1B68C1
S113170014334EF66021184601F0DCF80021002065
S113171001F0F0F8FFF7CCFDF860FB6801E06FF032
S1131720220318461037BD4680BD00BFB400002018
S1131730BC00002080B500AF034B1B68343318464F
S113174002F060FB00BF80BDB400002080B483B011
S113175000AF00237B607B6803F5B2537B607B683A
S113176018460C37BD465DF8047B704780B584B0DD
S113177000AF0346FB710023FB60FFF78DFC01F013
S113178033F90346FB60FB68002B01D0FB6853E090
S11317906420FFF75AFD00F017FB0346FB60FB686B
S11317A0002B01D0FB6847E007F108034EF66021E7
S11317B0184602F050FB01F02BF90346FB60FB686E
S11317C0002B05DAFB6813F10C0F01D0FB6833E042
S11317D007F10803184602F04EFB0346002B02D023
S11317E06FF0180328E0FB6813F10C0FE3D0FB79CA
S11317F0312B03D1002000F083FA0CE0FB79712B2C
S113180009D1022000F07CFA0346FB60FB68002B40
S113181001DAFB6810E0FB79184601F03DF9034654
S1131820FB60FB68002B01DAFB6805E00448FFF766
S1131830FDF8FFF712F9FB6818461037BD4680BD66
S1131840092E000090B587B000AF786007F10C0353
S1131850184600F05FF80346FB82B7F91630002BF8
S113186002D0B7F9163020E007F10C030233184612
S113187002F042FB0346043B9CB207F10C031846FA
S113188002F03AFB0346043B9BB21A4621467868B1
S113189000F08EF80346FB82B7F91630002B02D015
S11318A0B7F9163001E0B7F9163018461C37BD46B3
S11318B090BD80B586B000AFF860B9601346FB8078
S11318C0F86800F0E9F80346FB82B7F91630002BFC
S11318D002D0B7F9163019E0FB88002B14D0FB882E
S11318E003339BB223F00303FB80F8880023002218
S11318F0B96800F011F90346FB82B7F91630002BE2
S113190002D0B7F9163001E0B7F916301846183787
S1131910BD4680BD80B584B000AF78605C23FB73A6
S11319200023BB7304237B7300233B73BA7BFB7BD1
S11319301146184600F04CF903467B81B7F90A308A
S1131940002B02D0B7F90A302CE03A7B7B7B11469E
S1131950184600F085F903467B81B7F90A30002B5D
S113196002D0B7F90A301DE00121104800F09AF9BD
S113197003467B81B7F90A30002B02D0B7F90A304D
S113198010E00123042279680020FFF7B3FB03462B
S11319907B81B7F90A30002B02D0B7F90A3001E095
S11319A0B7F90A3018461037BD4680BD20A107009C
S11319B080B588B000AF78600B467B8013463B80CF
S11319C00023BB613B88033323F00303BB615D2326
S11319D0FB750023BB75BB697B75BB691B0A3B7533
S11319E0BA7DFB7D1146184600F0F2F80346FB83EE
S11319F0B7F91E30002B02D0B7F91E3046E03A7D0D
S1131A007B7D1146184600F02BF90346FB83B7F99A
S1131A101E30002B02D0B7F91E3037E001211D48DB
S1131A2000F040F90346FB83B7F91E30002B02D0C7
S1131A30B7F91E302AE07B88002B0FD07A8807F193
S1131A400C0100230020FFF755FB0346FB83B7F985
S1131A501E30002B02D0B7F91E3017E07B68002B34
S1131A6012D0BB699AB27B88D31A9AB201237968DF
S1131A700020FFF73FFB0346FB83B7F91E30002B22
S1131A8002D0B7F91E3001E0B7F91E3018462037EE
S1131A90BD4680BD20A1070080B588B000AF786046
S1131AA07C23FB770023BB7710237B7700233B77D2
S1131AB0BA7FFB7F1146184600F08AF803467B8301
S1131AC0B7F91A30002B02D0B7F91A3020E03A7F68
S1131AD07B7F1146184600F0C3F803467B83B7F9B1
S1131AE01A30002B02D0B7F91A3011E0786807F1E8
S1131AF0080101231022FFF7FDFA03467B83B7F99F
S1131B001A30002B02D0B7F91A3001E0B7F91A30B5
S1131B1018462037BD4680BD80B586B000AFB96099
S1131B207B600346FB811346BB81FA89BB8913445E
S1131B30BB827C23FB740023BB74BB8A7B74BB8A8B
S1131B401B0A9BB23B74BA7CFB7C1146184600F01E
S1131B503FF80346FB82B7F91630002B02D0B7F9E1
S1131B60163031E03A7C7B7C1146184600F078F858
S1131B700346FB82B7F91630002B02D0B7F91630B2
S1131B8022E0FA8901230021B868FFF7B3FA03467B
S1131B90FB82B7F91630002B02D0B7F9163013E0E8
S1131BA0BB89002B0ED0BA89012300217868FFF786
S1131BB0A1FA0346FB82B7F91630002B02D0B7F91D
S1131BC0163001E0B7F9163018461837BD4680BD07
S1131BD080B588B000AF03460A46FB711346BB715B
S1131BE04CF25033BB611D4B1B6800221A64FB7915
S1131BF03B75BB797B75194B1A68136C591C1164BE
S1131C00BA699A4203D24FF6E973FB8320E007F1E5
S1131C100C0107F1140000230222FFF76BFA0346BC
S1131C20FB837B7B582B02D07B7B002B02D10023D0
S1131C30FB830DE07B7B522B03D14FF6FE73FB83BA
S1131C4006E07B7B542BD2D14FF6FF73FB83CEE7A8
S1131C50B7F91E3018462037BD4680BDBC000020B1
S1131C6080B584B000AF03460A46FB711346BB71CE
S1131C70FB793B73BB797B7307F10C0000230222D1
S1131C800021FFF737FA0346FB81B7F90E30002B2A
S1131C9002D0B7F90E3001E0B7F90E30184610370C
S1131CA0BD4680BD80B584B000AF78600B46FB7044
S1131CB0124B1B6800221A64104B1A68136C591CCF
S1131CC011647A689A4203D24FF6FF73FB810FE0E6
S1131CD000237B73FB7807F10D0101220020FFF73D
S1131CE009FA0346FB817B7B552BE5D10023FB815D
S1131CF0B7F90E3018461037BD4680BDBC00002031
S1131D0080B584B000AF786000233B7300237B73FD
S1131D1007F10C031A460221144800F01DF903468A
S1131D20FB81B7F90E30002B1AD17B7B23F0030320
S1131D30DBB27B737A7B7B68DBB21343DBB27B73EE
S1131D4007F10C031A460221084800F0A1F80346E3
S1131D50FB81B7F90E30002B02D0B7F90E3001E049
S1131D60B7F90E3018461037BD4680BD0000054156
S1131D7080B584B000AF78604CF25033BB60114B37
S1131D801B6800225A640F4B1A68536C591C516427
S1131D90BA689A4203D24FF6E973FB810CE0796882
S1131DA0002000F055F90346FB81B7F90E30B3F17A
S1131DB0FF3F00D1E7E700BFB7F90E3018461037F0
S1131DC0BD4680BDBC00002080B584B000AF0023B8
S1131DD07B600023FB810A23BB81184B1B68002214
S1131DE01A64164B1A68136C591C1164BA8993420D
S1131DF003D94FF6E973FB811AE012233B724A239D
S1131E007B725C23BB720023FB72391D07F108004F
S1131E1000230422FFF76EF90346FB81FB79582B5C
S1131E2002D10023FB8103E04FF6FF73FB81D8E767
S1131E30B7F90E3018461037BD4680BDBC000020EF
S1131E4080B582B000AF12233B714A237B715C23BF
S1131E50BB710023FB713946381D00230222FFF7B2
S1131E6049F97B78522B0DD07B78002BF3D139467E
S1131E703B1D981C00230222FFF73CF97B78582B6A
S1131E8002D0E8E700BF00E000BF0837BD4680BDD0
S1131E9080B58AB000AFF8600B467A607B8174230A
S1131EA087F82730002387F826307B8987F8253088
S1131EB07B891B0A9BB287F8243007F11C03F9685D
S1131EC0184602F003F897F8262097F827301146B1
S1131ED01846FFF77DFE03467B84B7F92230002BBA
S1131EE002D0B7F9223032E097F8242097F8253051
S1131EF011461846FFF7B4FE03467B84B7F9223037
S1131F00002B02D0B7F9223021E007F1140107F1C8
S1131F101C0000230422FFF7EDF803467B84B7F985
S1131F202230002B02D0B7F9223010E07A89002346
S1131F3000217868FFF7DEF803467B84B7F9223086
S1131F40002B02D0B7F9223001E0B7F9223018464D
S1131F502837BD4680BD000080B58AB000AFF86068
S1131F600B467A607B81542387F82730002387F857
S1131F7026307B8987F825307B891B0A9BB287F83A
S1131F802430FB68DBB23B77FB681B0ADBB27B7750
S1131F90FB681B0CDBB2BB77FB681B0EDBB2FB7769
S1131FA097F8262097F8273011461846FFF710FEB9
S1131FB003467B84B7F92230002B02D0B7F92230D4
S1131FC03FE097F8242097F8253011461846FFF78C
S1131FD047FE03467B84B7F92230002B02D0B7F9C1
S1131FE022302EE007F1140107F11C000023042223
S1131FF0FFF780F803467B84B7F92230002B02D028
S1132000B7F922301DE000211048FFF74BFE0346CC
S11320107B84B7F92230002B02D0B7F9223010E0CC
S11320207A89002379680020FFF764F803467B84EB
S1132030B7F92230002B02D0B7F9223001E0B7F90A
S1132040223018462837BD4680BD00BF20A10700B6
S113205080B584B000AF03463960FB714123FB7344
S11320600023BB73BA7BFB791343BB73BA7BFB7B43
S113207011461846FFF7ACFD0346BB81B7F90C3097
S1132080002B02D0B7F90C3016E000210C48FFF702
S113209009FE0346BB81B7F90C30002B02D0B7F917
S11320A00C3009E00023012239680020FFF722F8F0
S11320B00346BB81B7F90C3018461037BD4680BDC6
S11320C020A1070080B584B000AF78600023FB73C3
S11320D07B68002B02D16FF001034AE07B68002289
S11320E01A707B6800225A607B680833184601F036
S11320F0EFFC224B1B680833184601F0E9FC1F4B28
S11321001B6818330021184601F011FD0346FB73C8
S113211097F90F30002B02D06FF0270329E0174BFB
S11321201B681833184601F081FD7B6800221A737E
S11321307B6810330021184601F0F9FC0346FB7359
S113214097F90F30002B02D06FF0270311E00B4BEF
S11321501B6814330021184601F0E9FC0346FB73A5
S113216097F90F30002B02D06FF0270301E097F9A5
S11321700F3018461037BD4680BD00BFBC0000209C
S113218080B588B000AF03463960FB710023FB8340
S11321900023BB616F4B1B68DB687B613B680433C6
S11321A03B611022002138690AF00CFCFB79772B83
S11321B04ED0772B0DDC1B2B44D01B2B04DC102BB7
S11321C015D0152B5CD092E01C2B50D0262B3CD084
S11321D08DE0C82B48D0C82B04DC922B3BD0A42B19
S11321E04BD084E0E92B39D0F22B3AD07FE03B6826
S11321F01433BB60BB6804330521184601F066FE46
S1132200BB6808335449184601F060FEBB680C33C0
S11322105249184601F05AFEBB6810334FF440117E
S1132220184601F053FEBB6818334C49184601F0B8
S11322304DFEBB6824330121184601F047FE2823D4
S1132240FB8354E00323FB8351E00823FB834EE02C
S11322500123FB834BE00823FB8348E01C23FB831F
S113226045E01C23FB8342E00C23FB833FE0394B16
S11322701B68DB6800221A7039E00123FB8336E017
S11322803B681433FB60FB681B78002B23D07B690D
S113229093F820300A2B03D1FB6802225A700BE01A
S11322A07B6993F82030082B03D1FB6801225A7014
S11322B002E0FB6801225A70FB6800229A70FB68F6
S11322C032229A80FB6800229A71254B1B68B3F86E
S11322D0BE20FB681A81FB685B78022B04D11D4B7E
S11322E01B68DB6800221A700A23FB8300BFFB8B88
S11322F0C3F30B039BB21946386901F0D1FD3B6966
S113230001331A783B69013342F04002D2B21A70A9
S11323103B690233FA791A70FB79152B05D0FB79E6
S1132320102B02D0FB791C2B05D10A4B1B682433DC
S1132330184601F02BFD074B1B681033396818460B
S113234001F0E2FC012001F041F8BB691846203796
S1132350BD4680BDB400002004040080100000804D
S11323604442002080B58AB000AF786000237B62CD
S11323707B680433FB61002387F82330A74B1B6879
S1132380DB68BB61A54B1B681B6A7B617B689B791F
S1132390FB74FB690C33184601F0AEFD03467B6207
S11323A07B681433FB60F86901F0A6FD0346C3F3B0
S11323B00B037B81786AFEF789FFFB7C262B00F0F8
S11323C09E80262B0DDC152B73D0152B02DC102BD5
S11323D057D083E11B2B00F08A801C2B00F09F80D8
S11323E07CE1B02B00F03F81B02B05DC492B00F0E1
S11323F0F880892B07D071E1C82B00F08880F22B7C
S113240000F014816AE17B6A002B40F05A81BB69B9
S113241001221A70FB690F331B7803F00403002BAD
S113242013D07B6908225A707D4B1B68D3F8A43003
S1132430002B00F046817A4B1B68D3F8A4307A6AEB
S113244092B20421104698473BE1FB690F331B7895
S113245003F00203002B00F034817B690A225A70D6
S11324606F4B1B68D3F8A430002B00F02A816C4B0F
S11324701B68D3F8A4307A6A92B2022110469847B6
S11324801FE1FB690C33184601F036FD03467B62FD
S11324907B6A002B40F017817B6901221A70BB69AB
S11324A002221A705D4B1B682433184601F082FC2B
S11324B009E1FB690C33184601F01EFD03467B62FB
S11324C07B6A002B40F00181BB6993F82C30002B10
S11324D003D0BB69012283F82D20504B1B682433A1
S11324E0184601F067FCBB6900229A62EDE0FB69C3
S11324F00C33184601F000FD03467B62EEE0FB69F5
S11325000C33184601F0F8FC03467B62E6E0FB69F5
S11325100C33184601F0F0FC03467B62DEE0FB69F5
S11325200C33184601F0E8FC03467B62BB690122C8
S11325301A707B6900221A70002387F8233012E096
S1132540384B196897F8232013461B019B1A9B00EC
S11325500B443C22002118460AF034FA97F8233041
S1132560013387F82330304B1B681B7B97F82320FB
S11325709A42E5D3FB690F331B7803F00403002B65
S113258013D07B6908225A70254B1B68D3F8A430FA
S1132590002B00F09C80224B1B68D3F8A4307A6A8D
S11325A092B204211046984791E0FB690F331B78DF
S11325B003F00203002B00F08A807B690A225A7020
S11325C0174B1B68D3F8A430002B00F08080144B09
S11325D01B68D3F8A4307A6A92B202211046984755
S11325E075E07B6A002B74D1BB695B6B002B70D0E8
S11325F0BB699B6B002B6CD0BB699A6B7B89934244
S113260028BF13463B81BB695B6B3A89F96818465E
S11326100AF0CDF9BB6900225A635AE0B4000020E5
S113262044420020384200204C4200207B6A002BA8
S113263051D1BB695B6B002B4DD0BB699B6B002BED
S113264049D0BB699A6B7B89934228BF13463B816F
S1132650BB695B6B3A89F96818460AF0A8F9BB694B
S113266000225A6337E0FB690C33184601F044FC3E
S113267003467B62F86901F03FFC0346C3F30B0396
S11326807B817B681433FB607B6A002B25D1BB699B
S11326905B6B002B21D0BB699B6B002B1DD0BB69EE
S11326A09A6B7B89934228BF13463B81BB695B6B62
S11326B03A89F96818460AF07AF9BB6900225A6324
S11326C00BE000BF0AE000BF08E000BF06E000BF67
S11326D004E000BF02E000BF00E000BFFB7C892BE8
S11326E039D0FB7C772B1AD1BB6993F83C30002B93
S11326F006D01B4B1B681433184601F097FA2AE0E6
S1132700184B1B681B69002B02D17B6A002B22D05B
S1132710134B1B681433184601F088FA1BE0FB7C4A
S1132720152B12D10E4B1B6893F85030DBB2152BCE
S113273011D10B4B1B68002283F85020084B1B68F7
S11327401433184601F072FA05E0054B1B68143384
S1132750184601F06BFA002318462837BD4680BDA1
S1132760BC0000204442002080B586B000AF034680
S1132770FB710023FB753B4B1B68DB683B61394BEA
S11327801B681B6AFB60FB79DD2B0BD0DE2B02D0B0
S1132790CD2B19D061E03B6901229A62012000F03F
S11327A015FE5AE03B6903229A623B6993F82C3088
S11327B0092B05D13B6901229A62012000F006FE33
S11327C0012000F03FFE48E03B6901221A70FB68DB
S11327D000221A700023FB751DE0234B1968FA7D53
S11327E013461B019B1A9B000B443C2200211846F4
S11327F00AF0E8F81D4B1968FA7D13469B00134450
S11328009B010B444FF4A072002118460AF0DAF839
S1132810FB7D0133FB75164B1B681B7BFA7D9A42CB
S1132820DBD3144B1B68002283F8BC20114B1B68BC
S11328300022DA60FB6800221A733B6900221A73D3
S113284000F01AF83B6920331022002118460AF0E0
S1132850B9F8012000F0F6FD00BF00BF1837BD46EF
S113286080BD00BFB4000020384200203442002064
S11328704C4200204442002080B500AF0420FEF703
S1132880E2F900BF80BD80B500AF00220021032023
S1132890FEF758F90120FEF78AF9002201210420ED
S11328A0FEF750F90420FEF7CEF900BF80BD80B5D5
S11328B082B000AF7860002004F064FE00BF0837E7
S11328C0BD4680BD80B582B000AF7860396039689C
S11328D0786801F03BF90346002B06D06FF01D0029
S11328E0FEF7F4FC6FF01D0300E0002318460837E0
S11328F0BD4680BD80B584B000AF03460A46FB7177
S11329001346BB710023FB60FB79012B19D0022B0A
S11329102DD0002B56D1BB79012B08D1304B1B682D
S113292018334EF660211846FFF7CCFF4EE0BB7912
S1132930002B4BD12A4B1B681833184601F076F94B
S113294044E0BB79012B08D1254B1B681C334EF6A0
S11329506021184604F01EFF3AE0BB79002B37D102
S11329601F4B1B681C33184601F060F930E0BB793B
S1132970012B12D11A4B1B6893F82820184B1B68A3
S113298042F00202D2B283F82820154B1B68203390
S11329901449184600F0B4FD1CE0BB79002B19D192
S11329A00F4B1B6893F828200D4B1B6822F0020282
S11329B0D2B283F828200A4B1B682033184601F052
S11329C035F907E06FF00103FB6004E000BF02E0AB
S11329D000BF00E000BFFB6818461037BD4680BD4D
S11329E0BC000020C027090080B500AF00220121EF
S11329F00120FEF7A7F80120FEF725F96420FEF771
S1132A0024FC0120FEF7D3F80023184680BD000003
S1132A1080B582B000AF0023FB800023BB803B1D48
S1132A201946D12000F0FAF80346FB80B7F90630C6
S1132A30002B02DAB7F9063028E0BB8803F47F43A1
S1132A40B3F52B4F20D1BB88DBB2F12B02D16FF051
S1132A5008031BE0BB88DBB2F22B02D16FF0090341
S1132A6014E0BB88DBB2102B04D10A4B1B68012293
S1132A701A6007E0BB88DBB2112B03D1054B1B683E
S1132A8002221A60002301E06FF00B031846083796
S1132A90BD4680BDBC00002080B586B000AF0346B3
S1132AA0FB710023BB820023FB8200237B8207F19E
S1132AB014031A4602215648FFF7EAF90346FB823B
S1132AC0B7F91630002B02DAB7F916309CE0FB791F
S1132AD0422B07D1FB791AB24E4B13431BB29BB264
S1132AE0BB8206E0FB791AB24B4B13431BB29BB279
S1132AF0BB8207F114031946D22000F08FF8034675
S1132B00FB82B7F91630002B02DAB7F916307BE0F6
S1132B1007F10C034FF49671184601F09CF929E073
S1132B2007F112031946D12000F078F80346FB821E
S1132B30B7F91630002B02DAB7F9163064E0FB79E6
S1132B40422B05D17B8A4AF63232934207D119E0EF
S1132B507B8A1A46FB7943F42B439A4211D007F13E
S1132B600C03184601F087F90346002B02D06FF0DE
S1132B701B0349E0FB79312B04D0FB79712BCFD1B6
S1132B8000E000BFFB79312B02D0FB79712B39D1E6
S1132B9007F10C0340F6B831184601F05CF907F16F
S1132BA012031946D12000F039F80346FB82B7F925
S1132BB01630002B02DAB7F9163025E07B8A03F4CD
S1132BC07043B3F5204F11D17B8ADBB2232B02D1A2
S1132BD06FF00D0318E07B8ADBB2F32B02D16FF0A8
S1132BE00E0311E07B8ADBB2AA2B0AD007F10C0397
S1132BF0184601F040F90346002BD0D06FF01B03B8
S1132C0002E000BFB7F9163018461837BD4680BD3C
S1132C103C00054100A0FFFF00ABFFFF80B588B07A
S1132C2000AF03463960FB710023FB8300237B6103
S1132C300023BB6100237B8200233B82FB79D12BE1
S1132C4011D0D12B08DC422B7AD0712B00F0C0803C
S1132C50312B00F0B080C8E0D42B45D0D52B17D051
S1132C60D22B0DD0C1E007F110031A4602216448AB
S1132C70FFF772F90346FB833A8A3B681A80B8E08F
S1132C803A6802215F48FFF703F90346FB83B0E08B
S1132C900023BB6117E0BB6903F540435800BB69DF
S1132CA05A003B6813441A460221FFF7F1F8034621
S1132CB0FB83B7F91E30002B02DAB7F91E309AE015
S1132CC0BB690133BB61BB69B3F5006FE3D34AF65B
S1132CD049337B8207F112031A4602214948FFF760
S1132CE0D7F80346FB8384E00023BB6117E0BB698C
S1132CF003F548435800BB695A003B6813441A461D
S1132D000221FFF7C5F80346FB83B7F91E30002BF9
S1132D1002DAB7F91E306EE0BB690133BB61BB69EF
S1132D20B3F5006FE3D34AF64F337B8207F1120306
S1132D301A4602213348FFF7ABF80346FB8358E0F9
S1132D404AF642337B6107F114031A4602212D48E7
S1132D50FFF79EF80346FB83B7F91E30002B02DA17
S1132D60B7F91E3047E007F10C034FF4967118468B
S1132D7001F071F807F110031A4602212048FFF709
S1132D80EBF80346FB83B7F91E30002B02DAB7F9E0
S1132D901E3030E007F10C03184601F06CF80346CE
S1132DA0002B02D06FF01B0325E03B8A4AF6323237
S1132DB09342DFD11DE04AF631337B6107F11403FE
S1132DC01A4602210F48FFF763F80346FB8310E01D
S1132DD04AF671337B6107F114031A46022109484C
S1132DE0FFF756F80346FB8303E04FF6FE73FB83BD
S1132DF000BFB7F91E3018462037BD4680BD00BF5E
S1132E003C0005413400054180B500AFFDF71EFECE
S1132E10002000F0DBFA00BF80BD000080B588B060
S1132E2000AF0023FB6100233B830023FB820023CC
S1132E30BB70834B1B68DB683B610023FB7300237F
S1132E40BB7300237B7300233B730023FB72FF23BC
S1132E50BB72FF23FB767A4B1B681033184600F0D5
S1132E607FFF0346FB73764B1B682433184600F040
S1132E7077FF03467B73FB7B002B38D0704B1B68BA
S1132E80704A5A66BB1C1846FEF772FF0346FB8263
S1132E90B7F91630002B04D1BB7803F00103002BE3
S1132EA01BD0674B1B685B6B23F00203002B00F005
S1132EB0BE80012000F0B2FA634B1B680833184649
S1132EC000F014FE604B1B6801225A605E4B1B68C5
S1132ED00833184600F01DFEA9E0594B1B68103357
S1132EE0184600F027FFF8610123FB7636E07B7B70
S1132EF0002B33D0BB1C1846FEF73AFF0346FB8277
S1132F00B7F91630002B04D1BB7803F00103002B72
S1132F101BD04B4B1B685B6B23F00203002B00F0B0
S1132F208880012000F07AFA474B1B680833184662
S1132F3000F0DCFD444B1B6801225A60424B1B68C5
S1132F400833184600F0E5FD73E03D4B1B6824335D
S1132F50184600F0EFFEF8610623FB76FB7B002B9E
S1132F600BD17B7B002B08D1BB7B002B05D1FB7ADB
S1132F70002B02D13B7B002B3ED0FB6904337B60EA
S1132F807B689B78FB707B6801331B781B09BB72E1
S1132F907B681B88C3F30B033B83FB78152B08D199
S1132FA0BB7A042B05D1012000F038FA0320FEF788
S1132FB04CF97B6810333A8B19467868FEF779FC34
S1132FC0FB7E012B0BD11E4B1B68DB681433F969A4
S1132FD0184600F06FFEF869FFF769FC2BE0FB7EF2
S1132FE0062B28D1BB7A042B02D0BB7A052B22D125
S1132FF0F86904F065FB1EE03B6993F82D30002B63
S11330000ED03B699B6A012B0AD1002200210F4894
S1133010FEF74FFC012000F001FA3B6902229A629C
S1133020F869FFF744FC012000F0E4F904E000BF74
S113303002E000BF00E000BF2037BD4680BD00BFF6
S1133040B4000020AF280000BC00002008DE00000F
S113305080B58AB000AF0023FB8400233B620023C9
S1133060FB6100237B730023BB6000237B60002390
S11330707B83A94B1B68DB687B61A74B1B681B6ABE
S11330803B610220FDF7B8FD0346002B1ED1002052
S113309000F0B0F9FDF7E1FCA04B1B685B68012B65
S11330A040F08181012000F0CDF99C4B1B6808336E
S11330B0184600F01BFD994B1B6800225A60974B81
S11330C01B680833184600F024FD6CE17B6993F813
S11330D02D30002B01D0FEF7B3FE07F10D03184687
S11330E0FEF746FE03467B837B8B002B40F05D811D
S11330F07B7B5BB2002B29DA7B7B03F07F03DBB2A3
S11331007B7307F108031A4604218548FEF724FF60
S113311003467B837B8B002B18D1824B1B68D3F82F
S1133120B830002B08D07F4B1B68D3F8B830BA688E
S113313090B200220021984780237B603B1D1A46F1
S113314004217948FEF7A4FE03467B837B7B03F0CE
S11331500803002B27D1002000F04CF9FDF77DFC7B
S11331600220FDF749FD0346002B02D0002000F0A9
S11331702DF96A4B1B685B68012B40F01881012014
S113318000F060F9654B1B680833184600F0AEFC8C
S1133190624B1B6800225A60604B1B680833184658
S11331A000F0B7FC03E15C4B1B68184600F06CFDB3
S11331B0F861FB69002B03D1002000F02FF9FDE03A
S11331C0FB6904333B62386AFEF73CFB0346FB842D
S11331D0FB8C002B24D0002000F00CF94E4B1B6814
S11331E0F969184600F066FDFDF737FC4B4B1B6888
S11331F05B68012B40F0DD80012000F023F9474B90
S11332001B680833184600F071FC444B1B6800220D
S11332105A60424B1B680833184600F07AFCC8E039
S11332203B6A01331B781B09FB733B6A9B78BB73B6
S1133230FB7B042B34D1BB7BCD2B05D0BB7BDE2B9E
S113324002D0BB7BDD2B2BD1BB7B1846FFF78CFA5E
S1133250314B1B68F969184600F02CFD002000F082
S1133260C9F8002000F0EEF8FDF7F7FB2B4B1B68C4
S11332705B68012B40F09F80012000F0E3F8274BAE
S11332801B680833184600F031FC244B1B680022ED
S11332905A60224B1B680833184600F03AFC8AE057
S11332A0FB7B042B2AD1BB7B892B23D0BB7B102B2C
S11332B020D0BB7B152B1DD0BB7B1B2B1AD0BB7B1B
S11332C0C82B17D0BB7B1C2B14D0BB7BA42B11D0D9
S11332D0BB7B492B0ED0BB7B262B0BD0BB7B772B28
S11332E008D0BB7B922B05D0BB7BE92B02D0BB7BE8
S11332F0F22B03D1F869FFF735F81DE0FB7B022BB5
S11333001AD0FB7B012B17D0FB7B042B0ED1F86961
S113331001F02CFE10E000BFB4000020BC0000202F
S1133320340005414442002008000541FB7B052B85
S113333002D1F86900F0D8F8224B1B68F9691846E5
S113334000F0B8FC0220FDF757FC0346002B02D125
S1133350002000F04FF8002000F074F8FDF77DFB2A
S11333600220FDF749FC0346002B02D0002000F0A8
S11333702DF8154B1B685B68012B1ED1012000F052
S113338061F8114B1B680833184600F0AFFB0E4B75
S11333901B6800225A600C4B1B680833184600F067
S11333A0B8FB00BF09E000BF08E000BF06E000BFB3
S11333B004E000BF02E000BF00E000BF2837BD46C4
S11333C080BD00BFB4000020BC00002080B582B0E6
S11333D000AF7860054B1B685B6C054A126879681E
S11333E01046984700BF0837BD4680BDC000002086
S11333F04C42002080B582B000AF7860054B1B685A
S11334009B6C054A126879681046984700BF0837D4
S1133410BD4680BDC00000204C42002080B582B073
S113342000AF7860054B1B68DB6C054A126879684D
S11334301046984700BF0837BD4680BDC000002035
S11334404C42002080B582B000AF7860054B1B6809
S11334501B6D054A126879681046984700BF083703
S1133460BD4680BDC00000204C42002080B582B023
S113347000AF78603960064B1B689B6D054A106885
S11334803A6879689847034618460837BD4680BDB0
S1133490C00000204C42002080B500AF0649002047
S11334A0FFF7E4FF05490120FFF7E0FF044902208C
S11334B0FFF7DCFF00BF80BD513000001D2E00006F
S11334C0817B000080B584B000AFF860B9607A6099
S11334D03B603B687A68B968F86800F03BF80346DB
S11334E018461037BD4680BD80B582B000AF786005
S11334F0786800F083F9034618460837BD4680BD56
S113350080B582B000AF786039603968786800F0BF
S11335101DFB0346002B06D06FF01D0004F032F8AB
S11335206FF01D0300E0002318460837BD4680BD38
S113353080B582B000AF7860054B1B687A68DA62A8
S1133540786804F01FF800BF0837BD4680BD00BF8F
S1133550BC00002080B58CB000AFF860B9607A6020
S11335603B600023BB6200237B62A14B1B681B688A
S11335703B629F4B1B685B68FB61FA6813461B0147
S11335809B1A9B001A46FB6913445B78DBB2002B41
S113359007D1FB681946092005F098FD4FF0FF3369
S11335A022E13B6A1B6A1433184600F06DFBB861D4
S11335B0BB69002B08D1FB6819466FF0030005F0C6
S11335C085FD4FF0FF330FE1BB6914337B61BB69A9
S11335D004333B6110220021386909F0F3F91C22FD
S11335E00021786909F0EEF9FA6813461B019B1A69
S11335F09B001A46FB6913449B781B09DBB203F05A
S11336000F03022B29D17B690421184600F048FCE2
S11336107B6903F10C003B6804330422194609F06A
S1133620C6F97B6903F10A023B685B8819461046B8
S113363000F036FCFA6813461B019B1A9B001A46DD
S1133640FB6913449B7803F00F03012B02D1382349
S1133650FB852BE02C23FB8528E07B69062118469B
S113366000F01EFC7B6903F10C003B680833102258
S1133670194609F09CF97B6903F10A023B685B88EF
S11336801946104600F00CFCFA6813461B019B1AFD
S11336909B001A46FB6913449B7803F00F03012B2C
S11336A002D14C23FB8501E04023FB85FA681346D5
S11336B01B019B1A9B001A46FB691344DB7E03F033
S11336C00203002B08D07B687D2B01D8062200E082
S11336D00822FB8D1344FB85FA6813461B019B1AD1
S11336E09B001A46FB6913441A787B699A70FA683E
S11336F013461B019B1A9B001A46FB691344DA7894
S11337007B69DA707B6904337A6892B21146184691
S113371000F0C6FB7B690833FA8D1146184600F0A9
S1133720BFFBFB8D7A6813447B62FB8D1C3BFB85DE
S1133730FB8D18337A69134404337A68B9681846E0
S113374009F035F97B6A9BB2C3F30B039BB21946AC
S1133750386900F0A5FB3B6901331A783B690133F2
S113376042F05002D2B21A703B6A2433B969184647
S113377000F0CAFA0120FFF729FE1E4B1968FA6807
S113378013469B0013449B010B4493F82210194BDE
S11337901868FA6813469B0013449B01034441F0E4
S11337A00402D2B283F82220124B1968FA68134635
S11337B09B0013449B010B4430330F49184605F01A
S11337C017FC0346BB62BB6A002B07D0FB68194693
S11337D0B86A05F07BFC4FF0FF3305E0FB68184640
S11337E005F05EFCB862BB6A18463037BD4680BD42
S11337F04C42002034420020C027090080B58EB01E
S113380000AF7860002387F8373000233B63002340
S1133810FB628D4B1B685B68BB627B6814337B6205
S11338207B6804333B623B6A02331B783B63386A30
S113383000F062FB0346C3F30B03FB833B6A0C33C8
S1133840184600F059FB0346FB623B6B012B0AD17F
S11338507E4B1B68D3F8A0307A6802F11401FA8B0E
S113386000209847EBE07B6A9B78184605F0D4FB70
S1133870B861B969F86A05F029FC7B6ADB7887F8D6
S11338803730BB69002B06DB6F4B1B681B7B1A466A
S1133890BB69934202DB4FF0FF33D1E0BA691346B0
S11338A01B019B1A9B001A46BB6A13447B617B6A0B
S11338B00433184600F020FB03463B617B6A08335F
S11338C0184600F019FB0346FB607B69DB7E5BB2A4
S11338D0002B29DB7B695B6B002B23D07B69DB7EB0
S11338E003F00203002B15D0FA681346DB009B1A81
S11338F09B001C3B7A6A134497F837201A707B6943
S11339005B6BB869FA68013A796A11443A69013221
S1133910984707E07B695B6BB869796AFA68114478
S11339203A69984700238BE0474B1B689B7B012B2C
S11339300FD17B695B6A002B02D04FF0FF337FE02D
S11339407A6AFB681A447B69DA617B693A695A626C
S113395013E07B699B6A002B0CD07B69986A7A6AB6
S1133960FB6813443A69194609F021F87B693A69FE
S1133970DA6202E07B690022DA627B699B7803F0F9
S11339800F03022B21D17B6A0A33184600F0B4FAE4
S113399003461A467B69DA807B699B781B09DBB294
S11339A0022B09D17B6903F108007B6A0C330422E2
S11339B0194608F0FCFF08E07B6903F108007B6A04
S11339C00C331022194608F0F2FF214B1968BA692A
S11339D013469B0013449B010B4493F822101C4B89
S11339E01868BA6913469B0013449B01034421F0F1
S11339F00202D2B283F82220154B1968BA69134621
S1133A009B0013449B010B4493F82310104B18683C
S1133A10BA6913469B0013449B01034441F001021D
S1133A20D2B283F823200A4B1968BA6913469B0063
S1133A3013449B010B442C33184600F0F7F8002381
S1133A4018463837BD4680BD4C4200204442002011
S1133A503442002080B500AF114B1B6893F8283026
S1133A6003F00103002B05D00D4B1B680C331846E3
S1133A7000F0DCF80A4B1B6893F8283003F00203CB
S1133A80002B05D0064B1B682033184600F0CEF8F7
S1133A90034B1B68002283F8282000BF80BD00BFB1
S1133AA0BC00002080B483B000AF00237B607B683F
S1133AB018460C37BD465DF8047B704780B483B06C
S1133AC000AF786000BF0C37BD465DF8047B7047DB
S1133AD080B483B000AF78607B6800221A60002352
S1133AE018460C37BD465DF8047B704780B483B03C
S1133AF000AF786000BF7B681B68012BFBD07B683C
S1133B0001221A60002318460C37BD465DF8047B79
S1133B10704780B483B000AF78607B6800221A607D
S1133B20002318460C37BD465DF8047B704780B40B
S1133B3083B000AF786039607B683A681A6000230C
S1133B4018460C37BD465DF8047B704780B586B0D7
S1133B5000AF786039602B4B1B681B687B617B6806
S1133B603B613B691B68002B06D03B691B685A1EEE
S1133B703B691A60002340E03B68002B10D104E04D
S1133B807B693433184600F03DF93B691B68002B10
S1133B90F6D03B691B685A1E3B691A6000232CE06F
S1133BA007F10C033968184600F055F90CE07B69FD
S1133BB03433184600F026F907F10C03184600F0D8
S1133BC05AF90346002B07D13B68002B05D03B690B
S1133BD01B68002BEBD000E000BF3B691B68002B87
S1133BE002D03B68002B02D14FF0FF3305E03B6964
S1133BF01B685A1E3B691A60002318461837BD46D5
S1133C0080BD00BF4C42002080B485B000AF786016
S1133C107B68FB60FB681B685A1CFB681A60002306
S1133C2018461437BD465DF8047B704780B485B0F0
S1133C3000AF78607B68FB60FB681B685A1CFB68FC
S1133C401A60002318461437BD465DF8047B70479C
S1133C5090B587B002AFF860B9607A603B60084BFA
S1133C601B689C69074B18683B6800937B68BA68BB
S1133C70F968A047034618461437BD4690BD00BFF7
S1133C80C00000204C42002080B582B000AF7860B4
S1133C90064B1B68DB69064A126879681046984728
S1133CA0034618460837BD4680BD00BFC00000204B
S1133CB04C42002080B582B000AF78603960064B7A
S1133CC01B681B6A054A10683A6879689847034676
S1133CD018460837BD4680BDC00000204C42002075
S1133CE080B582B000AF7860054B1B689B6A054ABB
S1133CF0126879681046984700BF0837BD4680BDF2
S1133D00C00000204C42002080B582B000AF786033
S1133D103960064B1B68DB6A054A10683A687968A3
S1133D20984700BF0837BD4680BD00BFC0000020D3
S1133D304C42002080B582B000AF7860064B1B680F
S1133D401B6B064A12687968104698470346184662
S1133D500837BD4680BD00BFC00000204C42002093
S1133D6080B582B000AF7860064B1B685B6B064A77
S1133D701268796810469847034618460837BD46C6
S1133D8080BD00BFC00000204C42002080B582B03E
S1133D9000AF7860054B1B689B6B054A1268796815
S1133DA01046984700BF0837BD4680BDC0000020BC
S1133DB04C42002080B582B000AF7860054B1B6890
S1133DC0DB6B054A126879681046984700BF0837CC
S1133DD0BD4680BDC00000204C42002080B582B0AA
S1133DE000AF7860054B1B68DB68054A1268796888
S1133DF01046984700BF0837BD4680BDC00000206C
S1133E004C42002080B582B000AF7860054B1B683F
S1133E105B69054A126879681046984700BF0837FD
S1133E20BD4680BDC00000204C42002080B400AFDD
S1133E30044B1B68DA6B0132DA6300BFBD465DF8E0
S1133E40047B7047BC00002080B500AFFDF724FA66
S1133E500346184680BD80B582B000AF78603960F3
S1133E60FFF7F2FF02463B681A447B681A6000BF02
S1133E700837BD4680BD90B585B000AF78607B68DB
S1133E801C68FFF7E1FF0346E31AFB60FB68002BA5
S1133E9001DA012300E0002318461437BD4690BD23
S1133EA080B582B000AF78600B467B80054B1B6801
S1133EB05B6E054A10687A887968984700BF0837AE
S1133EC0BD4680BDC00000204C42002080B582B0B9
S1133ED000AF78603960064B1B689B6E054A10681A
S1133EE03A687968984700BF0837BD4680BD00BF6F
S1133EF0C00000204C42002080B582B000AF786042
S1133F00064B1B68DB6E064A1268796810469847B0
S1133F10034618460837BD4680BD00BFC0000020D8
S1133F204C42002080B582B000AF7860064B1B681D
S1133F301B6F064A1268796810469847034618466C
S1133F400837BD4680BD00BFC00000204C420020A1
S1133F5080B48BB000AF0346FB710B46BB711346B4
S1133F607B71FB79DB09DBB23B77FB799B09DBB225
S1133F7003F00103DBB27B77FB795B09DBB203F06F
S1133F800103DBB2BB77FB791B09DBB203F001034E
S1133F90DBB2FB77FB79DB08DBB203F00103DBB2B6
S1133FA087F82030FB799B08DBB203F00103DBB216
S1133FB087F82130FB795B08DBB203F00103DBB245
S1133FC087F82230FB7903F00103DBB287F8233052
S1133FD0BB7903F00103DBB23B75BB795B08DBB251
S1133FE003F00103DBB27B75BB799B08DBB203F002
S1133FF00103DBB2BB75BB79DB08DBB203F0010361
S1134000DBB2FB75BB791B09DBB203F00103DBB246
S11340103B76BB795B09DBB203F00103DBB27B7651
S1134020BB799B09DBB203F00103DBB2BB76BB793E
S1134030DB09DBB2FB76FA7E97F823305340DAB221
S1134040B97E97F822304B40DBB25340DAB2797E26
S113405097F821304B40DBB25340DBB2FB74BA7E9D
S113406097F822305340DAB2797E97F821304B40EA
S1134070DBB25340DAB2397E97F820304B40DBB2E2
S11340805340DBB2BB747A7E97F821305340DAB2E6
S1134090397E97F820304B40DBB25340DAB2F97DD9
S11340A0FB7F4B40DBB25340DBB27B743A7E97F824
S11340B020305340DAB2F97DFB7F4B40DBB25340F2
S11340C0DAB2B97DBB7F4B40DBB25340DBB23B7409
S11340D07A7D7B7F5340DAB2B97DBB7F4B40DBB244
S11340E05340DAB2F97DFB7F4B40DBB25340DAB286
S11340F0F97E97F823304B40DBB25340DBB2FB73BD
S11341003A7D3B7F5340DAB2797D7B7F4B40DBB213
S11341105340DAB2B97DBB7F4B40DBB25340DAB2D5
S1134120B97E97F822304B40DBB25340DBB2BB730D
S11341303A7D3B7F5340DAB2797D7B7F4B40DBB2E3
S11341405340DAB2B97E97F822304B40DBB2534089
S1134150DBB27B733A7D3B7F5340DAB2F97E97F84A
S113416023304B40DBB25340DAB2B97E97F82230A9
S11341704B40DBB25340DBB23B737B79002B3AD12B
S11341803B7B03F00103DAB27B7B5B00DBB203F021
S11341900203DBB21343DAB2BB7B9B00DBB203F056
S11341A00403DBB21343DAB2FB7BDB00DBB203F0C4
S11341B00803DBB21343DAB23B7C1B01DBB203F02E
S11341C01003DBB21343DAB27B7C5B01DBB203F096
S11341D02003DBB21343DAB2BB7C9B01DBB203F0F6
S11341E04003DBB21343DAB2FB7CDB01DBB21343E3
S11341F087F8273037E0FB7C03F00103DAB2BB7C9D
S11342005B00DBB203F00203DBB21343DAB27B7C64
S11342109B00DBB203F00403DBB21343DAB23B7C52
S1134220DB00DBB203F00803DBB21343DAB2FB7B3F
S11342301B01DBB203F01003DBB21343DAB2BB7B26
S11342405B01DBB203F02003DBB2134387F82730B2
S113425097F82730DB4387F8273097F8273003F0A7
S11342603F0387F8273097F8273018462C37BD4688
S11342705DF8047B704780B584B000AF7860FF239D
S1134280BB730023FB7313E0FB7B7A681344187839
S1134290FB7B052B0CBF01230023DBB21A46BB7B3F
S11342A01946FFF755FE0346BB73FB7B0133FB73D3
S11342B0FB7B052BE8D9BB7B18461037BD4680BD78
S11342C080B584B000AF78600023FB737B68002B5B
S11342D002D16FF001037DE07B6800221A707B68D5
S11342E000225A607B6808331846FFF7F1FB7B68AD
S11342F000221A73394B1B68203300211846FFF73C
S113430016FC0346FB7397F90F30002B02D06FF0B5
S113431027035FE0314B1B681C3300211846FFF76D
S113432006FC0346FB7397F90F30002B02D06FF0A5
S113433027034FE0294B1B68243300211846FFF75D
S1134340F6FB0346FB7397F90F30002B02D06FF096
S113435027033FE0214B1B6820331846FFF766FC18
S11343601E4B1B681C331846FFF760FC7B68103338
S113437000211846FFF7DBFB0346FB7397F90F3068
S1134380002B02D06FF0270324E0144B1B6810337A
S113439000211846FFF7CBFB0346FB7397F90F3058
S11343A0002B02D06FF0270314E00C4B1B680C3376
S11343B000211846FFF7BBFB0346FB7397F90F3048
S11343C0002B02D06FF0270304E07B6800225A62BE
S11343D097F90F3018461037BD4680BDBC00002049
S11343E080B5A0B000AF03463960FB710023A7F885
S11343F07E300023BB67002387F877300023A7F8BB
S11344007C303B6804333B67FB79113BDE2B00F2C5
S11344104F8501A252F823F095470000B14E0000E9
S11344202349000057490000B14E00000F4E000020
S1134430CD470000B14E0000C54A0000B14E000057
S1134440B14E0000B14E00005F480000B14E0000C4
S1134450B14E0000B14E0000E54D0000B14E000029
S1134460054E00002F4C0000A74B0000B14E000089
S1134470B14E0000B14E00004F4B0000B14E0000A1
S1134480B14E0000B14E0000B14E0000B14E00002C
S1134490B14E0000B14E0000CF4D0000DD4D0000D4
S11344A0DD4D0000B14E0000B14E0000B14E0000E1
S11344B0B14E0000B14E0000B14E0000B14E0000FC
S11344C0B14E0000B14E0000B14E0000B14E0000EC
S11344D0B14E0000ED470000AF4B0000694B0000F7
S11344E0274C0000074C0000B14E0000B14E000004
S11344F0A3490000B14E0000B14E0000B14E0000CF
S1134500B5490000E14800007B4B0000B14E0000BB
S1134510B14E00005D4D0000D34B0000D34B0000B2
S1134520B94D0000B14E0000174C0000A34D00002F
S1134530B14E0000B14E0000B14E0000B14E00007B
S1134540B14E0000B14E0000B14E0000B14E00006B
S1134550B14E0000B14E0000B14E0000B14E00005B
S1134560B14E0000B14E0000B14E0000B14E00004B
S1134570B14E0000B14E0000B14E0000C54900002C
S1134580734B0000F74B0000594C0000B14E000083
S1134590A5480000B14E0000B14E0000BD4A000025
S11345A0B14E0000A9470000B14E0000B14E00001A
S11345B0B14E0000B14E0000B14E0000B14E0000FB
S11345C0834A0000F14A0000B14E0000B14E0000E1
S11345D0954D0000B14E0000174E0000B14E000092
S11345E0B14E0000B14E0000B14E0000B14E0000CB
S11345F0B14E0000B14E0000B14E0000B14E0000BB
S1134600B14E0000B14E0000B14E0000B14E0000AA
S1134610B14E0000C14B0000B14E0000B14E00008D
S1134620B14E0000B14E0000B14E0000B14E00008A
S1134630FD4C0000B14E00003B4D0000794D0000E0
S1134640874D00006B4D0000B14E0000B14E0000DC
S1134650B14E0000B14E0000B14E0000474B0000C7
S1134660B14E0000B14E0000BD490000B14E000043
S1134670ED4D0000B14E0000B14E0000B14E0000FF
S1134680B14E0000B14E0000B14E0000B14E00002A
S1134690B14E0000B14E0000334D0000B14E000099
S11346A0B14E0000E14B0000B14E0000B14E0000DD
S11346B0B14E0000B14E0000B14E0000B14E0000FA
S11346C0B14E0000FF4B000085480000B1470000D8
S11346D0B14E0000B14E0000B14E0000B14E0000DA
S11346E0B14E0000B14E0000B14E0000B14E0000CA
S11346F0574B0000B14E0000F54D0000B14E0000D4
S11347001F4E0000B14E0000B14E0000B14E00003B
S1134710B14E0000B14E0000B14E0000B14E000099
S1134720B14E0000B14E0000B14E0000B14E000089
S1134730B14E0000B14E0000B14E0000B14E000079
S1134740D34B0000B14E0000B14E0000B14E00004A
S1134750B14E0000B14E0000B14E00007F4C00008D
S1134760B14E0000FD4D0000B14E0000E94B0000C9
S1134770B14D0000B14E0000B14E00005D4A000092
S1134780D34B00001F4C00000F4C0000B14E000042
S1134790C74D00003B681433BB60BB6800221A702D
S11347A00123A7F87E3088E32023A7F87E3084E332
S11347B03B6814337B657B6D01221A807B6D40F668
S11347C02A125A800423A7F87E3076E33B68143318
S11347D07B617869C04B1B681B6A3033062219461B
S11347E008F0E5F80623A7F87E3066E33B68143347
S11347F03B623B6A1B7887F8773097F87730A7F8E5
S11348007C3097F87730002B03D097F87730012B62
S11348100DD13B6A01331846FFF72DFD03461B02F9
S11348201AB2B7F97C3013431BB2A7F87C303B684B
S1134830143302220021184608F0C4F83B681433EC
S1134840B7F87C2011461846FFF72AFB0223A7F885
S11348507E30A14B1B681B6A40221A732DE33B6810
S11348601433BB61BB6901221A70BB6901225A70FF
S1134870BB69023301211846FFF712FB0423A7F892
S11348807E301AE33B6814333B653B6D00221A709B
S11348903B6D01339149184608F0F7F85023A7F807
S11348A07E300AE33B681433BB63BB6B00211846BC
S11348B0FFF70CFBBB6B043304211846FFF706FB20
S11348C0BB6B083328211846FFF700FBBB6B0C3386
S11348D000211846FFF7FAFA1023A7F87E30ECE21D
S11348E03B681433BB62BB6A7D49184608F0CDF8B7
S11348F0BB6A20337B49184608F0C7F8BB6A03F546
S1134900807300211846FFF7E1FABB6A03F582734E
S11349107549184608F0B9F84FF4AB73A7F87E3020
S1134920CBE23B681433FB60FB682C330021184650
S1134930FFF7B6FAFB6893F82B30002B03D1FB6822
S1134940002283F82B20FB68002283F82B203223DB
S1134950A7F87E30B1E23B6814333B613B69002227
S11349609A703B690222DA703B69002283F8662060
S11349703B696A3300211846FFF7A8FA3B6903F143
S11349806F005A4B1B6804330622194608F00FF8CF
S11349907523A7F87E30504B1B681B6A14221A73C8
S11349A08BE23B6814337B627B6A5B880B33A7F82A
S11349B07E3082E2C423A7F87E307EE26323A7F828
S11349C07E307AE23B6814333B633B681B7DAB2B40
S11349D00FD13B685B7D012B16D13B6B012118463F
S11349E0FFF75EFA3B6B023301211846FFF758FAD2
S11349F00AE03B6B01211846FFF752FA3B6B023386
S1134A0000211846FFF74CFA3B6B04330A21184681
S1134A10FFF746FA3B6B063304211846FFF740FACA
S1134A203B6B08330A211846FFF73AFA3B6B0A330B
S1134A300F211846FFF734FA3B6B0C331421184648
S1134A40FFF72EFA3B6B00229A730F23A7F87E30F0
S1134A50214B1B681B6A6A221A732EE23B681433CB
S1134A60FB66FB6E01211846FFF730FAFB6E043338
S1134A7040F2DC511846FFF713FA0623A7F87E30FC
S1134A801BE23B681433FB63FB6B00211846FFF702
S1134A901DFAFB6B04330A211846FFF717FAFB6B68
S1134AA0083304211846FFF711FA0C23A7F87E30C7
S1134AB0094B1B681B6A7B221A73FEE10C23A7F8BF
S1134AC07E30FAE10823A7F87E30034B1B681B6A8B
S1134AD019221A73F1E100BFB40000207CDF00004A
S1134AE080DF000088DF000098DF000044420020DF
S1134AF03B6814333B643B6C0E3300211846FFF7CC
S1134B00CFF93B6C103300211846FFF7C9F93B6C11
S1134B10123300211846FFF7C3F93B6C143300210C
S1134B201846FFF7BDF93B6C163300211846FFF712
S1134B30B7F93B6C183300211846FFF7B1F91C2371
S1134B40A7F87E30B9E10423A7F87E30B5E1162337
S1134B50A7F87E30B1E10323A7F87E30C64B1B686B
S1134B601B6AC7221A73A8E14FF4C773A7F87E30F3
S1134B70A3E10723A7F87E309FE13B681433FB626F
S1134B80FB6ADB78002B04D04FF4AF63A7F87E30C8
S1134B9093E1FB6A04331846FFF7AEF90346863304
S1134BA0A7F87E3089E18223A7F87E3085E12D23A2
S1134BB0A7F87E30B04B1B681B6A41221A737CE154
S1134BC02423A7F87E30AC4B1B681B6AA1221A73FE
S1134BD073E1386FFFF790F90346A7F87E306CE174
S1134BE03E23A7F87E3068E1386FFFF785F9034666
S1134BF0A7F87E3061E10323A7F87E305DE104234A
S1134C00A7F87E3059E15E23A7F87E3055E14323AF
S1134C10A7F87E3051E12423A7F87E304DE18423A8
S1134C20A7F87E3049E10423A7F87E3045E13B68CC
S1134C301433FB61FB69032283F86A20FB69642255
S1134C4083F86B20FB696C3304211846FFF728F9BD
S1134C506E23A7F87E3030E13B6814337B637B6BB3
S1134C6000211846FFF71CF97B6B02334FF499714E
S1134C701846FFF715F90423A7F87E301DE13B68B9
S1134C801433BB66BB6E1B78013B0E2B00F2128102
S1134C9001A252F823F000BFD54C0000DD4C000007
S1134CA0D54C0000D54C0000D54C0000D54C00007C
S1134CB0D54C0000D54C0000ED4C0000D54C000054
S1134CC0E54C0000D54C0000D54C0000D54C00004C
S1134CD0D54C00003423A7F87E300EE05423A7F807
S1134CE07E300AE06723A7F87E3006E0386FFFF7CE
S1134CF003F90346A7F87E3000BFDBE03B681433BA
S1134D007B647B6C00211846FFF7CAF87B6C023386
S1134D1000211846FFF7C4F87B6C043314211846AD
S1134D20FFF7D4F87B6C0F221A720923A7F87E30A0
S1134D30C3E01423A7F87E30BFE03B681433FB6460
S1134D40FB6C02331846FFF7D7F80346A7F84A303E
S1134D50B7F84A300433A7F87E30AEE0386FFFF777
S1134D60CBF80346A7F87E30A7E0386FFFF7C4F806
S1134D700346A7F87E30A0E0386FFFF7BDF803467E
S1134D80A7F87E3099E0386FFFF7B6F80346A7F826
S1134D907E3092E0386FFFF7AFF80346A7F87E3015
S1134DA08BE0386FFFF7A8F80346A7F87E3084E05D
S1134DB0DF23A7F87E3080E0386FFFF79DF80346C5
S1134DC0A7F87E3079E01B23A7F87E3075E0386FB2
S1134DD0FFF792F80346A7F87E306EE00423A7F8A5
S1134DE07E306AE00523A7F87E3066E00A23A7F840
S1134DF07E3062E00423A7F87E305EE01523A7F836
S1134E007E305AE040F20D53A7F87E3055E002237D
S1134E10A7F87E3051E00123A7F87E304DE03B68CF
S1134E2014337B667B6E1846FFF77CF838663B6E5E
S1134E30013B082B40D801A252F823F0614E000038
S1134E40694E0000714E00007D4E00009F4E000030
S1134E50B94E0000B94E0000A74E0000A74E000056
S1134E60E123A7F87E3022E0AD23A7F87E301EE0D0
S1134E704423A7F87E301AE0B40000203B681433C2
S1134E80FB65FB6D46331846FFF736F80346A7F873
S1134E905A30B7F85A304C33A7F87E3007E0432332
S1134EA0A7F87E3003E00423A7F87E3000BF03E0B8
S1134EB000BF02E000BF00E000BF10220021386FF5
S1134EC007F080FDB7F87E30C3F30B039BB219469D
S1134ED0386FFEF7E5FF3B6F01331A783B6F013300
S1134EE042F04002D2B21A703B6F0233FA791A7060
S1134EF0074B1B68243339681846FEF705FF012069
S1134F00FEF764FABB6F18468037BD4680BD00BF0C
S1134F10B400002080B485B000AF7860396000230D
S1134F20FB730FE0FB7B7A6813441B78BB73BB7B7A
S1134F302C2B0BD0FB7B3A681344BA7B1A70FB7B97
S1134F400133FB73FB7B172BECD900E000BFFB7B29
S1134F503A68134400221A70FB7B01337A681344C5
S1134F6018461437BD465DF8047B70472DE9F041BF
S1134F70A8B002AF7860002387F87E30002387F85A
S1134F807D30002387F87C30002387F87B300023B2
S1134F9087F87A300023C7F894300023C7F890309C
S1134FA00023A7F8783000237B6700233B670023A6
S1134FB0A7F88E300023A7F86E30002387F86D30F1
S1134FC0002387F86C30002387F86B30002387F8C0
S1134FD08D30002387F86A3000237B66174B1B68EB
S1134FE01B6A3B66154B1B68DB68FB657B680433F7
S1134FF07B677B689B7987F87E307B6814333B67DB
S1135000786FFEF779FF0346C3F30B03A7F88E30DE
S11350107B6F0C331846FEF76FFF0346C7F89030DA
S1135020064B1B6824331846FEF79AFE034687F89E
S11350306C3097F87E30113B02E000BFB4000020D2
S1135040E72B01F2968701A252F823F00D540000D9
S1135050AB560000435C0000815D0000736F0000EC
S1135060736F0000736F0000535800007B600000F2
S1135070736F0000736F0000736F0000736F0000A4
S1135080736F0000736F0000736F0000736F000094
S1135090856D0000736F0000736F0000736F000074
S11350A0736F0000736F0000736F000027600000CF
S11350B0736F0000736F0000736F0000736F000064
S11350C0736F0000736F00009F5B0000736F00003C
S11350D0E76B0000736F0000736F0000736F0000D4
S11350E0736F0000736F0000736F0000736F000034
S11350F075570000736F0000736F0000736F00003A
S1135100736F0000736F0000736F0000C15E0000D6
S1135110B56000005765000043670000736F00002E
S1135120736F0000736F00002B570000BF5700001F
S113513009580000736F0000736F0000736F000064
S1135140FB590000736F0000736F000009660000D4
S113515009660000376B0000C95B0000736F000034
S1135160736F0000736F0000736F0000AD6900007F
S1135170AD690000736F0000736F0000736F00006F
S1135180736F0000736F0000736F00001163000001
S1135190DD640000736F0000FB660000736F0000A5
S11351A0736F0000736F0000736F0000736F000073
S11351B0375D00004B6A0000736F0000736F0000DE
S11351C0736F0000736F0000BD6E0000736F00000A
S11351D0E1560000736F000021540000736F00005B
S11351E0736F0000736F0000736F0000736F000033
S11351F0736F0000736F0000736F0000736F000023
S1135200736F0000736F0000736F0000596D00002E
S1135210736F0000736F0000736F0000736F000002
S1135220736F0000736F0000736F0000736F0000F2
S1135230736F0000736F0000736F0000736F0000E2
S1135240736F0000736F0000736F0000736F0000D2
S1135250736F0000736F0000736F0000736F0000C2
S1135260736F0000736F0000736F0000736F0000B2
S1135270736F0000736F0000736F0000FF6900001C
S1135280736F0000736F0000736F0000C15E000055
S113529051600000736F0000736F0000836C0000A6
S11352A0736F0000716C0000736F0000736F000077
S11352B0C36500004B680000736F0000736F00004B
S11352C0736F0000736F0000736F0000736F000052
S11352D0736F0000736F0000736F0000736F000042
S11352E0736F0000736F0000736F0000736F000032
S11352F0736F0000736F0000D16D0000736F0000C6
S1135300736F0000736F0000736F0000736F000011
S1135310F35B0000195C0000736F0000736F000002
S1135320736F0000A1600000736F0000736F0000D2
S1135330736F0000ED6E00004F6F0000736F00008C
S1135340736F0000736F0000736F0000736F0000D1
S1135350736F0000736F0000736F0000736F0000C1
S1135360736F0000736F0000736F0000736F0000B1
S1135370736F0000736F0000736F0000736F0000A1
S1135380736F0000736F0000736F0000736F000091
S11353908D670000736F0000CB6C0000CB6C0000C5
S11353A03B5B0000256C0000736F0000736F00000E
S11353B0736F000081660000D9690000ED5300009E
S11353C0B36A0000DF6A00002B6F000093590000ED
S11353D0736F0000736F0000736F0000736F000041
S11353E0736F0000736F0000E35F0000B74B1B682E
S11353F09B6D002B01F0BF85B44B1B689B6DD7F8E8
S1135400902092B21046984701F0B5BDD7F890307D
S1135410002B41F0B2853B6E02221A7001F0ADBD43
S11354200023C7F888300023C7F884300023C7F866
S113543080303B6FBB64BB6C1B7887F86A30A44B2D
S11354401A6897F86A30342101FB03F313441B6B89
S1135450002B16D19E4B1A6897F86A30342101FB51
S113546003F313441B68C7F88830994B1A6897F8FC
S11354706A30342101FB03F313445B68C7F88430BA
S113548020E0934B1A6897F86A30342101FB03F348
S113549013440C33C7F888308D4B1A6897F86A3078
S11354A0342101FB03F313441433C7F88430884BCD
S11354B01A6897F86A30342101FB03F313441C3350
S11354C0C7F88030D7F88830002B09D00822002193
S11354D0D7F8880007F076FAD7F8883000225A60A7
S11354E0D7F88430002B09D008220021D7F8840093
S11354F007F068FAD7F8843000225A60D7F8803071
S1135500002B09D008220021D7F8800007F05AFAAE
S1135510D7F8803000225A60B7F88E30002B75D04F
S1135520002387F88D306AE0BB6C5B68002B1FD0CA
S1135530BB6C5968674B186897F88D2013461B019C
S11355409B1A9B0003441B7821FA03F303F0010325
S1135550002B0DD0D7F888305B685A1CD7F88830F8
S11355605A6097F88D30D7F88810184602F02AF957
S1135570BB6CDB68002B1FD0BB6CD968554B18681B
S113558097F88D2013461B019B1A9B0003441B783C
S113559021FA03F303F00103002B0DD0D7F8843074
S11355A05B685A1CD7F884305A6097F88D30D7F866
S11355B08410184602F006F9BB6C5969454B18680B
S11355C097F88D2013461B019B1A9B0003441B78FC
S11355D021FA03F303F00103002B0BD03E4B1968AF
S11355E097F88D2013469B0013449B010B44012222
S11355F083F8342097F88D30013387F88D30374B9A
S11356001B681B7B97F88D209A428DD3304B1A6808
S113561097F86A30342101FB03F313441B6B002B0E
S113562001F0AD842A4B1A6897F86A30342101FBE3
S113563003F313441C6B264B1A6897F86A30342121
S113564001FB03F3134403F10C00214B1A6897F890
S11356506A30342101FB03F3134403F114051C4B9A
S11356601A6897F86A30342101FB03F3134403F1F9
S11356701C02D7F890302946A047154B1A6897F8B2
S11356806A30342101FB03F3134400221A63104BE4
S11356901A6897F86A30342101FB03F3134400229B
S11356A083F82C20002301F08BBED7F89030002B18
S11356B041F067843B6E03221A70FB6D1B8E43F02E
S11356C001039AB2FB6D1A8601F05BBC44420020D0
S11356D04842002038420020344200204C4200203E
S11356E0D7F89030002B41F04E843B6E5B6A002B60
S11356F001F049843B6E9B6A002B01F044843B6EAD
S11357009A6AB7F88E30934228BF1346A7F87830C8
S11357103B6E5B6AB7F87820396F184607F047F993
S11357203B6E00225A6201F02EBCD7F89030002B59
S113573041F02B843B6E5B6A002B01F026843B6EA8
S11357409B6A002B01F021843B6E9A6AB7F88E3075
S1135750934228BF1346A7F878303B6E5B6AB7F8CC
S11357607820396F184607F022F93B6E00225A62FE
S113577001F00BBCD7F89030002B41F008843B6E4D
S11357805B6A002B01F003843B6E9B6A002B01F0E3
S1135790FE833B6E9A6AB7F88E30934228BF134655
S11357A0A7F878303B6E5B6AB7F87820396F1846F3
S11357B007F0FDF83B6E00225A6201F0E8BBD7F80F
S11357C09030002B41F0E5833B6E5B6A002B01F0C7
S11357D0E0833B6E9B6A002B01F0DB833B6E9A6A8D
S11357E0B7F88E30934228BF1346A7F878303B6E43
S11357F05B6AB7F87820396F184607F0D8F83B6E23
S113580000225A6201F0C5BBD7F89030002B41F05A
S1135810C2833B6E5B6A002B01F0BD833B6E9B6AC7
S1135820002B01F0B8833B6E9A6AB7F88E3093422E
S113583028BF1346A7F878303B6E5B6AB7F8782028
S1135840396F184607F0B3F83B6E00225A6201F034
S1135850A2BBD7F89030002B41F09F833B6E5B6A6C
S1135860002B01F09A833B6E9B6A002B01F0958319
S11358703B6E93F82C30042B5AD13B6E5B6A002BA1
S113588000F082803B6E9B6A002B7DD0B7F88E209F
S11358903B6E9B6A9A4203D33B6E9B6A9BB200E0C9
S11358A08623A7F878303B6F1A783B6E5B6A92B216
S11358B01A803B6F5A783B6E5B6A92B25A803B6E99
S11358C05B6A181D3B6F48332222194607F06FF8B4
S11358D03B6E5B6A03F126003B6F42330622194696
S11358E007F065F83B6E5B6A3A6F92F86C2083F8B8
S11358F02C203B6E5B6A03F12D003B6F0233402288
S1135900194607F054F83B6E5B6A03F16D003B6F78
S11359106E330422194607F04AF83B6E5B6A03F1C2
S113592071003B6F7E331022194607F040F82BE0DC
S11359303B6E93F82C30072B26D13B6E5B6A002B11
S113594022D03B6E9B6A002B1ED0B7F88E203B6E94
S11359509B6A9A4203D33B6E9B6A9BB200E0F2239C
S1135960A7F878303B6E5B6A18463B6F7A330222A5
S1135970194607F01CF83B6E5B6A981C3B6F9F331B
S1135980F022194607F013F83B6E00225A6201F028
S113599004BBD7F89030002B41F001833B6E5B6A67
S11359A0002B25D03B6E9B6A002B21D03B6E93F8D5
S11359B02C30092B1CD13B6E5B6A002B18D03B6E3C
S11359C09B6A002B14D0B7F88E203B6E9B6A9A42D8
S11359D003D33B6E9B6A9BB200E08623A7F8783022
S11359E03B6E5B6AB7F87820396F184606F0DFFF24
S11359F03B6E00225A6201F0D2BAD7F89030002BE5
S1135A0041F0CF823B6E5B6A002B01F0CA823B6E91
S1135A109B6A002B01F0C5823B6E93F82C30042B5B
S1135A205AD13B6E5B6A002B00F082803B6E9B6A0E
S1135A30002B7DD0B7F88E203B6E9B6A9A4203D32D
S1135A403B6E9B6A9BB200E08623A7F878303B6FDD
S1135A5003F17E023B6E5C6A1046FEF74DFA034684
S1135A6023803B6F03F128023B6E5C6A1046FEF70D
S1135A7043FA034663803B6E5B6A0433396F222228
S1135A80184606F094FF3B6E5B6A03F126003B6FF9
S1135A9022330622194606F08AFF3B6E5B6A03F145
S1135AA02D003B6F2A334022194606F080FF3B6EDF
S1135AB05B6A03F16D003B6F6A330422194606F0FA
S1135AC076FF3B6E5B6A03F171003B6F6E3310220D
S1135AD0194606F06CFF2BE03B6E93F82C30062B36
S1135AE026D13B6E5B6A002B22D03B6E9B6A002B57
S1135AF01ED0B7F88E203B6E9B6A9A4203D33B6E4E
S1135B009B6A9BB200E08623A7F878303B6E5B6A01
S1135B1018463B6F7E330222194606F048FF3B6E5F
S1135B205B6A981C3B6F8033C022194606F03FFF26
S1135B303B6E00225A6201F034BA7B6F05331B7846
S1135B40032B10D1B04B1B685B6A002B0BD0AE4B00
S1135B501B685B6AD7F8902090B27A6F053212788E
S1135B601146984714E07B6F05331B78042B0FD143
S1135B70A54B1B689B6A002B0AD0A34B1B689B6A2E
S1135B80D7F8902090B27A6F053212781146984770
S1135B9000210220FCF7AEFE002301F011BC9A4B59
S1135BA01B68D3F89030002B01F0FD81964B1B68E5
S1135BB0D3F89030D7F8902090B2B7F88E20396F90
S1135BC09847002301F0FCBB8F4B1B68D3F88C3043
S1135BD0002B01F0EA818C4B1B68D3F88C30D7F88A
S1135BE0902090B2B7F88E20396F9847002301F0C7
S1135BF0E7BB854B1B68DB6F002B01F0D881824B20
S1135C001B68DB6FD7F8902090B2B7F88E20396FFD
S1135C109847002301F0D4BB7B4B1B68D3F880303A
S1135C20002B01F0C681784B1B68D3F88030D7F87D
S1135C30902090B2B7F88E20396F9847002301F076
S1135C40BFBBD7F89030002B3CD13B6EDB8E062BCC
S1135C5002D03B6E04221A706B4B1B68D3F894304D
S1135C60002B12D0684B1B68D3F89430D7F89020DF
S1135C7090B2B7F88E20396F9847634B1B680022A7
S1135C80C3F89420002301F09BBB3B6E5B6A002B9E
S1135C9030D03B6E9B6A002B2CD03B6E9A6AB7F8CF
S1135CA08E30934228BF1346A7F878303B6E5B6A68
S1135CB0B7F87820396F184606F079FE3B6E00225B
S1135CC05A6217E0504B1B68D3F89430002B11D064
S1135CD04D4B1B68D3F89430D7F8902090B2002233
S1135CE000219847484B1B680022C3F894200023E6
