:10000000000008200502000031020000310200005B
:100010003102000031020000310200003102000014
:100020003102000031020000310200003102000004
:10003000310200003002000031020000591D0000B2
:1000400031020000310200003102000031020000E4
:1000500031020000310200003102000031020000D4
:1000600031020000310200003102000031020000C4
:10007000310200002D1600003102000031020000A4
:1000800031020000310200003102000031020000A4
:100090003102000031020000310200003102000094
:1000A0003102000031020000310200003102000084
:1000B0003102000031020000310200003102000074
:1000C0003102000031020000310200003102000064
:1000D0003102000031020000310200003102000054
:1000E0003102000031020000310200003102000044
:1000F0003102000031020000310200003102000034
:100100003102000031020000310200003102000023
:100110003102000031020000310200003102000013
:100120003102000031020000310200003102000003
:1001300031020000310200003102000031020000F3
:1001400031020000310200003102000031020000E3
:1001500010B5054C237833B9044B13B10448AFF301
:1001600000800123237010BD8800002000000000E3
:100170008C50010008B5034B1BB103490348AFF392
:10018000008008BD000000008C0000208C500100A1
:10019000154B002B08BF134B9D46A3F5803A002159
:1001A0008B460F461348144A121A13F07DF80F4B72
:1001B000002B00D098470E4B002B00D09847002012
:1001C000002104000D000D48002802D00C48AFF3B8
:1001D000008013F02BF82000290000F03DF913F007
:1001E00011F800BF00000800000008200000000017
:1001F000000000008800002064880020000000004B
:1002000000000000064880470649074A074B9A420B
:10021000BEBF51F8040B42F8040BF8E7FFF7B8FF34
:100220009503000098500100000000208800002085
:10023000FEE700BF80B582B000AF00F025F878601F
:100240000A4BD3F808311B0AC3F308033B603B6831
:1002500001337A68B2FBF3F37B60054A7B68136075
:100260007B6818460837BD4680BD00BF00400E4081
:100270000800002080B400AF024B1846BD465DF870
:10028000047B704700A24A0480B483B000AF334BB4
:10029000D3F8943003F00703023B042B49D801A2A2
:1002A00052F823F0C9020000C1020000B9020000A8
:1002B00029030000D1020000294B1B687B603CE051
:1002C0004FF400437B6038E0264B1B687B6034E0D2
:1002D000224B9B681B0C03F01F03073B072B1FD807
:1002E00001A252F823F000BF09030000210300001F
:1002F00021030000210300000F0300002103000080
:10030000150300001B030000174B7B600BE0174B2D
:100310007B6008E0164B7B6005E0164B7B6002E0DB
:1003200000237B6000BF08E0134B1B685B087B6009
:1003300003E0114B1B687B6000BF084BD3F8003112
:100340001B0A03F01F0301337A68B2FBF3F318466C
:100350000C37BD465DF8047B704700BF00400E407F
:1003600004000020000000200024F4000048E80100
:10037000006CDC0280F0FA020C00002080B400AFB8
:10038000034B1B681846BD465DF8047B704700BFF1
:100390000000002080B400AF074B084A9A60064B6B
:1003A000D3F88830044A43F47003C2F8883000BFA1
:1003B000BD465DF8047B704700ED00E000000000E2
:1003C00080B400AF4FF400431846BD465DF8047B8F
:1003D000704780B400AF4FF47A731846BD465DF89D
:1003E000047B704780B400AF034B1B681846BD46C2
:1003F0005DF8047B704700BF0400002080B582B028
:1004000000AF00237B600D21002001F043FF7860E6
:100410007B68002B05D079680A4812F04DFF7B6895
:100420000BE0094812F048FF00F0B4FB00F0EAFED0
:1004300000F04EFC02F074F8F8E718460837BD46A5
:1004400080BD00BFC0420100F842010080B500AF8E
:1004500002F066F8FCE7000080B582B000AF43F61A
:100460009821154801F0A8FD78607B68002B04DB1B
:100470007B6843F69822934201DD7B6818E03120C7
:1004800002F06CF878607B68002B05D079680B4827
:1004900012F012FF7B680BE0094812F00DFF0220FA
:1004A00007F004FAFFF7AAFF7860FFF7CFFF7B6839
:1004B00018460837BD4680BD540100201C4301008A
:1004C0005043010090B5C9B000AF07F10C042060A3
:1004D0000C461046194607F10A0322461A8007F116
:1004E000090302461A70BB1D0A461A8007F1100361
:1004F00018464FF488731A46002112F0D5FE07F112
:10050000100307F10C0212681A6007F1100307F1DB
:100510000A0212889A8007F1100302221A7207F168
:10052000100342F603029A8107F1100302221A77A0
:1005300007F110030622DA8307F1100307F109021D
:10054000127883F82020BB1D1A8807F1100322338C
:100550001146184609F0A0F9B7F8342107F1100345
:1005600024331146184609F097F907F1100318468D
:1005700001F08EFC00BF07F59277BD4690BD82B0BA
:1005800090B5C7B000AF3C1D206007F5947080E8BF
:100590000C00BB1C0A461A8007F1080318464FF4EA
:1005A00088731A46002112F07FFE07F108033A1DF6
:1005B00012681A6007F10803BA1C12889A8007F1C2
:1005C00008030833142207F59471184612F061FEEF
:1005D00007F1080397F83C211A7797F84431F02B7C
:1005E00028BFF023DBB29AB207F10803DA8307F1E0
:1005F0000803DB8B1A4607F108032033D7F84011B4
:10060000184612F046FE07F10803184601F040FCB8
:1006100097F83C3103F01003002B2AD007F10803B0
:100620004FF488720021184612F03EFE07F10803CD
:100630003A1D12681A60BB1C1B8801339AB207F17D
:1006400008039A8007F1080302221A7207F10803CF
:1006500042F602129A8107F108030A221A7707F17B
:1006600008030222DA8307F10803184601F010FCA0
:1006700000BF00BF07F58E77BD46BDE8904002B0D1
:1006800070470000F0B593B006AF07F11C030022DD
:100690001A605A609A60DA601A6107F11403002246
:1006A0001A605A603B4600221A605A609A60DA600B
:1006B0001A6102233B774AF6BB233B8407F11403FC
:1006C0000193FB6A009307F11C030FCB01F0BBFB06
:1006D00002233B7741F6A1233B847E693B8B0133A8
:1006E0001FFA83FC3B8B02331FFA83FE6D4607F132
:1006F0001C040FCC0FC523682B607346082261468B
:100700003046FFF7DFFE3B8BDBB20233DAB24F4BF2
:100710001A7002233B7741F6A1233B847D693B8B12
:1007200002339EB2142305933B460493082303939C
:100730006C4607F1240393E8070084E8070007F1FB
:100740001C030CCB31462846FFF719FF02233B77E9
:1007500041F6B1333B847E693B8B03331FFA83FC44
:100760003B8B04331FFA83FE6D4607F11C040FCC4C
:100770000FC523682B6073460A2261463046FFF797
:10078000A1FE3B8B04339AB2314B1A8002233B7794
:1007900041F6B1333B847D693B8B04339EB2142315
:1007A00005933B4604930A2303936C4607F1240305
:1007B00093E8070084E8070007F11C030CCB3146DF
:1007C0002846FFF7DCFE02233B7741F6C1433B841A
:1007D0007E693B8B05331FFA83FC3B8B06331FFA84
:1007E00083FE6D4607F11C040FCC0FC523682B60F8
:1007F0007346122261463046FFF764FE3B8B063398
:100800009AB2144B1A8002233B7741F6C1433B84D2
:100810007D693B8B06339EB2142305933B460493BC
:10082000122303936C4607F1240393E8070084E83E
:10083000070007F11C030CCB31462846FFF79FFE4B
:10084000002318463437BD46F0BD00BF200100200C
:10085000220100202401002080B400AF054B0022BB
:100860001A60054B4FF0FF321A6000BFBD465DF8BD
:10087000047B7047A4000020A800002080B483B04F
:1008800000AF786001227B689A40054B1B681343D8
:10089000034A136000BF0C37BD465DF8047B704708
:1008A000A400002080B483B000AF786001227B6890
:1008B00002FA03F3DA43054B1B681340034A136043
:1008C00000BF0C37BD465DF8047B7047A4000020D4
:1008D00080B483B000AF00237B600EE001227B6810
:1008E00002FA03F31A460A4B1B681340002B01D08F
:1008F0007B6807E07B6801337B607B681F2BEDD949
:100900004FF0FF3318460C37BD465DF8047B704747
:10091000A400002080B582B000AF78607B681A78B0
:10092000094B1A707B68013306221946074812F0FA
:10093000B0FC7B68DA7E044BDA710120FFF79EFF82
:1009400000BF0837BD4680BDAC000020AD000020D0
:1009500080B582B000AF786008227968044812F050
:1009600098FC0120FFF78AFF00BF0837BD4680BD15
:10097000AC00002080B582B000AF78600B467B8071
:1009800008227968044812F084FC0220FFF776FF01
:1009900000BF0837BD4680BDB400002080B582B0DE
:1009A00000AF78600520FFF769FF00BF0837BD463C
:1009B00080BD80B582B000AF78600620FFF75EFF93
:1009C00000BF0837BD4680BD80B582B000AF7860FB
:1009D0000720FFF753FF00BF0837BD4680BD80B535
:1009E00082B000AF03463960FB800820FFF746FF66
:1009F00000BF0837BD4680BD80B582B000AF03465A
:100A0000FB800920FFF73AFF00BF0837BD4680BDD5
:100A100080B584B000AF03463960FB800023FB60E3
:100A20003B6808331B887B814A4B1B789AB23B6832
:100A300008331B889A4240F088803B68DB7A7B72DF
:100A40007B7A323B062B7BD801A252F823F000BF01
:100A50008B0A00006D0A0000110B0000AF0A0000B5
:100A6000C50A0000E90A0000290B00003A4812F00C
:100A700023FC3A4B00221A7014220021384812F04D
:100A800013FC384B05221A7060E0374812F014FC52
:100A900032220021354812F007FC3B680E3319461C
:100AA000324812F064FC0D20FFF7E8FE4EE03048BB
:100AB00012F002FC3B689A7B2E4B1A700E20FFF757
:100AC000DDFE43E02C4812F0F7FB142200212448FD
:100AD00012F0EAFB3B680E331946284812F047FC37
:100AE000204B06221A7031E0254812F0E5FB142253
:100AF00000211B4812F0D8FB224B1B78002B03D09F
:100B00001020FFF7BBFE21E01120FFF7B7FE1DE02C
:100B10001D4812F0D1FB14220021114812F0C4FB31
:100B2000104B0C221A7011E0184812F0C5FB142269
:100B300000210B4812F0B8FB1320FFF79FFE05E0E1
:100B4000134812F0B9FB00BF00E000BF1037BD46EC
:100B500080BD00BF20010020744301001000002070
:100B6000F07800202879002090430100EC3B002021
:100B7000AC43010026790020CC4301000479002019
:100B8000E8430100260100200C4401002C44010030
:100B90004C44010080B59CB014AF3B461F2200219D
:100BA000184612F081FB02233B7001237B70062361
:100BB000BB70FFF751FEFFF765FD0023059300238F
:100BC000049300230393384B0293002301930023E3
:100BD00000930023354A3649002004F0F9F8002339
:100BE0001293002311930023109300230F930023EB
:100BF0000E9300230D9300230C9300230B930023EB
:100C00000A930023099300230893002307930023EA
:100C100006930023059300230493264B039300239C
:100C2000029300230193002300930023002200215C
:100C3000002004F041F900230693002305930023CC
:100C400004930023039300230293002301931A4B80
:100C500000931A4B1A4A1B491B4804F0F1F81B4831
:100C600001F053F9194812F08AFB0346DBB2013355
:100C7000DBB2FB7009233B713B4605331349184631
:100C800012F075FB114812F07AFB03469BB2053354
:100C90009AB23B461146184601F0ACF801F076F8DE
:100CA00000BF2037BD4680BD150900007509000052
:100CB00051090000110A0000F9090000DF090000D5
:100CC000C9090000B30900009D090000604401004B
:100CD00080B5F2B000AF0023C7F8C0310023C7F8D9
:100CE000BC3107F5CE7300221A605A609A60DA6050
:100CF0001A6107F5C47300221A605A609A60DA60BC
:100D00001A823B1DD64A12881A803B46D54A126881
:100D10001A60002387F8BB31002387F8BA31FFF748
:100D2000D7FDC7F8B401D7F8B431B3F1FF3F00F0F5
:100D3000F681D7F8B431013B142B00F2F28101A205
:100D400052F823F0990D0000A70D0000550F000088
:100D500023110000231100002311000023110000C3
:100D60002311000023110000C10D00002311000019
:100D700023110000350F00003D0F0000A50E0000FC
:100D8000330E0000730E0000D70E0000D70D0000D8
:100D9000090F0000331000000120FFF783FDB24B64
:100DA00001221A70B9E10220FFF77CFD00F0EEFF8E
:100DB000C7F8C001D7F8C031002B00F0AB81F5E7D0
:100DC0000A20FFF76FFDA94B1B88A94A142118467A
:100DD00001F06CF8A1E11320FFF764FD07F5CE7375
:100DE00014220021184612F05FFA07F16C03122258
:100DF000194601200FF06EF9C7F8C001082387F8E3
:100E00009C31082387F89D3107F16C0107F5CE73FB
:100E100002330822184612F03CFA944B1B8807F55F
:100E2000CE721421184601F041F8924812F044FAAB
:100E300073E11020FFF736FD07F5CE731422002171
:100E4000184612F031FA07F5CE730233184612F045
:100E500096FA03465BB287F89D31072387F89C31E9
:100E6000824B1B8807F5CE721421184601F01EF83C
:100E700053E11120FFF716FD07F5CE731422002170
:100E8000184612F011FA072387F89C31002387F8DF
:100E90009D31764B1B8807F5CE721421184601F060
:100EA00005F83AE10F20FFF7FDFC07F5CE73142299
:100EB0000021184612F0F8F9012387F89D31042328
:100EC00087F89C31694B1B8807F5CE7214211846B0
:100ED00000F0ECFF21E11220FFF7E4FC07F5CE73F0
:100EE00014220021184612F0DFF9022387F89C3102
:100EF000002387F89D315D4B1B8807F5CE721421C6
:100F0000184600F0D3FF08E11420FFF7CBFC07F5EB
:100F1000CE7314220021184612F0C6F9012387F877
:100F20009C31524B1B8807F5CE721421184600F0F5
:100F3000BDFFF2E00D20FFF7B5FCEEE00E20FFF75D
:100F4000B1FC4D4B1B78302B40F0E6804B4B06221A
:100F50001A70E1E00320FFF7A5FC07F5CE73142219
:100F60000021184612F0A0F9032387F89C31444B66
:100F70001B785BB287F89D313C4B1B8807F5CE721E
:100F80001421184600F092FF3E4812F095F9002314
:100F900087F8C73143E007F5CE73142200211846C5
:100FA00012F082F997F8C731354A2E2101FB03F37D
:100FB000134409331B785BB287F89C312C2387F8E4
:100FC0009D3107F5CE73023397F8C7212E2101FB1F
:100FD00002F208322A490A4404321146184612F035
:100FE000C6F907F5CE730233184612F0C8F9034666
:100FF00087F8B33197F8B331023387F8B331224B16
:101000001B8807F5CE721421184600F04FFF0A2006
:1010100000F089FE97F8C731013387F8C731184BC4
:101020001B7897F8C7219A42B5D3184812F044F9B3
:1010300073E01520FFF736FC07F5CE73142200216C
:10104000184612F031F9022387F89C31012387F802
:101050009D312C2387F89E31002387F8C63129E083
:101060005C45010060450100510100202201002083
:10107000BC0000207C440100267900202879002053
:10108000543C0020B444010024010020E844010045
:1010900097F8C631254AD25C97F8C631033352B26D
:1010A00007F5E4710B4403F82C2C97F8C631013393
:1010B00087F8C63197F8C631052BE9D997F8C631BC
:1010C000033307F5E47213442C2203F82C2C11E0AF
:1010D00097F8C631154AD25C97F8C631043352B23C
:1010E00007F5E4710B4403F82C2C97F8C631013353
:1010F00087F8C63197F8C631092BE9D90C4B1B8804
:1011000007F5CE721421184600F0D0FE094812F0FF
:10111000D3F802E000BF00E000BF00BF01E000BF65
:1011200000E000BF07F5E477BD4680BDE47F002006
:10113000220100202045010080B582B000AF0346A7
:101140003960FB801346BB80FB88013B042B2DD804
:1011500001A252F823F000BF6D1100008D110000B4
:10116000951100009D110000A511000040F202221F
:101170000021104812F098F8BB881A4639680D48CB
:1011800012F087F80320FFF779FB0FE01520FFF737
:1011900075FB0BE01420FFF771FB07E00F20FFF752
:1011A0006DFB03E01220FFF769FB00BF00BF0837AB
:1011B000BD4680BD543C002080B485B000AFF860CF
:1011C000B9607A60074B01221A70074B00221A702F
:1011D000064B0B221A7000BF1437BD465DF8047B26
:1011E000704700BF28010020260100202879002038
:1011F00080B500AF024900200FF062F900BF80BD4A
:10120000B911000080B58AB004AF00237B61A34B05
:101210001B780E2B00F29F8101A252F823F000BF31
:101220005D1200005715000025140000571500003E
:10123000571500007F120000C9120000571500006A
:101240005715000057150000571500000D15000038
:1012500025150000571500008D130000062000F032
:1012600062FDFFF7C5FF8E4B1B78002B03D08B4B25
:101270000E221A7074E1894B01221A7070E1894BB9
:1012800040F202221A8040F202220021864812F027
:101290000BF8844B1B88844A002100200EF01AF9B9
:1012A00078617B69002B04D07969804812F004F8DA
:1012B00056E17A4B01221A707A4B1B881A467A49FA
:1012C0000120FFF739FF4BE1794B1B78002B03D04E
:1012D000774B1B78302B06D10022002175480EF089
:1012E00089FA78612BE0724B1B78012B03D0704B8D
:1012F0001B78312B06D1704A01216E480EF07AFA24
:1013000078611CE06A4B1B78022B03D0684B1B787A
:10131000322B06D1684A022166480EF06BFA7861DA
:101320000DE0634B1B78062B03D0614B1B78362BEB
:1013300005D1614A06215F480EF05CFA78617B694D
:10134000002B1CD05D4B1B780133DAB25B4B1A705B
:101350005A4B1B78052B0DD1584B00221A70584B55
:1013600001221A70012256490520FFF7E5FE4B4B7A
:101370000D221A707969534811F09EFFF0E04F4B2F
:1013800000221A70454B02221A70E9E04E4B1B787E
:10139000002B00F0E280464B1B78002B03D0444B1F
:1013A0001B78302B06D10022002142480EF022FA91
:1013B00078612BE03E4B1B78012B03D03C4B1B7814
:1013C000312B06D13C4A01213A480EF013FA7861DC
:1013D0001CE0374B1B78022B03D0354B1B78322B8C
:1013E00006D1354A022133480EF004FA78610DE047
:1013F0002F4B1B78062B03D02D4B1B78362B05D19A
:101400002D4A06212B480EF0F5F978617B69002BF7
:1014100004D079692B4811F04FFFA1E01F4B022245
:101420001A709AE00023039312230293274B01932F
:101430000023009300230022012104200EF06AFD06
:1014400078617B69002B49D01C4B1B780133DAB2E1
:101450001A4B1A70194B1B78032B19D1174B00220A
:101460001A70174B01221A700EF00CFD78617B691F
:10147000002B0DD1164B00221A70164B01221A7048
:1014800001220F490520FFF757FE044B0D221A7069
:101490007969114811F010FF62E000BF287900203F
:1014A00050010020E27F0020FC7F0020C8460100A0
:1014B00026790020EC3B0020047900202A0100203E
:1014C00027010020F046010010000020E47F0020EA
:1014D00026010020290100201C470100234B002287
:1014E0001A70234B01221A70224B01221A70224BD0
:1014F00000221A70214B00221A70214B03221A700D
:1015000001221B490220FFF717FE29E01D4B012293
:101510001A70012218490320FFF70EFE184B0E2205
:101520001A701DE00EF0AEFC78617B69002B16D1BD
:101530007969154811F0C0FE104B01221A700C4B4E
:1015400000221A7001220D490420FFF7F5FD0C4B13
:1015500001221A7003E000BF02E000BF00E000BFFC
:1015600000BF18461837BD4680BD00BF2A010020C5
:1015700026010020E07F0020280100202901002012
:1015800028790020100000204447010080B483B077
:1015900000AF0346FB7197F90730002B0BDBFB799B
:1015A00003F01F02074997F907305B09012000FA91
:1015B00002F241F8232000BF0C37BD465DF8047BE2
:1015C000704700BF00E100E080B483B000AF034685
:1015D000FB7197F90730002B10DBFB7903F01F023A
:1015E000094997F907305B09012000FA02F220331C
:1015F00041F82320BFF34F8FBFF36F8F00BF0C372D
:10160000BD465DF8047B704700E100E080B483B024
:1016100000AF7860044A7B68C2F8243400BF0C37FE
:10162000BD465DF8047B70470080084080B500AF80
:10163000064B1B68002B02D0044B1B6898474AF6E8
:10164000AA20FFF7E3FF00BF80BD00BF008200209B
:1016500080B483B000AF7860044A7B68136000BF39
:101660000C37BD465DF8047B704700BF0082002048
:1016700080B500AF0D20FFF7A7FF00BF80BD80B58C
:1016800000AF0D20FFF782FF00BF80BD80B485B0A2
:1016900000AF786039607B6803F10473DA003B685F
:1016A00013449B00FB60FB681B6818461437BD465B
:1016B0005DF8047B704780B485B000AF7860396016
:1016C0007B6803F18063FB60FB683A681A6000BFC7
:1016D0001437BD465DF8047B704780B582B000AF1B
:1016E00003463960FB71FB79002B16D0FB79012B87
:1016F00013D0FB79022B10D0FB79032B0DD0FB7993
:10170000042B0AD0FB79052B07D0FB79062B04D0DC
:10171000FB79072B01D0FB79082BFA7913465B0084
:1017200013441B011C3303F1804303F5082339687C
:101730001846FFF7ABFF034618460837BD4680BD85
:1017400080B582B000AF03463960FB71FB79002B96
:1017500016D0FB79012B13D0FB79022B10D0FB792B
:10176000032B0DD0FB79042B0AD0FB79052B07D076
:10177000FB79062B04D0FB79072B01D0FB79082BD2
:10178000FA7913465B0013441B010C3303F18043C9
:1017900003F5082301213A6801FA02F211461846BE
:1017A000FFF789FF00BF0837BD4680BD80B582B016
:1017B00000AF0346FB710B46BB7113467B710121E1
:1017C0000C480FF093FC002304220C21002011F0A0
:1017D000CFFA002301220D21002011F0C9FA0123C4
:1017E00004220B21012011F0C3FA00BF0837BD46C7
:1017F00080BD00BF00550A0080B582B000AF03462F
:10180000FB71FB79042B05D1012304220C2100205C
:1018100011F0AEFAFB79032B05D1012301220D2132
:10182000002011F0A5FAFB79012B06D10123072234
:101830000B21012011F09CFA00BF00BF0837BD4604
:1018400080BD80B584B000AF0346FB710023FB73FD
:10185000FB79042B05D10C210020FFF73EFF034646
:10186000FB73FB79032B05D10D210020FFF735FF1A
:101870000346FB73FB79022B05D109210120FFF7F9
:101880002CFF0346FB73FB7B18461037BD4680BD1B
:1018900080B582B000AF0346FB71FB79042B03D106
:1018A0000C210020FFF74CFFFB79032B03D10D2106
:1018B0000020FFF745FFFB79062B03D10C21002008
:1018C000FFF73EFFFB79012B04D10B210120FFF72D
:1018D00037FF00BF00BF0837BD4680BD80B483B06E
:1018E00000AF03463960FB7197F90730002B0ADB24
:1018F0003B68DAB20C4997F907305201D2B20B4477
:1019000083F800230AE03B68DAB20849FB7903F068
:101910000F03043B5201D2B20B441A7600BF0C37BE
:10192000BD465DF8047B704700E100E000ED00E09B
:1019300080B582B000AF78607B68013BB3F1807FF7
:1019400001D301230FE00A4A7B68013B5360072162
:101950004FF0FF30FFF7C2FF054B00229A60044BA7
:1019600007221A60002318460837BD4680BD00BF15
:1019700010E000E080B483B000AF78604FF06043C7
:10198000D3F8803E03F00103002B13D04FF06043E7
:10199000D3F8003E03F00103002B0BD000E000BFA2
:1019A0004FF060431B68002BF9D04FF060437A681A
:1019B000D2B21A707B6818460C37BD465DF8047BBE
:1019C0007047000080B400AF4FF0804301225A649A
:1019D000184BD3F8B030174A43F00103C2F8B030C7
:1019E000144BD3F8E030134A43F00803C2F8E03058
:1019F000114B1B68104A43F4805313600D4BD3F80E
:101A0000E0300C4A23F00803C2F8E030094BD3F869
:101A1000B030084A23F00103C2F8B030074B1B680E
:101A2000064A43F4F843136000BFBD465DF8047BEB
:101A3000704700BF00400E4034400540A4310E40C6
:101A400080B582B000AF0346FB71FB791846FFF703
:101A500091FF034618460837BD4680BD80B400AFED
:101A600000231846BD465DF8047B7047B0B588B0CA
:101A700000AF0023FB61012123480FF037FB224810
:101A80000FF0DCFBF861002304220C21042011F08C
:101A90006FF9012304220D21042011F069F90123BB
:101AA00004220A21042011F063F9012301220B21F1
:101AB000042011F05DF9154B3C1D1D460FCD0FC4E0
:101AC00095E8030084E8030001237B74104BFB605E
:101AD00001237B760023BB820123BB7400233B716F
:101AE0003B1D19460B4811F065FA0A4B00229A6714
:101AF000084B0F225A670521064811F011FA00BF62
:101B00002037BD46B0BD00BF00720400D8480100B8
:101B1000404B4C000000014080B483B000AF354B17
:101B2000D3F8B030334A43F02003C2F8B030324B20
:101B3000D3F84034304A43F01003C2F840342E4BFF
:101B4000D3F844342C4A23F00303C2F844342A4B1C
:101B5000D3F8F430284A23F47063C2F8F430264BEB
:101B6000D3F8F430244A43F48063C2F8F4301523E8
:101B70007B60204B10221A6600BF1E4BD3F89030BA
:101B800003F02003002BF8D01C4B1B681B4A43F0CA
:101B900001031360194BDB68184A43F08073D3606C
:101BA000174B40F2FF321A60164A7B681361154BDF
:101BB0000222C3F8F020134B4FF48072C3F80423C1
:101BC0004FF06043104AC3F8B02F4FF060430F4A04
:101BD000C3F8802E4FF06043D3F8003E4FF06042D0
:101BE00043F00103C2F8003E00BF0C37BD465DF86C
:101BF000047B704700400E4000800840F0ED00E09C
:101C0000001000E0000004E055CEACC50900010062
:101C100080B582B002AFFFF7D5FEFFF77DFF01224E
:101C20000121022010F09CFC0421112010F0CEF9BB
:101C3000012115480FF05AFA012114480FF056FA05
:101C4000002301220921012011F092F801230193C0
:101C500000230093012309220921012010F0EEFF47
:101C6000FFF704FF08480FF0E9FA0246084BA3FB10
:101C700002239B091846FFF75BFE0346002B00D0AA
:101C800000BE00BFBD4680BD7000020000550A00C6
:101C9000D34D621080B586B000AFF860B9601146D0
:101CA0001A460B46FB8013467B71FB68002B02D162
:101CB000124BFB6004E0BB68002B01D10F4BBB60F3
:101CC0000023FB8210E0FB8AFA6813441B78194654
:101CD0000B4811F077FA0146FB8ABA681344CAB27E
:101CE0001A70FB8A0133FB82FA8AFB889A42EAD394
:101CF000002318461837BD4680BD00BF048200206F
:101D00000000014080B483B000AF3B600346FB712C
:101D10000B46BB7113467B71002318460C37BD463A
:101D20005DF8047B704780B584B000AF78607B6855
:101D3000002B0CD000F01EF8F86000F01BF80246F3
:101D4000FB68D31A7A689A42F7D800BF00E000BF58
:101D50001037BD4680BD000080B400AF044B1B6847
:101D60000133034A136000BFBD465DF8047B704732
:101D70002C01002080B400AF034B1B681846BD4601
:101D80005DF8047B704700BF2C01002080B584B053
:101D900000AF3B4600221A605A609A60DA60012365
:101DA0003B7080237B700023BB700023FB703B469D
:101DB00004330F49184607F023FE7B89002B02D11C
:101DC0004FF480737B81BB89002B02D14FF40073E9
:101DD000BB810023BB730723FB733B4600221946DC
:101DE000752005F03FFC034618461037BD4680BD00
:101DF000544A010080B58AB000AF78600B467B8002
:101E000007F1080320220021184611F04DFA7B88C3
:101E10001F2B28BF1F239BB2DBB23B723B7A1A46B3
:101E200007F1080301337968184611F032FA07F117
:101E30000803002219469C2005F014FC03461846AE
:101E40002837BD4680BD84B080B586B000AF07F1AD
:101E5000200C8CE80F003B4600221A605A609A6002
:101E6000DA601A615A613B46142207F120011846D4
:101E700011F00FFA3B467A6B1946922005F0F2FBFF
:101E8000034618461837BD46BDE8804004B0704789
:101E900080B582B000AF786000227968932005F0A9
:101EA000E1FB034618460837BD4680BD80B5C0B08B
:101EB00000AF3B461A600346FB800B46BB8007F130
:101EC0000C03F4220021184611F0EEF9FB88BB81C7
:101ED000BB88F02B28BFF0239BB2FB81FB891946FE
:101EE0003B4607F10C02101D0A46196811F0D1F9A2
:101EF00007F10C0300221946942005F0B3FB0346BA
:101F0000184607F58077BD4680BD80B590B000AF1C
:101F1000786007F10C0333220021184611F0C4F950
:101F2000786811F02CFA0346312B05D8786811F047
:101F300026FA0346DBB200E0312387F83F3097F8FA
:101F40003F2007F10C0301337968184611F0A1F91D
:101F500097F83F3007F140021344002203F8332C76
:101F600007F10C0300221946012005F07BFB034614
:101F700018464037BD4680BD80B400AF044B1B6897
:101F8000DB685B681846BD465DF8047B704700BFA0
:101F90003001002080B483B000AF7860054B1B682F
:101FA000DB687A685A6000BF0C37BD465DF8047B79
:101FB000704700BF3001002080B586B002AF786066
:101FC00039600023FB600023BB607B6803F00303E0
:101FD000002B0BD07B6803F003023B681344043BE7
:101FE0003B607B68033323F003037B603A68002186
:101FF000786811F059F900F09FFA03461A46BB6859
:102000001344BB603A68BB689A4201D2BB6828E1BE
:10201000964A7B6813607B683A681A607B68043371
:102020007B60934A7B6813607B68AC337B60914A2A
:102030007B6813607B6820337B608F4A7B6813600A
:102040007B6844337B608D4A7B6813607B68F03328
:102050007B608B4A7B6813607B6803F5A0637B60C1
:10206000884A7B6813607B68D0337B60864A7B68D4
:1020700013607B68C4337B607D4B1B687A681A648D
:102080007B680C337B600CF0A1FC794B1B68184615
:102090004FF4C8634FF4CA62796807F0D5FA7B68D9
:1020A00003F5CA637B60794A7B6813607B685433AD
:1020B0007B606F4B1B687A68DA607B6840337B60BB
:1020C0006B4B1B68DB68184605F0FCFB684B1B6814
:1020D000DB6803F1140064237422796807F0B4FA12
:1020E0007B6874337B60624B1B687A681A627B681A
:1020F00038337B605E4B1B681B6A184607F094FE02
:102100005B4B1B681B6A03F114004FF4C8634FF468
:10211000CA62796807F098FA7B6803F5CA637B6046
:10212000534B1B683433184607F054FB06F0B0FEDF
:102130004F4B1B682433184607F0CEFA4C4B1B68F4
:102140001033184607F0C8FA494B1B687A68DA66FC
:102150007B68D0337B60464B1B68DB6E184601F012
:10216000EBFB434B1B68DB6E03F11C004FF49673D3
:102170004FF49E72796807F067FA7B6803F59E73E7
:102180007B603B4B1B687033184607F0A5FA384B51
:102190001B687A68C3F890207B68D0337B60344B2F
:1021A0001B68D3F89030184601F0C6FB304B1B6813
:1021B000D3F8903003F11C004FF482634FF4846233
:1021C000796807F041FA7B6803F584637B60284BEC
:1021D0001B687A68C3F8A4207B68D0337B60244BEB
:1021E0001B68D3F8A430184601F0A6FB204B1B68EF
:1021F000D3F8A43003F11C004FF496734FF49E7291
:10220000796807F021FA7B6803F59E737B60184BB1
:102210001B687A689A667B6810337B60144B1B6876
:102220007968184601F0CCFB03461A467B681344D4
:102230007B607B680D4A12689B1A1A463B68934282
:1022400004D27B68094A12689B1A0AE0104B00937B
:102250000123012201210020FFF754FD05F0B3FF07
:10226000BB6818461037BD4680BD00BF3401002052
:1022700030010020508800204C8800204888002031
:10228000448800205888002054880020380100200D
:102290002598000080B588B000AF03460A46FB8051
:1022A0001346BB800023FB61674B1B68DB68BB6187
:1022B000654B1B681B6A7B61BB69BA881A86BB6960
:1022C0001B8E23F001039AB2BB691A8607F108033B
:1022D0004EF66021184607F0BAFA10E05A4B1B6818
:1022E0003433184607F08AFA07F10803184607F056
:1022F000BEFA0346002B02D06FF01703A0E0BB69C3
:102300001B78DBB2002BE9D07B695B78DBB2002B5A
:102310003ED07B695B78DBB2092B04D07B695B78AC
:10232000DBB20A2B16D17B691B78DBB2022B06D9F4
:10233000BB691B8E43F001039AB2BB691A867B69A5
:1023400000225A7000BFFFF717FEF861FB69002BEF
:1023500013D010E03D4B1B6810333D49184607F081
:10236000F1F80346002BD4D06FF01D00FFF712FEEA
:102370006FF01D0364E0FB6962E00DF09DFEF86103
:10238000FB69002B01D0FB695AE045F65A2357E060
:10239000BB691B78DBB2012B02D06FF002034FE068
:1023A0000121002005F046FF0346002B3CD1BB690C
:1023B0001433184607F064F938613B69002B06D1E5
:1023C0000021002005F036FF6FF0030338E03B6981
:1023D000143328220021184610F066FF3B6914339D
:1023E000FB607B69FA88DA86F868BB881A04FB8888
:1023F0001343194607F066FA3969102005F0C0FA50
:10240000F861124B1B6814334EF66021184605F034
:10241000F9FE0021002005F00DFFFFF7ADFDF8618A
:10242000FB69002B0BD102E06FF0220308E0BB88B0
:102430000D2B02D0BB88052B01D101F0EBFAFB6913
:1024400018462037BD4680BD3001002038010020ED
:10245000400D030080B586B000AF78600B467B80EE
:1024600000237B612B4B1B68DB683B613B691B785E
:10247000DBB2002B0BD105E0264B1B68343318462A
:1024800007F0BCF93B691B78DBB2012BF4D10121C9
:10249000002005F0CFFE0346002B34D13B691433F6
:1024A000184607F0EDF8F860FB68002B06D1002114
:1024B000002005F0BFFE6FF0030326E07B68002BD1
:1024C00006D03B697A685A637A883B699A6305E06B
:1024D0003B6900225A633B6900229A63F9684920EC
:1024E00005F04EFA78610C4B1B6814330B49184603
:1024F00005F088FE0021002005F09CFEFFF73CFD62
:1025000078617B6901E06FF0220318461837BD46F9
:1025100080BD00BF300100203801002020A107004D
:1025200080B500AF034B1B683433184607F066F9DB
:1025300000BF80BD3001002080B483B000AF002315
:102540007B607B6803F5085324337B607B68184607
:102550000C37BD465DF8047B7047000080B584B041
:1025600000AF0346FB710023FB60FFF751FB05F052
:10257000DBFE0346FB60FB68002B01D0FB6853E0E9
:102580006420FFF7D0FB00F017FB0346FB60FB68FD
:10259000002B01D0FB6847E007F108034EF66021ED
:1025A000184607F054F905F0D3FE0346FB60FB68BC
:1025B000002B05DAFB6813F10C0F01D0FB6833E048
:1025C00007F10803184607F052F90346002B02D022
:1025D0006FF0180328E0FB6813F10C0FE3D0FB79D0
:1025E000312B03D1002000F083FA0CE0FB79712B32
:1025F00009D1022000F07CFA0346FB60FB68002B47
:1026000001DAFB6810E0FB79184605F0E5FE0346A9
:10261000FB60FB68002B01DAFB6805E00448FFF76C
:1026200017F8FFF72CF8FB6818461037BD4680BD39
:102630004987000090B587B000AF786007F10C03C0
:10264000184600F05FF80346FB82B7F91630002BFE
:1026500002D0B7F9163020E007F10C030233184618
:1026600007F046F90346043B9CB207F10C031846F9
:1026700007F03EF90346043B9BB21A4621467868B0
:1026800000F08EF80346FB82B7F91630002B02D01B
:10269000B7F9163001E0B7F9163018461C37BD46B9
:1026A00090BD80B586B000AFF860B9601346FB807E
:1026B000F86800F0E9F80346FB82B7F91630002B02
:1026C00002D0B7F9163019E0FB88002B14D0FB8834
:1026D00003339BB223F00303FB80F888002300221E
:1026E000B96800F011F90346FB82B7F91630002BE8
:1026F00002D0B7F9163001E0B7F91630184618378E
:10270000BD4680BD80B584B000AF78605C23FB73AC
:102710000023BB7304237B7300233B73BA7BFB7BD7
:102720001146184600F04CF903467B81B7F90A3090
:10273000002B02D0B7F90A302CE03A7B7B7B1146A4
:10274000184600F085F903467B81B7F90A30002B63
:1027500002D0B7F90A301DE00121104800F09AF9C3
:1027600003467B81B7F90A30002B02D0B7F90A3053
:1027700010E00123042279680020FFF78BFA03465A
:102780007B81B7F90A30002B02D0B7F90A3001E09B
:10279000B7F90A3018461037BD4680BD20A10700A2
:1027A00080B588B000AF78600B467B8013463B80D5
:1027B0000023BB613B88033323F00303BB615D232C
:1027C000FB750023BB75BB697B75BB691B0A3B7539
:1027D000BA7DFB7D1146184600F0F2F80346FB83F4
:1027E000B7F91E30002B02D0B7F91E3046E03A7D13
:1027F0007B7D1146184600F02BF90346FB83B7F9A1
:102800001E30002B02D0B7F91E3037E001211D48E1
:1028100000F040F90346FB83B7F91E30002B02D0CD
:10282000B7F91E302AE07B88002B0FD07A8807F199
:102830000C0100230020FFF72DFA0346FB83B7F9B4
:102840001E30002B02D0B7F91E3017E07B68002B3A
:1028500012D0BB699AB27B88D31A9AB201237968E5
:102860000020FFF717FA0346FB83B7F91E30002B51
:1028700002D0B7F91E3001E0B7F91E3018462037F4
:10288000BD4680BD20A1070080B588B000AF78604C
:102890007C23FB770023BB7710237B7700233B77D8
:1028A000BA7FFB7F1146184600F08AF803467B8307
:1028B000B7F91A30002B02D0B7F91A3020E03A7F6E
:1028C0007B7F1146184600F0C3F803467B83B7F9B7
:1028D0001A30002B02D0B7F91A3011E0786807F1EE
:1028E000080101231022FFF7D5F903467B83B7F9CE
:1028F0001A30002B02D0B7F91A3001E0B7F91A30BC
:1029000018462037BD4680BD80B586B000AFB9609F
:102910007B600346FB811346BB81FA89BB89134464
:10292000BB827C23FB740023BB74BB8A7B74BB8A91
:102930001B0A9BB23B74BA7CFB7C1146184600F024
:102940003FF80346FB82B7F91630002B02D0B7F9E7
:10295000163031E03A7C7B7C1146184600F078F85E
:102960000346FB82B7F91630002B02D0B7F91630B8
:1029700022E0FA8901230021B868FFF78BF90346AA
:10298000FB82B7F91630002B02D0B7F9163013E0EE
:10299000BB89002B0ED0BA89012300217868FFF78C
:1029A00079F90346FB82B7F91630002B02D0B7F94C
:1029B000163001E0B7F9163018461837BD4680BD0D
:1029C00080B588B000AF03460A46FB711346BB7161
:1029D0004CF25033BB611D4B1B6800221A64FB791B
:1029E0003B75BB797B75194B1A68136C591C1164C4
:1029F000BA699A4203D24FF6E973FB8320E007F1EC
:102A00000C0107F1140000230222FFF743F90346EB
:102A1000FB837B7B582B02D07B7B002B02D10023D6
:102A2000FB830DE07B7B522B03D14FF6FE73FB83C0
:102A300006E07B7B542BD2D14FF6FF73FB83CEE7AE
:102A4000B7F91E3018462037BD4680BD380100203A
:102A500080B584B000AF03460A46FB711346BB71D4
:102A6000FB793B73BB797B7307F10C0000230222D7
:102A70000021FFF70FF90346FB81B7F90E30002B59
:102A800002D0B7F90E3001E0B7F90E301846103712
:102A9000BD4680BD80B584B000AF78600B46FB704A
:102AA000124B1B6800221A64104B1A68136C591CD5
:102AB00011647A689A4203D24FF6FF73FB810FE0EC
:102AC00000237B73FB7807F10D0101220020FFF743
:102AD000E1F80346FB817B7B552BE5D10023FB818D
:102AE000B7F90E3018461037BD4680BD38010020BA
:102AF00080B584B000AF786000233B7300237B7304
:102B000007F10C031A460221144800F01DF9034690
:102B1000FB81B7F90E30002B1AD17B7B23F0030326
:102B2000DBB27B737A7B7B68DBB21343DBB27B73F4
:102B300007F10C031A460221084800F0A1F80346E9
:102B4000FB81B7F90E30002B02D0B7F90E3001E04F
:102B5000B7F90E3018461037BD4680BD000005415C
:102B600080B584B000AF78604CF25033BB60114B3D
:102B70001B6800225A640F4B1A68536C591C51642D
:102B8000BA689A4203D24FF6E973FB810CE0796888
:102B9000002000F055F90346FB81B7F90E30B3F180
:102BA000FF3F00D1E7E700BFB7F90E3018461037F6
:102BB000BD4680BD3801002080B584B000AF002341
:102BC0007B600023FB810A23BB81184B1B6800221A
:102BD0001A64164B1A68136C591C1164BA89934213
:102BE00003D94FF6E973FB811AE012233B724A23A3
:102BF0007B725C23BB720023FB72391D07F1080056
:102C000000230422FFF746F80346FB81FB79582B8B
:102C100002D10023FB8103E04FF6FF73FB81D8E76D
:102C2000B7F90E3018461037BD4680BD3801002078
:102C300080B582B000AF12233B714A237B715C23C5
:102C4000BB710023FB713946381D00230222FFF7B8
:102C500021F87B78522B0DD07B78002BF3D13946AD
:102C60003B1D981C00230222FFF714F87B78582B99
:102C700002D0E8E700BF00E000BF0837BD4680BDD6
:102C800080B58AB000AFF8600B467A607B81742310
:102C900087F82730002387F826307B8987F825308E
:102CA0007B891B0A9BB287F8243007F11C03F96863
:102CB000184606F007FE97F8262097F827301146A9
:102CC0001846FFF77DFE03467B84B7F92230002BC0
:102CD00002D0B7F9223032E097F8242097F8253057
:102CE00011461846FFF7B4FE03467B84B7F922303D
:102CF000002B02D0B7F9223021E007F1140107F1CF
:102D00001C0000230422FEF7C5FF03467B84B7F9AD
:102D10002230002B02D0B7F9223010E07A8900234C
:102D200000217868FEF7B6FF03467B84B7F92230AE
:102D3000002B02D0B7F9223001E0B7F92230184653
:102D40002837BD4680BD000080B58AB000AFF8606E
:102D50000B467A607B81542387F82730002387F85D
:102D600026307B8987F825307B891B0A9BB287F840
:102D70002430FB68DBB23B77FB681B0ADBB27B7756
:102D8000FB681B0CDBB2BB77FB681B0EDBB2FB776F
:102D900097F8262097F8273011461846FFF710FEBF
:102DA00003467B84B7F92230002B02D0B7F92230DA
:102DB0003FE097F8242097F8253011461846FFF792
:102DC00047FE03467B84B7F92230002B02D0B7F9C7
:102DD00022302EE007F1140107F11C000023042229
:102DE000FEF758FF03467B84B7F92230002B02D050
:102DF000B7F922301DE000211048FFF74BFE0346D3
:102E00007B84B7F92230002B02D0B7F9223010E0D2
:102E10007A89002379680020FEF73CFF03467B8413
:102E2000B7F92230002B02D0B7F9223001E0B7F910
:102E3000223018462837BD4680BD00BF20A10700BC
:102E400080B584B000AF03463960FB714123FB734A
:102E50000023BB73BA7BFB791343BB73BA7BFB7B49
:102E600011461846FFF7ACFD0346BB81B7F90C309D
:102E7000002B02D0B7F90C3016E000210C48FFF708
:102E800009FE0346BB81B7F90C30002B02D0B7F91D
:102E90000C3009E00023012239680020FEF7FAFE19
:102EA0000346BB81B7F90C3018461037BD4680BDCC
:102EB00020A1070080B485B000AF03463960FB80D5
:102EC000FF23FB81FB8841F2060293421DD1754B23
:102ED0001B68DB6EDB7C002B07D10223FB81714B6F
:102EE0001B68D3F890203B681A606E4B1B68DB6E42
:102EF000DB7C012B07D10323FB816A4B1B68D3F8D2
:102F0000A4203B681A60FB89A9E1FB8840F20552C6
:102F100093422FD0FB88002B02D0FB88072B29D9A6
:102F2000FB888C2B02D9FB888F2B23D9FB88A62BFF
:102F300020D0FB88A72B1DD0FB88B3F5977F19D035
:102F4000FB8848F21002934214D0FB8848F2150225
:102F500093420FD0FB8848F21C0293420AD0FB88B0
:102F60009A2B07D0FB88BE2B04D0FB8840F22F128F
:102F7000934207D10123FB814A4B1B68DA6E3B6801
:102F80001A606BE1FB88072B02D9FB883D2B7FD9A8
:102F9000FB883D2B02D9FB88412B79D9FB88912BEB
:102FA00076D0FB88972B02D9FB889B2B70D9FB88A6
:102FB0009C2B02D9FB88A02B6AD9FB88A92B67D050
:102FC000FB88CB2B02D9FB88F12B61D9FB8840F21F
:102FD000091293425CD0FB88FE2B59D0FB88FF2B53
:102FE00056D0FB88B3F5817F03D3FB88B3F5827F8E
:102FF0004ED9FB88B3F5805F04D3FB8841F21702FA
:10300000934245D9FB88B3F5885F04D3FB8841F22E
:10301000021293423CD9FB88B3F5905F04D3FB883E
:1030200041F20C22934233D9FB88B3F5985F04D365
:10303000FB8841F21D3293422AD9FB88B3F5A05F89
:1030400004D3FB8841F21442934221D9FB8841F218
:103050004F42934204D9FB8841F25242934217D91E
:10306000FB88B3F5A35F13D0FB8841F26142934222
:103070000ED0FB8841F23E52934209D0FB8841F2C8
:103080003F52934204D0FB8840F20D1293420BD181
:103090000223FB81034B1B68D3F890203B681A6026
:1030A000DCE000BF30010020FB88B3F5997F00F021
:1030B0008180FB8840F2351293427BD0FB88B3F5C8
:1030C0009B7F77D0FB8840F26112934272D0FB88DD
:1030D000B3F59A7F6ED0FB8841F22F52934269D0AC
:1030E000FB8841F23052934264D0FB8841F2315266
:1030F00093425FD0FB8841F2335293425AD0FB880F
:1031000041F23452934255D0FB8841F235529342FA
:1031100050D0FB8841F2365293424BD0FB8841F2AB
:103120003752934246D0FB8841F23852934241D005
:10313000FB8841F2325293423CD0FB88B3F5B47F16
:1031400038D0FB8841F23952934233D0FB8840F2A9
:10315000691293422ED0FB88B3F5B57F2AD0FB8845
:1031600040F26B12934225D0FB88B3F5B67F21D095
:10317000FB8840F26D1293421CD0FB88B3F5B77FF9
:1031800018D0FB8841F23A52934213D0FB8841F2A7
:103190003B5293420ED0FB8841F22E52934209D00B
:1031A000FB8841F23E52934204D0FB8840F20D125C
:1031B000934208D10223FB812C4B1B68D3F890204B
:1031C0003B681A604AE0FB88742B02D9FB888C2B81
:1031D0003CD9FB88912B02D9FB88972B36D9FB88E9
:1031E0009C2B33D0FB88A02B02D9FB88A52B2DD993
:1031F000FB88A82B2AD0FB88A92B02D9FB88B82BE7
:1032000024D9FB88B92B02D9FB88C02B1ED9FB8897
:10321000C12B1BD0FB88F12B02D9FB88FD2B15D9C4
:10322000FB8840F20112934210D0FB88B3F5827FF5
:1032300003D9FB88B3F5867F08D9FB88B3F5A85F6F
:103240000CD3FB8841F23D52934207D80323FB8104
:10325000064B1B68D3F8A4203B681A60FB8918460C
:103260001437BD465DF8047B704700BF3001002075
:1032700080B485B000AF03460A46FB801346BB808E
:103280000023FB60BB88022B07D0032B67D0012BE8
:1032900040F09A80514BFB6099E0FB88212B02D9CA
:1032A000FB88232B0BD9FB88CB2B02D9FB88CF2B98
:1032B00005D9FB88FD2B05D9FB88FF2B02D8474B8E
:1032C000FB604BE0FB88CF2B02D9FB88D12B04D9C4
:1032D000FB8840F20D12934202D1414BFB603DE06E
:1032E000FB88232B02D9FB882C2B0DD9FB88D22BF2
:1032F00002D9FB88ED2B07D9FB88B3F5817F06D374
:10330000FB88B3F5827F02D2364BFB6026E0FB8858
:103310002C2B05D9FB883A2B02D8304BFB601DE0E3
:10332000FB883A2B05D9FB883D2B02D82B4BFB6041
:1033300014E0FB883D2B05D9FB88412B02D8274B95
:10334000FB600BE0FB881E2B05D9FB88212B02D8E4
:10335000224BFB6002E0224BFB6038E037E0FB8849
:10336000742B02D9FB887E2B13D9FB889B2B02D9A7
:10337000FB88C02B0DD9FB8840F20512934208D080
:10338000FB8840F20712934203D0FB88B3F5604FED
:1033900002D1124BFB6016E0FB887E2B02D9FB8822
:1033A000972B0AD9FB88C02B03D9FB88B3F5817F03
:1033B00003D3FB88B3F5837F02D10A4BFB6002E0A5
:1033C000074BFB6003E002E0054BFB6000BFFB68BE
:1033D00018461437BD465DF8047B704768A70400A3
:1033E00000E20400B09B040080B586B000AF7860B6
:1033F00000237B610023FB7400233B820023FB60DE
:103400007B6804337B617B690233184606F070FAEF
:1034100003463B8207F10C023B8A11461846FFF730
:1034200049FD0346FB74FB7CFF2B14D0FB681C3367
:103430007968184606F03AF9FB689B7C002B0BD1A3
:10344000FB680021184600F00AF8FB68183318469C
:1034500006F0E8F800E000BF1837BD4680BD80B434
:1034600083B000AF786039607B683A681A6000BF4B
:103470000C37BD465DF8047B704780B483B000AF65
:1034800078607B681B6818460C37BD465DF8047B86
:103490007047000080B584B000AF78600023FB73F4
:1034A0001D4B1B68D3F8A430BB600023FB732BE0DB
:1034B0007868FA7B1346DB0013445B003833BA6844
:1034C00013440233062219460FF0D4FE0346002BA4
:1034D00017D1FA7BB9681346DB0013445B000B4439
:1034E000413319787B689B79FA7B0B44D8B2B96871
:1034F0001346DB0013445B000B44413302461A7051
:1035000005E0FB7B0133FB73FB7B032BD0D900BFB2
:103510001037BD4680BD00BF3001002080B584B0AB
:1035200000AF78600023FB732A4B1B68D3F8A430EC
:10353000BB600023FB7345E0FA7BB9681346DB00F0
:1035400013445B000B4446331B78002B37D1FA7BC6
:103550001346DB0013445B003833BA681344981CED
:103560007B680133062219460FF093FEFA7BB96897
:103570001346DB0013445B000B44463301221A70F0
:10358000FA7BB9681346DB0013445B000B444233FB
:1035900001221A70FA7BB9681346DB0013445B0002
:1035A0000B44413301221A70FA7BB9681346DB00E1
:1035B00013445B000B444A3301221A7005E0FB7B85
:1035C0000133FB73FB7B032BB6D900BF1037BD461D
:1035D00080BD00BF3001002080B584B000AF7860AE
:1035E0000023FB732F4B1B68D3F8A430BB60002370
:1035F000FB7350E07868FA7B1346DB0013445B00F2
:103600003833BA6813440233062219460FF032FEEB
:103610000346002B3CD1FA7BB9681346DB00134408
:103620005B000B44463300221A70FA7BB9681346DC
:10363000DB0013445B000B44413300221A70FA7B19
:10364000B9681346DB0013445B000B444733002288
:103650001A70FA7BB9681346DB0013445B000B4415
:10366000423300221A70FA7BB9681346DB00134418
:103670005B000B44483300221A80FA7BB96813467A
:10368000DB0013445B000B444A3300221A7005E050
:10369000FB7B0133FB73FB7B032BABD900BF1037E4
:1036A000BD4680BD3001002090B58BB000AFF86002
:1036B000B9607A6000237B8400233B840023FB6194
:1036C00000237B83BB680433FB61FB69023318462C
:1036D00006F00EF903467B84BB6814337B62F869FD
:1036E00006F006F90346C3F30B033B83FB690C3377
:1036F000184606F0FDF803463B84B7F9203019461A
:10370000F868FFF7ACFEFB681B8A7A8C9A4240F09F
:10371000A280FB681B8A40F20552934203D1FB68EA
:1037200001229A8002E0FB6800229A80FB681B8AD3
:103730007B83FB6800221A82FB68DB68002B0CD0BD
:10374000FB68DB683A8B796A18460FF0A2FDFB68CC
:10375000DB687B62FB680022DA60FB689B7C002BE5
:103760006FD07B8BB3F5847F65D1B7F92030002B08
:1037700061D17B6A7B61FB6893F8CC3019467B6929
:103780009879FA680B46DB000B445B0013444A331C
:1037900002461A707B699B79002B2AD17B69DA7902
:1037A000FB6893F8CC30194613461A46920013442E
:1037B0005B00D8B2FA680B46DB000B445B00134495
:1037C000423302461A707B69DA79FB6893F8CC3091
:1037D000194613461A46920013445B00D8B2FA68A1
:1037E0000B46DB000B445B001344413302461A7066
:1037F0001DE0FB6893F8CC3019467B69D879FA68EC
:103800000B46DB000B445B001344423302461A7044
:10381000FB6893F8CC3019467B69D879FA680B4677
:10382000DB000B445B001344413302461A70FB6813
:10383000002283F8CC20FB681833184605F0F2FE0E
:1038400012E07B68002B0FD03B8B798C7C687A6A06
:10385000F868A04708E07B68002B05D03B8B798C8B
:103860007C687A6AF868A047B7F9203018462C3788
:10387000BD4690BD80B588B000AF78600023BB61C5
:103880000023FB750023BB820023FB830023FB6026
:1038900000233B617B680433BB61BB69023318467C
:1038A00006F026F80346BB82BB8A41F20602934229
:1038B00008D17B6814333B611C4B1B68DB6E3A6993
:1038C0009279DA7407F10C02BB8A11461846FFF7A9
:1038D000F1FA0346FB75FB7DFF2B01D1002320E0AD
:1038E000FB7D012B08D1FB68002279681846FFF7A1
:1038F000DBFE0346FB8313E0FB7D022B08D1FB6854
:103900000B4A79681846FFF7CFFE0346FB8307E0B2
:10391000FB68084A79681846FFF7C6FE0346FB8332
:10392000FB8B18462037BD4680BD00BF300100200C
:103930004D3A00007D4F000080B584B000AF786044
:103940000023FB737B68002B02D16FF0010333E08F
:103950007B6800229A807B6800221A607B680022C4
:103960001A827B680022DA607B68183300211846CF
:1039700005F0D9FD0346FB7397F90F30002B02D0F9
:103980006FF0270318E07B6814330021184605F018
:10399000CAFD0346FB7397F90F30002B02D06FF07E
:1039A000270309E07B681433184605F03BFE7B686B
:1039B00000229A6297F90F3018461037BD4680BD35
:1039C00080B485B000AF786039607B689B6EFB6027
:1039D00000237B81FB683A685A607B68D3F8A43087
:1039E000FA681A637B89D0337B817B893A681A44F1
:1039F000FB689A607B68D3F89030FA681A637B8919
:103A000003F5DE737B817B8918461437BD465DF86C
:103A1000047B704780B582B000AF0A4B1B68DB6E39
:103A20007B607B6840F205521A827B6801229A749F
:103A30007B6818330449184605F084FD00BF083739
:103A4000BD4680BD3001002000E2040080B588B092
:103A500000AFF8607A601A460B467B8113463B81C3
:103A6000FB681B6B9B68FB61EA4B1B68DB68BB61F7
:103A70000023FB82F868FFF700FD0346FB827B8989
:103A800041F21232934200F08A8541F2123293429F
:103A900000F3408141F21702934200F0D28241F2DA
:103AA0001702934200F3918041F20902934200F021
:103AB000658341F2090293423EDC41F202029342E5
:103AC00000F0A58241F20202934215DCD02B00F0F7
:103AD0002484D02B05DC1D2B00F072821E2B01F0FC
:103AE00072B9B3F5805F00F0788241F2010293422F
:103AF00000F0808201F067B941F20502934200F0C4
:103B0000BA8241F2050293420BDC41F20302934276
:103B100000F08A8241F20402934200F09F8201F099
:103B200052B941F20702934200F0C68241F2070205
:103B3000934200F3CE82ABE241F21002934200F0D6
:103B4000918341F2100293421FDC41F20C02934236
:103B500000F03A8341F20C0293420BDC41F20A027C
:103B6000934200F0188341F20B02934200F020834D
:103B700001F029B941F20E02934200F03F8341F275
:103B80000E02934200F3A2832BE341F2130293420D
:103B900000F0828341F2130293420BDC41F21102E6
:103BA000934200F06C8341F21202934200F0918242
:103BB00001F009B941F21502934200F0978241F2F7
:103BC0001502934200F3CB8273E341F20A2293423F
:103BD00000F0188441F20A2293424DDC41F20222A5
:103BE000934200F0A98341F2022293421EDC41F28B
:103BF0000212934200F0298341F2021293420ADC3E
:103C0000B3F5885F00F0078341F20112934200F0A0
:103C10000F8301F0D8B8B3F5905F00F0648341F2F0
:103C20000122934200F06C8301F0CDB841F20522ED
:103C3000934200F0A88341F2052293420BDC41F24B
:103C40000322934200F0858341F20422934200F064
:103C50008D8301F0B8B841F20722934200F0B4839B
:103C600041F207229342C0F29B8341F20822934221
:103C700000F0B98301F0A7B841F20532934200F099
:103C8000388441F2053293421EDC41F20132934204
:103C900000F0E58341F2013293420ADC41F20C224A
:103CA000934200F0BE83B3F5985F00F0C98301F042
:103CB0008AB841F20332934200F0EF8341F20332BB
:103CC000934200F30884D9E341F20832934200F0B2
:103CD0002C8441F2083293420BDC41F206329342CB
:103CE00000F0EA8341F20732934200F0108401F0C1
:103CF0006AB841F20A32934200F0338441F20A3248
:103D00009342C0F2208441F21132934200F0378492
:103D100001F059B841F20F42934200F0AE8541F2F2
:103D20000F42934200F3A58041F20142934200F01A
:103D3000E08441F2014293424EDC41F21832934258
:103D400000F0798441F21832934220DC41F21532BE
:103D5000934200F04C8441F2153293420BDC41F265
:103D60001332934200F0278441F21432934200F060
:103D7000328401F028B841F21632934200F04384B5
:103D800041F21732934200F04A8401F01CB841F22C
:103D90001B32934200F0778441F21B3293420BDCDA
:103DA00041F21932934200F0528441F21A329342A6
:103DB00000F05D8401F007B841F21D32934200F03B
:103DC0007E8441F21D329342C0F26984B3F5A05F54
:103DD00000F0818400F0F7BF41F20842934200F006
:103DE000EA8441F20842934222DC41F204429342C7
:103DF00000F0A98441F2044293420DDC41F20242F8
:103E0000934200F0848441F20342934200F08D8497
:103E100000F0D9BF3001002041F20642934200F089
:103E2000AE8441F20642934200F3B78400F099BC9D
:103E300041F20B42934200F0E88441F20B4293427C
:103E40000BDC41F20942934200F0C38441F20A4282
:103E5000934200F0CC8400F0B6BF41F20D42934291
:103E600000F0EF8441F20D42934200F3F88400F039
:103E7000DABC41F23052934200F06F8541F2305289
:103E800093424DDC41F25042934200F00E8641F2E3
:103E90005042934220DC41F21242934200F01785D7
:103EA00041F2124293420BDC41F21042934200F085
:103EB000F28441F21142934200F0FB8400F083BF90
:103EC00041F21342934200F0108541F214429342B2
:103ED00000F0198500F077BFB3F5A35F00F00F86FF
:103EE000B3F5A35F0BDC41F25142934200F0EB8546
:103EF00041F25242934200F0F48500F064BF41F277
:103F00002E52934200F00D8541F22E52934200F35F
:103F1000168541F26142934200F0FF8500F053BFE5
:103F200041F23752934200F06C8541F2375293428E
:103F300020DC41F23352934200F02B8541F23352A0
:103F400093420BDC41F23152934200F0148541F26E
:103F50003252934200F09B8500F035BF41F235525A
:103F6000934200F0328541F23552934200F33B8593
:103F700000F01DBD41F23A52934200F06C8541F2CF
:103F80003A5293420BDC41F23852934200F047859B
:103F900041F23952934200F0508500F014BF41F2D3
:103FA0003E52934200F0B18041F23F52934200F002
:103FB000BB8041F23B52934200F05B8500F003BFAF
:103FC000FB691B6C002B00F03186FB691B6CFA8AC5
:103FD00079681046984700F029BEFB691B68002BE2
:103FE00000F02686FB691B68FA8A796810469847B4
:103FF00000F01EBEFB699B68002B00F01B86FB696E
:104000009B68FA8A79681046984700F013BEFB69EE
:104010005B68002B00F01086FB695B68FA8A7968A0
:104020001046984700F008BEFB691B69002B00F0A2
:104030000586FB691B69FA8A79681046984700F083
:10404000FDBDFB691B6D002B00F0FA85FB691B6D44
:10405000FA8A79681046984700F0F2BDFB695B69FF
:10406000002B00F0EF85FB695B69FA8A79681046DE
:10407000984700F0E7BDFB69DB69002B00F0E485A1
:10408000FB69DB69FA8A79681046984700F0DCBD65
:10409000FB69DB68002B00F0D985BB69002283F83F
:1040A0002C20BB6900229A62FB69DB68FA8A796876
:1040B0001046984700F0CABDFB691B6A002B00F050
:1040C000C785FB691B6AFA8A79681046984700F031
:1040D000BFBDFB699B69002B00F0BC85FB699B6938
:1040E000FA8A79681046984700F0B4BDFB69D3F8A6
:1040F0005831002B00F0B085FB69D3F85831FA8AAB
:1041000079681046984700F0A7BDFB69D3F8803165
:10411000002B00F0A385FB69D3F88031FA8A796817
:104120001046984700F09ABDA54B1B681B69002BF1
:104130000CD17B681B781846FDF72CFFA14B1B6840
:104140001433184605F06EFA00F03DBE9C4B1B6818
:104150001B69FA8A79681046984700F034BEFB69FB
:10416000D3F87C31002B00F07B85FB69D3F87C31E0
:10417000FA8A79681046984700F072BDFB695B6A5D
:10418000002B00F06F85FB695B6AFA8A796810463C
:10419000984700F067BDFB699B6A002B00F06485BF
:1041A000FB699B6AFA8A79681046984700F05CBD03
:1041B000FB69DB6A002B00F05985FB69DB6AFA8A30
:1041C0001046984700F052BDFB691B6B002B00F0B6
:1041D0004F85FB691B6BFA8A79681046984700F097
:1041E00047BDFB695B6B002B00F04485FB695B6B93
:1041F000FA8A79681046984700F03CBDFB69DB6B92
:10420000002B00F03985FB69DB6BFA8A7968104670
:10421000984700F031BDFB695B6E002B00F02E85E6
:10422000FB695B6EFA8A79681046984700F026BDF4
:10423000FB69DB6D002B00F02385FB69DB6DFA8ADF
:1042400079681046984700F01BBDFB691B6E002B78
:1042500000F01885FB691B6EFA8A7968104698474A
:1042600000F010BDFB699B6C002B00F00D85FB6915
:104270009B6CFA8A79681046984700F005BDFB6987
:10428000DB6C002B00F00285FB69DB6CFA8A796835
:104290001046984700F0FABCFB695B6D002B00F0FC
:1042A000F784FB695B6DFA8A79681046984700F0DD
:1042B000EFBCFB699B6D002B00F0EC84FB699B6DF0
:1042C000FA8A79681046984700F0E4BCFB699B6B5A
:1042D000002B00F0E184FB699B6BFA8A7968104639
:1042E000984700F0D9BCFB699B6E002B00F0D68488
:1042F000FB699B6EFA8A79681046984700F0CEBC3D
:10430000FB69DB6E002B00F0CB84FB69DB6EFA8A65
:1043100079681046984700F0C3BCFB69D3F88C302D
:10432000002B00F0BF84FB69D3F88C30FA8A7968DF
:104330001046984700F0B6BCFB691B6F002B00F0DD
:10434000B384FB691B6FFA8A79681046984700F0BE
:10435000ABBCFB695B6F002B00F0A884FB695B6F53
:10436000FA8A79681046984700F0A0BCFB699B6FF9
:10437000002B00F09D84FB699B6FFA8A79681046D8
:10438000984700F095BCFB69DB6F002B00F092842E
:10439000FB69DB6FFA8A79681046984700F08ABC9F
:1043A000FB69D3F88030002B00F08684FB69D3F8DA
:1043B0008030FA8A79681046984700F07DBC00BFCB
:1043C0005488002038010020FB69D3F88430002B8A
:1043D00000F07484FB69D3F88430FA8A7968104657
:1043E000984700F06BBCFB69D3F88830002B00F0D5
:1043F0006784FB69D3F88830FA8A79681046984751
:1044000000F05EBCFB69D3F89030002B00F05A84BA
:10441000FB69D3F89030FA8A79681046984700F023
:1044200051BCFB69D3F89430002B00F04D84FB693C
:10443000D3F89430FA8A79681046984700F044BC63
:10444000FB69D3F89830002B00F04084FB69D3F867
:104450009830FA8A79681046984700F037BCFB69B3
:10446000D3F89C30002B00F03384FB69D3F89C30E8
:10447000FA8A79681046984700F02ABCFB69D3F89D
:10448000A030002B00F02684FB69D3F8A030FA8A14
:1044900079681046984700F01DBCFB69D3F8A4303A
:1044A000002B00F01984FB69D3F8A430FA8A7968EC
:1044B0001046984700F010BCFB69D3F8A830002BD9
:1044C00000F00C84FB69D3F8A830FA8A79681046AA
:1044D000984700F003BCFB69D3F8AC30002B00F028
:1044E000FF83FB69D3F8AC30FA8A796810469847A5
:1044F000F6E3FB69D3F8B030002B00F0F383FB69DF
:10450000D3F8B030FA8A796810469847EAE3FB6935
:10451000D3F8B430002B00F0E783FB69D3F8B43054
:10452000FA8A796810469847DEE3FB69D3F8B83019
:10453000002B00F0DB83FB69D3F8B830FA8A796886
:1045400010469847D2E3FB69D3F8BC30002B00F04B
:10455000CF83FB69D3F8BC30FA8A79681046984754
:10456000C6E3FB69D3F8C030002B00F0C383FB69BE
:10457000D3F8C030FA8A796810469847BAE3FB69E5
:10458000D3F8C430002B00F0B783FB69D3F8C430F4
:104590007A6806321278114678689847ACE3FB696E
:1045A000D3F8C830002B00F0A983FB69D3F8C830DA
:1045B00078689847A2E3FB69D3F8CC30002B00F071
:1045C0009F83FB69D3F8CC307A68063212781146A3
:1045D0007868984794E3FB69D3F8D030002B00F05B
:1045E0009183FB69D3F8D030786898478AE3FB69F8
:1045F000D3F8D430002B00F08783FB69D3F8D43094
:104600007868984780E3FB69D3F8D830002B00F036
:104610007D83FB69D3F8D8307868984776E3FB69E7
:10462000D3F8DC30002B00F07383FB69D3F8DC3067
:10463000786898476CE3FB69D3F8E030002B00F012
:104640006983FB69D3F8E0307868984762E3FB69D7
:10465000D3F8E430002B00F05F83FB69D3F8E4303B
:104660007A680632127811467868984754E3FB69F5
:10467000D3F8E830002B00F05183FB69D3F8E83021
:10468000786898474AE3FB69D3F8EC30002B00F0D8
:104690004783FB69D3F8EC307868984740E3FB69BF
:1046A000D3F8F030002B00F03D83FB69D3F8F030F5
:1046B0007A680632127811467868984732E3FB69C7
:1046C000D3F8F430002B00F02F83FB69D3F8F430DB
:1046D0007868984728E3FB69D3F8F830002B00F09E
:1046E0002583FB69D3F8F830FA8A79681046984731
:1046F0001CE3FB69D3F8FC30002B00F01983FB6945
:10470000D3F8FC30FA8A79681046984710E3FB69C1
:10471000D3F80031002B00F00D83FB69D3F8003192
:10472000FA8A79681046984704E3FB69D3F80431A4
:10473000002B00F00183FB69D3F80431FA8A796811
:1047400010469847F8E2FB69D3F80831002B00F0D7
:10475000F582FB69D3F80831FA8A796810469847E0
:10476000ECE2FB69D3F80C31002B00F0E982FB6925
:10477000D3F80C31FA8A796810469847E0E2FB6971
:10478000D3F81031002B00F0DD82FB69D3F8103133
:10479000FA8A796810469847D4E2FB69D3F8143155
:1047A000002B00F0D182FB69D3F81431FA8A7968C2
:1047B00010469847C8E2FB69D3F81831002B00F087
:1047C000C582FB69D3F81831FA8A79681046984790
:1047D000BCE2FB69D3F81C31002B00F0B982FB6905
:1047E000D3F81C31FA8A796810469847B0E2FB6921
:1047F000D3F82031002B00F0AD82FB69D3F82031D3
:10480000FA8A796810469847A4E2FB69D3F8243104
:10481000002B00F0A182FB69D3F82431FA8A796871
:104820001046984798E2FB69D3F82831002B00F036
:104830009582FB69D3F82831FA8A7968104698473F
:104840008CE2FB69D3F82C31002B00F08982FB69E4
:10485000D3F82C31FA8A79681046984780E2FB69D0
:10486000D3F83031002B00F07D82FB69D3F8303172
:10487000FA8A79681046984774E2FB69D3F83431B4
:10488000002B00F07182FB69D3F83431FA8A796821
:104890001046984768E2FB69D3F83831002B00F0E6
:1048A0006582FB69D3F83831FA8A796810469847EF
:1048B0005CE2FB69D3F83C31002B00F05982FB69C4
:1048C000D3F83C31FA8A79681046984750E2FB6980
:1048D000D3F84031002B00F04D82FB69D3F8403112
:1048E000FA8A79681046984744E2FB69D3F8443164
:1048F000002B00F04182FB69D3F84431FA8A7968D1
:104900001046984738E2FB69D3F84831002B00F095
:104910003582FB69D3F84831FA8A7968104698479E
:104920002CE2FB69D3F88431002B00F02982FB696B
:10493000D3F88431FA8A79681046984720E2FB69F7
:10494000D3F88831002B00F01D82FB69D3F8883141
:10495000FA8A79681046984714E2FB69D3F88C31DB
:10496000002B00F01182FB69D3F88C31FA8A796848
:104970001046984708E2FB69D3F89031002B00F00D
:104980000582FB69D3F89031FA8A79681046984716
:10499000FCE1FB69D3F89831002B00F0F981FB6949
:1049A000D3F89831FA8A796810469847F0E1FB69A4
:1049B000D3F89C31002B00F0ED81FB69D3F89C31DA
:1049C000FA8A796810469847E4E1FB69D3F8A03188
:1049D000002B00F0E181FB69D3F8A031FA8A7968F5
:1049E00010469847D8E1FB69D3F8A431002B00F0BA
:1049F000D581FB69D3F8A431FA8A796810469847C3
:104A0000CCE1FB69D3F8A831002B00F0C981FB6928
:104A1000D3F8A831FA8A796810469847C0E1FB6953
:104A2000D3F8AC31002B00F0BD81FB69D3F8AC3179
:104A3000FA8A796810469847B4E1FB69D3F8B03137
:104A4000002B00F0B181FB69D3F8B031FA8A7968A4
:104A500010469847A8E1FB69D3F8B431002B00F069
:104A6000A581FB69D3F8B431FA8A79681046984772
:104A70009CE1FB69D3F8B831002B00F09981FB6908
:104A8000D3F8B831FA8A79681046984790E1FB6903
:104A9000D3F89431002B00F08D81FB69D3F8943169
:104AA000FA8A79681046984784E1FB69D3F84C315B
:104AB000002B00F08181FB69D3F84C31FA8A7968C8
:104AC0001046984778E1FB69D3F85031002B00F08D
:104AD0007581FB69D3F85031FA8A79681046984796
:104AE0006CE1FB69D3F85431002B00F06981FB695C
:104AF000D3F85431FA8A79681046984760E1FB6927
:104B0000D3F85C31002B00F05D81FB69D3F85C3198
:104B1000FA8A79681046984754E17B683B613B69A3
:104B20005B7A1B09DBB20A2B72D801A252F823F080
:104B30005D4B0000774B0000114C0000114C000051
:104B4000914B0000AB4B0000C54B0000DF4B000059
:104B5000114C0000114C0000F74B0000FB69D3F82A
:104B60006431002B56D0FB69D3F86431FA8A796836
:104B7000104698474EE0FB69D3F86831002B4BD0C4
:104B8000FB69D3F86831FA8A79681046984743E0A0
:104B9000FB69D3F86C31002B40D0FB69D3F86C3142
:104BA000FA8A79681046984738E0FB69D3F8703183
:104BB000002B35D0FB69D3F87031FA8A796810463A
:104BC00098472DE0FB69D3F87431002B2AD0FB699C
:104BD000D3F87431FA8A79681046984722E0FB6965
:104BE000D3F87831002B06D0FB69D3F87831FA8AF4
:104BF000796810469847FB69D3F86031002B13D0D1
:104C0000FB69D3F86031FA8A7968104698470BE05F
:104C100000BFD8E000BFD6E000BFD4E000BFD2E0C4
:104C200000BFD0E000BFCEE000BFCCE000BFCAE0D4
:104C300000BFC8E000BFC6E000BFC4E000BFC2E0E4
:104C400000BFC0E000BFBEE000BFBCE000BFBAE0F4
:104C500000BFB8E000BFB6E000BFB4E000BFB2E004
:104C600000BFB0E000BFAEE000BFACE000BFAAE014
:104C700000BFA8E000BFA6E000BFA4E000BFA2E024
:104C800000BFA0E000BF9EE000BF9CE000BF9AE034
:104C900000BF98E000BF96E000BF94E000BF92E044
:104CA00000BF90E000BF8EE000BF8CE000BF8AE054
:104CB00000BF88E000BF86E000BF84E000BF82E064
:104CC00000BF80E000BF7EE000BF7CE000BF7AE074
:104CD00000BF78E000BF76E000BF74E000BF72E084
:104CE00000BF70E000BF6EE000BF6CE000BF6AE094
:104CF00000BF68E000BF66E000BF64E000BF62E0A4
:104D000000BF60E000BF5EE000BF5CE000BF5AE0B3
:104D100000BF58E000BF56E000BF54E000BF52E0C3
:104D200000BF50E000BF4EE000BF4CE000BF4AE0D3
:104D300000BF48E000BF46E000BF44E000BF42E0E3
:104D400000BF40E000BF3EE000BF3CE000BF3AE0F3
:104D500000BF38E000BF36E000BF34E000BF32E003
:104D600000BF30E000BF2EE000BF2CE000BF2AE013
:104D700000BF28E000BF26E000BF24E000BF22E023
:104D800000BF20E000BF1EE000BF1CE000BF1AE033
:104D900000BF18E000BF16E000BF14E000BF12E043
:104DA00000BF10E000BF0EE000BF0CE000BF0AE053
:104DB00000BF08E000BF06E000BF04E000BF02E063
:104DC00000BF00E000BF00BF2037BD4680BD00BF70
:104DD00080B487B000AFF860B9607A603B60174B71
:104DE0001B68D3F8A4301B6B5B687B617B69FA6836
:104DF0001A607B69BA685A607B697A689A607B69D5
:104E00003A68DA607B693A6AC3F898207B697A6A03
:104E1000C3F89C207B69BA6AC3F8A0207B69FA6A50
:104E2000C3F8A4207B693A6B1A617B697A6BDA61FB
:104E300000BF1C37BD465DF8047B70473001002081
:104E400080B487B000AFF860B9607A603B60194BFE
:104E50001B68D3F8A4301B6B5B687B617B69FA68C5
:104E60001A627B69BA685A627B697A68DA627B691E
:104E70003A681A637B693A6A5A637B697A6AC3F84B
:104E8000AC207B69BA6AC3F8B0207B69FA6AC3F8C0
:104E9000A8207B693A6BC3F8B4207B697A6B9A626D
:104EA0007B69BA6B9A6300BF1C37BD465DF8047B13
:104EB000704700BF3001002080B487B000AFF860B9
:104EC000B9607A603B602C4B1B68D3F8A4301B6B35
:104ED0005B687B617B69FA68DA637B69BA681A642C
:104EE0007B697A685A647B693A689A647B693A6A32
:104EF000DA647B697A6A1A657B69BA6A5A657B6982
:104F0000FA6A9A657B693A6BDA657B697A6B1A662D
:104F10007B69BA6B5A667B69FA6B9A667B693A6CF5
:104F2000DA667B69BA6C5A677B697A6C1A677B6947
:104F3000FA6C9A677B693A6DDA677B697A6DC3F8B8
:104F400080207B69BA6DC3F884207B69FA6DC3F851
:104F500088207B693A6EC3F88C207B697A6EC3F82F
:104F600090207B69BA6EC3F8942000BF1C37BD4601
:104F70005DF8047B704700BF3001002080B588B029
:104F800000AFF8607A601A460B467B8113463B817E
:104F9000FB681B6B5B68BB610023FB820023FB7714
:104FA000F868FEF76AFA0346FB827B8941F21252E7
:104FB000934200F0118241F21252934279DC41F2A5
:104FC0000252934200F06A8141F2025293422EDC77
:104FD000872B15DC852B80F27382812B00F04C82AD
:104FE000812B06DC7F2B00F02F82802B00F0388293
:104FF000ADE3832B00F06482832B00F3558247E2FC
:1050000041F20602934200F0128141F206029342FD
:1050100003DC8C2B00F39B835EE2B3F5A85F00F00A
:10502000168141F20152934200F01E818FE341F25A
:105030000A52934200F0798141F20A52934219DCFC
:1050400041F20552934200F0528141F205529342DF
:105050000ADC41F20352934200F02D8141F20452E6
:10506000934200F0358172E341F20852934240F3DB
:105070004D8106E141F20E52934200F0B48041F2BC
:105080000E5293420ADC41F20C52934200F04D81E1
:1050900041F20C52934200F3578164E141F2105205
:1050A000934200F06F8141F21052934200F37481F9
:1050B000A3E041F22152934200F0AB8041F2215231
:1050C00093423BDC41F21952934200F0328241F2AA
:1050D0001952934214DC41F21552934205DC41F21D
:1050E0001452934280F2048280E141F217529342BB
:1050F00000F0FE8141F21752934200F310828BE1DF
:1051000041F21D52934200F0938141F21D529342AD
:105110000ADC41F21B52934200F0238241F21B52FF
:10512000934200F3F18110E241F21F52934200F0EA
:105130003082B3F5A95F80F238821EE241F22A5232
:10514000934200F04A8241F22A52934223DC41F218
:105150002452934200F0598241F2245293420ADCD5
:1051600041F22252934200F02C8241F223529342A8
:1051700000F03F82EBE241F22652934200F05F8260
:1051800041F226529342C0F24C8241F2275293429E
:1051900000F06082DBE241F23052934200F0108175
:1051A00041F2305293420FDC41F22C52934200F014
:1051B000678241F22C529342C0F2578241F22D5243
:1051C000934200F06682C2E241F23D52934200F007
:1051D000ED80B3F5AA5F00F0158141F23C52934295
:1051E00000F06382B3E2BB691B68002B00F06882A9
:1051F000BB691B687868984762E2BB695B68002BF3
:1052000003D0BB695B68786898477868FEF786F9D1
:105210009DE2BB69D3F8A030002B04D0BB69D3F862
:10522000A030786898477868FEF778F98FE2BB6914
:105230009B68002B07D0BB699B68FA68126892B222
:105240001146786898477868FEF7C6F97FE2BB692F
:10525000DB6E002B05D0BB69DB6EFA8A79681046DD
:1052600098470123FB7772E2BB691B6F002B05D0C7
:10527000BB691B6FFA8A7968104698470123FB7750
:1052800065E2BB695B6F002B05D0BB695B6FFA8A77
:105290007968104698470123FB7758E2BB699B6FFA
:1052A000002B05D0BB699B6FFA8A79681046984736
:1052B0000123FB774BE2BB69DB6F002B05D0BB6999
:1052C000DB6FFA8A7968104698470123FB773EE244
:1052D000BB69D3F88030002B06D0BB69D3F880308F
:1052E000FA8A7968104698470123FB772FE2BB6959
:1052F000D3F88430002B06D0BB69D3F88430FA8A07
:105300007968104698470123FB7720E2BB69D3F800
:105310008830002B06D0BB69D3F88830FA8A7968C8
:10532000104698470123FB7711E2BB69D3F88C3014
:10533000002B06D0BB69D3F88C30FA8A7968104606
:1053400098470123FB7702E2BB69D3F89030002B2A
:1053500006D0BB69D3F89030FA8A7968104698472E
:105360000123FB77F3E1BB69D3F89430002B06D01F
:10537000BB69D3F89430FA8A7968104698470123BC
:10538000FB77E4E1BB691B6A002B00F09B81BB69E2
:105390001B6A7868984795E1BB695B6A002B00F04F
:1053A0009381BB695B6A786898478DE1BB699B6AAA
:1053B000002B00F08B81BB699B6A7868984785E178
:1053C000BB69D3F8CC30002B00F08281BB69D3F8E5
:1053D000CC30786898477BE1BB69DB6A002B00F032
:1053E0007981BB69DB6A7868984773E1BB691B6B9D
:1053F000002B00F07181BB691B6BFA8A796810463B
:10540000984769E1BB699B6B002B00F06781BB6922
:105410009B6B7868984761E1BB695B6B002B00F080
:105420005F81BB695B6BFA8A79681046984757E1E0
:10543000BB69D3F8AC30002B00F05481BB69D3F8C2
:10544000AC30786898474DE1BB69DB6B002B00F00E
:105450004B81BB69DB6BFA8A79681046984743E158
:10546000BB691B6C002B00F04181BB691B6CFA8A85
:1054700079681046984739E1BB695B6C002B00F0F6
:105480003781BB695B6CFA8A7968104698472FE1CF
:10549000BB699B6C002B00F02D81BB699B6CFA8A69
:1054A00079681046984725E1BB69DB6C002B00F05A
:1054B0002381BB69DB6CFA8A7968104698471BE147
:1054C000BB691B6D002B00F01981BB691B6D7989CD
:1054D000F88A7A68984711E1BB695B6D002B00F090
:1054E0000F81BB695B6D7989FA8A1046984707E19D
:1054F000BB699B6D002B00F00581BB699B6D7A89B0
:10550000796810469847FDE0BB699B6E002B03D07D
:10551000BB699B6E786898470123FB7717E1BB69ED
:10552000DB68002B00F0F080BB69DB687868984787
:10553000EAE0BB69DB6D002B00F0E880BB69DB6D46
:105540007A89796810469847E0E0BB691B6E002BAA
:1055500000F0DE80BB691B6E7A8979681046984737
:10556000D6E0BB695B6E002B00F0D480BB695B6E3C
:105570007A89796810469847CCE0BB69D3F89830AF
:10558000002B00F0C980BB69D3F898307868984741
:10559000C2E0BB69D3F89C30002B00F0BF80BB6930
:1055A000D3F89C3078689847B8E0BB69D3F8B0303E
:1055B000002B00F0B580BB69D3F8B030786898470D
:1055C000AEE0BB69D3F8A430002B00F0AB80BB6920
:1055D000D3F8A43078689847A4E0BB69D3F8A83022
:1055E000002B00F0A180BB69D3F8A83078689847F9
:1055F0009AE0BB69D3F8B430002B00F09780BB6908
:10560000D3F8B4307868984790E0BB69D3F8B830E5
:10561000002B00F08D80BB69D3F8B83078689847CC
:1056200086E0BB69D3F8BC30002B00F08380BB69F7
:10563000D3F8BC30FA8A1146786898477AE0BB699B
:10564000D3F8C030002B77D0BB69D3F8C03078686E
:10565000984771E0BB69D3F8C430002B6ED0BB69AA
:10566000D3F8C4307868984768E0BB691B69002BA1
:1056700066D0BB691B69FA8A1146786898475FE073
:10568000BB695B69002B5DD0BB695B697868984733
:1056900058E07868FDF7FEFEBB699B69002B53D08C
:1056A000BB699B69786898474EE0BB69DB69002B52
:1056B0004CD0BB69DB69FA8A11467868984745E0A7
:1056C00000BF44E000BF42E000BF40E000BF3EE05A
:1056D00000BF3CE000BF3AE000BF38E000BF36E06A
:1056E00000BF34E000BF32E000BF30E000BF2EE07A
:1056F00000BF2CE000BF2AE000BF28E000BF26E08A
:1057000000BF24E000BF22E000BF20E000BF1EE099
:1057100000BF1CE000BF1AE000BF18E000BF16E0A9
:1057200000BF14E000BF12E000BF10E000BF0EE0B9
:1057300000BF0CE000BF0AE000BF08E000BF06E0C9
:1057400000BF04E000BF02E000BF00E000BFFB7F3D
:10575000002B4CD00023BB777B683B610023BB77D9
:1057600042E0BA7F1346DB0013445B003833FA682B
:10577000134402330622396918460DF07BFD0346B7
:10578000002B2ED1BA7FF9681346DB0013445B006F
:105790000B4447331B78002B23D07B89B3F5A85FDC
:1057A0000BD0BA7FF9681346DB0013445B000B444F
:1057B00048331B887A899A4213D1BA7FF968134615
:1057C000DB0013445B000B44473300221A70BA7F9E
:1057D000F9681346DB0013445B000B444833002296
:1057E0001A80BB7F0133BB77BB7F042BB9D900BFC5
:1057F0002037BD4680BD000080B586B000AF0346AF
:10580000B9607A60FB810023FB82FB898F2B7AD001
:105810008F2B18DC042B00F05F81042B07DC022B9C
:1058200000F05A81022B44DC012B38D056E1072BC3
:1058300000F05281072B02DC052B5AD04EE18D2B54
:10584000C0F24C8148E1B3F5977F3CD0B3F5977F28
:105850000DDCA62B61D0A62B03DC9A2B00F08580F3
:105860003CE1A72B63D0BE2B00F0E48036E148F288
:105870001002934265D048F21002934205DC40F2D8
:105880002F12934200F0288128E148F2150293423A
:1058900061D048F21C02934200F022811EE13323C2
:1058A000FB827B681433FA8AB96818460DF0F1FC64
:1058B0001BE10423FB827B681433FA8AB96818461B
:1058C0000DF0E7FC11E18B4B1B68DB6E3B613B6924
:1058D0009B88012B40F006813B6900229A800623B9
:1058E000FB827B681433FA8AB96818460DF0D1FC44
:1058F000F8E00623FB827B681433FA8AB9681846FD
:105900000DF0C7FCF1E00123FB827B681433FA8AB7
:10591000B96818460DF0BDFCE7E00423FB827B6804
:105920001433FA8AB96818460DF0B3FCDDE002239F
:10593000FB827B681433FA8AB96818460DF0A9FC1B
:10594000D3E00823FB827B681433FA8AB9681846CF
:105950000DF09FFCC9E00223FB827B681433FA8AB6
:10596000B96818460DF095FCBFE0BB681A787B68F3
:105970001A757B681B7D083B0E2B00F2B58001A2D7
:1059800052F823F0C1590000E95A0000E95A00001A
:10599000E95A0000E95A00001F5A0000E95A0000C5
:1059A000E95A0000E95A0000E95A0000E95A0000EB
:1059B000CF590000E3590000F75900000B5A0000CE
:1059C0000123FB82BB681A787B681A7531E01A23C1
:1059D000FB827B681433FA8AB96818460DF059FCCB
:1059E00027E01323FB827B681433FA8AB9681846D0
:1059F0000DF04FFC1DE01D23FB827B681433FA8AF7
:105A0000B96818460DF045FC13E01623FB827B684D
:105A10001433FA8AB96818460DF03BFC09E00223FA
:105A2000FB827B681433FA8AB96818460DF031FCA2
:105A300000BF59E0BB681A787B681A75BB685A7852
:105A40007B685A757B681B7D1A467B685B7D1B02F1
:105A50001343A3F57C43143B072B3BD801A252F818
:105A600023F000BF855A0000D55A0000D55A000027
:105A7000D55A0000995A0000AD5A0000D55A0000CE
:105A8000C15A00000323FB827B681433FA8AB96889
:105A900018460DF0FEFB1EE00823FB827B681433E2
:105AA000FA8AB96818460DF0F4FB14E00823FB826B
:105AB0007B681433FA8AB96818460DF0EAFB0AE0ED
:105AC0002523FB827B681433FA8AB96818460DF0E7
:105AD000E0FB00E000BF08E000BF06E000BF04E01C
