S01700004669726D776172655F757067726164652E73333759
S113000000800120E9010000150200001502000033
S11300101502000015020000150200001502000080
S11300201502000015020000150200001502000070
S113003015020000140200001502000085110000E2
S11300401502000015020000150200001502000050
S11300501502000015020000150200001502000040
S11300601502000015020000150200001502000030
S1130070B908000015020000150200001502000076
S11300801502000015020000150200001502000010
S113009015020000790E0000150200001502000090
S11300A015020000010900001502000015020000FD
S11300B015020000150200001502000015020000E0
S11300C015020000150200001502000015020000D0
S11300D015020000150200001502000015020000C0
S11300E015020000150200001502000015020000B0
S11300F015020000150200001502000015020000A0
S1130100150200001502000015020000150200008F
S1130110150200001502000015020000150200007F
S1130120150200001502000015020000150200006F
S11301301502000010B5054C237833B9044B13B1F4
S1130140044800E000BF0123237010BD7C000020A0
S11301500000000088D7000008B5034B1BB1034919
S1130160034800E000BF08BD00000000800000203C
S113017088D70000154B002B08BF134B9D46A3F5F1
S1130180803A00218B460F461348144A121A0BF08A
S11301901BFE0F4B002B00D098470E4B002B00D0BA
S11301A098470020002104000D000D48002802D0CB
S11301B00C4800E000BF0BF0C9FD2000290000F04E
S11301C0AFFA0BF0AFFD00BF000008000080012073
S11301D000000000000000007C0000202C420020F1
S11301E00000000000000000064880470649074A56
S11301F0074B9A42BEBF51F8040B42F8040BF8E7D0
S1130200FFF7B8FF1902000094D700000000002097
S11302107C000020FEE700BF80B400AF074B084A13
S11302209A60064BD3F88830044A43F47003C2F84A
S1130230883000BFBD465DF8047B704700ED00E0E8
S11302400000000080B400AF034B1B681846BD4695
S11302505DF8047B704700BF0800002080B582B0C1
S113026000AF00237B600E4B1B6F03F00703022BD0
S113027004D0032B06D0012B08D00AE0FFF7E2FFDD
S1130280786007E0074B1B687B6003E0064B7B60EC
S113029000E0FEE77B6818460837BD4680BD00BF16
S11302A00080004000000020002D310180B582B0A4
S11302B000AFFFF7D3FF7860094B1B6F1B0B03F0F4
S11302C003033B603B6801337A68B2FBF3F37B6062
S11302D0044A7B6813607B6818460837BD4680BDB6
S11302E0008000400C00002080B400AF024B184690
S11302F0BD465DF8047B704700B4C40480B400AF0D
S1130300034B1B681846BD465DF8047B704700BF6D
S11303100000002080B400AF00231846BD465DF8FD
S1130320047B704780B400AF024B1846BD465DF8AD
S1130330047B7047002D310180B483B000AF0023EB
S11303407B602C4B9B681B0C03F01F030C2B48D8C1
S113035001A252F823F000BF8D030000E303000064
S1130360E3030000E3030000E3030000E3030000F1
S1130370BF030000C5030000CB030000E30300003B
S1130380D1030000D7030000DD030000194B9B6874
S113039003F04073B3F1807F07D0B3F1007F07D03F
S11303A0002B08D1144B7B6008E0144B7B6005E004
S11303B0134B7B6002E000237B6000BF12E0114B13
S11303C07B600FE0104B7B600CE0104B7B6009E01E
S11303D00F4B7B6006E00F4B7B6003E00E4B7B60B2
S11303E000E000BF7B6818460C37BD465DF8047B0F
S11303F0704700BF0040014A00093D0080841E0090
S113040040420F00405DC6000024F400C0EA210110
S113041080BA8C010048E801005A620280B400AF3F
S11304204FF400431846BD465DF8047B704780B422
S113043000AF4FF47A731846BD465DF8047B7047ED
S113044080B400AF034B1B681846BD465DF8047BBF
S1130450704700BF0400002080B500AF02490320AC
S113046003F022F900BF80BD8907000080B588B081
S113047004AF0023FB60674BBB606FF07F437B607E
S1130480644B3B600021062000F0AEFFF860FB687F
S1130490002B05D0F96860480BF09EFCFB68B4E0C3
S11304A05E480BF099FCFFF7D7FF14225C4901204A
S11304B009F0A6FCF860FB68002B05D0F9685948E0
S11304C00BF08AFCFB68A0E0554957480BF084FC0C
S11304D0391D07F10802002303930023029300232C
S11304E001933B4600930B460021042009F0A8FB2E
S11304F0F860FB68002B05D0F9684C480BF06CFCE5
S1130500FB6882E0BB68D9B2BB681B0ADAB2BB687D
S11305101B0CD8B2BB681B0E0093034644480BF077
S11305205BFC0423029364230193002300930023C0
S1130530002202213F4809F059FEF860FB68002BB5
S113054005D0F9683C480BF047FCFB685DE03B488C
S11305500BF042FC00F088F8F860FB68002B01D037
S1130560FB6852E002F014FB35480BF035FC3548CB
S11305700BF032FC344800F0ECFD01F07BF8F8603D
S1130580FB68002B05D0F96830480BF025FCFB68AC
S11305903BE02F480BF020FC43F698212D4800F057
S11305A02BFEF860FB68002B04DBFB6843F6982203
S11305B0934205DDF96828480BF00EFCFB6824E043
S11305C026480BF009FC312001F052F9F860FB6871
S11305D0002B05D0F96822480BF0FEFBFB6814E001
S11305E0142200210E480BF0EFFB14220C490120C9
S11305F009F006FCF860FB68002B01D0FB6804E0FE
S1130600074918480BF0E8FBFB6818461037BD464D
S113061080BD00BFC0A80A0154CD00008CCD0000ED
S1130620BC000020B0CD0000E8CD000004CE0000E6
S11306302CCE00004CCE000058CE000080CE00002E
S113064098CE0000B0CE0000905F0100E4CE000020
S113065014CF0000D000002034CF000060CF000091
S113066080CF0000ACCF000080B582B000AF002383
S11306707B6000F0F3FF1C4B1B78012B14D107F0B7
S1130680B3F978607B68002B05D0796817480BF0C4
S1130690A3FB7B6823E016480BF09EFB15480BF088
S11306A09BFB114B00221A700F4B1B78022B07D1B6
S11306B00D4B00221A7010480BF08EFB7B680EE085
S11306C0094B1B78032BD4D1074B00221A7009F075
S11306D089FB7860796809480BF07EFB7B681846D3
S11306E00837BD4680BD00BFB8000020D0CF000051
S11306F010D0000034D0000054D0000074D00000AA
S113070080B500AF00F0AAFF044B1B78002BF9D092
S1130710024B00221A7000BF00BF80BDB800002049
S113072080B582B000AF43F69821144800F064FD10
S113073078607B68002B04DB7B6843F69822934245
S113074001DD7B6815E0312001F092F878607B6868
S1130750002B05D079680A480BF03EFB7B6808E063
S113076008480BF039FBFFF781FE7860FFF7C8FFFC
S11307707B6818460837BD4680BD00BFD000002006
S1130780A4D00000D8D0000080B582B000AF0346EA
S11307903960FB713B68002B14D1FB79592B02D0D3
S11307A05A2B07D019E00E4B01221A700D480BF09A
S11307B013FB11E00A4B02221A700B480BF00CFBDE
S11307C000BF09E0064B03221A703B68184606F086
S11307D0EBFF06480BF000FB00BF0837BD4680BDA9
S11307E0B8000020FCD000002CD1000060D1000033
S11307F080B483B000AF0346FB7197F90730002B38
S11308000BDBFB7903F01F02074997F907305B09FB
S1130810012000FA02F241F8232000BF0C37BD4644
S11308205DF8047B704700BF00E100E080B483B052
S113083000AF0346FB7197F90730002B10DBFB79FF
S113084003F01F02094997F907305B09012000FAF8
S113085002F2203341F82320BFF34F8FBFF36F8F91
S113086000BF0C37BD465DF8047B704700E100E033
S113087080B483B000AF7860054B03F51053203388
S11308807A681A6000BF0C37BD465DF8047B704778
S113089000C0034080B483B000AF786039607B68E7
S11308A003F5015308333A681A6000BF0C37BD469C
S11308B05DF8047B7047000080B500AF0C4B586AAC
S11308C00C4B1B685A1C0B490A60C1B20A4AD1542A
S11308D0084B1B68092B05D8064B1B68074AD25CDA
S11308E0034BDA6301210248FFF7D4FF00BF80BD48
S11308F000800540843B0020683B0020783B0020BA
S113090080B500AF064B1B68002B02D0044B1B685C
S113091098474AF6AA20FFF7ABFF00BF80BD00BF8F
S1130920743B002080B483B000AF7860044A7B68D5
S1130930136000BF0C37BD465DF8047B704700BFF1
S1130940743B002080B500AF1920FFF76FFF00BF94
S113095080BD80B500AF1920FFF74AFF00BF80BDFE
S113096080B483B000AF786039607B681A683B68F4
S113097022FA03F303F0010318460C37BD465DF871
S1130980047B704780B582B000AF03463960FB71C9
S1130990FB79002B07D0FB79012B04D0FB79022BC8
S11309A001D0FB79032BFA7913465B0013441B0136
S11309B0143303F1804303F5703339681846FFF7A5
S11309C0CFFF034618460837BD4680BD80B483B0C8
S11309D000AF03463960FB71FB79002B07D0FB792C
S11309E0012B04D0FB79022B01D0FB79032B0122CC
S11309F03B6802FA03F30949FA79184613465B0087
S1130A0013441B010B4403F500531033186000BF5B
S1130A100C37BD465DF8047B704700BF00C003403F
S1130A2080B483B000AF03460A46FB711346BB7122
S1130A3000BF0C37BD465DF8047B704780B582B0BB
S1130A4000AF0346FB710B46BB7113467B7101215A
S1130A501520FFF7E5FF00230422002101200AF0FE
S1130A60F5FD002101200AF077FE03467B71002387
S1130A700122032103200AF0E9FD032103200AF0E7
S1130A806BFE03467B7101230422022103200AF03A
S1130A90DDFD022103200AF05FFE03467B7100BFE7
S1130AA00837BD4680BD80B582B000AF0346FB71F8
S1130AB0FB79042B05D101230422002101200AF033
S1130AC0C5FDFB79032B05D101230122032103205A
S1130AD00AF0BCFDFB79012B06D101230722022178
S1130AE003200AF0B3FD00BF00BF0837BD4680BD38
S1130AF080B584B000AF0346FB710023FB73FB7920
S1130B00042B05D102210320FFF73CFF0346FB73AE
S1130B10FB79032B05D103210320FFF733FF0346A1
S1130B20FB73FB79022B05D101210120FFF72AFF7A
S1130B300346FB73FB7B18461037BD4680BD80B56A
S1130B4082B000AF0346FB71FB79042B03D1022171
S1130B500320FFF73BFFFB79032B03D10321032081
S1130B60FFF734FFFB79012B04D100210120FFF7AB
S1130B702DFF00BF00BF0837BD4680BD80B483B0E1
S1130B8000AF03463960FB7197F90730002B0ADB8D
S1130B903B68DAB20C4997F907301201D2B20B4420
S1130BA083F800230AE03B68DAB20849FB7903F0D2
S1130BB00F03043B1201D2B20B441A7600BF0C3768
S1130BC0BD465DF8047B704700E100E000ED00E005
S1130BD080B582B000AF78607B68013BB3F1807F61
S1130BE001D301230FE00A4A7B68013B53600F21C4
S1130BF04FF0FF30FFF7C2FF054B00229A60044B11
S1130C0007221A60002318460837BD4680BD00BF7E
S1130C1010E000E080B483B000AF78604FF0604330
S1130C20D3F8803E03F00103002B13D04FF0604350
S1130C30D3F8003E03F00103002B0BD000E000BF0B
S1130C404FF060431B68002BF9D04FF060437A6883
S1130C50D2B21A707B6818460C37BD465DF8047B27
S1130C60704780B483B000AF03460A46FB71134655
S1130C70BB7100BF0C37BD465DF8047B70470000B4
S1130C8080B584B000AF3B1D18460AF0EDFE224B40
S1130C909B6D03F48033002B19D1204B1B6823F484
S1130CA0FF0323F4FE431D4A43F4BC1343F4A0633F
S1130CB013601B4B1B6823F47043194A43F44043ED
S1130CC01360174B1B68164A43F4E06313607B7987
S1130CD0012B14D13B79002B11D14FF00053FB6051
S1130CE00023BB6008E0FB681B68FB6803F58043D6
S1130CF0FB60BB680133BB60BB68052BF3D9094BB0
S1130D00D3F88030074A43F00303C2F8803000BFB1
S1130D101037BD4680BD00BF00C0004034C0004055
S1130D2030C000400080004080B483B000AF7860E1
S1130D30054B03F5015310337A681A6000BF0C3772
S1130D40BD465DF8047B70470000044080B400AFEA
S1130D50034B1B6D1846BD465DF8047B704700BF0E
S1130D600000044080B582B000AF0346FB71FB79FC
S1130D701846FFF74FFF034618460837BD4680BDA7
S1130D8080B400AF00231846BD465DF8047B70476D
S1130D9080B500AF01211520FFF763FF0023012276
S1130DA0012102200AF052FC002304220021022027
S1130DB00AF04CFC00230422022102200AF046FC23
S1130DC001230422032102200AF040FC00BF80BD5D
S1130DD0B0B586B000AF01212120FFF742FF184BC8
S1130DE03C461D460FCD0FC495E8030084E803007C
S1130DF00123BB7301237B750423FB750423BB759B
S1130E00104BBB60104B114AC3F8BC250E4B022299
S1130E10C3F8C4250C4B4FF00212C3F8C0250A4B8B
S1130E200B4AC3F8B025084B1D22C3F8AC253B463A
S1130E30194608480AF08EFE00BF1837BD46B0BDFB
S1130E40F8D20000101B7F0000C003400200010024
S1130E50020003000080054080B582B000AF054B5E
S1130E601B687B603B1D18460AF030FD00BF083745
S1130E70BD4680BD10D3000080B582B000AFFFF73F
S1130E8065FF78607B6803F00203002B02D0022028
S1130E90FFF74AFF7B6803F00103002B05D0012014
S1130EA0FFF742FF054B01221A707B68002B00DA22
S1130EB000BE00BF0837BD4680BD00BF883B002090
S1130EC080B582B000AF2B4B5B682A4A23F4704391
S1130ED05360284B5B68274A43F480435360254B97
S1130EE0D3F84434234A43F00103C2F844340521BF
S1130EF00C2009F02DFE0C2009F01CFC02461E4BB0
S1130F00A3FB0223DB0C013B7B601C4B1B681B4ACD
S1130F1043F001031360194BDB68184A43F08073F4
S1130F20D360174B40F2FF321A60164A7B68136194
S1130F30144B0222C3F8F020124B4FF48072C3F812
S1130F4004234FF06043104AC3F8B02F4FF06043BE
S1130F500E4AC3F8802E4FF06043D3F8003E4FF0A2
S1130F60604243F00103C2F8003E00BF0837BD46AB
S1130F7080BD00BF00C00340DD40699BF0ED00E090
S1130F80001000E0000004E055CEACC509000100EB
S1130F9080B582B002AFFFF773FEFFF791FFFFF752
S1130FA0F7FEFFF715FFFFF757FF0F2009F0C2FB0D
S1130FB002460D4BA3FB02239B091846FFF708FECC
S1130FC000230122012101200AF040FB01230193A7
S1130FD00023009301230122012101200AF0D6FA03
S1130FE000BFBD4680BD00BFD34D621080B400AFCA
S1130FF000BFBD465DF8047B7047000080B584B037
S113100000AFF860B96011461A460B46FB801346E0
S11310107B71FB68002B02D13C4BFB6004E0BB6896
S1131020002B01D1394BBB60FB88013B9BB2C3F35E
S11310300A0398B2F968364B1A46002313605360CA
S11310409360D360324A138860F30E131380304ADE
S1131050937843F0100393702D4AD37843F0300310
S1131060D3702B4B59602A4B2A4A9A602A4B1A4652
S11310700023136053609360D360274B274A1A60A0
S1131080FB88013B9BB2C3F30A0398B2B968244BB3
S11310901A460023136053609360D360204A138878
S11310A060F30E1313801E4A937843F01003937079
S11310B01B4AD37843F00303D370194B194A5A607F
S11310C0174B9960184B1A460023136053609360C2
S11310D0D360154B4FF480221A60144B00221A700F
S11310E00F4A114900200AF02DFC094A0A4901203F
S11310F00AF028FC00BF0D4B1B78DBB2002BFAD0A2
S1131100002318461037BD4680BD00BFCC3B0020ED
S11311108C3B00203C800540BC3B002002000400C6
S11311209C3B002024800540AC3B0020883B0020F1
S113113080B483B000AF3B600346FB710B46BB71C8
S113114013467B71002318460C37BD465DF8047BBB
S1131150704780B584B000AF78607B68002B0CD0FA
S113116000F01EF8F86000F01BF80246FB68D31A82
S11311707A689A42F7D800BF00E000BF1037BD4636
S113118080BD000080B400AF044B1B680133034AE8
S1131190136000BFBD465DF8047B704798000020D3
S11311A080B400AF034B1B681846BD465DF8047B52
S11311B0704700BF9800002080B400AF044B1B6848
S11311C0DB685B681846BD465DF8047B704700BF6A
S11311D09C00002080B483B000AF7860054B1B688E
S11311E0DB687A685A6000BF0C37BD465DF8047B43
S11311F0704700BF9C00002080B586B002AF7860C5
S113120039600023FB600023BB607B6803F00303A9
S1131210002B0BD07B6803F003023B681344043BB0
S11312203B607B68033323F003037B603A6800214F
S113123078680AF0C9FD00F00BFB03461A46BB6848
S11312401344BB603A68BB689A4201D2BB68B3E0FE
S11312505B4A7B6813607B683A681A607B68043376
S11312607B60584A7B6813607B686C337B60564AAA
S11312707B6813607B6820337B60544A7B6813600F
S11312807B6844337B60524A7B6813607B68F0332D
S11312907B60504A7B6813607B6803F5A0637B60C6
S11312A04D4A7B6813607B68D0337B604B4A7B6814
S11312B013607B68C4337B60424B1B687A681A6492
S11312C07B680C337B6007F039FF3E4B1B68184684
S11312D04FF4C8634FF4CA62796802F0CBFD7B68AF
S11312E003F5CA637B603E4A7B6813607B685433B2
S11312F07B60344B1B687A68DA607B6840337B60C0
S1131300304B1B68DB68184600F0B0FF2D4B1B68A0
S1131310DB6803F1140064237422796802F0AAFDE7
S11313207B6874337B60274B1B687A681A627B681E
S113133038337B60234B1B681B6A184603F0D2F8D2
S1131340204B1B681B6A03F114004FF4C8634FF46D
S1131350CA62796802F08EFD7B6803F5CA637B601C
S1131360184B1B683433184602F04AFE02F068F941
S1131370144B1B682433184602F0C4FD114B1B6840
S11313801033184602F0BEFD7B680D4A12689B1AA2
S11313901A463B68934204D27B68094A12689B1A36
S11313A00AE0104B00930123012201210020FFF7E2
S11313B0BFFE01F03CFBBB6818461037BD4680BD3C
S11313C0A00000209C0000201842002014420020AD
S11313D0104200200C420020204200201C42002029
S11313E0A40000205140000080B588B000AF03463F
S11313F00A46FB801346BB800023FB61614B1B68DC
S1131400DB68BB615F4B1B681B6A7B61BB69BA8885
S11314101A86BB691B8E23F001039AB2BB691A8634
S113142007F108034EF66021184602F026FE10E08C
S1131430544B1B683433184602F0F6FD07F10803D9
S1131440184602F02AFE0346002B02D06FF0170361
S113145094E0BB691B78DBB2002BE9D07B695B7835
S1131460DBB2002B3ED07B695B78DBB2092B04D066
S11314707B695B78DBB20A2B16D17B691B78DBB204
S1131480022B06D9BB691B8E43F001039AB2BB69D8
S11314901A867B6900225A7000BFFFF78DFEF8613F
S11314A0FB69002B13D010E0374B1B68103337490E
S11314B0184602F05DFC0346002BD4D06FF01D00EB
S11314C0FFF788FE6FF01D0358E0FB6956E008F053
S11314D089FCF861FB69002B01D0FB694EE045F6FD
S11314E05A234BE0BB691B78DBB2012B02D06FF0AF
S11314F0020343E00121002001F0D0FA0346002B4F
S11315003AD1BB691433184602F0D0FC38613B6908
S1131510002B06D10021002001F0C0FA6FF0030374
S11315202CE03B6914332822002118460AF04CFCB5
S11315303B691433FB607B69FA88DA86F868BB88F8
S11315401A04FB881343194602F0D2FD39691020AE
S113155000F0EAFEF8610C4B1B6814334EF6602170
S1131560184601F083FA0021002001F097FAFFF7F2
S113157023FEF861FB6901E06FF02203184620376F
S1131580BD4680BD9C000020A4000020400D030047
S113159080B586B000AF78600B467B8000237B610A
S11315A02B4B1B68DB683B613B691B78DBB2002B70
S11315B00BD105E0264B1B683433184602F034FD8A
S11315C03B691B78DBB2012BF4D10121002001F02F
S11315D065FA0346002B34D13B691433184602F0F4
S11315E065FCF860FB68002B06D10021002001F0A7
S11315F055FA6FF0030326E07B68002B06D03B69A5
S11316007A685A637A883B699A6305E03B690022E9
S11316105A633B6900229A63F968492000F084FE0A
S113162078610C4B1B6814330B49184601F01EFA01
S11316300021002001F032FAFFF7BEFD78617B69DA
S113164001E06FF0220318461837BD4680BD00BF85
S11316509C000020A400002020A1070080B500AF5A
S1131660034B1B683433184602F0DEFC00BF80BD18
S11316709C00002080B582B000AF00237B60002373
S11316803B6000F0E5F803461A463B6813443B60B0
S11316906A4B1B68002B02D14FF0FF33CAE0FFF7FF
S11316A051F9674B1B683C33184602F052FB644BFC
S11316B01B68DB681033184602F04BFB03467B6063
S11316C07B68002B02D06FF02803B3E05C4B1B68EF
S11316D0DB680833184602F022FB5A4B1B680833B8
S11316E0184602F01CFB564B1B680833184602F0E0
S11316F030FB03467B607B68002B02D06FF028032D
S113170098E04F4B1B68DB681C33184602F021FB42
S113171003467B607B68002B02D06FF0280389E0CE
S1131720484B1B681833184602F013FB03467B60D2
S11317307B68002B02D06FF028037BE0414B1B68D1
S11317401433184602F005FB03467B607B68002BCC
S113175002D06FF028036DE03A4B1B682033184623
S113176002F0F7FA03467B607B68002B02D06FF02F
S113177028035FE0334B1B680C33184602F0E9FA88
S113178003467B607B68002B02D06FF0280351E096
S11317902C4B1B681C33184602F0DBFA03467B60B3
S11317A07B68002B02D06FF0280343E0254B1B68B5
S11317B01033184602F0CDFA03467B607B68002B99
S11317C002D06FF0280335E01D4B1B681B6A1033F1
S11317D0184602F0BEFA03467B607B68002B02D0F9
S11317E06FF0280326E0164B1B681B6A1C3318464F
S11317F002F0AFFA03467B607B68002B02D06FF0E7
S1131800280317E00E4B1B681B6A0833184602F0C6
S113181086FA0D4B00221A600C4B00221A60074B0B
S11318201B683A68002118460AF0CEFA034B0022DE
S11318301A60002318460837BD4680BDA00000206A
S11318409C000020A4000020104200200C42002034
S113185080B483B000AF00237B607B6803F5B25390
S11318607B607B6818460C37BD465DF8047B704787
S113187080B584B000AF0346FB710023FB60FFF723
S113188087FB01F085F90346FB60FB68002B01D060
S1131890FB685EE06420FFF75CFC00F035FB034668
S11318A0FB60FB68002B01D0FB6852E007F10803E2
S11318B04EF66021184602F0E0FB01F07DF9034684
S11318C0FB60FB68002B05DAFB6813F10C0F01D0F9
S11318D0FB683EE007F10803184602F0DEFB03460E
S11318E0002B02D06FF0180333E0FB6813F10C0FE8
S11318F0E3D0FB79312B03D1002000F08FFA0CE008
S1131900FB79712B09D1022000F088FA0346FB60B1
S1131910FB68002B01DAFB681BE0FB79184601F039
S11319208FF90346FB60FB68002B01DAFB6810E0CB
S113193000F0D8FA0346FB60FB68002B01DAFB6871
S113194007E0FFF753FB0548FEF7ECFFFFF701F84C
S1131950FB6818461037BD4680BD00BFB12F00009C
S113196090B587B000AF786007F10C03184600F01B
S11319705FF80346FB82B7F91630002B02D0B7F9A3
S1131980163020E007F10C030233184602F0C6FBC0
S11319900346043B9CB207F10C03184602F0BEFB5D
S11319A00346043B9BB21A462146786800F08EF841
S11319B00346FB82B7F91630002B02D0B7F9163074
S11319C001E0B7F9163018461C37BD4690BD80B506
S11319D086B000AFF860B9601346FB80F86800F089
S11319E0E9F80346FB82B7F91630002B02D0B7F9A9
S11319F0163019E0FB88002B14D0FB8803339BB20C
S1131A0023F00303FB80F88800230022B96800F068
S1131A1011F90346FB82B7F91630002B02D0B7F94F
S1131A20163001E0B7F9163018461837BD4680BDA8
S1131A3080B584B000AF78605C23FB730023BB7374
S1131A4004237B7300233B73BA7BFB7B114618464C
S1131A5000F04CF903467B81B7F90A30002B02D021
S1131A60B7F90A302CE03A7B7B7B1146184600F02C
S1131A7085F903467B81B7F90A30002B02D0B7F908
S1131A800A301DE00121104800F09AF903467B81D9
S1131A90B7F90A30002B02D0B7F90A3010E001235D
S1131AA0042279680020FFF7A9FA03467B81B7F97D
S1131AB00A30002B02D0B7F90A3001E0B7F90A3036
S1131AC018461037BD4680BD20A1070080B588B0F8
S1131AD000AF78600B467B8013463B800023BB61DC
S1131AE03B88033323F00303BB615D23FB750023B1
S1131AF0BB75BB697B75BB691B0A3B75BA7DFB7DF6
S1131B001146184600F0F2F80346FB83B7F91E307D
S1131B10002B02D0B7F91E3046E03A7D7B7D11469A
S1131B20184600F02BF90346FB83B7F91E30002B4F
S1131B3002D0B7F91E3037E001211D4800F040F90A
S1131B400346FB83B7F91E30002B02D0B7F91E30D1
S1131B502AE07B88002B0FD07A8807F10C01002340
S1131B600020FFF74BFA0346FB83B7F91E30002B26
S1131B7002D0B7F91E3017E07B68002B12D0BB6986
S1131B809AB27B88D31A9AB2012379680020FFF7AE
S1131B9035FA0346FB83B7F91E30002B02D0B7F9A0
S1131BA01E3001E0B7F91E3018462037BD4680BD0F
S1131BB020A1070080B588B000AF78607C23FB7754
S1131BC00023BB7710237B7700233B77BA7FFB7F0F
S1131BD01146184600F08AF803467B83B7F91A3099
S1131BE0002B02D0B7F91A3020E03A7F7B7F1146F0
S1131BF0184600F0C3F803467B83B7F91A30002B6C
S1131C0002D0B7F91A3011E0786807F1080101230E
S1131C101022FFF7F3F903467B83B7F91A30002B40
S1131C2002D0B7F91A3001E0B7F91A301846203754
S1131C30BD4680BD80B586B000AFB9607B60034609
S1131C40FB811346BB81FA89BB891344BB827C2385
S1131C50FB740023BB74BB8A7B74BB8A1B0A9BB2D4
S1131C603B74BA7CFB7C1146184600F03FF80346EF
S1131C70FB82B7F91630002B02D0B7F9163031E0E9
S1131C803A7C7B7C1146184600F078F80346FB82C8
S1131C90B7F91630002B02D0B7F9163022E0FA89D2
S1131CA001230021B868FFF7A9F90346FB82B7F9BD
S1131CB01630002B02D0B7F9163013E0BB89002B85
S1131CC00ED0BA89012300217868FFF797F90346FB
S1131CD0FB82B7F91630002B02D0B7F9163001E0B9
S1131CE0B7F9163018461837BD4680BD80B588B0A0
S1131CF000AF03460A46FB711346BB714CF25033E6
S1131D00BB611D4B1B6800221A64FB793B75BB79D0
S1131D107B75194B1A68136C591C1164BA699A4281
S1131D2003D24FF6E973FB8320E007F10C0107F1BE
S1131D30140000230222FFF761F90346FB837B7B37
S1131D40582B02D07B7B002B02D10023FB830DE0B8
S1131D507B7B522B03D14FF6FE73FB8306E07B7B28
S1131D60542BD2D14FF6FF73FB83CEE7B7F91E3065
S1131D7018462037BD4680BDA400002080B584B03D
S1131D8000AF03460A46FB711346BB71FB793B73F4
S1131D90BB797B7307F10C00002302220021FFF7BB
S1131DA02DF90346FB81B7F90E30002B02D0B7F9A9
S1131DB00E3001E0B7F90E3018461037BD4680BD2D
S1131DC080B584B000AF78600B46FB70124B1B6883
S1131DD000221A64104B1A68136C591C11647A6837
S1131DE09A4203D24FF6FF73FB810FE000237B730B
S1131DF0FB7807F10D0101220020FFF7FFF80346ED
S1131E00FB817B7B552BE5D10023FB81B7F90E3099
S1131E1018461037BD4680BDA400002080B584B0AC
S1131E2000AF786000233B7300237B7307F10C033E
S1131E301A460221144800F02FF90346FB81B7F932
S1131E400E30002B1AD17B7B23F00303DBB27B73B0
S1131E507A7B7B68DBB21343DBB27B7307F10C0341
S1131E601A460221084800F0B3F80346FB81B7F98B
S1131E700E30002B02D0B7F90E3001E0B7F90E3066
S1131E8018461037BD4680BD0000054180B584B0BA
S1131E9000AF78604CF25033BB60114B1B680022DA
S1131EA05A640F4B1A68536C591C5164BA689A42AD
S1131EB003D24FF6E973FB810CE07968002000F04F
S1131EC067F90346FB81B7F90E30B3F1FF3F00D148
S1131ED0E7E700BFB7F90E3018461037BD4680BD9E
S1131EE0A400002080B582B000AF0323BB71BB1DEA
S1131EF01946082000F086F90346FB71FB791BB2F2
S1131F0018460837BD4680BD80B584B000AF0023B5
S1131F107B600023FB810A23BB81184B1B680022D2
S1131F201A64164B1A68136C591C1164BA899342CB
S1131F3003D94FF6E973FB811AE012233B724A235B
S1131F407B725C23BB720023FB72391D07F108000E
S1131F5000230422FFF752F80346FB81FB79582B38
S1131F6002D10023FB8103E04FF6FF73FB81D8E726
S1131F70B7F90E3018461037BD4680BDA4000020C6
S1131F8080B582B000AF12233B714A237B715C237E
S1131F90BB710023FB713946381D00230222FFF771
S1131FA02DF87B78522B0DD07B78002BF3D139465A
S1131FB03B1D981C00230222FFF720F87B78582B46
S1131FC002D0E8E700BF00E000BF0837BD4680BD8F
S1131FD080B58AB000AFF8600B467A607B817423C9
S1131FE087F82730002387F826307B8987F8253047
S1131FF07B891B0A9BB287F8243007F11C03F9681C
S1132000184602F075F897F8262097F827301146FD
S11320101846FFF76BFE03467B84B7F92230002B8A
S113202002D0B7F9223032E097F8242097F825300F
S113203011461846FFF7A2FE03467B84B7F9223007
S1132040002B02D0B7F9223021E007F1140107F187
S11320501C0000230422FEF7D1FF03467B84B7F95A
S11320602230002B02D0B7F9223010E07A89002305
S113207000217868FEF7C2FF03467B84B7F922305B
S1132080002B02D0B7F9223001E0B7F9223018460C
S11320902837BD4680BD000080B58AB000AFF86027
S11320A00B467A607B81542387F82730002387F816
S11320B026307B8987F825307B891B0A9BB287F8F9
S11320C02430FB68DBB23B77FB681B0ADBB27B770F
S11320D0FB681B0CDBB2BB77FB681B0EDBB2FB7728
S11320E097F8262097F8273011461846FFF7FEFD8B
S11320F003467B84B7F92230002B02D0B7F9223093
S11321003FE097F8242097F8253011461846FFF74A
S113211035FE03467B84B7F92230002B02D0B7F991
S113212022302EE007F1140107F11C0000230422E1
S1132130FEF764FF03467B84B7F92230002B02D0FC
S1132140B7F922301DE000211048FFF739FE03469D
S11321507B84B7F92230002B02D0B7F9223010E08B
S11321607A89002379680020FEF748FF03467B84C0
S1132170B7F92230002B02D0B7F9223001E0B7F9C9
S1132180223018462837BD4680BD00BF20A1070075
S113219080B584B000AF03463960FB714123FB7303
S11321A00023BB73BA7BFB791343BB73BA7BFB7B02
S11321B011461846FFF79AFD0346BB81B7F90C3068
S11321C0002B02D0B7F90C3016E000210C48FFF7C1
S11321D0F7FD0346BB81B7F90C30002B02D0B7F9E9
S11321E00C3009E00023012239680020FEF706FFC5
S11321F00346BB81B7F90C3018461037BD4680BD85
S113220020A1070080B586B000AF03463960FB719A
S11322106223FB750023BB75BA7DFB791343BB7541
S1132220BA7DFB7D11461846FFF760FD0346BB826D
S1132230B7F91430002B02D0B7F9143011E007F1CC
S11322400C01002302223868FEF7D8FE0346BB8245
S1132250B7F91430002B02D0B7F9143001E0B7F904
S1132260143018461837BD4680BD000080B584B0D0
S113227000AF78600023FB737B68002B02D16FF002
S113228001034AE07B6800221A707B6800225A60CE
S11322907B680833184601F013FD224B1B68083392
S11322A0184601F00DFD1F4B1B681833002118461A
S11322B001F040FD0346FB7397F90F30002B02D069
S11322C06FF0270329E0174B1B681833184601F0F9
S11322D0BFFD7B6800221A737B6810330021184607
S11322E001F028FD0346FB7397F90F30002B02D051
S11322F06FF0270311E00B4B1B68143300211846C1
S113230001F018FD0346FB7397F90F30002B02D040
S11323106FF0270301E097F90F3018461037BD46D8
S113232080BD00BFA400002080B588B000AF034684
S11323303960FB710023FB830023BB61704B1B6876
S1132340DB687B613B6804333B6110220021386900
S113235009F03AFDFB79772B50D0772B0DDC1B2B42
S113236046D01B2B04DC102B15D0152B5ED094E02B
S11323701C2B52D0262B3ED08FE0C82B4AD0C82B22
S113238004DC922B3DD0A42B4DD086E0E92B3BD02E
S1132390F22B3CD081E03B681433BB60BB68043350
S11323A00121184601F0A4FEBB68083355491846BC
S11323B001F09EFEBB680C334FF00041184601F05B
S11323C097FEBB6810334FF44011184601F090FE9D
S11323D0BB6818334FF00041184601F089FEBB6812
S11323E024330121184601F083FE2823FB8354E0A3
S11323F00323FB8351E00823FB834EE00123FB838B
S11324004BE00823FB8348E01C23FB8345E01C23AB
S1132410FB8342E00C23FB833FE0394B1B68DB6802
S113242000221A7039E00123FB8336E03B68143341
S1132430FB60FB681B78002B23D07B6993F820306A
S11324400A2B03D1FB6802225A700BE07B6993F8D4
S11324502030082B03D1FB6801225A7002E0FB688C
S113246001225A70FB6800229A70FB6832229A801B
S1132470FB6800229A71244B1B68B3F8BE20FB68EA
S11324801A81FB685B78022B04D11D4B1B68DB6847
S113249000221A700A23FB8300BFFB8BC3F30B03D8
S11324A09BB21946386901F00DFE3B6901331A7875
S11324B03B69013342F04002D2B21A703B690233E5
S11324C0FA791A70FB79152B05D0FB79102B02D001
S11324D0FB791C2B05D10A4B1B682433184601F0E9
S11324E067FD074B1B6810333968184601F01EFD61
S11324F0012001F03FF8BB6918462037BD4680BD76
S11325009C000020120000801C42002080B58AB08C
S113251000AF786000237B627B680433FB61002397
S113252087F82330A74B1B68DB68BB61A54B1B688E
S11325301B6A7B617B689B79FB74FB690C331846CF
S113254001F0ECFD03467B627B681433FB60F869A1
S113255001F0E4FD0346C3F30B037B81786AFEF7C5
S113256039FEFB7C262B00F09E80262B0DDC152BE0
S113257073D0152B02DC102B57D083E11B2B00F0FA
S11325808A801C2B00F09F807CE1B02B00F03F81FF
S1132590B02B05DC492B00F0F880892B07D071E1C2
S11325A0C82B00F08880F22B00F014816AE17B6A6A
S11325B0002B40F05A81BB6901221A70FB690F336A
S11325C01B7803F00403002B13D07B6908225A7094
S11325D07D4B1B68D3F8A430002B00F046817A4B66
S11325E01B68D3F8A4307A6A92B204211046984743
S11325F03BE1FB690F331B7803F00203002B00F06F
S113260034817B690A225A706F4B1B68D3F8A4305B
S1132610002B00F02A816C4B1B68D3F8A4307A6A33
S113262092B20221104698471FE1FB690C33184609
S113263001F074FD03467B627B6A002B40F0178136
S11326407B6901221A70BB6902221A705D4B1B68F8
S11326502433184601F0C0FC09E1FB690C33184629
S113266001F05CFD03467B627B6A002B40F0018134
S1132670BB6993F82C30002B03D0BB69012283F88B
S11326802D20504B1B682433184601F0A5FCBB6970
S113269000229A62EDE0FB690C33184601F03EFD1E
S11326A003467B62EEE0FB690C33184601F036FD0D
S11326B003467B62E6E0FB690C33184601F02EFD0D
S11326C003467B62DEE0FB690C33184601F026FD0D
S11326D003467B62BB6901221A707B6900221A706F
S11326E0002387F8233012E0384B196897F8232029
S11326F013461B019B1A9B000B443C2200211846E5
S113270009F062FB97F82330013387F82330304B0C
S11327101B681B7B97F823209A42E5D3FB690F3390
S11327201B7803F00403002B13D07B6908225A7032
S1132730254B1B68D3F8A430002B00F09C80224B5F
S11327401B68D3F8A4307A6A92B2042110469847E1
S113275091E0FB690F331B7803F00203002B00F0B8
S11327608A807B690A225A70174B1B68D3F8A430FD
S1132770002B00F08080144B1B68D3F8A4307A6AD5
S113278092B202211046984775E07B6A002B74D1FF
S1132790BB695B6B002B70D0BB699B6B002B6CD04F
S11327A0BB699A6B7B89934228BF13463B81BB6903
S11327B05B6B3A89F968184609F0FBFABB69002299
S11327C05A635AE09C0000201C4200201042002062
S11327D0244200207B6A002B51D1BB695B6B002B28
S11327E04DD0BB699B6B002B49D0BB699A6B7B892D
S11327F0934228BF13463B81BB695B6B3A89F968F6
S1132800184609F0D6FABB6900225A6337E0FB691F
S11328100C33184601F082FC03467B62F86901F030
S11328207DFC0346C3F30B037B817B681433FB609D
S11328307B6A002B25D1BB695B6B002B21D0BB6964
S11328409B6B002B1DD0BB699A6B7B89934228BF7D
S113285013463B81BB695B6B3A89F968184609F0FA
S1132860A8FABB6900225A630BE000BF0AE000BF6C
S113287008E000BF06E000BF04E000BF02E000BFC4
S113288000E000BFFB7C892B39D0FB7C772B1AD16D
S1132890BB6993F83C30002B06D01B4B1B681433E8
S11328A0184601F0D5FA2AE0184B1B681B69002B67
S11328B002D17B6A002B22D0134B1B6814331846B9
S11328C001F0C6FA1BE0FB7C152B12D10E4B1B68E2
S11328D093F85030DBB2152B11D10B4B1B6800223F
S11328E083F85020084B1B681433184601F0B0FAE3
S11328F005E0054B1B681433184601F0A9FA0023C0
S113290018462837BD4680BDA40000201C42002084
S113291080B586B000AF0346FB710023FB753B4BCB
S11329201B68DB683B61394B1B681B6AFB60FB79E6
S1132930DD2B0BD0DE2B02D0CD2B19D061E03B690F
S113294001229A62012000F015FE5AE03B6903223D
S11329509A623B6993F82C30092B05D13B6901221B
S11329609A62012000F006FE012000F03FFE48E0DC
S11329703B6901221A70FB6800221A700023FB7560
S11329801DE0234B1968FA7D13461B019B1A9B001B
S11329900B443C220021184609F016FA1D4B196815
S11329A0FA7D13469B0013449B010B444FF4A07221
S11329B00021184609F008FAFB7D0133FB75164B1C
S11329C01B681B7BFA7D9A42DBD3144B1B680022E5
S11329D083F8BC20114B1B680022DA60FB680022DC
S11329E01A733B6900221A7300F01AF83B6920330A
S11329F010220021184609F0E7F9012000F0F6FD45
S1132A0000BF00BF1837BD4680BD00BF9C0000203A
S1132A10104200200C420020244200201C420020CE
S1132A2080B500AF0420FEF78AF800BF80BD80B5F2
S1132A3000AF002200210320FEF700F80120FEF77A
S1132A4032F8002201210420FDF7F8FF0420FEF7EC
S1132A5076F800BF80BD80B582B000AF78600020FA
S1132A6004F0A2FE00BF0837BD4680BD80B582B029
S1132A7000AF786039603968786801F079F9034605
S1132A80002B06D06FF01D00FEF7A4FB6FF01D03B2
S1132A9000E0002318460837BD4680BD80B584B0E9
S1132AA000AF03460A46FB711346BB710023FB606B
S1132AB0FB79012B19D0022B2DD0002B56D1BB79D9
S1132AC0012B08D1304B1B6818334EF66021184691
S1132AD0FFF7CCFF4EE0BB79002B4BD12A4B1B6890
S1132AE01833184601F0B4F944E0BB79012B08D13E
S1132AF0254B1B681C334EF66021184604F05CFF1E
S1132B003AE0BB79002B37D11F4B1B681C331846A6
S1132B1001F09EF930E0BB79012B12D11A4B1B68EE
S1132B2093F82820184B1B6842F00202D2B283F8B3
S1132B302820154B1B6820331449184600F0CCFD9F
S1132B401CE0BB79002B19D10F4B1B6893F828208C
S1132B500D4B1B6822F00202D2B283F828200A4BE4
S1132B601B682033184601F073F907E06FF0010386
S1132B70FB6004E000BF02E000BF00E000BFFB68B0
S1132B8018461037BD4680BDA4000020C0270900A8
S1132B9080B500AF002201210120FDF74FFF012085
S1132BA0FDF7CDFF6420FEF7D4FA0120FDF77BFF8B
S1132BB00023184680BD000080B582B000AF00231A
S1132BC0FB800023BB803B1D1946D12000F0FAF89E
S1132BD00346FB80B7F90630002B02DAB7F906305A
S1132BE028E0BB8803F47F43B3F52B4F20D1BB8887
S1132BF0DBB2F12B02D16FF008031BE0BB88DBB220
S1132C00F22B02D16FF0090314E0BB88DBB2102B66
S1132C1004D10A4B1B6801221A6007E0BB88DBB2AF
S1132C20112B03D1054B1B6802221A60002301E01B
S1132C306FF00B0318460837BD4680BDA400002082
S1132C4080B586B000AF0346FB710023BB8200232E
S1132C50FB8200237B8207F114031A4602215648A3
S1132C60FFF7B6F90346FB82B7F91630002B02DAF8
S1132C70B7F916309CE0FB79422B07D1FB791AB2E5
S1132C804E4B13431BB29BB2BB8206E0FB791AB2D4
S1132C904B4B13431BB29BB2BB8207F1140319467F
S1132CA0D22000F08FF80346FB82B7F91630002BD0
S1132CB002DAB7F916307BE007F10C034FF4967192
S1132CC0184601F0DAF929E007F112031946D12078
S1132CD000F078F80346FB82B7F91630002B02DACD
S1132CE0B7F9163064E0FB79422B05D17B8A4AF6AA
S1132CF03232934207D119E07B8A1A46FB7943F4B6
S1132D002B439A4211D007F10C03184601F0C5F980
S1132D100346002B02D06FF01B0349E0FB79312BF3
S1132D2004D0FB79712BCFD100E000BFFB79312BAC
S1132D3002D0FB79712B39D107F10C0340F6B8317D
S1132D40184601F09AF907F112031946D12000F050
S1132D5039F80346FB82B7F91630002B02DAB7F9CB
S1132D60163025E07B8A03F47043B3F5204F11D16C
S1132D707B8ADBB2232B02D16FF00D0318E07B8A30
S1132D80DBB2F32B02D16FF00E0311E07B8ADBB2CE
S1132D90AA2B0AD007F10C03184601F07EF903466A
S1132DA0002BD0D06FF01B0302E000BFB7F9163040
S1132DB018461837BD4680BD3C00054100A0FFFF02
S1132DC000ABFFFF80B588B000AF03463960FB71EC
S1132DD00023FB8300237B610023BB6100237B82F0
S1132DE000233B82FB79D12B11D0D12B08DC422B61
S1132DF07AD0712B00F0C080312B00F0B080C8E095
S1132E00D42B45D0D52B17D0D22B0DD0C1E007F150
S1132E1010031A4602216448FFF73EF90346FB8378
S1132E203A8A3B681A80B8E03A6802215F48FFF7A3
S1132E30CFF80346FB83B0E00023BB6117E0BB6916
S1132E4003F540435800BB695A003B6813441A46D3
S1132E500221FFF7BDF80346FB83B7F91E30002BB0
S1132E6002DAB7F91E309AE0BB690133BB61BB6972
S1132E70B3F5006FE3D34AF649337B8207F11203BB
S1132E801A4602214948FFF7A3F80346FB8384E06E
S1132E900023BB6117E0BB6903F548435800BB69D5
S1132EA05A003B6813441A460221FFF791F803467F
S1132EB0FB83B7F91E30002B02DAB7F91E306EE03F
S1132EC0BB690133BB61BB69B3F5006FE3D34AF659
S1132ED04F337B8207F112031A4602213348FFF76E
S1132EE077F80346FB8358E04AF642337B6107F1E7
S1132EF014031A4602212D48FFF76AF80346FB83A0
S1132F00B7F91E30002B02DAB7F91E3047E007F19B
S1132F100C034FF49671184601F0AFF807F1100353
S1132F201A4602212048FFF7B7F80346FB83B7F996
S1132F301E30002B02DAB7F91E3030E007F10C0323
S1132F40184601F0AAF80346002B02D06FF01B03C9
S1132F5025E03B8A4AF632329342DFD11DE04AF63D
S1132F6031337B6107F114031A4602210F48FFF73E
S1132F702FF80346FB8310E04AF671337B6107F1B7
S1132F8014031A4602210948FFF722F80346FB837B
S1132F9003E04FF6FE73FB8300BFB7F91E301846FB
S1132FA02037BD4680BD00BF3C00054134000541CB
S1132FB080B500AFFDF7C6FC002000F0DBFA00BFCF
S1132FC080BD000080B588B000AF0023FB61002302
S1132FD03B830023FB820023BB70834B1B68DB68AD
S1132FE03B610023FB730023BB7300237B7300232B
S1132FF03B730023FB72FF23BB72FF23FB767A4BE8
S11330001B681033184600F0BDFF0346FB73764B74
S11330101B682433184600F0B5FF03467B73FB7B23
S1133020002B38D0704B1B68704A5A66BB1C18467C
S1133030FEF72CFF0346FB82B7F91630002B04D1B0
S1133040BB7803F00103002B1BD0674B1B685B6B41
S113305023F00203002B00F0BE80012000F0B2FA3E
S1133060634B1B680833184600F038FE604B1B683E
S113307001225A605E4B1B680833184600F041FE7B
S1133080A9E0594B1B681033184600F065FFF8613E
S11330900123FB7636E07B7B002B33D0BB1C184628
S11330A0FEF7F4FE0346FB82B7F91630002B04D179
S11330B0BB7803F00103002B1BD04B4B1B685B6BED
S11330C023F00203002B00F08880012000F07AFA3C
S11330D0474B1B680833184600F000FE444B1B683E
S11330E001225A60424B1B680833184600F009FE5F
S11330F073E03D4B1B682433184600F02DFFF86144
S11331000623FB76FB7B002B0BD17B7B002B08D1AA
S1133110BB7B002B05D1FB7A002B02D13B7B002B20
S11331203ED0FB6904337B607B689B78FB707B68D3
S113313001331B781B09BB727B681B88C3F30B0329
S11331403B83FB78152B08D1BB7A042B05D10120D6
S113315000F038FA0320FDF7FCFF7B6810333A8B4C
S113316019467868FEF733FCFB7E012B0BD11E4B0E
S11331701B68DB681433F969184600F0ADFEF86982
S1133180FFF769FC2BE0FB7E062B28D1BB7A042BCE
S113319002D0BB7A052B22D1F86904F0A3FB1EE010
S11331A03B6993F82D30002B0ED03B699B6A012BB1
S11331B00AD1002200210F48FEF709FC012000F08B
S11331C001FA3B6902229A62F869FFF744FC012084
S11331D000F0E4F904E000BF02E000BF00E000BF3B
S11331E02037BD4680BD00BF9C000020572A000048
S11331F0A400002014D3000080B58AB000AF0023DF
S1133200FB8400233B620023FB6100237B730023C8
S1133210BB6000237B6000237B83A94B1B68DB68B6
S11332207B61A74B1B681B6A3B610220FDF760FCB6
S11332300346002B1ED1002000F0B0F9FDF789FBF6
S1133240A04B1B685B68012B40F08181012000F0DA
S1133250CDF99C4B1B680833184600F03FFD994B91
S11332601B6800225A60974B1B680833184600F00D
S113327048FD6CE17B6993F82D30002B01D0FEF7FB
S11332807FFE07F10D031846FEF700FE03467B831D
S11332907B8B002B40F05D817B7B5BB2002B29DABA
S11332A07B7B03F07F03DBB27B7307F108031A46D1
S11332B004218548FEF7F0FE03467B837B8B002BBD
S11332C018D1824B1B68D3F8B830002B08D07F4B41
S11332D01B68D3F8B830BA6890B20022002198472E
S11332E080237B603B1D1A4604217948FEF770FE5B
S11332F003467B837B7B03F00803002B27D100204C
S113330000F04CF9FDF725FB0220FDF7F1FB034625
S1133310002B02D0002000F02DF96A4B1B685B687B
S1133320012B40F01881012000F060F9654B1B6807
S11333300833184600F0D2FC624B1B6800225A6026
S1133340604B1B680833184600F0DBFC03E15C4B60
S11333501B68184600F0AAFDF861FB69002B03D135
S1133360002000F02FF9FDE0FB6904333B62386A6A
S1133370FEF7F6FA0346FB84FB8C002B24D00020D6
S113338000F00CF94E4B1B68F969184600F0A4FDD7
S1133390FDF7DFFA4B4B1B685B68012B40F0DD80C7
S11333A0012000F023F9474B1B680833184600F04E
S11333B095FC444B1B6800225A60424B1B6808333F
S11333C0184600F09EFCC8E03B6A01331B781B09D9
S11333D0FB733B6A9B78BB73FB7B042B34D1BB7BB5
S11333E0CD2B05D0BB7BDE2B02D0BB7BDD2B2BD1C1
S11333F0BB7B1846FFF78CFA314B1B68F9691846FA
S113340000F06AFD002000F0C9F8002000F0EEF89A
S1133410FDF79FFA2B4B1B685B68012B40F09F80E4
S1133420012000F0E3F8274B1B680833184600F02E
S113343055FC244B1B6800225A60224B1B6808333E
S1133440184600F05EFC8AE0FB7B042B2AD1BB7B90
S1133450892B23D0BB7B102B20D0BB7B152B1DD0FD
S1133460BB7B1B2B1AD0BB7BC82B17D0BB7B1C2B65
S113347014D0BB7BA42B11D0BB7B492B0ED0BB7BC0
S1133480262B0BD0BB7B772B08D0BB7B922B05D094
S1133490BB7BE92B02D0BB7BF22B03D1F869FFF78E
S11334A035F81DE0FB7B022B1AD0FB7B012B17D0D8
S11334B0FB7B042B0ED1F86901F06AFE10E000BF1B
S11334C09C000020A4000020340005411C42002080
S11334D008000541FB7B052B02D1F86900F0D8F800
S11334E0224B1B68F969184600F0F6FC0220FDF730
S11334F0FFFA0346002B02D1002000F04FF8002011
S113350000F074F8FDF725FA0220FDF7F1FA0346FE
S1133510002B02D0002000F02DF8154B1B685B68CF
S1133520012B1ED1012000F061F8114B1B680833F8
S1133530184600F0D3FB0E4B1B6800225A600C4B5C
S11335401B680833184600F0DCFB00BF09E000BF2D
S113355008E000BF06E000BF04E000BF02E000BFD7
S113356000E000BF2837BD4680BD00BF9C0000209E
S1133570A400002080B582B000AF7860054B1B68C2
S11335805B6C054A126879681046984700BF083793
S1133590BD4680BDA80000202442002080B582B032
S11335A000AF7860054B1B689B6C054A126879680C
S11335B01046984700BF0837BD4680BDA8000020CC
S11335C02442002080B582B000AF7860054B1B68B0
S11335D0DB6C054A126879681046984700BF0837C3
S11335E0BD4680BDA80000202442002080B582B0E2
S11335F000AF7860054B1B681B6D054A126879683B
S11336001046984700BF0837BD4680BDA80000207B
S11336102442002080B582B000AF78603960064B48
S11336201B689B6D054A10683A6879689847034699
S113363018460837BD4680BDA8000020244200205B
S113364080B500AF06490020FFF7E4FF05490120DB
S1133650FFF7E0FF04490220FFF7DCFF00BF80BD55
S1133660F9310000C52F00007D7D000080B584B0D5
S113367000AFF860B9607A603B603B687A68B9680B
S1133680F86800F05FF8034618461037BD4680BD61
S113369080B582B000AF7860786800F0A7F903467F
S11336A018460837BD4680BD80B483B000AF78604B
S11336B039607B68112B02D96FF00F0304E0054BCE
S11336C01B683A681A64002318460C37BD465DF837
S11336D0047B70471C42002080B582B000AF786044
S11336E039603968786800F043FB0346002B06D044
S11336F06FF01D0004F058F86FF01D0300E0002384
S113370018460837BD4680BD80B400AF034B1B6824
S1133710DB6A1846BD465DF8047B7047A4000020B0
S113372080B582B000AF7860054B1B687A68DA62B6
S1133730786804F039F800BF0837BD4680BD00BF83
S1133740A400002080B58CB000AFF860B9607A6046
S11337503B600023BB6200237B62A14B1B681B6898
S11337603B629F4B1B685B68FB61FA6813461B0155
S11337709B1A9B001A46FB6913445B78DBB2002B4F
S113378007D1FB681946092005F0C6F84FF0FF334E
S113379022E13B6A1B6A1433184600F087FBB861C8
S11337A0BB69002B08D1FB6819466FF0030005F0D4
S11337B0B3F84FF0FF330FE1BB6914337B61BB698E
S11337C004333B6110220021386908F0FDFA1C2201
S11337D00021786908F0F8FAFA6813461B019B1A6D
S11337E09B001A46FB6913449B781B09DBB203F068
S11337F00F03022B29D17B690421184600F062FCD7
S11338007B6903F10C003B6804330422194608F079
S1133810D0FA7B6903F10A023B685B8819461046BB
S113382000F050FCFA6813461B019B1A9B001A46D1
S1133830FB6913449B7803F00F03012B02D1382357
S1133840FB852BE02C23FB8528E07B6906211846A9
S113385000F038FC7B6903F10C003B68083310224C
S1133860194608F0A6FA7B6903F10A023B685B88F3
S11338701946104600F026FCFA6813461B019B1AF1
S11338809B001A46FB6913449B7803F00F03012B3A
S113389002D14C23FB8501E04023FB85FA681346E3
S11338A01B019B1A9B001A46FB691344DB7E03F041
S11338B00203002B08D07B687D2B01D8062200E090
S11338C00822FB8D1344FB85FA6813461B019B1ADF
S11338D09B001A46FB6913441A787B699A70FA684C
S11338E013461B019B1A9B001A46FB691344DA78A2
S11338F07B69DA707B6904337A6892B211461846A0
S113390000F0E0FB7B690833FA8D1146184600F09D
S1133910D9FBFB8D7A6813447B62FB8D1C3BFB85D2
S1133920FB8D18337A69134404337A68B9681846EE
S113393008F03FFA7B6A9BB2C3F30B039BB21946B0
S1133940386900F0BFFB3B6901331A783B690133E6
S113395042F05002D2B21A703B6A2433B969184655
S113396000F0E4FA0120FFF705FE1E4B1968FA681F
S113397013469B0013449B010B4493F82210194BEC
S11339801868FA6813469B0013449B01034441F0F2
S11339900402D2B283F82220124B1968FA68134643
S11339A09B0013449B010B4430330F49184604F029
S11339B045FF0346BB62BB6A002B07D0FB68194670
S11339C0B86A04F0A9FF4FF0FF3305E0FB6818461E
S11339D004F08CFFB862BB6A18463037BD4680BD20
S11339E0244200200C420020C027090080B58EB07C
S11339F000AF7860002387F8373000233B6300234F
S1133A00FB628D4B1B685B68BB627B6814337B6213
S1133A107B6804333B623B6A02331B783B63386A3E
S1133A2000F07CFB0346C3F30B03FB833B6A0C33BC
S1133A30184600F073FB0346FB623B6B012B0AD173
S1133A407E4B1B68D3F8A0307A6802F11401FA8B1C
S1133A5000209847EBE07B6A9B78184604F002FF4D
S1133A60B861B969F86A04F057FF7B6ADB7887F8B4
S1133A703730BB69002B06DB6F4B1B681B7B1A4678
S1133A80BB69934202DB4FF0FF33D1E0BA691346BE
S1133A901B019B1A9B001A46BB6A13447B617B6A19
S1133AA00433184600F03AFB03463B617B6A083353
S1133AB0184600F033FB0346FB607B69DB7E5BB298
S1133AC0002B29DB7B695B6B002B23D07B69DB7EBE
S1133AD003F00203002B15D0FA681346DB009B1A8F
S1133AE09B001C3B7A6A134497F837201A707B6951
S1133AF05B6BB869FA68013A796A11443A69013230
S1133B00984707E07B695B6BB869796AFA68114486
S1133B103A69984700238BE0474B1B689B7B012B3A
S1133B200FD17B695B6A002B02D04FF0FF337FE03B
S1133B307A6AFB681A447B69DA617B693A695A627A
S1133B4013E07B699B6A002B0CD07B69986A7A6AC4
S1133B50FB6813443A69194608F02BF97B693A6902
S1133B60DA6202E07B690022DA627B699B7803F007
S1133B700F03022B21D17B6A0A33184600F0CEFAD8
S1133B8003461A467B69DA807B699B781B09DBB2A2
S1133B90022B09D17B6903F108007B6A0C330422F0
S1133BA0194608F006F908E07B6903F108007B6A0E
S1133BB00C331022194608F0FCF8214B1968BA6935
S1133BC013469B0013449B010B4493F822101C4B97
S1133BD01868BA6913469B0013449B01034421F0FF
S1133BE00202D2B283F82220154B1968BA6913462F
S1133BF09B0013449B010B4493F82310104B18684B
S1133C00BA6913469B0013449B01034441F001022B
S1133C10D2B283F823200A4B1968BA6913469B0071
S1133C2013449B010B442C33184600F011F9002374
S1133C3018463837BD4680BD244200201C4200206F
S1133C400C42002080B500AF114B1B6893F828305C
S1133C5003F00103002B05D00D4B1B680C331846F1
S1133C6000F0F6F80A4B1B6893F8283003F00203BF
S1133C70002B05D0064B1B682033184600F0E8F8EB
S1133C80034B1B68002283F8282000BF80BD00BFBF
S1133C90A400002080B483B000AF00237B607B6865
S1133CA018460C37BD465DF8047B704780B483B07A
S1133CB000AF786000BF0C37BD465DF8047B7047E9
S1133CC080B483B000AF78607B6800221A60002360
S1133CD018460C37BD465DF8047B704780B483B04A
S1133CE000AF786000BF7B681B68012BFBD07B684A
S1133CF001221A60002318460C37BD465DF8047B88
S1133D00704780B483B000AF78607B6800221A608B
S1133D10002318460C37BD465DF8047B704780B419
S1133D2083B000AF7860002318460C37BD465DF8B9
S1133D30047B704780B483B000AF786039607B68DF
S1133D403A681A60002318460C37BD465DF8047BB8
S1133D50704780B483B000AF78607B6800221A603B
S1133D60002318460C37BD465DF8047B70470000FD
S1133D7080B586B000AF786039602B4B1B681B6838
S1133D807B617B683B613B691B68002B06D03B6908
S1133D901B685A1E3B691A60002340E03B68002BF5
S1133DA010D104E07B693433184600F03DF93B69D7
S1133DB01B68002BF6D03B691B685A1E3B691A60CE
S1133DC000232CE007F10C033968184600F055F97C
S1133DD00CE07B693433184600F026F907F10C0334
S1133DE0184600F05AF90346002B07D13B68002B14
S1133DF005D03B691B68002BEBD000E000BF3B699A
S1133E001B68002B02D03B68002B02D14FF0FF331C
S1133E1005E03B691B685A1E3B691A60002318467B
S1133E201837BD4680BD00BF2442002080B485B051
S1133E3000AF78607B68FB60FB681B685A1CFB68FA
S1133E401A60002318461437BD465DF8047B70479A
S1133E5080B485B000AF78607B68FB60FB681B684A
S1133E605A1CFB681A60002318461437BD465DF8D7
S1133E70047B704790B587B002AFF860B9607A6090
S1133E803B60084B1B689C69074B18683B680093B0
S1133E907B68BA68F968A047034618461437BD46DC
S1133EA090BD00BFA80000202442002080B582B04D
S1133EB000AF7860064B1B68DB69064A12687968B4
S1133EC010469847034618460837BD4680BD00BFD4
S1133ED0A80000202442002080B582B000AF7860A2
S1133EE03960064B1B681B6A054A10683A68796892
S1133EF09847034618460837BD4680BDA8000020F1
S1133F002442002080B582B000AF7860054B1B6866
S1133F109B6A054A126879681046984700BF0837BB
S1133F20BD4680BDA80000202442002080B582B098
S1133F3000AF78603960064B1B68DB6A054A10687D
S1133F403A687968984700BF0837BD4680BD00BF0E
S1133F50A80000202442002080B582B000AF786021
S1133F60064B1B681B6B064A126879681046984713
S1133F70034618460837BD4680BD00BFA800002090
S1133F802442002080B582B000AF7860064B1B68E5
S1133F905B6B064A126879681046984703461846D0
S1133FA00837BD4680BD00BFA80000202442002081
S1133FB080B582B000AF7860054B1B689B6B054AE7
S1133FC0126879681046984700BF0837BD4680BD1F
S1133FD0A80000202442002080B582B000AF7860A1
S1133FE0054B1B68DB6B054A1268796810469847D5
S1133FF000BF0837BD4680BDA80000202442002031
S113400080B582B000AF7860054B1B68DB68054A59
S1134010126879681046984700BF0837BD4680BDCE
S1134020A80000202442002080B582B000AF786050
S1134030054B1B685B69054A126879681046984706
S113404000BF0837BD4680BDA800002024420020E0
S113405080B400AF044B1B68DA6B0132DA6300BF33
S1134060BD465DF8047B7047A400002080B500AF16
S1134070FDF796F80346184680BD80B582B000AFC0
S113408078603960FFF7F2FF02463B681A447B68A8
S11340901A6000BF0837BD4680BD90B585B000AF3B
S11340A078607B681C68FFF7E1FF0346E31AFB6056
S11340B0FB68002B01DA012300E0002318461437C3
S11340C0BD4690BD80B582B000AF78600B467B8062
S11340D0054B1B685B6E054A10687A8879689847B7
S11340E000BF0837BD4680BDA80000202442002040
S11340F080B582B000AF78603960064B1B689B6E58
S1134100054A10683A687968984700BF0837BD4681
S113411080BD00BFA80000202442002080B582B0EA
S113412000AF7860064B1B68DB6E064A126879683C
S113413010469847034618460837BD4680BD00BF61
S1134140A80000202442002080B582B000AF78602F
S1134150064B1B681B6F064A12687968104698471D
S1134160034618460837BD4680BD00BFA80000209E
S11341702442002080B48BB000AF0346FB710B4691
S1134180BB7113467B71FB79DB09DBB23B77FB79AF
S11341909B09DBB203F00103DBB27B77FB795B099C
S11341A0DBB203F00103DBB2BB77FB791B09DBB2A3
S11341B003F00103DBB2FB77FB79DB08DBB203F02E
S11341C00103DBB287F82030FB799B08DBB203F0F4
S11341D00103DBB287F82130FB795B08DBB203F023
S11341E00103DBB287F82230FB7903F00103DBB271
S11341F087F82330BB7903F00103DBB23B75BB794D
S11342005B08DBB203F00103DBB27B75BB799B086F
S1134210DBB203F00103DBB2BB75BB79DB08DBB2B5
S113422003F00103DBB2FB75BB791B09DBB203F0BE
S11342300103DBB23B76BB795B09DBB203F001031C
S1134240DBB27B76BB799B09DBB203F00103DBB203
S1134250BB76BB79DB09DBB2FB76FA7E97F82330B9
S11342605340DAB2B97E97F822304B40DBB2534068
S1134270DAB2797E97F821304B40DBB25340DBB29F
S1134280FB74BA7E97F822305340DAB2797E97F8FD
S113429021304B40DBB25340DAB2397E97F82030FC
S11342A04B40DBB25340DBB2BB747A7E97F82130CB
S11342B05340DAB2397E97F820304B40DBB253409A
S11342C0DAB2F97DFB7F4B40DBB25340DBB27B7447
S11342D03A7E97F820305340DAB2F97DFB7F4B40A9
S11342E0DBB25340DAB2B97DBB7F4B40DBB2534003
S11342F0DBB23B747A7D7B7F5340DAB2B97DBB7FFE
S11343004B40DBB25340DAB2F97DFB7F4B40DBB26A
S11343105340DAB2F97E97F823304B40DBB2534076
S1134320DBB2FB733A7D3B7F5340DAB2797D7B7F0E
S11343304B40DBB25340DAB2B97DBB7F4B40DBB2BA
S11343405340DAB2B97E97F822304B40DBB2534087
S1134350DBB2BB733A7D3B7F5340DAB2797D7B7F1E
S11343604B40DBB25340DAB2B97E97F822304B406F
S1134370DBB25340DBB27B733A7D3B7F5340DAB20E
S1134380F97E97F823304B40DBB25340DAB2B97E62
S113439097F822304B40DBB25340DBB23B737B795E
S11343A0002B3AD13B7B03F00103DAB27B7B5B0049
S11343B0DBB203F00203DBB21343DAB2BB7B9B0034
S11343C0DBB203F00403DBB21343DAB2FB7BDB00A2
S11343D0DBB203F00803DBB21343DAB23B7C1B010C
S11343E0DBB203F01003DBB21343DAB27B7C5B0174
S11343F0DBB203F02003DBB21343DAB2BB7C9B01D4
S1134400DBB203F04003DBB21343DAB2FB7CDB0123
S1134410DBB2134387F8273037E0FB7C03F001035A
S1134420DAB2BB7C5B00DBB203F00203DBB2134302
S1134430DAB27B7C9B00DBB203F00403DBB21343F0
S1134440DAB23B7CDB00DBB203F00803DBB21343DC
S1134450DAB2FB7B1B01DBB203F01003DBB21343C4
S1134460DAB2BB7B5B01DBB203F02003DBB21343A4
S113447087F8273097F82730DB4387F8273097F8F9
S1134480273003F03F0387F8273097F82730184682
S11344902C37BD465DF8047B704780B584B000AF0F
S11344A07860FF23BB730023FB7313E0FB7B7A6804
S11344B013441878FB7B052B0CBF01230023DBB2CC
S11344C01A46BB7B1946FFF755FE0346BB73FB7BBD
S11344D00133FB73FB7B052BE8D9BB7B18461037F4
S11344E0BD4680BD80B584B000AF78600023FB7307
S11344F07B68002B02D16FF001037DE07B68002212
S11345001A707B6800225A607B6808331846FFF7EC
S1134510D7FB7B6800221A73394B1B6820330021B8
S11345201846FFF707FC0346FB7397F90F30002B7F
S113453002D06FF027035FE0314B1B681C3300216E
S11345401846FFF7F7FB0346FB7397F90F30002B70
S113455002D06FF027034FE0294B1B68243300215E
S11345601846FFF7E7FB0346FB7397F90F30002B60
S113457002D06FF027033FE0214B1B68203318461D
S1134580FFF766FC1E4B1B681C331846FFF760FCE4
S11345907B68103300211846FFF7CCFB0346FB73FE
S11345A097F90F30002B02D06FF0270324E0144B4F
S11345B01B68103300211846FFF7BCFB0346FB734E
S11345C097F90F30002B02D06FF0270314E00C4B47
S11345D01B680C3300211846FFF7ACFB0346FB7342
S11345E097F90F30002B02D06FF0270304E07B68AB
S11345F000225A6297F90F3018461037BD4680BD25
S1134600A400002080B5A0B000AF03463960FB7160
S11346100023A7F87E300023BB67002387F8773098
S11346200023A7F87C303B6804333B67FB79113BDC
S1134630DE2B00F24F8501A252F823F0B9490000A5
S1134640D5500000474B00007B4B0000D5500000C4
S113465033500000F1490000D5500000E94C00003F
S1134660D5500000D5500000D5500000834A00000A
S1134670D5500000D5500000D5500000095000006E
S1134680D550000029500000534E0000CB4D0000CF
S1134690D5500000D5500000D5500000734D0000E7
S11346A0D5500000D5500000D5500000D550000072
S11346B0D5500000D5500000D5500000F34F000045
S11346C00150000001500000D5500000D5500000FA
S11346D0D5500000D5500000D5500000D550000042
S11346E0D5500000D5500000D5500000D550000032
S11346F0D5500000D5500000114A0000D34D0000F1
S11347008D4D00004B4E00002B4E0000D550000094
S1134710D5500000C74B0000D5500000D550000014
S1134720D5500000D94B0000054B00009F4D000000
S1134730D5500000D5500000814F0000F74D000017
S1134740F74D0000DD4F0000D55000003B4E000047
S1134750C74F0000D5500000D5500000D5500000D0
S1134760D5500000D5500000D5500000D5500000B1
S1134770D5500000D5500000D5500000D5500000A1
S1134780D5500000D5500000D5500000D550000091
S1134790D5500000D5500000D5500000D550000081
S11347A0E94B0000974D00001B4E00007D4E0000B9
S11347B0D5500000C94A0000D5500000D550000073
S11347C0E14C0000D5500000CD490000D550000058
S11347D0D5500000D5500000D5500000D550000041
S11347E0D5500000A74C0000154D0000D550000026
S11347F0D5500000B94F0000D55000003B500000D8
S1134800D5500000D5500000D5500000D550000010
S1134810D5500000D5500000D5500000D550000000
S1134820D5500000D5500000D5500000D5500000F0
S1134830D5500000D5500000E54D0000D5500000D3
S1134840D5500000D5500000D5500000D5500000D0
S1134850D5500000214F0000D55000005F4F0000EC
S11348609D4F0000AB4F00008F4F0000D55000005B
S1134870D5500000D5500000D5500000D5500000A0
S11348806B4D0000D5500000D5500000E14B0000F6
S1134890D550000011500000D5500000D550000044
S11348A0D5500000D5500000D5500000D550000070
S11348B0D5500000D5500000D5500000574F0000DF
S11348C0D5500000D5500000054E0000D550000022
S11348D0D5500000D5500000D5500000D550000040
S11348E0D5500000D5500000234E0000A94A000016
S11348F0D5490000D5500000D5500000D550000027
S1134900D5500000D5500000D5500000D55000000F
S1134910D55000007B4D0000D55000001950000018
S1134920D550000043500000D5500000D550000081
S1134930D5500000D5500000D5500000D5500000DF
S1134940D5500000D5500000D5500000D5500000CF
S1134950D5500000D5500000D5500000D5500000BF
S1134960D5500000F74D0000D5500000D550000090
S1134970D5500000D5500000D5500000D55000009F
S1134980A34E0000D550000021500000D550000077
S11349900D4E0000D54F0000D5500000D55000004A
S11349A0814C0000F74D0000434E0000334E0000E0
S11349B0D5500000EB4F00003B681433BB60BB686C
S11349C000221A700123A7F87E3088E32023A7F879
S11349D07E3084E33B6814337B657B6D01221A804F
S11349E07B6D40F62A125A800423A7F87E3076E3C2
S11349F03B6814337B617869C04B1B681B6A303396
S1134A000622194607F0D5F90623A7F87E3066E397
S1134A103B6814333B623B6A1B7887F8773097F81E
S1134A207730A7F87C3097F87730002B03D097F8CD
S1134A307730012B0DD13B6A01331846FFF72DFD6A
S1134A4003461B021AB2B7F97C3013431BB2A7F812
S1134A507C303B68143302220021184607F0B4F975
S1134A603B681433B7F87C2011461846FFF72AFB3D
S1134A700223A7F87E30A14B1B681B6A40221A73DD
S1134A802DE33B681433BB61BB6901221A70BB6917
S1134A9001225A70BB69023301211846FFF712FB49
S1134AA00423A7F87E301AE33B6814333B653B6D5F
S1134AB000221A703B6D01339149184607F0E7F95B
S1134AC05023A7F87E300AE33B681433BB63BB6B07
S1134AD000211846FFF70CFBBB6B04330421184676
S1134AE0FFF706FBBB6B083328211846FFF700FBD2
S1134AF0BB6B0C3300211846FFF7FAFA1023A7F812
S1134B007E30ECE23B681433BB62BB6A7D491846D5
S1134B1007F0BDF9BB6A20337B49184607F0B7F9A3
S1134B20BB6A03F5807300211846FFF7E1FABB6AFC
S1134B3003F582737549184607F0A9F94FF4AB736E
S1134B40A7F87E30CBE23B681433FB60FB682C3360
S1134B5000211846FFF7B6FAFB6893F82B30002BB8
S1134B6003D1FB68002283F82B20FB68002283F822
S1134B702B203223A7F87E30B1E23B6814333B612B
S1134B803B6900229A703B690222DA703B69002279
S1134B9083F866203B696A3300211846FFF7A8FAB8
S1134BA03B6903F16F005A4B1B6804330622194614
S1134BB007F0FFF87523A7F87E30504B1B681B6A7B
S1134BC014221A738BE23B6814337B627B6A5B8822
S1134BD00B33A7F87E3082E2C423A7F87E307EE24E
S1134BE06323A7F87E307AE23B6814333B633B6867
S1134BF01B7DAB2B0FD13B685B7D012B16D13B6B2F
S1134C0001211846FFF75EFA3B6B02330121184677
S1134C10FFF758FA0AE03B6B01211846FFF752FAF6
S1134C203B6B023300211846FFF74CFA3B6B04330D
S1134C300A211846FFF746FA3B6B0633042118464F
S1134C40FFF740FA3B6B08330A211846FFF73AFA9C
S1134C503B6B0A330F211846FFF734FA3B6B0C33D6
S1134C6014211846FFF72EFA3B6B00229A730F2388
S1134C70A7F87E30214B1B681B6A6A221A732EE246
S1134C803B681433FB66FB6E01211846FFF730FACC
S1134C90FB6E043340F2DC511846FFF713FA062387
S1134CA0A7F87E301BE23B681433FB63FB6B0021E7
S1134CB01846FFF71DFAFB6B04330A211846FFF769
S1134CC017FAFB6B083304211846FFF711FA0C237B
S1134CD0A7F87E30094B1B681B6A7B221A73FEE11E
S1134CE00C23A7F87E30FAE10823A7F87E30034BA3
S1134CF01B681B6A19221A73F1E100BF9C00002093
S1134D0088D400008CD4000094D40000A4D4000003
S1134D101C4200203B6814333B643B6C0E3300217F
S1134D201846FFF7CFF93B6C103300211846FFF704
S1134D30C9F93B6C123300211846FFF7C3F93B6CE9
S1134D40143300211846FFF7BDF93B6C16330021DC
S1134D501846FFF7B7F93B6C183300211846FFF7E4
S1134D60B1F91C23A7F87E30B9E10423A7F87E30FB
S1134D70B5E11623A7F87E30B1E10323A7F87E300E
S1134D80C64B1B681B6AC7221A73A8E14FF4C7738A
S1134D90A7F87E30A3E10723A7F87E309FE13B68A4
S1134DA01433FB62FB6ADB78002B04D04FF4AF634F
S1134DB0A7F87E3093E1FB6A04331846FFF7AEF997
S1134DC003468633A7F87E3089E18223A7F87E3034
S1134DD085E12D23A7F87E30B04B1B681B6A412266
S1134DE01A737CE12423A7F87E30AC4B1B681B6A42
S1134DF0A1221A7373E1386FFFF790F90346A7F8FD
S1134E007E306CE13E23A7F87E3068E1386FFFF70F
S1134E1085F90346A7F87E3061E10323A7F87E30C5
S1134E205DE10423A7F87E3059E15E23A7F87E30C4
S1134E3055E14323A7F87E3051E12423A7F87E30BF
S1134E404DE18423A7F87E3049E10423A7F87E309E
S1134E5045E13B681433FB61FB69032283F86A2054
S1134E60FB69642283F86B20FB696C3304211846C8
S1134E70FFF728F96E23A7F87E3030E13B6814333E
S1134E807B637B6B00211846FFF71CF97B6B0233B5
S1134E904FF499711846FFF715F90423A7F87E30EB
S1134EA01DE13B681433BB66BB6E1B78013B0E2BC4
S1134EB000F2128101A252F823F000BFF94E000063
S1134EC0014F0000F94E0000F94E0000F94E0000B9
S1134ED0F94E0000F94E0000F94E0000114F000099
S1134EE0F94E0000094F0000F94E0000F94E000091
S1134EF0F94E0000F94E00003423A7F87E300EE08E
S1134F005423A7F87E300AE06723A7F87E3006E032
S1134F10386FFFF703F90346A7F87E3000BFDBE0E4
S1134F203B6814337B647B6C00211846FFF7CAF896
S1134F307B6C023300211846FFF7C4F87B6C043302
S1134F4014211846FFF7D4F87B6C0F221A72092338
S1134F50A7F87E30C3E01423A7F87E30BFE03B6897
S1134F601433FB64FB6C02331846FFF7D7F803468F
S1134F70A7F84A30B7F84A300433A7F87E30AEE0D9
S1134F80386FFFF7CBF80346A7F87E30A7E0386FF9
S1134F90FFF7C4F80346A7F87E30A0E0386FFFF7A8
S1134FA0BDF80346A7F87E3099E0386FFFF7B6F8EE
S1134FB00346A7F87E3092E0386FFFF7AFF8034658
S1134FC0A7F87E308BE0386FFFF7A8F80346A7F800
S1134FD07E3084E0DF23A7F87E3080E0386FFFF76F
S1134FE09DF80346A7F87E3079E01B23A7F87E30AE
S1134FF075E0386FFFF792F80346A7F87E306EE04D
S11350000423A7F87E306AE00523A7F87E3066E023
S11350100A23A7F87E3062E00423A7F87E305EE01E
S11350201523A7F87E305AE040F20D53A7F87E30DE
S113503055E00223A7F87E3051E00123A7F87E3023
S11350404DE03B6814337B667B6E1846FFF77CF8B3
S113505038663B6E013B082B40D801A252F823F07E
S1135060855000008D50000095500000A1500000B4
S1135070C3500000DD500000DD500000CB500000A4
S1135080CB500000E123A7F87E3022E0AD23A7F83F
S11350907E301EE04423A7F87E301AE09C000020F6
S11350A03B681433FB65FB6D46331846FFF736F84F
S11350B00346A7F85A30B7F85A304C33A7F87E3075
S11350C007E04323A7F87E3003E00423A7F87E30EB
S11350D000BF03E000BF02E000BF00E000BF1022F9
S11350E00021386F06F070FEB7F87E30C3F30B036F
S11350F09BB21946386FFEF7E5FF3B6F01331A7810
S11351003B6F013342F04002D2B21A703B6F02335C
S1135110FA791A70074B1B68243339681846FEF76E
S113512005FF0120FEF726FABB6F18468037BD46FF
S113513080BD00BF9C00002080B485B000AF7860C3
S113514039600023FB730FE0FB7B7A6813441B7800
S1135150BB73BB7B2C2B0BD0FB7B3A681344BA7B11
S11351601A70FB7B0133FB73FB7B172BECD900E03C
S113517000BFFB7B3A68134400221A70FB7B0133A7
S11351807A68134418461437BD465DF8047B7047AB
S11351902DE9F041A8B002AF7860002387F87E3093
S11351A0002387F87D30002387F87C30002387F8BC
S11351B07B30002387F87A300023C7F8943000232B
S11351C0C7F890300023A7F8783000237B670023CA
S11351D03B670023A7F88E300023A7F86E30002326
S11351E087F86D30002387F86C30002387F86B3024
S11351F0002387F88D30002387F86A3000237B660C
S1135200174B1B681B6A3B66154B1B68DB68FB6509
S11352107B6804337B677B689B7987F87E307B6887
S113522014333B67786FFEF779FF0346C3F30B0330
S1135230A7F88E307B6F0C331846FEF76FFF0346DA
S1135240C7F89030064B1B6824331846FEF79AFEC5
S1135250034687F86C3097F87E30113B02E000BFBC
S11352609C000020E72B01F2968701A252F823F05C
S113527031560000CF580000675E0000A55F0000B3
S1135280977100009771000097710000775A000031
S11352909F620000977100009771000097710000F1
S11352A097710000977100009771000097710000DA
S11352B097710000A96F00009771000097710000BA
S11352C097710000977100009771000097710000BA
S11352D04B62000097710000977100009771000005
S11352E0977100009771000097710000C35D000082
S11352F0977100000B6E0000977100009771000019
S11353009771000097710000977100009771000079
S1135310977100009959000097710000977100007F
S11353209771000097710000977100009771000059
S1135330E5600000D96200007B6700006769000037
S11353409771000097710000977100004F59000099
S1135350E35900002D5A0000977100009771000076
S1135360977100001F5C00009771000097710000A6
S11353702D6800002D6800005B6D0000ED5D0000ED
S113538097710000977100009771000097710000F9
S1135390D16B0000D16B0000977100009771000081
S11353A097710000977100009771000097710000D9
S11353B03565000001670000977100001F69000057
S11353C097710000977100009771000097710000B9
S11353D0977100005B5F00006F6C00009771000024
S11353E0977100009771000097710000E170000050
S11353F097710000055900009771000045560000A0
S11354009771000097710000977100009771000078
S11354109771000097710000977100009771000068
S11354209771000097710000977100009771000058
S11354307D6F000097710000977100009771000064
S11354409771000097710000977100009771000038
S11354509771000097710000977100009771000028
S11354609771000097710000977100009771000018
S11354709771000097710000977100009771000008
S113548097710000977100009771000097710000F8
S113549097710000977100009771000097710000E8
S11354A0236C000097710000977100009771000051
S11354B0E5600000756200009771000097710000BC
S11354C0A76E000097710000956E000097710000B0
S11354D097710000E76700006F6A00009771000091
S11354E09771000097710000977100009771000098
S11354F09771000097710000977100009771000088
S11355009771000097710000977100009771000077
S1135510977100009771000097710000F56F00000B
S11355209771000097710000977100009771000057
S113553097710000175E00003D5E00009771000047
S11355409771000097710000C56200009771000018
S113555097710000977100001171000073710000D1
S11355609771000097710000977100009771000017
S11355709771000097710000977100009771000007
S113558097710000977100009771000097710000F7
S113559097710000977100009771000097710000E7
S11355A097710000977100009771000097710000D7
S11355B097710000B169000097710000EF6E000060
S11355C0EF6E00005F5D0000496E000097710000FF
S11355D09771000097710000A5680000FD6B000042
S11355E011560000D76C0000036D00004F710000DD
S11355F0B75B00009771000097710000977100007D
S11356009771000097710000977100000762000015
S1135610B74B1B689B6D002B01F0BF85B44B1B6817
S11356209B6DD7F8902092B21046984701F0B5BD13
S1135630D7F89030002B41F0B2853B6E02221A70ED
S113564001F0ADBD0023C7F888300023C7F88430CB
S11356500023C7F880303B6FBB64BB6C1B7887F8B2
S11356606A30A44B1A6897F86A30342101FB03F3BB
S113567013441B6B002B16D19E4B1A6897F86A30A3
S1135680342101FB03F313441B68C7F88830994B9A
S11356901A6897F86A30342101FB03F313445B68FA
S11356A0C7F8843020E0934B1A6897F86A303421A5
S11356B001FB03F313440C33C7F888308D4B1A688D
S11356C097F86A30342101FB03F313441433C7F809
S11356D08430884B1A6897F86A30342101FB03F34D
S11356E013441C33C7F88030D7F88830002B09D016
S11356F008220021D7F8880006F066FBD7F8883026
S113570000225A60D7F88430002B09D008220021E7
S1135710D7F8840006F058FBD7F8843000225A608A
S1135720D7F88030002B09D008220021D7F8800058
S113573006F04AFBD7F8803000225A60B7F88E3062
S1135740002B75D0002387F88D306AE0BB6C5B6852
S1135750002B1FD0BB6C5968674B186897F88D20D5
S113576013461B019B1A9B0003441B7821FA03F385
S113577003F00103002B0DD0D7F888305B685A1C66
S1135780D7F888305A6097F88D30D7F888101846C3
S113579002F084F9BB6CDB68002B1FD0BB6CD968AA
S11357A0554B186897F88D2013461B019B1A9B00D4
S11357B003441B7821FA03F303F00103002B0DD0FB
S11357C0D7F884305B685A1CD7F884305A6097F84D
S11357D08D30D7F88410184602F060F9BB6C596913
S11357E0454B186897F88D2013461B019B1A9B00A4
S11357F003441B7821FA03F303F00103002B0BD0BD
S11358003E4B196897F88D2013469B0013449B0167
S11358100B44012283F8342097F88D30013387F844
S11358208D30374B1B681B7B97F88D209A428DD3A4
S1135830304B1A6897F86A30342101FB03F31344A0
S11358401B6B002B01F0AD842A4B1A6897F86A3061
S1135850342101FB03F313441C6B264B1A6897F89D
S11358606A30342101FB03F3134403F10C00214B90
S11358701A6897F86A30342101FB03F3134403F1E7
S113588014051C4B1A6897F86A30342101FB03F3A2
S1135890134403F11C02D7F890302946A047154B56
S11358A01A6897F86A30342101FB03F31344002289
S11358B01A63104B1A6897F86A30342101FB03F31A
S11358C01344002283F82C20002301F08BBED7F868
S11358D09030002B41F067843B6E03221A70FB6DFD
S11358E01B8E43F001039AB2FB6D1A8601F05BBC78
S11358F01C42002020420020104200200C420020C4
S113590024420020D7F89030002B41F04E843B6EA7
S11359105B6A002B01F049843B6E9B6A002B01F00B
S113592044843B6E9A6AB7F88E30934228BF13467C
S1135930A7F878303B6E5B6AB7F87820396F184661
S113594006F037FA3B6E00225A6201F02EBCD7F8FB
S11359509030002B41F02B843B6E5B6A002B01F0EE
S113596026843B6E9B6A002B01F021843B6E9A6A6D
S1135970B7F88E30934228BF1346A7F878303B6EB1
S11359805B6AB7F87820396F184606F012FA3B6E56
S113599000225A6201F00BBCD7F89030002B41F082
S11359A008843B6E5B6A002B01F003843B6E9B6AA8
S11359B0002B01F0FE833B6E9A6AB7F88E30934257
S11359C028BF1346A7F878303B6E5B6AB7F8782097
S11359D0396F184606F0EDF93B6E00225A6201F069
S11359E0E8BBD7F89030002B41F0E5833B6E5B6A4F
S11359F0002B01F0E0833B6E9B6A002B01F0DB83FC
S1135A003B6E9A6AB7F88E30934228BF1346A7F8C4
S1135A1078303B6E5B6AB7F87820396F184606F029
S1135A20C8F93B6E00225A6201F0C5BBD7F890302A
S1135A30002B41F0C2833B6E5B6A002B01F0BD83F7
S1135A403B6E9B6A002B01F0B8833B6E9A6AB7F8F1
S1135A508E30934228BF1346A7F878303B6E5B6ABA
S1135A60B7F87820396F184606F0A3F93B6E002288
S1135A705A6201F0A2BBD7F89030002B41F09F830B
S1135A803B6E5B6A002B01F09A833B6E9B6A002B92
S1135A9001F095833B6E93F82C30042B5AD13B6E66
S1135AA05B6A002B00F082803B6E9B6A002B7DD0EA
S1135AB0B7F88E203B6E9B6A9A4203D33B6E9B6A77
S1135AC09BB200E08623A7F878303B6F1A783B6ED0
S1135AD05B6A92B21A803B6F5A783B6E5B6A92B2F1
S1135AE05A803B6E5B6A181D3B6F4833222219466D
S1135AF006F05FF93B6E5B6A03F126003B6F4233AD
S1135B000622194606F055F93B6E5B6A3A6F92F825
S1135B106C2083F82C203B6E5B6A03F12D003B6FF5
S1135B2002334022194606F044F93B6E5B6A03F1E6
S1135B306D003B6F6E330422194606F03AF93B6E52
S1135B405B6A03F171003B6F7E331022194606F045
S1135B5030F92BE03B6E93F82C30072B26D13B6EAB
S1135B605B6A002B22D03B6E9B6A002B1ED0B7F8D9
S1135B708E203B6E9B6A9A4203D33B6E9B6A9BB218
S1135B8000E0F223A7F878303B6E5B6A18463B6F5F
S1135B907A330222194606F00CF93B6E5B6A981CB4
S1135BA03B6F9F33F022194606F003F93B6E002247
S1135BB05A6201F004BBD7F89030002B41F0018306
S1135BC03B6E5B6A002B25D03B6E9B6A002B21D079
S1135BD03B6E93F82C30092B1CD13B6E5B6A002B77
S1135BE018D03B6E9B6A002B14D0B7F88E203B6E06
S1135BF09B6A9A4203D33B6E9B6A9BB200E0862366
S1135C00A7F878303B6E5B6AB7F87820396F18468E
S1135C1006F0CFF83B6E00225A6201F0D2BAD7F8F0
S1135C209030002B41F0CF823B6E5B6A002B01F079
S1135C30CA823B6E9B6A002B01F0C5823B6E93F8CF
S1135C402C30042B5AD13B6E5B6A002B00F082800F
S1135C503B6E9B6A002B7DD0B7F88E203B6E9B6A0F
S1135C609A4203D33B6E9B6A9BB200E08623A7F85B
S1135C7078303B6F03F17E023B6E5C6A1046FEF7A0
S1135C804DFA034623803B6F03F128023B6E5C6AA6
S1135C901046FEF743FA034663803B6E5B6A0433A7
S1135CA0396F2222184606F084F83B6E5B6A03F1D2
S1135CB026003B6F22330622194606F07AF83B6E23
S1135CC05B6A03F12D003B6F2A334022194606F02C
S1135CD070F83B6E5B6A03F16D003B6F6A3304221C
S1135CE0194606F066F83B6E5B6A03F171003B6F80
