:10000000000008200502000031020000310200005B
:100010003102000031020000310200003102000014
:100020003102000031020000310200003102000004
:10003000310200003002000031020000250E0000F5
:1000400031020000310200003102000031020000E4
:1000500031020000310200003102000031020000D4
:1000600031020000310200003102000031020000C4
:1000700031020000F90600003102000031020000E8
:1000800031020000310200003102000031020000A4
:100090003102000031020000310200003102000094
:1000A0003102000031020000310200003102000084
:1000B0003102000031020000310200003102000074
:1000C0003102000031020000310200003102000064
:1000D0003102000031020000310200003102000054
:1000E0003102000031020000310200003102000044
:1000F0003102000031020000310200003102000034
:100100003102000031020000310200003102000023
:100110003102000031020000310200003102000013
:100120003102000031020000310200003102000003
:1001300031020000310200003102000031020000F3
:1001400031020000310200003102000031020000E3
:1001500010B5054C237833B9044B13B10448AFF301
:1001600000800123237010BD001A00200000000051
:10017000F4EB000008B5034B1BB103490348AFF390
:10018000008008BD00000000041A0020F4EB00000D
:10019000154B002B08BF134B9D46A3F5803A002159
:1001A0008B460F461348144A121A0DF03DF90F4BB7
:1001B000002B00D098470E4B002B00D09847002012
:1001C000002104000D000D48002802D00C48AFF3B8
:1001D00000800DF0EBF82000290000F0F3F90DF09D
:1001E000D1F800BF00000800000008200000000057
:1001F00000000000001A0020605B002000000000EA
:1002000000000000064880470649074A074B9A420B
:10021000BEBF51F8040B42F8040BF8E7FFF7B8FF34
:100220009503000000EC000000000020001A0020F0
:10023000FEE700BF80B582B000AF00F025F878601F
:100240000A4BD3F808311B0AC3F308033B603B6831
:1002500001337A68B2FBF3F37B60054A7B68136075
:100260007B6818460837BD4680BD00BF00400E4081
:100270000800002080B400AF024B1846BD465DF870
:10028000047B704700A24A0480B483B000AF334BB4
:10029000D3F8943003F00703023B042B49D801A2A2
:1002A00052F823F0C9020000C1020000B9020000A8
:1002B00029030000D1020000294B1B687B603CE051
:1002C0004FF400437B6038E0264B1B687B6034E0D2
:1002D000224B9B681B0C03F01F03073B072B1FD807
:1002E00001A252F823F000BF09030000210300001F
:1002F00021030000210300000F0300002103000080
:10030000150300001B030000174B7B600BE0174B2D
:100310007B6008E0164B7B6005E0164B7B6002E0DB
:1003200000237B6000BF08E0134B1B685B087B6009
:1003300003E0114B1B687B6000BF084BD3F8003112
:100340001B0A03F01F0301337A68B2FBF3F318466C
:100350000C37BD465DF8047B704700BF00400E407F
:1003600004000020000000200024F4000048E80100
:10037000006CDC0280F0FA020C00002080B400AFB8
:10038000034B1B681846BD465DF8047B704700BFF1
:100390000000002080B400AF074B084A9A60064B6B
:1003A000D3F88830044A43F47003C2F8883000BFA1
:1003B000BD465DF8047B704700ED00E000000000E2
:1003C00080B400AF4FF400431846BD465DF8047B8F
:1003D000704780B400AF4FF47A731846BD465DF89D
:1003E000047B704780B400AF034B1B681846BD46C2
:1003F0005DF8047B704700BF0400002080B5C0B0EA
:1004000004AF0023C7F8EC305B4BC7F8C43064235B
:10041000A7F8EA30092387F8E9303B1D5749184609
:100420000DF065F83B1D4033554918460DF05FF857
:100430000021022000F02CFEC7F8EC00D7F8EC30C9
:10044000002B08D0D7F8EC3019464E480CF0F4FFDA
:10045000D7F8EC308CE04C480CF0EEFF41F67B1204
:100460004A4901200AF0C8F8C7F8EC00D7F8EC3088
:10047000002B07D0D7F8EC1045480CF0DDFFD7F87B
:10048000EC3075E03B1D1A460521424809F040FB5F
:10049000C7F8EC00D7F8EC30002B0BD00AF0BEF810
:1004A000C7F8EC00D7F8EC103B480CF0C5FFD7F8C4
:1004B000EC305DE039480CF0BFFF97F8E9100023FD
:1004C000039314230293364B0193002300930023DC
:1004D0000022042009F064FEC7F8EC00D7F8EC30E5
:1004E000002B0BD00AF09AF8C7F8EC00D7F8EC1004
:1004F0002C480CF0A1FFD7F8EC3039E0284B9B7961
:100500001946274BDB791A46254B1B7A1846244B94
:100510005B7A0093034624480CF08EFF22E0B7F884
:10052000EA2007F1C401214B00200AF085F8C7F842
:10053000EC00D7F8EC30002B02D0D7F8EC3017E005
:100540001B4B00221A701B4B1B680133194A1360A6
:100550004FF47A7000F04DFC00F06EFE144B1B78E7
:10056000002BF9D0134B1B68B3F57A7FD7DB002340
:100570001846F037BD4680BDC0A8016B40E40000BE
:1005800048E4000054E4000088E40000100000206B
:10059000A8E40000D8E40000E4E400000CE500005A
:1005A0004C1A002024E5000050E500002D06000054
:1005B000601A00201C1A002080B500AF00F03CFE3D
:1005C000FCE7000080B582B000AF43F698211448E4
:1005D00000F062FC78607B68002B04DB7B6843F6EC
:1005E0009822934201DD7B6815E0312000F042FE45
:1005F00078607B68002B05D079680A480CF01CFFF6
:100600007B6808E008480CF017FFFFF7F7FE7860FA
:10061000FFF7D2FF7B6818460837BD4680BD00BF94
:10062000641A002070E500009CE5000080B483B0EF
:1006300000AF03463960FB801346BB80FB88002B6C
:1006400002D1044B01221A7000BF0C37BD465DF881
:10065000047B7047601A002080B483B000AF03466B
:10066000FB7197F90730002B0BDBFB7903F01F02BE
:10067000074997F907305B09012000FA02F241F8B7
:10068000232000BF0C37BD465DF8047B704700BFD8
:1006900000E100E080B483B000AF0346FB7197F93E
:1006A0000730002B10DBFB7903F01F02094997F993
:1006B00007305B09012000FA02F2203341F82320C1
:1006C000BFF34F8FBFF36F8F00BF0C37BD465DF890
:1006D000047B704700E100E080B483B000AF786035
:1006E000044A7B68C2F8243400BF0C37BD465DF86D
:1006F000047B70470080084080B500AF064B1B6844
:10070000002B02D0044B1B6898474AF6AA20FFF73B
:10071000E3FF00BF80BD00BFFC54002080B483B065
:1007200000AF7860044A7B68136000BF0C37BD4699
:100730005DF8047B704700BFFC54002080B500AF1B
:100740000D20FFF7A7FF00BF80BD80B500AF0D20D3
:10075000FFF782FF00BF80BD80B485B000AF786036
:1007600039607B6803F10473DA003B6813449B0033
:10077000FB60FB681B6818461437BD465DF8047BB8
:10078000704780B485B000AF786039607B6803F152
:100790008063FB60FB683A681A6000BF1437BD468F
:1007A0005DF8047B704780B582B000AF03463960C6
:1007B000FB71FB79002B16D0FB79012B13D0FB7951
:1007C000022B10D0FB79032B0DD0FB79042B0AD020
:1007D000FB79052B07D0FB79062B04D0FB79072B7F
:1007E00001D0FB79082BFA7913465B0013441B01F7
:1007F0001C3303F1804303F5082339681846FFF7DB
:10080000ABFF034618460837BD4680BD80B582B0B1
:1008100000AF03463960FB71FB79002B16D0FB79E2
:10082000012B13D0FB79022B10D0FB79032B0DD0B9
:10083000FB79042B0AD0FB79052B07D0FB79062B1B
:1008400004D0FB79072B01D0FB79082BFA791346EA
:100850005B0013441B010C3303F1804303F50823B1
:1008600001213A6801FA02F211461846FFF789FFA2
:1008700000BF0837BD4680BD80B582B000AF0346DB
:10088000FB710B46BB7113467B7101210C480AF0CA
:10089000EDFC002304220C2100200CF029FB002396
:1008A00001220D2100200CF023FB012304220B2147
:1008B00001200CF01DFB00BF0837BD4680BD00BF06
:1008C00000550A0080B582B000AF0346FB71FB798A
:1008D000042B05D1012304220C2100200CF008FB7D
:1008E000FB79032B05D1012301220D2100200CF0FF
:1008F000FFFAFB79012B06D1012307220B210120EE
:100900000CF0F6FA00BF00BF0837BD4680BD80B5C9
:1009100084B000AF0346FB710023FB73FB79042B0B
:1009200005D10C210020FFF73EFF0346FB73FB7946
:10093000032B05D10D210020FFF735FF0346FB7384
:10094000FB79022B05D109210120FFF72CFF03467B
:10095000FB73FB7B18461037BD4680BD80B582B067
:1009600000AF0346FB71FB79042B03D10C2100205F
:10097000FFF74CFFFB79032B03D10D210020FFF77C
:1009800045FFFB79062B03D10C210020FFF73EFF2A
:10099000FB79012B04D10B210120FFF737FF00BFAA
:1009A00000BF0837BD4680BD80B483B000AF0346AA
:1009B0003960FB7197F90730002B0ADB3B68DAB22C
:1009C0000C4997F907305201D2B20B4483F8002347
:1009D0000AE03B68DAB20849FB7903F00F03043BF5
:1009E0005201D2B20B441A7600BF0C37BD465DF8F7
:1009F000047B704700E100E000ED00E080B582B0CC
:100A000000AF78607B68013BB3F1807F01D30123A5
:100A10000FE00A4A7B68013B536007214FF0FF302B
:100A2000FFF7C2FF054B00229A60044B07221A60B1
:100A3000002318460837BD4680BD00BF10E000E027
:100A400080B483B000AF78604FF06043D3F8803E4D
:100A500003F00103002B13D04FF06043D3F8003EA6
:100A600003F00103002B0BD000E000BF4FF0604308
:100A70001B68002BF9D04FF060437A68D2B21A702D
:100A80007B6818460C37BD465DF8047B7047000054
:100A900080B400AF4FF0804301225A64184BD3F862
:100AA000B030174A43F00103C2F8B030144BD3F80A
:100AB000E030134A43F00803C2F8E030114B1B68E2
:100AC000104A43F4805313600D4BD3F8E0300C4AC6
:100AD00023F00803C2F8E030094BD3F8B030084ADD
:100AE00023F00103C2F8B030074B1B68064A43F4F9
:100AF000F843136000BFBD465DF8047B704700BF3C
:100B000000400E4034400540A4310E4080B582B014
:100B100000AF0346FB71FB791846FFF791FF0346D0
:100B200018460837BD4680BD80B400AF0023184684
:100B3000BD465DF8047B7047B0B588B000AF0023B8
:100B4000FB61012123480AF091FB22480AF036FCA0
:100B5000F861002304220C2104200CF0C9F90123C0
:100B600004220D2104200CF0C3F9012304220A21E0
:100B700004200CF0BDF9012301220B2104200CF00C
:100B8000B7F9154B3C1D1D460FCD0FC495E803006A
:100B900084E8030001237B74104BFB6001237B7608
:100BA0000023BB820123BB7400233B713B1D19460C
:100BB0000B480CF0BFFA0A4B00229A67084B0F2231
:100BC0005A67052106480CF06BFA00BF2037BD4676
:100BD000B0BD00BF0072040018E70000404B4C009D
:100BE0000000014080B483B000AF354BD3F8B03083
:100BF000334A43F02003C2F8B030324BD3F84034CC
:100C0000304A43F01003C2F840342E4BD3F844343A
:100C10002C4A23F00303C2F844342A4BD3F8F430AF
:100C2000284A23F47063C2F8F430264BD3F8F4302A
:100C3000244A43F48063C2F8F43015237B60204BD0
:100C400010221A6600BF1E4BD3F8903003F0200329
:100C5000002BF8D01C4B1B681B4A43F001031360A8
:100C6000194BDB68184A43F08073D360174B40F28E
:100C7000FF321A60164A7B681361154B0222C3F8D3
:100C8000F020134B4FF48072C3F804234FF06043FD
:100C9000104AC3F8B02F4FF060430F4AC3F8802EBC
:100CA0004FF06043D3F8003E4FF0604243F0010341
:100CB000C2F8003E00BF0C37BD465DF8047B7047AC
:100CC00000400E4000800840F0ED00E0001000E021
:100CD000000004E055CEACC50900010080B582B02B
:100CE00002AFFFF7D5FEFFF77DFF012201210220B1
:100CF0000BF0F6FC042111200BF028FA0121154815
:100D00000AF0B4FA012114480AF0B0FA00230122D3
:100D1000092101200CF0ECF801230193002300933A
:100D200001230922092101200CF048F8FFF704FFF4
:100D300008480AF043FB0246084BA3FB02239B0929
:100D40001846FFF75BFE0346002B00D000BE00BF35
:100D5000BD4680BD7000020000550A00D34D6210F0
:100D600080B586B000AFF860B96011461A460B46F0
:100D7000FB8013467B71FB68002B02D1124BFB609A
:100D800004E0BB68002B01D10F4BBB600023FB824A
:100D900010E0FB8AFA6813441B7819460B480CF0E4
:100DA000D1FA0146FB8ABA681344CAB21A70FB8AA8
:100DB0000133FB82FA8AFB889A42EAD30023184661
:100DC0001837BD4680BD00BF00550020000001401F
:100DD00080B483B000AF3B600346FB710B46BB7130
:100DE00013467B71002318460C37BD465DF8047B23
:100DF000704780B584B000AF78607B68002B0CD062
:100E000000F01EF8F86000F01BF80246FB68D31AE9
:100E10007A689A42F7D800BF00E000BF1037BD469D
:100E200080BD000080B400AF044B1B680133034A4F
:100E3000136000BFBD465DF8047B7047201A002098
:100E400080B400AF034B1B681846BD465DF8047BB9
:100E5000704700BF201A002080B400AF044B1B680D
:100E6000DB685B681846BD465DF8047B704700BFD1
:100E7000241A002080B483B000AF7860054B1B6853
:100E8000DB687A685A6000BF0C37BD465DF8047BAA
:100E9000704700BF241A002080B586B002AF78608A
:100EA00039600023FB600023BB607B6803F0030311
:100EB000002B0BD07B6803F003023B681344043B18
:100EC0003B607B68033323F003037B603A680021B7
:100ED00078680CF0A9FA00F0BBF903461A46BB6823
:100EE0001344BB603A68BB689A4201D2BB68B6E063
:100EF0005D4A7B6813607B683A681A607B680433DC
:100F00007B605A4A7B6813607B686C337B60584A0D
:100F10007B6813607B6820337B60564A7B68136074
:100F20007B6844337B60544A7B6813607B68F03392
:100F30007B60524A7B6813607B6803F5A0637B602B
:100F40004F4A7B6813607B68D0337B604D4A7B6877
:100F500013607B68C4337B60444B1B687A681A64F7
:100F60007B680C337B6008F051F8404B1B681846D7
:100F70004FF4C8634FF4CA62796802F03DFF7B68A2
:100F800003F5CA637B60404A7B6813607B68543317
:100F90007B60364B1B687A68DA607B6840337B6025
:100FA000324B1B68DB68184600F010FE2F4B1B68A5
:100FB000DB6803F114004FF4C8634FF4CA62796828
:100FC00002F01AFF7B6803F5CA637B60274B1B683E
:100FD0007A681A627B6838337B60244B1B681B6A13
:100FE000184603F041FA214B1B681B6A03F11400F9
:100FF0004FF4C8634FF4CA62796802F0FDFE7B6863
:1010000003F5CA637B60194B1B683433184602F042
:10101000B9FF02F015FB154B1B682433184602F08C
:1010200033FF124B1B681033184602F02DFF7B680C
:101030000D4A12689B1A1A463B68934204D27B6899
:10104000094A12689B1A0AE0104B009301230122FF
:1010500001210020FFF7BCFE01F0C7FCBB68184669
:101060001037BD4680BD00BF281A0020241A00207A
:101070004C5B0020485B0020445B0020405B00206C
:10108000545B0020505B00202C1A0020D53F00004C
:1010900080B588B000AF03460A46FB801346BB808C
:1010A0000023FB61614B1B68DB68BB615F4B1B6806
:1010B0001B6A7B61BB69BA881A86BB691B8E23F0E9
:1010C00001039AB2BB691A8607F108034EF6602144
:1010D000184602F094FF10E0544B1B683433184656
:1010E00002F064FF07F10803184602F098FF034678
:1010F000002B02D06FF0170394E0BB691B78DBB2C2
:10110000002BE9D07B695B78DBB2002B3ED07B699A
:101110005B78DBB2092B04D07B695B78DBB20A2BEE
:1011200016D17B691B78DBB2022B06D9BB691B8EFB
:1011300043F001039AB2BB691A867B6900225A7098
:1011400000BFFFF789FEF861FB69002B13D010E0A8
:10115000374B1B6810333749184602F0CBFD034666
:10116000002BD4D06FF01D00FFF784FE6FF01D033D
:1011700058E0FB6956E009F051FAF861FB69002B71
:1011800001D0FB694EE045F65A234BE0BB691B7862
:10119000DBB2012B02D06FF0020343E001210020FB
:1011A00001F05AFC0346002B3AD1BB6914331846B0
:1011B00002F03EFE38613B69002B06D10021002081
:1011C00001F04AFC6FF003032CE03B691433282242
:1011D000002118460CF028F93B691433FB607B6949
:1011E000FA88DA86F868BB881A04FB881343194624
:1011F00002F040FF3969102000F046FDF8610C4B09
:101200001B6814334EF66021184601F00DFC0021D6
:10121000002001F021FCFFF71FFEF861FB6901E0EF
:101220006FF0220318462037BD4680BD241A0020E7
:101230002C1A0020400D030080B500AF034B1B6843
:101240003433184602F0B2FE00BF80BD241A0020DD
:1012500080B483B000AF00237B607B6803F5E0536C
:101260001C337B607B6818460C37BD465DF8047BF9
:101270007047000080B584B000AF0346FB710023C7
:10128000FB60FFF72BFD01F061FC0346FB60FB6890
:10129000002B01D0FB6853E06420FFF7AAFD00F0AB
:1012A00017FB0346FB60FB68002B01D0FB6847E09F
:1012B00007F108034EF66021184602F0A0FE01F087
:1012C00059FC0346FB60FB68002B05DAFB6813F151
:1012D0000C0F01D0FB6833E007F10803184602F059
:1012E0009EFE0346002B02D06FF0180328E0FB6837
:1012F00013F10C0FE3D0FB79312B03D1002000F068
:1013000083FA0CE0FB79712B09D1022000F07CFA02
:101310000346FB60FB68002B01DAFB6810E0FB79F9
:10132000184601F06BFC0346FB60FB68002B01DAFA
:10133000FB6805E00448FFF7F1F9FFF706FAFB68E0
:1013400018461037BD4680BD6D2F000090B587B0A0
:1013500000AF786007F10C03184600F05FF8034611
:10136000FB82B7F91630002B02D0B7F9163020E017
:1013700007F10C030233184602F092FE0346043BC9
:101380009CB207F10C03184602F08AFE0346043BA8
:101390009BB21A462146786800F08EF80346FB821D
:1013A000B7F91630002B02D0B7F9163001E0B7F9C3
:1013B000163018461C37BD4690BD80B586B000AFCC
:1013C000F860B9601346FB80F86800F0E9F803465E
:1013D000FB82B7F91630002B02D0B7F9163019E0AE
:1013E000FB88002B14D0FB8803339BB223F003034C
:1013F000FB80F88800230022B96800F011F9034649
:10140000FB82B7F91630002B02D0B7F9163001E095
:10141000B7F9163018461837BD4680BD80B584B080
:1014200000AF78605C23FB730023BB7304237B73E2
:1014300000233B73BA7BFB7B1146184600F04CF946
:1014400003467B81B7F90A30002B02D0B7F90A3086
:101450002CE03A7B7B7B1146184600F085F9034669
:101460007B81B7F90A30002B02D0B7F90A301DE0B2
:101470000121104800F09AF903467B81B7F90A3040
:10148000002B02D0B7F90A3010E00123042279685A
:101490000020FFF765FC03467B81B7F90A30002B7B
:1014A00002D0B7F90A3001E0B7F90A301846103710
:1014B000BD4680BD20A1070080B588B000AF786030
:1014C0000B467B8013463B800023BB613B88033384
:1014D00023F00303BB615D23FB750023BB75BB6970
:1014E0007B75BB691B0A3B75BA7DFB7D11461846AF
:1014F00000F0F2F80346FB83B7F91E30002B02D050
:10150000B7F91E3046E03A7D7B7D1146184600F063
:101510002BF90346FB83B7F91E30002B02D0B7F935
:101520001E3037E001211D4800F040F90346FB83DF
:10153000B7F91E30002B02D0B7F91E302AE07B88A5
:10154000002B0FD07A8807F10C0100230020FFF751
:1015500007FC0346FB83B7F91E30002B02D0B7F916
:101560001E3017E07B68002B12D0BB699AB27B88D3
:10157000D31A9AB2012379680020FFF7F1FB0346E2
:10158000FB83B7F91E30002B02D0B7F91E3001E003
:10159000B7F91E3018462037BD4680BD20A1070090
:1015A00080B588B000AF78607C23FB770023BB77E1
:1015B00010237B7700233B77BA7FFB7F11461846C9
:1015C00000F08AF803467B83B7F91A30002B02D06B
:1015D000B7F91A3020E03A7F7B7F1146184600F0B9
:1015E000C3F803467B83B7F91A30002B02D0B7F952
:1015F0001A3011E0786807F1080101231022FFF783
:10160000AFFB03467B83B7F91A30002B02D0B7F942
:101610001A3001E0B7F91A3018462037BD4680BDB0
:1016200080B586B000AFB9607B600346FB8113468E
:10163000BB81FA89BB891344BB827C23FB740023E2
:10164000BB74BB8A7B74BB8A1B0A9BB23B74BA7C9B
:10165000FB7C1146184600F03FF80346FB82B7F9C1
:101660001630002B02D0B7F9163031E03A7C7B7C83
:101670001146184600F078F80346FB82B7F9163099
:10168000002B02D0B7F9163022E0FA89012300219D
:10169000B868FFF765FB0346FB82B7F91630002BED
:1016A00002D0B7F9163013E0BB89002B0ED0BA89EF
:1016B000012300217868FFF753FB0346FB82B7F94B
:1016C0001630002B02D0B7F9163001E0B7F916300A
:1016D00018461837BD4680BD80B588B000AF0346B8
:1016E0000A46FB711346BB714CF25033BB611D4B74
:1016F0001B6800221A64FB793B75BB797B75194B1B
:101700001A68136C591C1164BA699A4203D24FF6D5
:10171000E973FB8320E007F10C0107F114000023BB
:101720000222FFF71DFB0346FB837B7B582B02D075
:101730007B7B002B02D10023FB830DE07B7B522BB4
:1017400003D14FF6FE73FB8306E07B7B542BD2D193
:101750004FF6FF73FB83CEE7B7F91E3018462037EC
:10176000BD4680BD2C1A002080B584B000AF034672
:101770000A46FB711346BB71FB793B73BB797B73E4
:1017800007F10C00002302220021FFF7E9FA0346CB
:10179000FB81B7F90E30002B02D0B7F90E3001E013
:1017A000B7F90E3018461037BD4680BD80B584B0FD
:1017B00000AF78600B46FB70124B1B6800221A6466
:1017C000104B1A68136C591C11647A689A4203D240
:1017D0004FF6FF73FB810FE000237B73FB7807F16B
:1017E0000D0101220020FFF7BBFA0346FB817B7B42
:1017F000552BE5D10023FB81B7F90E301846103781
:10180000BD4680BD2C1A002080B584B000AF786042
:1018100000233B7300237B7307F10C031A4602215C
:10182000144800F01DF90346FB81B7F90E30002B78
:101830001AD17B7B23F00303DBB27B737A7B7B685B
:10184000DBB21343DBB27B7307F10C031A460221B0
:10185000084800F0A1F80346FB81B7F90E30002BD1
:1018600002D0B7F90E3001E0B7F90E301846103744
:10187000BD4680BD0000054180B584B000AF7860F2
:101880004CF25033BB60114B1B6800225A640F4B63
:101890001A68536C591C5164BA689A4203D24FF6C5
:1018A000E973FB810CE07968002000F055F90346EC
:1018B000FB81B7F90E30B3F1FF3F00D1E7E700BF7E
:1018C000B7F90E3018461037BD4680BD2C1A0020DF
:1018D00080B584B000AF00237B600023FB810A2326
:1018E000BB81184B1B6800221A64164B1A68136CD4
:1018F000591C1164BA89934203D94FF6E973FB81ED
:101900001AE012233B724A237B725C23BB720023D2
:10191000FB72391D07F1080000230422FFF720FAAB
:101920000346FB81FB79582B02D10023FB8103E0A6
:101930004FF6FF73FB81D8E7B7F90E301846103722
:10194000BD4680BD2C1A002080B582B000AF1223A6
:101950003B714A237B715C23BB710023FB713946C9
:10196000381D00230222FFF7FBF97B78522B0DD0A4
:101970007B78002BF3D139463B1D981C00230222B3
:10198000FFF7EEF97B78582B02D0E8E700BF00E0C4
:1019900000BF0837BD4680BD80B58AB000AFF86093
:1019A0000B467A607B81742387F82730002387F801
:1019B00026307B8987F825307B891B0A9BB287F804
:1019C000243007F11C03F968184602F053FB97F81E
:1019D000262097F8273011461846FFF77DFE03466C
:1019E0007B84B7F92230002B02D0B7F9223032E0E5
:1019F00097F8242097F8253011461846FFF7B4FED3
:101A000003467B84B7F92230002B02D0B7F922308D
:101A100021E007F1140107F11C0000230422FFF765
:101A20009FF903467B84B7F92230002B02D0B7F927
:101A3000223010E07A89002300217868FFF790F9BE
:101A400003467B84B7F92230002B02D0B7F922304D
:101A500001E0B7F9223018462837BD4680BD0000A6
:101A600080B58AB000AFF8600B467A607B81542362
:101A700087F82730002387F826307B8987F82530C0
:101A80007B891B0A9BB287F82430FB68DBB23B776B
:101A9000FB681B0ADBB27B77FB681B0CDBB2BB77F6
:101AA000FB681B0EDBB2FB7797F8262097F82730F0
:101AB00011461846FFF710FE03467B84B7F9223023
:101AC000002B02D0B7F922303FE097F8242097F896
:101AD000253011461846FFF747FE03467B84B7F9C9
:101AE0002230002B02D0B7F922302EE007F114018A
:101AF00007F11C0000230422FFF732F903467B8420
:101B0000B7F92230002B02D0B7F922301DE00021B6
:101B10001048FFF74BFE03467B84B7F92230002BB9
:101B200002D0B7F9223010E07A89002379680020CA
:101B3000FFF716F903467B84B7F92230002B02D059
:101B4000B7F9223001E0B7F9223018462837BD46F0
:101B500080BD00BF20A1070080B584B000AF034660
:101B60003960FB714123FB730023BB73BA7BFB79A4
:101B70001343BB73BA7BFB7B11461846FFF7ACFDE2
:101B80000346BB81B7F90C30002B02D0B7F90C30FB
:101B900016E000210C48FFF709FE0346BB81B7F9A8
:101BA0000C30002B02D0B7F90C3009E000230122E1
:101BB00039680020FFF7D4F80346BB81B7F90C3031
:101BC00018461037BD4680BD20A1070080B584B0FF
:101BD00000AF78600023FB737B68002B02D16FF0AD
:101BE00001034AE07B6800221A707B6800225A6079
:101BF0007B680833184602F03FF8224B1B68083315
:101C0000184602F039F81F4B1B681833002118469C
:101C100002F061F80346FB7397F90F30002B02D0F6
:101C20006FF0270329E0174B1B681833184602F0A2
:101C3000D1F87B6800221A737B68103300211846A4
:101C400002F049F80346FB7397F90F30002B02D0DE
:101C50006FF0270311E00B4B1B681433002118466B
:101C600002F039F80346FB7397F90F30002B02D0CE
:101C70006FF0270301E097F90F3018461037BD4683
:101C800080BD00BF2C1A002080B588B000AF03468D
:101C90003960FB710023FB830023BB61F14B1B68A0
:101CA000DB687B613B6804333B61FB79CF2B02D956
:101CB000FB79DA2B07D9FB79CE2B04D01022002137
:101CC00038690BF0B1FBFB79103BE22B00F29682F6
:101CD00001A252F823F000BF69200000FD2100009E
:101CE000FD210000FD210000FD210000FF2000007B
:101CF000FD210000FD210000FD210000FD2100006C
:101D0000FD210000C3200000ED200000FD210000A7
:101D1000FD210000FD210000FD210000FD2100004B
:101D2000FD210000FD210000FD210000FD2100003B
:101D3000C9200000FD210000FD210000FD21000060
:101D4000FD210000FD210000FD210000FD2100001B
:101D5000FD210000FD210000FD210000FD2100000B
:101D6000FD210000FD210000FD210000FD210000FB
:101D7000FD210000FD210000FD210000FD210000EB
:101D8000FD210000FD210000FD210000FD210000DB
:101D9000FD210000FD210000FD210000FD210000CB
:101DA000FD210000FD210000FD210000FD210000BB
:101DB000FD210000FD210000FD210000FD210000AB
:101DC000FD210000FD210000FD210000FD2100009B
:101DD000FD210000FD210000FD210000FD2100008B
:101DE000FD210000FD210000FD210000FD2100007B
:101DF000FD210000FD210000FD210000FD2100006B
:101E0000FD210000FD210000FD210000FD2100005A
:101E1000FD210000FD210000FD210000FD2100004A
:101E2000FD210000FD210000FD210000FD2100003A
:101E3000FD210000FD210000FD210000FD2100002A
:101E4000FD210000FD210000FD210000FD2100001A
:101E5000FD210000FD210000FD210000FD2100000A
:101E6000FD210000FD210000FD210000FD210000FA
:101E7000FD210000CF200000FD210000FD21000019
:101E8000FD210000FD210000FD210000FD210000DA
:101E9000FD210000FD210000FD210000FD210000CA
:101EA000FD210000FD210000FD210000FD210000BA
:101EB000FD210000FD210000FD210000FD210000AA
:101EC000FD210000FD210000FD210000FD2100009A
:101ED000FD210000FD210000FD210000FD2100008A
:101EE000D5200000FD210000FD210000FD210000A3
:101EF000FD210000FD210000FD210000FD2100006A
:101F0000FD210000FD210000FD210000FD21000059
:101F1000FD210000FD210000FD210000FD21000049
:101F2000FD210000FD210000F9200000FD2100003E
:101F3000FD210000FD210000FD210000FD21000029
:101F4000FD210000FD210000FD210000FD21000019
:101F5000FD210000FD210000FD210000FD21000009
:101F6000FD210000FD210000FD210000FD210000F9
:101F7000FD210000FD210000FD210000FD210000E9
:101F8000FD210000FD210000FD210000FD210000D9
:101F9000FD210000FD210000FD210000FD210000C9
:101FA000FD210000FD210000FD210000FD210000B9
:101FB000FD210000FD210000E7200000FD210000C0
:101FC000FD210000FD210000FD210000FD21000099
:101FD000F1210000FD2100006D21000079210000A9
:101FE00085210000912100009D210000A921000011
:101FF000B5210000C1210000CD210000D921000041
:10200000E5210000FD210000FD210000FD21000070
:10201000FD210000FD210000FD210000FD21000048
:10202000FD210000FD210000FD210000FD21000038
:10203000FD210000FD210000FD210000DB2000004B
:10204000FD210000FD210000FD210000FD21000018
:10205000FD210000FD210000FD210000FD21000008
:10206000E1200000241A00203B681433BB60BB68E9
:1020700004330221184601F0FDFFBB68083379499B
:10208000184601F0F7FFBB680C334FF000411846CB
:1020900001F0F0FFBB6810334FF44011184601F017
:1020A000E9FFBB6818334FF00041184601F0E2FF2A
:1020B000BB6824330121184601F0DCFF2823FB8391
:1020C0009CE00323FB8399E00823FB8396E0012334
:1020D000FB8393E00823FB8390E01C23FB838DE0CC
:1020E0001C23FB838AE00C23FB8387E05E4B1B6889
:1020F000DB6800221A7081E00123FB837EE03B68ED
:102100001433FB60FB681B78002B23D07B6993F8AA
:1021100020300A2B03D1FB6802225A700BE07B6946
:1021200093F82030082B03D1FB6801225A7002E09B
:10213000FB6801225A70FB6800229A70FB68322209
:102140009A80FB6800229A71484B1B68B3F8BE2046
:10215000FB681A81FB685B78022B04D1424B1B6839
:10216000DB6800221A700A23FB8347E0386901F01C
:1021700097FF0346FB8341E0386901F091FF034676
:10218000FB833BE0386901F08BFF0346FB8335E0BE
:10219000386901F085FF0346FB832FE0386901F0C1
:1021A0007FFF0346FB8329E0386901F079FF03468E
:1021B000FB8323E0386901F073FF0346FB831DE0D6
:1021C000386901F06DFF0346FB8317E0386901F0C1
:1021D00067FF0346FB8311E0386901F061FF0346A6
:1021E000FB830BE0386901F05BFF0346FB8305E0EE
:1021F000386901F055FF0346FB8300BFFB8BC3F337
:102200000B039BB21946386901F01EFF3B6901338D
:102210001A783B69013342F04002D2B21A703B692E
:102220000233FA791A70FB79152B05D0FB79102B44
:1022300002D0FB791C2B05D10B4B1B6824331846AD
:1022400001F078FE084B1B6810333968184601F01E
:102250002FFE012001F08EF9BB6918462037BD46DC
:1022600080BD00BF04080080241A0020505B0020BD
:1022700080B58AB000AF786000237B627B6804334E
:10228000FB61002387F82330BB4B1B68DB68BB6115
:10229000B94B1B681B6A7B617B689B79FB74FB698C
:1022A0000C33184601F0FCFE03467B627B68143356
:1022B000FB60F86901F0F4FE0346C3F30B037B8176
:1022C000786AFEF7D7FDFB7CD02B00F04281D02B43
:1022D00026DC262B00F0CB80262B0FDC152B00F004
:1022E000A080152B03DC102B00F08380A8E21B2BB1
:1022F00000F0B5801C2B00F0CA80A1E2B02B00F0EA
:102300004C82B02B05DC492B00F00B82892B32D09C
:1023100096E2C82B00F0B380CE2B00F0E2818FE272
:10232000D62B00F06882D62B12DCD32B00F02C8148
:10233000D32B06DCD12B00F06082D22B00F012816F
:102340007EE2D42B00F05B82D52B00F0418177E256
:10235000D92B00F08681D92B06DCD72B00F05881D1
:10236000D82B00F05E816BE2DA2B00F09A81F22B21
:1023700000F0F68164E27B6A002B40F04282BB6988
:1023800001221A70FB690F331B7803F00403002B42
:1023900013D07B6908225A70784B1B68D3F8A4309D
:1023A000002B00F02E82754B1B68D3F8A4307A6A9C
:1023B00092B204211046984723E2FB690F331B7841
:1023C00003F00203002B00F01C827B690A225A7082
:1023D0006A4B1B68D3F8A430002B00F01282674BC5
:1023E0001B68D3F8A4307A6A92B20221104698474B
:1023F00007E2FB690C33184601F052FE03467B628C
:102400007B6A002B40F0FF817B6901221A70BB6957
:1024100002221A70584B1B682433184601F09EFDA7
:10242000F1E1FB690C33184601F03AFE03467B628A
:102430007B6A002B40F0E981BB6993F82C30002BBC
:1024400003D0BB69012283F82D204B4B1B6824333A
:10245000184601F083FDBB6900229A62D5E1FB6951
:102460000C33184601F01CFE03467B62E8E1FB6971
:102470000C33184601F014FE03467B62E0E1FB6971
:102480000C33184601F00CFE03467B62D8E1FB6971
:102490000C33184601F004FE03467B62BB6901223F
:1024A0001A707B6900221A70002387F8233012E02B
:1024B000334B196897F8232013461B019B1A9B0086
:1024C0000B443C22002118460AF0AEFF97F8233057
:1024D000013387F823302B4B1B681B7B97F8232095
:1024E0009A42E5D3FB690F331B7803F00403002BFA
:1024F00013D07B6908225A70204B1B68D3F8A43094
:10250000002B00F084811D4B1B68D3F8A4307A6A3D
:1025100092B204211046984779E1FB690F331B788A
:1025200003F00203002B00F072817B690A225A70CB
:10253000124B1B68D3F8A430002B00F068810F4BBE
:102540001B68D3F8A4307A6A92B2022110469847E9
:102550005DE17B6A002B40F05C81BB69022283F85D
:102560003C2056E17B6A002B40F05581BB6902227A
:1025700083F83C204FE100BF241A0020505B00206C
:10258000445B0020585B00207B6A002B40F04581B3
:10259000BB69032283F83C20BB695B6B002B00F016
:1025A0003C81BB699B6B002B00F03781BB699A6B48
:1025B0007B89934228BF13463B81BB695B6B3A8999
:1025C000F96818460AF025FFBB6900225A6324E126
:1025D0007B6A002B40F02381BB695B6B002B00F012
:1025E0001E81BB699B6B002B00F01981BB699A6B44
:1025F0007B89934228BF13463B81BB695B6B3A8959
:10260000F96818460AF005FFBB6900225A6306E123
:102610007B6A002B40F00581BB69042283F83C20D3
:10262000FFE07B6A002B40F0FE80BB695B6B002BF8
:1026300000F0F980BB699B6B002B00F0F480BB6954
:102640009A6B7B89934228BF13463B81BB695B6BC6
:102650003A89F96818460AF0DCFEBB6900225A6321
:10266000E1E07B6A002B40F0E080BB695B6B002BF4
:1026700000F0DB80BB699B6B002B00F0D680BB6950
:102680009A6B7B89934228BF13463B81BB695B6B86
:102690003A89F96818460AF0BCFEBB6900225A6301
:1026A000C3E07B6A002B40F0C280BB695B6B002BF0
:1026B00000F0BD80BB699B6B002B00F0B880BB694C
:1026C0009A6B7B89934228BF13463B81BB695B6B46
:1026D0003A89F96818460AF09CFEBB6900225A63E1
:1026E000A5E07B6A002B40F0A480BB695B6B002BEC
:1026F00000F09F80BB699B6B002B00F09A80BB6948
:102700009A6B7B89934228BF13463B81BB695B6B05
:102710003A89F96818460AF07CFEBB6900225A63C0
:1027200087E07B6A002B40F08680BB695B6B002BE7
:1027300000F08180BB699B6B002B7CD0BB699A6BDE
:102740007B89934228BF13463B81BB695B6B3A8907
:10275000F96818460AF05DFEBB6900225A636AE018
:102760007B6A002B69D1BB695B6B002B65D0BB69B1
:102770009B6B002B61D0BB699A6B7B89934228BF0E
:1027800013463B81BB695B6B3A89F96818460AF0CE
:1027900040FEBB6900225A634FE0FB690C331846C8
:1027A00001F07EFC03467B62F86901F079FC034688
:1027B000C3F30B037B817B681433FB607B6A002BC4
:1027C0003DD1BB695B6B002B39D0BB699B6B002B88
:1027D00035D0BB699A6B7B89934228BF13463B81F6
:1027E000BB695B6B3A89F96818460AF012FEBB694F
:1027F00000225A6323E000BF22E000BF20E000BFB8
:102800001EE000BF1CE000BF1AE000BF18E000BFE0
:1028100016E000BF14E000BF12E000BF10E000BFF0
:102820000EE000BF0CE000BF0AE000BF08E000BF00
:1028300006E000BF04E000BF02E000BF00E000BF10
:10284000FB7C892B39D0FB7C772B1AD1BB6993F8A1
:102850003D30002B06D01B4B1B681433184601F08B
:10286000B9FA2AE0184B1B681B69002B02D17B6A5E
:10287000002B22D0134B1B681433184601F0AAFA20
:102880001BE0FB7C152B12D10E4B1B6893F85030CC
:10289000DBB2152B11D10B4B1B68002283F85020A3
:1028A000084B1B681433184601F094FA05E0054BF9
:1028B0001B681433184601F08DFA00231846283798
:1028C000BD4680BD2C1A0020505B002080B586B02C
:1028D00000AF0346FB710023FB753B4B1B68DB68B5
:1028E0003B61394B1B681B6AFB60FB79DD2B0BD00E
:1028F000DE2B02D0CD2B19D061E03B6901229A6218
:10290000012000F037FE5AE03B6903229A623B69DE
:1029100093F82C30092B05D13B6901229A620120E2
:1029200000F028FE012000F061FE48E03B69012232
:102930001A70FB6800221A700023FB751DE0234B00
:102940001968FA7D13461B019B1A9B000B443C221D
:10295000002118460AF068FD1D4B1968FA7D1346E0
:102960009B0013449B010B444FF4A07200211846B6
:102970000AF05AFDFB7D0133FB75164B1B681B7B70
:10298000FA7D9A42DBD3144B1B68002283F8BC20EB
:10299000114B1B680022DA60FB6800221A733B6946
:1029A00000221A7300F01AF83B692033102200212C
:1029B00018460AF039FD012000F018FE00BF00BFE4
:1029C0001837BD4680BD00BF241A0020445B00209C
:1029D000405B0020585B0020505B002080B500AFBA
:1029E0000420FDF7BBFF00BF80BD80B500AF002213
:1029F00000210320FDF740FF0120FDF763FF0022C7
:102A000001210420FDF738FF0420FDF7A7FF00BFD8
:102A100080BD80B582B000AF7860002004F086FEF3
:102A200000BF0837BD4680BD80B582B000AF78607A
:102A300039603968786801F05DF90346002B06D0EB
:102A40006FF01D00FEF716FA6FF01D0300E0002383
:102A500018460837BD4680BD80B584B000AF034638
:102A60000A46FB711346BB710023FB60FB79012B07
:102A700019D0022B2DD0002B56D1BB79012B08D1B8
:102A8000304B1B6818334EF660211846FFF7CCFF19
:102A90004EE0BB79002B4BD12A4B1B6818331846EC
:102AA00001F098F944E0BB79012B08D1254B1B6854
:102AB0001C334EF66021184604F040FF3AE0BB7923
:102AC000002B37D11F4B1B681C33184601F082F9CD
:102AD00030E0BB79012B12D11A4B1B6893F82820E8
:102AE000184B1B6842F00202D2B283F82820154B23
:102AF0001B6820331449184600F0D6FD1CE0BB7952
:102B0000002B19D10F4B1B6893F828200D4B1B6825
:102B100022F00202D2B283F828200A4B1B6820332D
:102B2000184601F057F907E06FF00103FB6004E07D
:102B300000BF02E000BF00E000BFFB68184610378E
:102B4000BD4680BD2C1A0020C027090080B500AF0B
:102B5000002201210120FDF78FFE0120FDF7FEFE7E
:102B60006420FEF746F90120FDF7ACFE002318466D
:102B700080BD000080B582B000AF0023FB80002341
:102B8000BB803B1D1946D12000F0FAF80346FB80BC
:102B9000B7F90630002B02DAB7F9063028E0BB8817
:102BA00003F47F43B3F52B4F20D1BB88DBB2F12B6D
:102BB00002D16FF008031BE0BB88DBB2F22B02D11D
:102BC0006FF0090314E0BB88DBB2102B04D10A4B71
:102BD0001B6801221A6007E0BB88DBB2112B03D10E
:102BE000054B1B6802221A60002301E06FF00B0303
:102BF00018460837BD4680BD2C1A002080B586B027
:102C000000AF0346FB710023BB820023FB8200233D
:102C10007B8207F114031A4602215648FEF7BCFED8
:102C20000346FB82B7F91630002B02DAB7F91630EB
:102C30009CE0FB79422B07D1FB791AB24E4B134330
:102C40001BB29BB2BB8206E0FB791AB24B4B13431B
:102C50001BB29BB2BB8207F114031946D22000F0CD
:102C60008FF80346FB82B7F91630002B02DAB7F96A
:102C700016307BE007F10C034FF49671184601F013
:102C8000BEF929E007F112031946D12000F078F8C7
:102C90000346FB82B7F91630002B02DAB7F916307B
:102CA00064E0FB79422B05D17B8A4AF632329342AB
:102CB00007D119E07B8A1A46FB7943F42B439A42E9
:102CC00011D007F10C03184601F0A9F90346002BB7
:102CD00002D06FF01B0349E0FB79312B04D0FB7964
:102CE000712BCFD100E000BFFB79312B02D0FB79F3
:102CF000712B39D107F10C0340F6B831184601F0B9
:102D00007EF907F112031946D12000F039F8034685
:102D1000FB82B7F91630002B02DAB7F9163025E03E
:102D20007B8A03F47043B3F5204F11D17B8ADBB269
:102D3000232B02D16FF00D0318E07B8ADBB2F32B5B
:102D400002D16FF00E0311E07B8ADBB2AA2B0AD00E
:102D500007F10C03184601F062F90346002BD0D0AE
:102D60006FF01B0302E000BFB7F9163018461837A2
:102D7000BD4680BD3C00054100A0FFFF00ABFFFF4A
:102D800080B588B000AF03463960FB710023FB8338
:102D900000237B610023BB6100237B8200233B82F5
:102DA000FB79D12B11D0D12B08DC422B7AD0712B9F
:102DB00000F0C080312B00F0B080C8E0D42B45D0AB
:102DC000D52B17D0D22B0DD0C1E007F110031A4636
:102DD00002216448FEF744FE0346FB833A8A3B68BF
:102DE0001A80B8E03A6802215F48FEF7D5FD034635
:102DF000FB83B0E00023BB6117E0BB6903F54043F0
:102E00005800BB695A003B6813441A460221FEF77A
:102E1000C3FD0346FB83B7F91E30002B02DAB7F976
:102E20001E309AE0BB690133BB61BB69B3F5006F2B
:102E3000E3D34AF649337B8207F112031A46022193
:102E40004948FEF7A9FD0346FB8384E00023BB61EC
:102E500017E0BB6903F548435800BB695A003B685B
:102E600013441A460221FEF797FD0346FB83B7F988
:102E70001E30002B02DAB7F91E306EE0BB69013359
:102E8000BB61BB69B3F5006FE3D34AF64F337B8276
:102E900007F112031A4602213348FEF77DFD03466F
:102EA000FB8358E04AF642337B6107F114031A466C
:102EB00002212D48FEF770FD0346FB83B7F91E3053
:102EC000002B02DAB7F91E3047E007F10C034FF48C
:102ED0009671184601F093F807F110031A46022183
:102EE0002048FEF7BDFD0346FB83B7F91E30002BDB
:102EF00002DAB7F91E3030E007F10C03184601F092
:102F00008EF80346002B02D06FF01B0325E03B8AAE
:102F10004AF632329342DFD11DE04AF631337B610B
:102F200007F114031A4602210F48FEF735FD034648
:102F3000FB8310E04AF671337B6107F114031A46F4
:102F400002210948FEF728FD0346FB8303E04FF604
:102F5000FE73FB8300BFB7F91E3018462037BD460D
:102F600080BD00BF3C0005413400054180B500AF85
:102F7000FDF7E4FB002000F0FDFA00BF80BD00007B
:102F800080B588B000AF0023FB6100233B830023A2
:102F9000FB820023BB70834B1B68DB683B61002313
:102FA000FB730023BB7300237B7300233B7300235D
:102FB000FB72FF23BB72FF23FB767A4B1B68103337
:102FC000184600F0A1FF0346FB73764B1B682433C1
:102FD000184600F099FF03467B73FB7B002B38D02B
:102FE000704B1B68704A5A66BB1C1846FEF744FCBF
:102FF0000346FB82B7F91630002B04D1BB7803F0EF
:103000000103002B1BD0674B1B685B6B23F0020393
:10301000002B00F0BE80012000F0D4FA634B1B6847
:103020000833184600F036FE604B1B6801225A60D8
:103030005E4B1B680833184600F03FFEA9E0594B71
:103040001B681033184600F049FFF8610123FB7636
:1030500036E07B7B002B33D0BB1C1846FEF70CFC04
:103060000346FB82B7F91630002B04D1BB7803F07E
:103070000103002B1BD04B4B1B685B6B23F002033F
:10308000002B00F08880012000F09CFA474B1B6861
:103090000833184600F0FEFD444B1B6801225A60BD
:1030A000424B1B680833184600F007FE73E03D4BA7
:1030B0001B682433184600F011FFF8610623FB76E5
:1030C000FB7B002B0BD17B7B002B08D1BB7B002B28
:1030D00005D1FB7A002B02D13B7B002B3ED0FB6954
:1030E00004337B607B689B78FB707B6801331B78C3
:1030F0001B09BB727B681B88C3F30B033B83FB7804
:10310000152B08D1BB7A042B05D1012000F05AFA07
:103110000320FDF76EFE7B6810333A8B1946786802
:10312000FEF74BF9FB7E012B0BD11E4B1B68DB68B6
:103130001433F969184600F091FEF869FFF769FC4D
:103140002BE0FB7E062B28D1BB7A042B02D0BB7A66
:10315000052B22D1F86904F087FB1EE03B6993F848
:103160002D30002B0ED03B699B6A012B0AD1002227
:1031700000210F48FEF721F9012000F023FA3B69F6
:1031800002229A62F869FFF744FC012000F006FA77
:1031900004E000BF02E000BF00E000BF2037BD46F2
:1031A00080BD00BF241A0020132A00002C1A002022
:1031B00030E7000080B58AB000AF0023FB84002315
:1031C0003B620023FB6100237B730023BB60002371
:1031D0007B6000237B838B4B1B68DB687B61894BA7
:1031E0001B681B6A3B610220FDF791FB0346002B25
:1031F0001ED1002000F0D2F9FDF7A7FA824B1B6820
:103200005B68012B40F0A481012000F0EFF97E4BB8
:103210001B680833184600F03DFD7B4B1B680022FD
:103220005A60794B1B680833184600F046FD8FE161
:103230007B6993F82D30002B01D0FEF785FB07F159
:103240000D031846FEF718FB03467B837B8B002B90
:1032500040F080817B7B5BB2002B29DA7B7B03F023
:103260007F03DBB27B7307F108031A46042167482A
:10327000FEF7F6FB03467B837B8B002B18D1644B58
:103280001B68D3F8B830002B08D0614B1B68D3F80B
:10329000B830BA6890B200220021984780237B6042
:1032A0003B1D1A4604215B48FEF776FB03467B83F1
:1032B0007B7B03F00803002B27D1002000F06EF980
:1032C000FDF743FA0220FDF722FB0346002B02D054
:1032D000002000F04FF94C4B1B685B68012B40F05D
:1032E0003B81012000F082F9474B1B6808331846E8
:1032F00000F0D0FC444B1B6800225A60424B1B6814
:103300000833184600F0D9FC26E13E4B1B681846EE
:1033100000F08EFDF861FB69002B03D1002000F066
:1033200051F920E1FB6904333B62386AFEF70EF87D
:103330000346FB84FB8C002B24D0002000F02EF9E8
:10334000304B1B68F969184600F088FDFDF7FDF960
:103350002D4B1B685B68012B40F00081012000F0C1
:1033600045F9294B1B680833184600F093FC264B9F
:103370001B6800225A60244B1B680833184600F073
:103380009CFCEBE03B6A01331B781B09FB733B6A37
:103390009B78BB73FB7B042B3ED1BB7BCD2B05D035
:1033A000BB7BDE2B02D0BB7BDD2B35D1BB7B184634
:1033B000FFF78CFA134B1B68F969184600F04EFDB5
:1033C000002000F0EBF8002000F010F9FDF7BDF947
:1033D0000D4B1B685B68012B40F0C280012000F0A0
:1033E00005F9094B1B680833184600F053FC064BDF
:1033F0001B6800225A60044B1B680833184600F013
:103400005CFCADE0241A00202C1A00203400054199
:10341000505B002008000541FB7B042B4ED1BB7B99
:10342000892B47D0BB7B102B44D0BB7B152B41D0C5
:10343000BB7B1B2B3ED0BB7BC82B3BD0BB7B1C2B51
:1034400038D0BB7BA42B35D0BB7B492B32D0BB7B88
:10345000262B2FD0BB7B772B2CD0BB7B922B29D05C
:10346000BB7BE92B26D0BB7BF22B23D0BB7BD12BA4
:1034700020D0BB7BD62B1DD0BB7BD42B1AD0BB7BE3
:10348000D02B17D0BB7BD52B14D0BB7BD72B11D027
:10349000BB7BD32B0ED0BB7BD22B0BD0BB7BD92BD2
:1034A00008D0BB7BD82B05D0BB7BDA2B02D0BB7BF3
:1034B000CE2B03D1F869FEF7DBFE12E0FB7B022B7B
:1034C0000FD0FB7B012B0CD0FB7B042B03D1F869C5
:1034D00001F020FE05E0FB7B052B02D1F86900F02E
:1034E000D7F8224B1B68F969184600F0B7FC022098
:1034F000FDF70DFA0346002B02D1002000F04EF834
:10350000002000F073F8FDF720F90220FDF7FFF925
:103510000346002B02D0002000F02CF8144B1B684F
:103520005B68012B1ED1012000F060F8104B1B6876
:103530000833184600F0AEFB0D4B1B6800225A60A2
:103540000B4B1B680833184600F0B7FB00BF09E0BF
:1035500000BF08E000BF06E000BF04E000BF02E0DB
:1035600000BF00E000BF2837BD4680BD241A002000
:103570002C1A002080B582B000AF7860054B1B6824
:103580005B6C054A126879681046984700BF083797
:10359000BD4680BD301A0020585B002080B582B047
:1035A00000AF7860054B1B689B6C054A1268796810
:1035B0001046984700BF0837BD4680BD301A00202E
:1035C000585B002080B582B000AF7860054B1B6867
:1035D000DB6C054A126879681046984700BF0837C7
:1035E000BD4680BD301A0020585B002080B582B0F7
:1035F00000AF7860054B1B681B6D054A126879683F
:103600001046984700BF0837BD4680BD301A0020DD
:10361000585B002080B582B000AF78603960064BFF
:103620001B689B6D054A10683A687968984703469D
:1036300018460837BD4680BD301A0020585B002070
:1036400080B500AF06490020FFF7E4FF05490120DF
:10365000FFF7E0FF04490220FFF7DCFF00BF80BD59
:10366000B5310000812F00004D7C000080B584B092
:1036700000AFF860B9607A603B603B687A68B9680F
:10368000F86800F03BF8034618461037BD4680BD89
:1036900080B582B000AF7860786800F083F90346A7
:1036A00018460837BD4680BD80B582B000AF78604F
:1036B00039603968786800F01DFB0346002B06D09E
:1036C0006FF01D0004F032F86FF01D0300E00023DE
:1036D00018460837BD4680BD80B582B000AF78601F
:1036E000054B1B687A68DA62786804F01FF800BF3F
:1036F0000837BD4680BD00BF2C1A002080B58CB0B5
:1037000000AFF860B9607A603B600023BB620023C1
:103710007B62A14B1B681B683B629F4B1B685B680D
:10372000FB61FA6813461B019B1A9B001A46FB6952
:1037300013445B78DBB2002B07D1FB6819460920E4
:1037400005F052F84FF0FF3322E13B6A1B6A143355
:10375000184600F06DFBB861BB69002B08D1FB680F
:1037600019466FF0030005F03FF84FF0FF330FE10B
:10377000BB6914337B61BB6904333B6110220021B8
:10378000386909F051FE1C220021786909F04CFECD
:10379000FA6813461B019B1A9B001A46FB691344E7
:1037A0009B781B09DBB203F00F03022B29D17B6945
:1037B0000421184600F048FC7B6903F10C003B68CB
:1037C00004330422194609F024FE7B6903F10A023E
:1037D0003B685B881946104600F036FCFA681346D1
:1037E0001B019B1A9B001A46FB6913449B7803F04C
:1037F0000F03012B02D13823FB852BE02C23FB8503
:1038000028E07B690621184600F01EFC7B6903F165
:103810000C003B6808331022194609F0FAFD7B6959
:1038200003F10A023B685B881946104600F00CFC65
:10383000FA6813461B019B1A9B001A46FB69134446
:103840009B7803F00F03012B02D14C23FB8501E091
:103850004023FB85FA6813461B019B1A9B001A46FE
:10386000FB691344DB7E03F00203002B08D07B6866
:103870007D2B01D8062200E00822FB8D1344FB8536
:10388000FA6813461B019B1A9B001A46FB691344F6
:103890001A787B699A70FA6813461B019B1A9B0081
:1038A0001A46FB691344DA787B69DA707B69043362
:1038B0007A6892B21146184600F0C6FB7B6908335D
:1038C000FA8D1146184600F0BFFBFB8D7A68134451
:1038D0007B62FB8D1C3BFB85FB8D18337A6913449F
:1038E00004337A68B968184609F093FD7B6A9BB285
:1038F000C3F30B039BB21946386900F0A5FB3B6983
:1039000001331A783B69013342F05002D2B21A7087
:103910003B6A2433B969184600F0CAFA0120FFF760
:1039200029FE1E4B1968FA6813469B0013449B013D
:103930000B4493F82210194B1868FA6813469B0041
:1039400013449B01034441F00402D2B283F82220C5
:10395000124B1968FA6813469B0013449B010B44F1
:1039600030330F49184604F0D1FE0346BB62BB6AF0
:10397000002B07D0FB681946B86A04F035FF4FF0FA
:10398000FF3305E0FB68184604F018FFB862BB6A15
:1039900018463037BD4680BD585B0020405B002094
:1039A000C027090080B58EB000AF7860002387F88B
:1039B000373000233B630023FB628D4B1B685B6841
:1039C000BB627B6814337B627B6804333B623B6A77
:1039D00002331B783B63386A00F062FB0346C3F393
:1039E0000B03FB833B6A0C33184600F059FB03467C
:1039F000FB623B6B012B0AD17E4B1B68D3F8A030D6
:103A00007A6802F11401FA8B00209847EBE07B6A98
:103A10009B78184604F08EFEB861B969F86A04F024
:103A2000E3FE7B6ADB7887F83730BB69002B06DB67
:103A30006F4B1B681B7B1A46BB69934202DB4FF03E
:103A4000FF33D1E0BA6913461B019B1A9B001A464B
:103A5000BB6A13447B617B6A0433184600F020FB89
:103A600003463B617B6A0833184600F019FB0346A6
:103A7000FB607B69DB7E5BB2002B29DB7B695B6BC8
:103A8000002B23D07B69DB7E03F00203002B15D0D3
:103A9000FA681346DB009B1A9B001C3B7A6A1344AE
:103AA00097F837201A707B695B6BB869FA68013A3E
:103AB000796A11443A690132984707E07B695B6B88
:103AC000B869796AFA6811443A69984700238BE02B
:103AD000474B1B689B7B012B0FD17B695B6A002BDB
:103AE00002D04FF0FF337FE07A6AFB681A447B69AB
:103AF000DA617B693A695A6213E07B699B6A002B41
:103B00000CD07B69986A7A6AFB6813443A69194653
:103B100009F07FFC7B693A69DA6202E07B69002286
:103B2000DA627B699B7803F00F03022B21D17B6A59
:103B30000A33184600F0B4FA03461A467B69DA8065
:103B40007B699B781B09DBB2022B09D17B6903F1EE
:103B500008007B6A0C330422194609F05AFC08E07D
:103B60007B6903F108007B6A0C331022194609F0C7
:103B700050FC214B1968BA6913469B0013449B0102
:103B80000B4493F822101C4B1868BA6913469B002B
:103B900013449B01034421F00202D2B283F8222095
:103BA000154B1968BA6913469B0013449B010B44DB
:103BB00093F82310104B1868BA6913469B001344FE
:103BC0009B01034441F00102D2B283F823200A4B47
:103BD0001968BA6913469B0013449B010B442C33AC
:103BE000184600F0F7F8002318463837BD4680BD68
:103BF000585B0020505B0020405B002080B500AF88
:103C0000114B1B6893F8283003F00103002B05D0FB
:103C10000D4B1B680C33184600F0DCF80A4B1B6890
:103C200093F8283003F00203002B05D0064B1B68E5
:103C30002033184600F0CEF8034B1B68002283F8AF
:103C4000282000BF80BD00BF2C1A002080B483B0A4
:103C500000AF00237B607B6818460C37BD465DF8DB
:103C6000047B704780B483B000AF786000BF0C372E
:103C7000BD465DF8047B704780B483B000AF7860C8
:103C80007B6800221A60002318460C37BD465DF899
:103C9000047B704780B483B000AF786000BF7B685E
:103CA0001B68012BFBD07B6801221A600023184699
:103CB0000C37BD465DF8047B704780B483B000AF1D
:103CC00078607B6800221A60002318460C37BD46D6
:103CD0005DF8047B704780B483B000AF78603960D2
:103CE0007B683A681A60002318460C37BD465DF8B9
:103CF000047B704780B586B000AF786039602B4B8D
:103D00001B681B687B617B683B613B691B68002B00
:103D100006D03B691B685A1E3B691A60002340E0CD
:103D20003B68002B10D104E07B693433184600F067
:103D30003DF93B691B68002BF6D03B691B685A1E96
:103D40003B691A6000232CE007F10C033968184620
:103D500000F055F90CE07B693433184600F026F981
:103D600007F10C03184600F05AF90346002B07D15F
:103D70003B68002B05D03B691B68002BEBD000E0B3
:103D800000BF3B691B68002B02D03B68002B02D1AF
:103D90004FF0FF3305E03B691B685A1E3B691A6010
:103DA000002318461837BD4680BD00BF585B002071
:103DB00080B485B000AF78607B68FB60FB681B68EF
:103DC0005A1CFB681A60002318461437BD465DF87C
:103DD000047B704780B485B000AF78607B68FB607F
:103DE000FB681B685A1CFB681A60002318461437CE
:103DF000BD465DF8047B704790B587B002AFF860B0
:103E0000B9607A603B60084B1B689C69074B186877
:103E10003B6800937B68BA68F968A0470346184678
:103E20001437BD4690BD00BF301A0020585B0020FB
:103E300080B582B000AF7860064B1B68DB69064A2C
:103E40001268796810469847034618460837BD46F9
:103E500080BD00BF301A0020585B002080B582B0C2
:103E600000AF78603960064B1B681B6A054A106812
:103E70003A6879689847034618460837BD4680BDBA
:103E8000301A0020585B002080B582B000AF786007
:103E9000054B1B689B6A054A12687968104698476B
:103EA00000BF0837BD4680BD301A0020585B002097
:103EB00080B582B000AF78603960064B1B68DB6A62
:103EC000054A10683A687968984700BF0837BD46C8
:103ED00080BD00BF301A0020585B002080B582B042
:103EE00000AF7860064B1B681B6B064A1268796846
:103EF00010469847034618460837BD4680BD00BFA8
:103F0000301A0020585B002080B582B000AF786086
:103F1000064B1B685B6B064A126879681046984727
:103F2000034618460837BD4680BD00BF301A002042
:103F3000585B002080B582B000AF7860054B1B68ED
:103F40009B6B054A126879681046984700BF08378E
:103F5000BD4680BD301A0020585B002080B582B07D
:103F600000AF7860054B1B68DB6B054A1268796807
:103F70001046984700BF0837BD4680BD301A002064
:103F8000585B002080B582B000AF7860054B1B689D
:103F9000DB68054A126879681046984700BF083701
:103FA000BD4680BD301A0020585B002080B582B02D
:103FB00000AF7860054B1B685B69054A1268796839
:103FC0001046984700BF0837BD4680BD301A002014
:103FD000585B002080B400AF044B1B68DA6B0132E1
:103FE000DA6300BFBD465DF8047B70472C1A0020E1
:103FF00080B500AFFCF724FF0346184680BD80B5AE
:1040000082B000AF78603960FFF7F2FF02463B688C
:104010001A447B681A6000BF0837BD4680BD90B562
:1040200085B000AF78607B681C68FFF7E1FF03464E
:10403000E31AFB60FB68002B01DA012300E0002398
:1040400018461437BD4690BD80B582B000AF786089
:104050000B467B80054B1B685B6E054A10687A88AF
:104060007968984700BF0837BD4680BD301A0020E8
:10407000585B002080B582B000AF78603960064B95
:104080001B689B6E054A10683A687968984700BFBC
:104090000837BD4680BD00BF301A0020585B0020A5
:1040A00080B582B000AF7860064B1B68DB6E064AB5
:1040B0001268796810469847034618460837BD4687
:1040C00080BD00BF301A0020585B002080B582B050
:1040D00000AF7860064B1B681B6F064A1268796850
:1040E00010469847034618460837BD4680BD00BFB6
:1040F000301A0020585B002080B48BB000AF03461C
:10410000FB710B46BB7113467B71FB79DB09DBB29C
:104110003B77FB799B09DBB203F00103DBB27B77D2
:10412000FB795B09DBB203F00103DBB2BB77FB7900
:104130001B09DBB203F00103DBB2FB77FB79DB0881
:10414000DBB203F00103DBB287F82030FB799B0878
:10415000DBB203F00103DBB287F82130FB795B08A7
:10416000DBB203F00103DBB287F82230FB7903F006
:104170000103DBB287F82330BB7903F00103DBB224
:104180003B75BB795B08DBB203F00103DBB27B75E7
:10419000BB799B08DBB203F00103DBB2BB75BB79D3
:1041A000DB08DBB203F00103DBB2FB75BB791B0953
:1041B000DBB203F00103DBB23B76BB795B09DBB218
:1041C00003F00103DBB27B76BB799B09DBB203F022
:1041D0000103DBB2BB76BB79DB09DBB2FB76FA7E8F
:1041E00097F823305340DAB2B97E97F822304B402B
:1041F000DBB25340DAB2797E97F821304B40DBB224
:104200005340DBB2FB74BA7E97F822305340DAB2E7
:10421000797E97F821304B40DBB25340DAB2397ED9
:1042200097F820304B40DBB25340DBB2BB747A7E50
:1042300097F821305340DAB2397E97F820304B405E
:10424000DBB25340DAB2F97DFB7F4B40DBB2534027
:10425000DBB27B743A7E97F820305340DAB2F97DB6
:10426000FB7F4B40DBB25340DAB2B97DBB7F4B40A2
:10427000DBB25340DBB23B747A7D7B7F5340DAB2D2
:10428000B97DBB7F4B40DBB25340DAB2F97DFB7F97
:104290004B40DBB25340DAB2F97E97F823304B4003
:1042A000DBB25340DBB2FB733A7D3B7F5340DAB263
:1042B000797D7B7F4B40DBB25340DAB2B97DBB7F67
:1042C0004B40DBB25340DAB2B97E97F822304B4014
:1042D000DBB25340DBB2BB733A7D3B7F5340DAB273
:1042E000797D7B7F4B40DBB25340DAB2B97E97F8E1
:1042F00022304B40DBB25340DBB27B733A7D3B7FD5
:104300005340DAB2F97E97F823304B40DBB253408A
:10431000DAB2B97E97F822304B40DBB25340DBB2C1
:104320003B737B79002B3AD13B7B03F00103DAB27C
:104330007B7B5B00DBB203F00203DBB21343DAB238
:10434000BB7B9B00DBB203F00403DBB21343DAB2A6
:10435000FB7BDB00DBB203F00803DBB21343DAB212
:104360003B7C1B01DBB203F01003DBB21343DAB278
:104370007B7C5B01DBB203F02003DBB21343DAB2D8
:10438000BB7C9B01DBB203F04003DBB21343DAB228
:10439000FB7CDB01DBB2134387F8273037E0FB7C83
:1043A00003F00103DAB2BB7C5B00DBB203F0020373
:1043B000DBB21343DAB27B7C9B00DBB203F0040375
:1043C000DBB21343DAB23B7CDB00DBB203F0080361
:1043D000DBB21343DAB2FB7B1B01DBB203F0100349
:1043E000DBB21343DAB2BB7B5B01DBB203F0200329
:1043F000DBB2134387F8273097F82730DB4387F881
:10440000273097F8273003F03F0387F8273097F8D5
:10441000273018462C37BD465DF8047B704780B5C1
:1044200084B000AF7860FF23BB730023FB7313E0FD
:10443000FB7B7A6813441878FB7B052B0CBF0123A8
:104440000023DBB21A46BB7B1946FFF755FE034635
:10445000BB73FB7B0133FB73FB7B052BE8D9BB7B79
:1044600018461037BD4680BD80B584B000AF786077
:104470000023FB737B68002B02D16FF001037DE00A
:104480007B6800221A707B6800225A607B680833C0
:104490001846FFF7F1FB7B6800221A73394B1B6843
:1044A000203300211846FFF716FC0346FB7397F9EB
:1044B0000F30002B02D06FF027035FE0314B1B68F9
:1044C0001C3300211846FFF706FC0346FB7397F9DF
:1044D0000F30002B02D06FF027034FE0294B1B68F1
:1044E000243300211846FFF7F6FB0346FB7397F9C8
:1044F0000F30002B02D06FF027033FE0214B1B68E9
:1045000020331846FFF766FC1E4B1B681C33184609
:10451000FFF760FC7B68103300211846FFF7DBFBD8
:104520000346FB7397F90F30002B02D06FF027037F
:1045300024E0144B1B68103300211846FFF7CBFB17
:104540000346FB7397F90F30002B02D06FF027035F
:1045500014E00C4B1B680C3300211846FFF7BBFB23
:104560000346FB7397F90F30002B02D06FF027033F
:1045700004E07B6800225A6297F90F301846103722
:10458000BD4680BD2C1A002080B5A0B000AF034608
:104590003960FB710023A7F87E300023BB6700233E
:1045A00087F877300023A7F87C303B6804333B67FB
:1045B000FB79113BDE2B00F24F8501A252F823F06C
:1045C0003D49000059500000CB4A0000FF4A00005E
:1045D00059500000B74F00007549000059500000C5
:1045E0006D4C000059500000595000005950000017
:1045F000074A00005950000059500000595000006F
:104600008D4F000059500000AD4F0000D74D000005
:104610004F4D000059500000595000005950000003
:10462000F74C00005950000059500000595000004C
:1046300059500000595000005950000059500000D6
:10464000774F0000854F0000854F00005950000053
:1046500059500000595000005950000059500000B6
:1046600059500000595000005950000059500000A6
:104670005950000059500000595000009549000061
:10468000574D0000114D0000CF4D0000AF4D000010
:1046900059500000595000004B4B00005950000089
:1046A00059500000595000005D4B0000894A00003D
:1046B000234D00005950000059500000054F0000E4
:1046C0007B4D00007B4D0000614F00005950000001
:1046D000BF4D00004B4F00005950000059500000E2
:1046E0005950000059500000595000005950000026
:1046F0005950000059500000595000005950000016
:104700005950000059500000595000005950000005
:1047100059500000595000005950000059500000F5
:10472000595000006D4B00001B4D00009F4D0000D4
:10473000014E0000595000004D4A00005950000041
:1047400059500000654C00005950000051490000CC
:1047500059500000595000005950000059500000B5
:1047600059500000595000002B4C0000994C00009B
:1047700059500000595000003D4F000059500000B2
:10478000BF4F000059500000595000005950000020
:104790005950000059500000595000005950000075
:1047A0005950000059500000595000005950000065
:1047B000595000005950000059500000694D000048
:1047C0005950000059500000595000005950000045
:1047D0005950000059500000A54E000059500000EB
:1047E000E34E0000214F00002F4F0000134F000048
:1047F0005950000059500000595000005950000015
:1048000059500000EF4C0000595000005950000072
:10481000654B000059500000954F000059500000B2
:1048200059500000595000005950000059500000E4
:1048300059500000595000005950000059500000D4
:10484000DB4E00005950000059500000894D000017
:1048500059500000595000005950000059500000B4
:10486000595000005950000059500000A74D000059
:104870002D4A0000594900005950000059500000CD
:104880005950000059500000595000005950000084
:104890005950000059500000FF4C000059500000D2
:1048A0009D4F000059500000C74F000059500000B4
:1048B0005950000059500000595000005950000054
:1048C0005950000059500000595000005950000044
:1048D0005950000059500000595000005950000034
:1048E00059500000595000007B4D00005950000005
:1048F0005950000059500000595000005950000014
:1049000059500000274E000059500000A54F0000EC
:1049100059500000914D0000594F000059500000BF
:1049200059500000054C00007B4D0000C74D0000B1
:10493000B74D0000595000006F4F00003B68143322
:10494000BB60BB6800221A700123A7F87E3088E3A1
:104950002023A7F87E3084E33B6814337B657B6DAE
:1049600001221A807B6D40F62A125A800423A7F890
:104970007E3076E33B6814337B617869C04B1B68FB
:104980001B6A30330622194608F043FD0623A7F8B8
:104990007E3066E33B6814333B623B6A1B7887F8E2
:1049A000773097F87730A7F87C3097F87730002B7E
:1049B00003D097F87730012B0DD13B6A01331846AD
:1049C000FFF72DFD03461B021AB2B7F97C301343E3
:1049D0001BB2A7F87C303B68143302220021184632
:1049E00008F022FD3B681433B7F87C2011461846C6
:1049F000FFF72AFB0223A7F87E30A14B1B681B6A36
:104A000040221A732DE33B681433BB61BB6901225A
:104A10001A70BB6903225A70BB6902330121184620
:104A2000FFF712FB0423A7F87E301AE33B68143328
:104A30003B653B6D00221A703B6D0133914918466E
:104A400008F055FD5023A7F87E300AE33B68143385
:104A5000BB63BB6B00211846FFF70CFBBB6B043339
:104A600004211846FFF706FBBB6B083328211846C4
:104A7000FFF700FBBB6B0C3300211846FFF7FAFA77
:104A80001023A7F87E30ECE23B681433BB62BB6AAC
:104A90007D49184608F02BFDBB6A20337B49184638
:104AA00008F025FDBB6A03F5807300211846FFF767
:104AB000E1FABB6A03F582737549184608F017FDE1
:104AC0004FF4AB73A7F87E30CBE23B681433FB6046
:104AD000FB682C3300211846FFF7B6FAFB6893F801
:104AE0002B30002B03D1FB68002283F82B20FB68BE
:104AF000002283F82B203223A7F87E30B1E23B68F6
:104B000014333B613B6900229A703B690222DA70E0
:104B10003B69002283F866203B696A33002118460E
:104B2000FFF7A8FA3B6903F16F005A4B1B68043387
:104B30000622194608F06DFC7523A7F87E30504B0D
:104B40001B681B6A14221A738BE23B6814337B6266
:104B50007B6A5B880B33A7F87E3082E2C423A7F818
:104B60007E307EE26323A7F87E307AE23B6814331E
:104B70003B633B681B7DAB2B0FD13B685B7D012BFF
:104B800016D13B6B01211846FFF75EFA3B6B0233EF
:104B900001211846FFF758FA0AE03B6B012118463D
:104BA000FFF752FA3B6B023301211846FFF74CFA2C
:104BB0003B6B04330A211846FFF746FA3B6B06337A
:104BC00004211846FFF740FA3B6B08330A211846C8
:104BD000FFF73AFA3B6B0A330F211846FFF734FA16
:104BE0003B6B0C3314211846FFF72EFA3B6B002267
:104BF0009A730F23A7F87E30214B1B681B6A6A2229
:104C00001A732EE23B681433FB66FB6E01211846D3
:104C1000FFF730FAFB6E043340F2DC511846FFF721
:104C200013FA0623A7F87E301BE23B681433FB63BC
:104C3000FB6B00211846FFF71DFAFB6B04330A21BA
:104C40001846FFF717FAFB6B083304211846FFF7E5
:104C500011FA0C23A7F87E30094B1B681B6A7B22D4
:104C60001A73FEE10C23A7F87E30FAE10823A7F8B7
:104C70007E30034B1B681B6A19221A73F1E100BFD7
:104C8000241A0020A4E80000A8E80000B0E8000012
:104C9000C0E80000505B00203B6814333B643B6C71
:104CA0000E3300211846FFF7CFF93B6C103300217B
:104CB0001846FFF7C9F93B6C123300211846FFF77D
:104CC000C3F93B6C143300211846FFF7BDF93B6C68
:104CD000163300211846FFF7B7F93B6C1833002153
:104CE0001846FFF7B1F91C23A7F87E30B9E1042379
:104CF000A7F87E30B5E11623A7F87E30B1E1032393
:104D0000A7F87E30C64B1B681B6AC7221A73A8E13E
:104D10004FF4C773A7F87E30A3E10723A7F87E30CE
:104D20009FE13B681433FB62FB6ADB78002B04D005
:104D30004FF4AF63A7F87E3093E1FB6A0433184663
:104D4000FFF7AEF903468633A7F87E3089E1822368
:104D5000A7F87E3085E12D23A7F87E30B04B1B6885
:104D60001B6A41221A737CE12423A7F87E30AC4BE6
:104D70001B681B6AA1221A7373E1386FFFF790F961
:104D80000346A7F87E306CE13E23A7F87E3068E149
:104D9000386FFFF785F90346A7F87E3061E10323FA
:104DA000A7F87E305DE10423A7F87E3059E15E2349
:104DB000A7F87E3055E14323A7F87E3051E1242344
:104DC000A7F87E304DE18423A7F87E3049E1042323
:104DD000A7F87E3045E13B681433FB61FB69032291
:104DE00083F86A20FB69642283F86B20FB696C33CB
:104DF00004211846FFF728F96E23A7F87E3030E12A
:104E00003B6814337B637B6B00211846FFF71CF96A
:104E10007B6B02334FF499711846FFF715F90423A1
:104E2000A7F87E301DE13B681433BB66BB6E1B7870
:104E3000013B0E2B00F2128101A252F823F000BFB9
:104E40007D4E0000854E00007D4E00007D4E00002E
:104E50007D4E00007D4E00007D4E00007D4E000026
:104E6000954E00007D4E00008D4E00007D4E0000EE
:104E70007D4E00007D4E00007D4E00003423A7F8DB
:104E80007E300EE05423A7F87E300AE06723A7F8AF
:104E90007E3006E0386FFFF703F90346A7F87E304F
:104EA00000BFDBE03B6814337B647B6C0021184659
:104EB000FFF7CAF87B6C023300211846FFF7C4F8ED
:104EC0007B6C043314211846FFF7D4F87B6C0F2257
:104ED0001A720923A7F87E30C3E01423A7F87E30A6
:104EE000BFE03B681433FB64FB6C02331846FFF7EA
:104EF000D7F80346A7F84A30B7F84A300433A7F882
:104F00007E30AEE0386FFFF7CBF80346A7F87E306F
:104F1000A7E0386FFFF7C4F80346A7F87E30A0E09B
:104F2000386FFFF7BDF80346A7F87E3099E0386F79
:104F3000FFF7B6F80346A7F87E3092E0386FFFF728
:104F4000AFF80346A7F87E308BE0386FFFF7A8F87C
:104F50000346A7F87E3084E0DF23A7F87E3080E0A8
:104F6000386FFFF79DF80346A7F87E3079E01B23E2
:104F7000A7F87E3075E0386FFFF792F80346A7F880
:104F80007E306EE00423A7F87E306AE00523A7F8A0
:104F90007E3066E00A23A7F87E3062E00423A7F89B
:104FA0007E305EE01523A7F87E305AE040F20D53C4
:104FB000A7F87E3055E00223A7F87E3051E00123A8
:104FC000A7F87E304DE03B6814337B667B6E184655
:104FD000FFF77CF838663B6E013B082B40D801A2F6
:104FE00052F823F009500000115000001950000041
:104FF0002550000047500000615000006150000043
:105000004F5000004F500000E123A7F87E3022E00F
:10501000AD23A7F87E301EE04423A7F87E301AE0C7
:10502000241A00203B681433FB65FB6D4633184699
:10503000FFF736F80346A7F85A30B7F85A304C3322
:10504000A7F87E3007E04323A7F87E3003E004236F
:10505000A7F87E3000BF03E000BF02E000BF00E021
:1050600000BF10220021386F08F0DEF9B7F87E305B
:10507000C3F30B039BB21946386FFEF7E5FF3B6F96
:1050800001331A783B6F013342F04002D2B21A70FA
:105090003B6F0233FA791A70074B1B682433396867
:1050A0001846FEF705FF0120FEF764FABB6F1846AD
:1050B0008037BD4680BD00BF241A002080B485B073
:1050C00000AF786039600023FB730FE0FB7B7A68E8
:1050D00013441B78BB73BB7B2C2B0BD0FB7B3A6838
:1050E0001344BA7B1A70FB7B0133FB73FB7B172BDA
:1050F000ECD900E000BFFB7B3A68134400221A7031
:10510000FB7B01337A68134418461437BD465DF8BB
:10511000047B70472DE9F041A8B002AF786000230E
:1051200087F87E30002387F87D30002387F87C30B5
:10513000002387F87B30002387F87A300023C7F8F4
:1051400094300023C7F890300023A7F8783000236C
:105150007B6700233B670023A7F88E300023A7F866
:105160006E30002387F86D30002387F86C30002301
:1051700087F86B30002387F88D30002387F86A307A
:1051800000237B66174B1B681B6A3B66154B1B682D
:10519000DB68FB657B6804337B677B689B7987F8FA
:1051A0007E307B6814333B67786FFEF779FF0346E8
:1051B000C3F30B03A7F88E307B6F0C331846FEF752
:1051C0006FFF0346C7F89030064B1B682433184620
:1051D000FEF79AFE034687F86C3097F87E30113B55
:1051E00002E000BF241A0020E72B01F2968701A2FB
:1051F00052F823F0B555000053580000EB5D000055
:10520000295F00001B7100001B7100001B71000072
:10521000FB590000236200001B7100001B7100009D
:105220001B7100001B7100001B7100001B7100004E
:105230001B7100001B7100002D6F00001B7100002E
:105240001B7100001B7100001B7100001B7100002E
:105250001B710000CF6100001B7100001B7100007A
:105260001B7100001B7100001B7100001B7100000E
:10527000475D00001B7100008F6D00001B71000076
:105280001B7100001B7100001B7100001B710000EE
:105290001B7100001B7100001D5900001B710000F4
:1052A0001B7100001B7100001B7100001B710000CE
:1052B0001B710000696000005D620000FF66000075
:1052C000EB6800001B7100001B7100001B710000E7
:1052D000D358000067590000B15900001B7100004D
:1052E0001B7100001B710000A35B00001B7100001C
:1052F0001B710000B1670000B1670000DF6C0000A7
:10530000715D00001B7100001B7100001B7100002B
:105310001B710000556B0000556B00001B710000F5
:105320001B7100001B7100001B7100001B7100004D
:105330001B710000B9640000856600001B7100004D
:10534000A36800001B7100001B7100001B710000AE
:105350001B7100001B710000DF5E0000F36B00009A
:105360001B7100001B7100001B7100001B7100000D
:10537000657000001B710000895800001B7100005F
:10538000C95500001B7100001B7100001B7100005B
:105390001B7100001B7100001B7100001B710000DD
:1053A0001B7100001B7100001B7100001B710000CD
:1053B0001B710000016F00001B7100001B710000D9
:1053C0001B7100001B7100001B7100001B710000AD
:1053D0001B7100001B7100001B7100001B7100009D
:1053E0001B7100001B7100001B7100001B7100008D
:1053F0001B7100001B7100001B7100001B7100007D
:105400001B7100001B7100001B7100001B7100006C
:105410001B7100001B7100001B7100001B7100005C
:105420001B710000A76B00001B7100001B710000C6
:105430001B71000069600000F96100001B71000031
:105440001B7100002B6E00001B710000196E000024
:105450001B7100001B7100006B670000F369000006
:105460001B7100001B7100001B7100001B7100000C
:105470001B7100001B7100001B7100001B710000FC
:105480001B7100001B7100001B7100001B710000EC
:105490001B7100001B7100001B7100001B710000DC
:1054A000796F00001B7100001B7100001B71000070
:1054B0001B7100001B7100009B5D0000C15D0000BE
:1054C0001B7100001B7100001B710000496200008D
:1054D0001B7100001B7100001B7100009570000023
:1054E000F77000001B7100001B7100001B710000B1
:1054F0001B7100001B7100001B7100001B7100007C
:105500001B7100001B7100001B7100001B7100006B
:105510001B7100001B7100001B7100001B7100005B
:105520001B7100001B7100001B7100001B7100004B
:105530001B7100001B710000356900001B71000029
:10554000736E0000736E0000E35C0000CD6D000020
:105550001B7100001B7100001B7100002968000016
:10556000816B0000955500005B6C0000876C0000AB
:10557000D37000003B5B00001B7100001B7100003A
:105580001B7100001B7100001B7100001B710000EB
:105590008B610000B74B1B689B6D002B01F0BF8532
:1055A000B44B1B689B6DD7F8902092B21046984779
:1055B00001F0B5BDD7F89030002B41F0B2853B6EBD
:1055C00002221A7001F0ADBD0023C7F88830002315
:1055D000C7F884300023C7F880303B6FBB64BB6CD6
:1055E0001B7887F86A30A44B1A6897F86A30342120
:1055F00001FB03F313441B6B002B16D19E4B1A685F
:1056000097F86A30342101FB03F313441B68C7F891
:105610008830994B1A6897F86A30342101FB03F3FC
:1056200013445B68C7F8843020E0934B1A6897F8FE
:105630006A30342101FB03F313440C33C7F888307C
:105640008D4B1A6897F86A30342101FB03F3134439
:105650001433C7F88430884B1A6897F86A303421BD
:1056600001FB03F313441C33C7F88030D7F88830AC
:10567000002B09D008220021D7F8880007F0D4FEBB
:10568000D7F8883000225A60D7F88430002B09D030
:1056900008220021D7F8840007F0C6FED7F884302E
:1056A00000225A60D7F88030002B09D00822002150
:1056B000D7F8800007F0B8FED7F8803000225A6093
:1056C000B7F88E30002B75D0002387F88D306AE054
:1056D000BB6C5B68002B1FD0BB6C5968674B1868AC
:1056E00097F88D2013461B019B1A9B0003441B78DF
:1056F00021FA03F303F00103002B0DD0D7F8883013
:105700005B685A1CD7F888305A6097F88D30D7F804
:105710008810184602F02AF9BB6CDB68002B1FD0FA
:10572000BB6CD968554B186897F88D2013461B0140
:105730009B1A9B0003441B7821FA03F303F0010337
:10574000002B0DD0D7F884305B685A1CD7F8843012
:105750005A6097F88D30D7F88410184602F006F991
:10576000BB6C5969454B186897F88D2013461B018F
:105770009B1A9B0003441B7821FA03F303F00103F7
:10578000002B0BD03E4B196897F88D2013469B00D9
:1057900013449B010B44012283F8342097F88D3089
:1057A000013387F88D30374B1B681B7B97F88D20B2
:1057B0009A428DD3304B1A6897F86A30342101FB36
:1057C00003F313441B6B002B01F0AD842A4B1A68C2
:1057D00097F86A30342101FB03F313441C6B264B0A
:1057E0001A6897F86A30342101FB03F3134403F17C
:1057F0000C00214B1A6897F86A30342101FB03F33F
:10580000134403F114051C4B1A6897F86A303421CD
:1058100001FB03F3134403F11C02D7F8903029462F
:10582000A047154B1A6897F86A30342101FB03F33F
:10583000134400221A63104B1A6897F86A30342117
:1058400001FB03F31344002283F82C20002301F012
:105850008BBED7F89030002B41F067843B6E03225B
:105860001A70FB6D1B8E43F001039AB2FB6D1A8612
:1058700001F05BBC505B0020545B0020445B0020C7
:10588000405B0020585B0020D7F89030002B41F09F
:105890004E843B6E5B6A002B01F049843B6E9B6A31
:1058A000002B01F044843B6E9A6AB7F88E30934225
:1058B00028BF1346A7F878303B6E5B6AB7F87820AC
:1058C000396F184607F0A5FD3B6E00225A6201F0C1
:1058D0002EBCD7F89030002B41F02B843B6E5B6AD6
:1058E000002B01F026843B6E9B6A002B01F0218483
:1058F0003B6E9A6AB7F88E30934228BF1346A7F8DA
:1059000078303B6E5B6AB7F87820396F184607F03D
:1059100080FD3B6E00225A6201F00BBCD7F890303C
:10592000002B41F008843B6E5B6A002B01F003847E
:105930003B6E9B6A002B01F0FE833B6E9A6AB7F8C0
:105940008E30934228BF1346A7F878303B6E5B6ACF
:10595000B7F87820396F184607F05BFD3B6E0022E0
:105960005A6201F0E8BBD7F89030002B41F0E58394
:105970003B6E5B6A002B01F0E0833B6E9B6A002B61
:1059800001F0DB833B6E9A6AB7F88E30934228BFF2
:105990001346A7F878303B6E5B6AB7F87820396F0A
:1059A000184607F036FD3B6E00225A6201F0C5BB77
:1059B000D7F89030002B41F0C2833B6E5B6A002B1E
:1059C00001F0BD833B6E9B6A002B01F0B8833B6EF8
:1059D0009A6AB7F88E30934228BF1346A7F87830FA
:1059E0003B6E5B6AB7F87820396F184607F011FDF7
:1059F0003B6E00225A6201F0A2BBD7F89030002B18
:105A000041F09F833B6E5B6A002B01F09A833B6EF3
:105A10009B6A002B01F095833B6E93F82C30042B8E
:105A20005AD13B6E5B6A002B00F082803B6E9B6A12
:105A3000002B7DD0B7F88E203B6E9B6A9A4203D331
:105A40003B6E9B6A9BB200E08623A7F878303B6FE1
:105A50001A783B6E5B6A92B21A803B6F5A783B6E43
:105A60005B6A92B25A803B6E5B6A181D3B6F48338B
:105A70002222194607F0CDFC3B6E5B6A03F126003B
:105A80003B6F42330622194607F0C3FC3B6E5B6A4C
:105A90003A6F92F86C2083F82C203B6E5B6A03F11E
:105AA0002D003B6F02334022194607F0B2FC3B6EDB
:105AB0005B6A03F16D003B6F6E330422194607F0F9
:105AC000A8FC3B6E5B6A03F171003B6F7E331022D2
:105AD000194607F09EFC2BE03B6E93F82C30072B09
