:10000000000008200502000031020000310200005B
:100010003102000031020000310200003102000014
:100020003102000031020000310200003102000004
:100030003102000030020000310200005D0E0000BD
:1000400031020000310200003102000031020000E4
:1000500031020000310200003102000031020000D4
:1000600031020000310200003102000031020000C4
:1000700031020000210700003102000031020000BF
:1000800031020000310200003102000031020000A4
:100090003102000031020000310200003102000094
:1000A0003102000031020000310200003102000084
:1000B0003102000031020000310200003102000074
:1000C0003102000031020000310200003102000064
:1000D0003102000031020000310200003102000054
:1000E0003102000031020000310200003102000044
:1000F0003102000031020000310200003102000034
:100100003102000031020000310200003102000023
:100110003102000031020000310200003102000013
:100120003102000031020000310200003102000003
:1001300031020000310200003102000031020000F3
:1001400031020000310200003102000031020000E3
:1001500010B5054C237833B9044B13B10448AFF301
:1001600000800123237010BD8400002000000000E7
:1001700074EC000008B5034B1BB103490348AFF30F
:10018000008008BD000000008800002074EC000022
:10019000154B002B08BF134B9D46A3F5803A002159
:1001A0008B460F461348144A121A0DF0A7F80F4B4E
:1001B000002B00D098470E4B002B00D09847002012
:1001C000002104000D000D48002802D00C48AFF3B8
:1001D00000800DF055F82000290000F01DFA0DF008
:1001E0003BF800BF000008000000082000000000ED
:1001F0000000000084000020E84100200000000012
:1002000000000000064880470649074A074B9A420B
:10021000BEBF51F8040B42F8040BF8E7FFF7B8FF34
:100220009503000080EC0000000000208400002006
:10023000FEE700BF80B582B000AF00F025F878601F
:100240000A4BD3F808311B0AC3F308033B603B6831
:1002500001337A68B2FBF3F37B60054A7B68136075
:100260007B6818460837BD4680BD00BF00400E4081
:100270000800002080B400AF024B1846BD465DF870
:10028000047B704700A24A0480B483B000AF334BB4
:10029000D3F8943003F00703023B042B49D801A2A2
:1002A00052F823F0C9020000C1020000B9020000A8
:1002B00029030000D1020000294B1B687B603CE051
:1002C0004FF400437B6038E0264B1B687B6034E0D2
:1002D000224B9B681B0C03F01F03073B072B1FD807
:1002E00001A252F823F000BF09030000210300001F
:1002F00021030000210300000F0300002103000080
:10030000150300001B030000174B7B600BE0174B2D
:100310007B6008E0164B7B6005E0164B7B6002E0DB
:1003200000237B6000BF08E0134B1B685B087B6009
:1003300003E0114B1B687B6000BF084BD3F8003112
:100340001B0A03F01F0301337A68B2FBF3F318466C
:100350000C37BD465DF8047B704700BF00400E407F
:1003600004000020000000200024F4000048E80100
:10037000006CDC0280F0FA020C00002080B400AFB8
:10038000034B1B681846BD465DF8047B704700BFF1
:100390000000002080B400AF074B084A9A60064B6B
:1003A000D3F88830044A43F47003C2F8883000BFA1
:1003B000BD465DF8047B704700ED00E000000000E2
:1003C00080B400AF4FF400431846BD465DF8047B8F
:1003D000704780B400AF4FF47A731846BD465DF89D
:1003E000047B704780B400AF034B1B681846BD46C2
:1003F0005DF8047B704700BF0400002080B58CB01E
:1004000004AF0023FB610023BB610923FB750021BE
:10041000002000F055FEF861FB69002B05D0F9695A
:1004200060480CF073FFFB69B8E05F480CF06EFFAA
:1004300000F01AFFF861FB69002B05D0F9695B48F1
:100440000CF064FFFB69A9E059480CF05FFF594AC2
:100450000221594809F082FCF861FB69002B05D0A4
:10046000F96956480CF052FFFB6997E054480CF0CC
:100470004DFFF97D0023039314230293514B019305
:100480000023009300230022042009F0AFFFF8614D
:10049000FB69002B05D0F9694B480CF037FFFB696D
:1004A0007CE04A480CF032FF464B9B791946454B9D
:1004B000DB791A46434B1B7A1846424B5B7A009312
:1004C000034643480CF022FF0122012141F288300B
:1004D00006F0BEFFF861FB69002B05D0F9693D48C5
:1004E0000CF014FFFB6959E03B480CF00FFF0021B2
:1004F00002200AF085F8F861FB69002B05D0F96944
:1005000036480CF003FFFB6948E035480CF0FEFE6E
:1005100000220221022007F035F938613B69002BE7
:1005200008DA0AF035F8F861F9692E480CF0EEFEA9
:10053000FB6933E02C480CF0E9FE3B461022002119
:1005400018460CF0DBFE02233B8041F289337B80AE
:10055000264B7B6019E0102301933B460093002358
:1005600018222349386907F047F9F861FB69002B25
:1005700008DA0AF00DF8F861F9691E480CF0C6FEB9
:10058000FB690BE0BB690133BB61BB6942F20F72CF
:100590009342E0DD18480CF0B9FEFB69184620379D
:1005A000BD4680BD10E3000048E300006CE300009E
:1005B00098E30000B4E30000C0E30000D0E30000D3
:1005C00000E40000C40000201CE4000044E400003B
:1005D0005CE400007CE40000B8E40000E0E400001B
:1005E00010E5000030E500005CE50000C0A81FAE8B
:1005F00078E5000094E50000D0E5000080B400AF8D
:1006000000BFBD465DF8047B704780B500AFFFF7C3
:10061000F5FF00F07FFEFAE780B582B000AF43F649
:100620009821144800F054FC78607B68002B04DBB0
:100630007B6843F69822934201DD7B6815E0312008
:1006400000F084FE78607B68002B05D079680A484A
:100650000CF05CFE7B6808E008480CF057FEFFF7E2
:10066000CDFE7860FFF7D1FF7B6818460837BD469E
:1006700080BD00BFEC000020ECE5000020E600009B
:1006800080B483B000AF0346FB7197F90730002BAD
:100690000BDBFB7903F01F02074997F907305B0971
:1006A000012000FA02F241F8232000BF0C37BD46BA
:1006B0005DF8047B704700BF00E100E080B483B0C8
:1006C00000AF0346FB7197F90730002B10DBFB7975
:1006D00003F01F02094997F907305B09012000FA6E
:1006E00002F2203341F82320BFF34F8FBFF36F8F07
:1006F00000BF0C37BD465DF8047B704700E100E0A9
:1007000080B483B000AF7860044A7B68C2F82434B8
:1007100000BF0C37BD465DF8047B70470080084081
:1007200080B500AF064B1B68002B02D0044B1B6842
:1007300098474AF6AA20FFF7E3FF00BF80BD00BF3D
:10074000843B002080B483B000AF7860044A7B68AB
:10075000136000BF0C37BD465DF8047B704700BFD7
:10076000843B002080B500AF0D20FFF7A7FF00BF3E
:1007700080BD80B500AF0D20FFF782FF00BF80BDB8
:1007800080B485B000AF786039607B6803F1047392
:10079000DA003B6813449B00FB60FB681B6818464B
:1007A0001437BD465DF8047B704780B485B000AF58
:1007B000786039607B6803F18063FB60FB683A68AE
:1007C0001A6000BF1437BD465DF8047B704780B5E2
:1007D00082B000AF03463960FB71FB79002B16D065
:1007E000FB79012B13D0FB79022B10D0FB79032B63
:1007F0000DD0FB79042B0AD0FB79052B07D0FB79B0
:10080000062B04D0FB79072B01D0FB79082BFA7952
:1008100013465B0013441B011C3303F1804303F5B3
:10082000082339681846FFF7ABFF03461846083718
:10083000BD4680BD80B582B000AF03463960FB7114
:10084000FB79002B16D0FB79012B13D0FB79022BFF
:1008500010D0FB79032B0DD0FB79042B0AD0FB7948
:10086000052B07D0FB79062B04D0FB79072B01D091
:10087000FB79082BFA7913465B0013441B010C33F8
:1008800003F1804303F5082301213A6801FA02F2DB
:1008900011461846FFF789FF00BF0837BD4680BDE7
:1008A00080B582B000AF0346FB710B46BB711346A7
:1008B0007B7101210C480AF0A3FB002304220C21C8
:1008C00000200CF0DFF9002301220D2100200CF0A4
:1008D000D9F9012304220B2101200CF0D3F900BF28
:1008E0000837BD4680BD00BF00550A0080B582B004
:1008F00000AF0346FB71FB79042B05D101230422D1
:100900000C2100200CF0BEF9FB79032B05D101234B
:1009100001220D2100200CF0B5F9FB79012B06D145
:10092000012307220B2101200CF0ACF900BF00BF0E
:100930000837BD4680BD80B584B000AF0346FB716B
:100940000023FB73FB79042B05D10C210020FFF75A
:100950003EFF0346FB73FB79032B05D10D210020DD
:10096000FFF735FF0346FB73FB79022B05D1092105
:100970000120FFF72CFF0346FB73FB7B1846103763
:10098000BD4680BD80B582B000AF0346FB71FB79E8
:10099000042B03D10C210020FFF74CFFFB79032B24
:1009A00003D10D210020FFF745FFFB79062B03D172
:1009B0000C210020FFF73EFFFB79012B04D10B2116
:1009C0000120FFF737FF00BF00BF0837BD4680BDDD
:1009D00080B483B000AF03463960FB7197F90730EC
:1009E000002B0ADB3B68DAB20C4997F90730520159
:1009F000D2B20B4483F800230AE03B68DAB208491C
:100A0000FB7903F00F03043B5201D2B20B441A7678
:100A100000BF0C37BD465DF8047B704700E100E085
:100A200000ED00E080B582B000AF78607B68013BEC
:100A3000B3F1807F01D301230FE00A4A7B68013BB9
:100A4000536007214FF0FF30FFF7C2FF054B002234
:100A50009A60044B07221A60002318460837BD46E7
:100A600080BD00BF10E000E080B483B000AF7860CC
:100A70004FF06043D3F8803E03F00103002B13D006
:100A80004FF06043D3F8003E03F00103002B0BD07E
:100A900000E000BF4FF060431B68002BF9D04FF01F
:100AA00060437A68D2B21A707B6818460C37BD462C
:100AB0005DF8047B7047000080B400AF4FF08043C6
:100AC00001225A64184BD3F8B030174A43F001039F
:100AD000C2F8B030144BD3F8E030134A43F00803A7
:100AE000C2F8E030114B1B68104A43F48053136086
:100AF0000D4BD3F8E0300C4A23F00803C2F8E03085
:100B0000094BD3F8B030084A23F00103C2F8B030E3
:100B1000074B1B68064A43F4F843136000BFBD4609
:100B20005DF8047B704700BF00400E403440054034
:100B3000A4310E4080B582B000AF0346FB71FB7953
:100B40001846FFF791FF034618460837BD4680BD9B
:100B500080B400AF00231846BD465DF8047B7047A3
:100B6000B0B588B000AF0023FB61012123480AF033
:100B700047FA22480AF0ECFAF861002304220C211B
:100B800004200CF07FF8012304220D2104200CF036
:100B900079F8012304220A2104200CF073F80123C0
:100BA00001220B2104200CF06DF8154B3C1D1D4655
:100BB0000FCD0FC495E8030084E8030001237B7484
:100BC000104BFB6001237B760023BB820123BB74A7
:100BD00000233B713B1D19460B480CF075F90A4B7D
:100BE00000229A67084B0F225A67052106480CF02D
:100BF00021F900BF2037BD46B0BD00BF0072040020
:100C0000A8E70000404B4C000000014080B483B0D6
:100C100000AF354BD3F8B030334A43F02003C2F86D
:100C2000B030324BD3F84034304A43F01003C2F8AE
:100C300040342E4BD3F844342C4A23F00303C2F83B
:100C400044342A4BD3F8F430284A23F47063C2F8B2
:100C5000F430264BD3F8F430244A43F48063C2F8CE
:100C6000F43015237B60204B10221A6600BF1E4B08
:100C7000D3F8903003F02003002BF8D01C4B1B68F6
:100C80001B4A43F001031360194BDB68184A43F019
:100C90008073D360174B40F2FF321A60164A7B68AC
:100CA0001361154B0222C3F8F020134B4FF48072EE
:100CB000C3F804234FF06043104AC3F8B02F4FF03D
:100CC00060430F4AC3F8802E4FF06043D3F8003ED4
:100CD0004FF0604243F00103C2F8003E00BF0C3702
:100CE000BD465DF8047B704700400E400080084020
:100CF000F0ED00E0001000E0000004E055CEACC5CF
:100D00000900010080B584B002AFFFF7D5FEFFF700
:100D10007DFF0122012102200BF0ACFB04211120F8
:100D20000BF0DEF8012119480AF06AF900237B6014
:100D300016480AF00DFA7860012115480AF060F9AA
:100D400000230122092101200BF09CFF01230193C4
:100D50000023009301230922092101200BF0F8FE52
:100D6000FFF7FEFE09480AF0F3F90246094BA3FB20
:100D700002239B091846FFF755FE0346002B00D0BF
:100D800000BE00BF0837BD4680BD00BF7000020036
:100D900000550A00D34D621080B586B000AFF860F0
:100DA000B96011461A460B46FB8013467B71FB68FF
:100DB000002B02D1124BFB6004E0BB68002B01D179
:100DC0000F4BBB600023FB8210E0FB8AFA681344E0
:100DD0001B7819460B480CF07FF90146FB8ABA686C
:100DE0001344CAB21A70FB8A0133FB82FA8AFB8869
:100DF0009A42EAD3002318461837BD4680BD00BF8B
:100E0000883B00200000014080B483B000AF3B600D
:100E10000346FB710B46BB7113467B7100231846DA
:100E20000C37BD465DF8047B704780B584B000AFD9
:100E300078607B68002B0CD000F01EF8F86000F0A2
:100E40001BF80246FB68D31A7A689A42F7D800BFAB
:100E500000E000BF1037BD4680BD000080B400AF89
:100E6000044B1B680133034A136000BFBD465DF8A5
:100E7000047B7047A000002080B400AF034B1B68C8
:100E80001846BD465DF8047B704700BFA0000020F7
:100E900080B400AF044B1B68DB685B681846BD4636
:100EA0005DF8047B704700BFA400002080B483B0CD
:100EB00000AF7860054B1B68DB687A685A6000BF3A
:100EC0000C37BD465DF8047B704700BFA4000020CE
:100ED00080B586B002AF786039600023FB600023E4
:100EE000BB607B6803F00303002B0BD07B6803F02F
:100EF00003023B681344043B3B607B68033323F0ED
:100F000003037B603A68002178680CF0F7F900F081
:100F10000DFA03461A46BB681344BB603A68BB68C7
:100F20009A4201D2BB68B3E05B4A7B6813607B687E
:100F30003A681A607B6804337B60584A7B681360A8
:100F40007B686C337B60564A7B6813607B68203318
:100F50007B60544A7B6813607B6844337B60524AF1
:100F60007B6813607B68F0337B60504A7B6813605A
:100F70007B6803F5A0637B604D4A7B6813607B68E8
:100F8000D0337B604B4A7B6813607B68C4337B60E3
:100F9000424B1B687A681A647B680C337B6008F0EC
:100FA0005BF93E4B1B6818464FF4C8634FF4CA62A6
:100FB000796802F0B3FD7B6803F5CA637B603E4A43
:100FC0007B6813607B6854337B60344B1B687A68A2
:100FD000DA607B6840337B60304B1B68DB68184607
:100FE00000F060FE2D4B1B68DB6803F114006423E6
:100FF0007422796802F092FD7B6874337B60274B22
:101000001B687A681A627B6838337B60234B1B68E5
:101010001B6A184603F0BAF8204B1B681B6A03F1E1
:1010200014004FF4C8634FF4CA62796802F076FD89
:101030007B6803F5CA637B60184B1B683433184622
:1010400002F032FE02F08EF9144B1B68243318466E
:1010500002F0ACFD114B1B681033184602F0A6FDE0
:101060007B680D4A12689B1A1A463B68934204D269
:101070007B68094A12689B1A0AE0104B009301230F
:10108000012201210020FFF7BFFE01F006FABB6834
:1010900018461037BD4680BDA8000020A4000020DF
:1010A000D4410020D0410020CC410020C841002084
:1010B000DC410020D8410020AC000020F93C0000B9
:1010C00080B588B000AF03460A46FB801346BB805C
:1010D0000023FB61614B1B68DB68BB615F4B1B68D6
:1010E0001B6A7B61BB69BA881A86BB691B8E23F0B9
:1010F00001039AB2BB691A8607F108034EF6602114
:10110000184602F00EFE10E0544B1B6834331846AC
:1011100002F0DEFD07F10803184602F012FE034656
:10112000002B02D06FF0170394E0BB691B78DBB291
:10113000002BE9D07B695B78DBB2002B3ED07B696A
:101140005B78DBB2092B04D07B695B78DBB20A2BBE
:1011500016D17B691B78DBB2022B06D9BB691B8ECB
:1011600043F001039AB2BB691A867B6900225A7068
:1011700000BFFFF78DFEF861FB69002B13D010E074
:10118000374B1B6810333749184602F045FC0346BD
:10119000002BD4D06FF01D00FFF788FE6FF01D0309
:1011A00058E0FB6956E009F0F3F9F861FB69002BA0
:1011B00001D0FB694EE045F65A234BE0BB691B7832
:1011C000DBB2012B02D06FF0020343E001210020CB
:1011D00001F006FB0346002B3AD1BB6914331846D5
:1011E00002F0B8FC38613B69002B06D100210020D9
:1011F00001F0F6FA6FF003032CE03B691433282268
:10120000002118460CF07AF83B691433FB607B69C7
:10121000FA88DA86F868BB881A04FB8813431946F3
:1012200002F0BAFD3969102000F09AFDF8610C4B0C
:101230001B6814334EF66021184601F0B9FA0021FC
:10124000002001F0CDFAFFF723FEF861FB6901E011
:101250006FF0220318462037BD4680BDA400002051
:10126000AC000020400D030080B584B000AF002327
:10127000FB60264B1B68DB68BB600121002001F08E
:10128000AFFA0346002B3AD1BB681433184602F07C
:1012900061FC78607B68002B06D10021002001F002
:1012A0009FFA6FF003032CE07B6814333B603B68CC
:1012B00000221A703B6801225A703B6800229A7023
:1012C0003B680022DA703B6801221A713B683122C8
:1012D0009A607968C82000F043FDF8600C4B1B68E9
:1012E00014334EF66021184601F062FA0021002006
:1012F00001F076FAFFF7CCFDF860FB6801E06FF0D3
:10130000220318461037BD4680BD00BFA400002050
:10131000AC00002080B500AF034B1B683433184687
:1013200002F0D6FC00BF80BDA400002080B483B0D2
:1013300000AF00237B607B6803F5B2537B607B6862
:1013400018460C37BD465DF8047B704780B584B005
:1013500000AF0346FB710023FB60FFF7D3FC01F0F5
:10136000B9FA0346FB60FB68002B01D0FB6853E031
:101370006420FFF75AFD00F017FB0346FB60FB6893
:10138000002B01D0FB6847E007F108034EF660210F
:10139000184602F0C6FC01F0B1FA0346FB60FB6898
:1013A000002B05DAFB6813F10C0F01D0FB6833E06A
:1013B00007F10803184602F0C4FC0346002B02D0D4
:1013C0006FF0180328E0FB6813F10C0FE3D0FB79F2
:1013D000312B03D1002000F083FA0CE0FB79712B54
:1013E00009D1022000F07CFA0346FB60FB68002B69
:1013F00001DAFB6810E0FB79184601F0C3FA0346F6
:10140000FB60FB68002B01DAFB6805E00448FFF78E
:1014100099F9FFF7AEF9FB6818461037BD4680BD55
:10142000F52C000090B587B000AF786007F10C0391
:10143000184600F05FF80346FB82B7F91630002B20
:1014400002D0B7F9163020E007F10C03023318463A
:1014500002F0B8FC0346043B9CB207F10C031846AB
:1014600002F0B0FC0346043B9BB21A462146786862
:1014700000F08EF80346FB82B7F91630002B02D03D
:10148000B7F9163001E0B7F9163018461C37BD46DB
:1014900090BD80B586B000AFF860B9601346FB80A0
:1014A000F86800F0E9F80346FB82B7F91630002B24
:1014B00002D0B7F9163019E0FB88002B14D0FB8856
:1014C00003339BB223F00303FB80F8880023002240
:1014D000B96800F011F90346FB82B7F91630002B0A
:1014E00002D0B7F9163001E0B7F9163018461837B0
:1014F000BD4680BD80B584B000AF78605C23FB73CF
:101500000023BB7304237B7300233B73BA7BFB7BF9
:101510001146184600F04CF903467B81B7F90A30B2
:10152000002B02D0B7F90A302CE03A7B7B7B1146C6
:10153000184600F085F903467B81B7F90A30002B85
:1015400002D0B7F90A301DE00121104800F09AF9E5
:1015500003467B81B7F90A30002B02D0B7F90A3075
:1015600010E00123042279680020FFF715FC0346F0
:101570007B81B7F90A30002B02D0B7F90A3001E0BD
:10158000B7F90A3018461037BD4680BD20A10700C4
:1015900080B588B000AF78600B467B8013463B80F7
:1015A0000023BB613B88033323F00303BB615D234E
:1015B000FB750023BB75BB697B75BB691B0A3B755B
:1015C000BA7DFB7D1146184600F0F2F80346FB8316
:1015D000B7F91E30002B02D0B7F91E3046E03A7D35
:1015E0007B7D1146184600F02BF90346FB83B7F9C3
:1015F0001E30002B02D0B7F91E3037E001211D4804
:1016000000F040F90346FB83B7F91E30002B02D0EF
:10161000B7F91E302AE07B88002B0FD07A8807F1BB
:101620000C0100230020FFF7B7FB0346FB83B7F94B
:101630001E30002B02D0B7F91E3017E07B68002B5C
:1016400012D0BB699AB27B88D31A9AB20123796807
:101650000020FFF7A1FB0346FB83B7F91E30002BE8
:1016600002D0B7F91E3001E0B7F91E301846203716
:10167000BD4680BD20A1070080B588B000AF78606E
:101680007C23FB770023BB7710237B7700233B77FA
:10169000BA7FFB7F1146184600F08AF803467B8329
:1016A000B7F91A30002B02D0B7F91A3020E03A7F90
:1016B0007B7F1146184600F0C3F803467B83B7F9D9
:1016C0001A30002B02D0B7F91A3011E0786807F110
:1016D000080101231022FFF75FFB03467B83B7F964
:1016E0001A30002B02D0B7F91A3001E0B7F91A30DE
:1016F00018462037BD4680BD80B586B000AFB960C2
:101700007B600346FB811346BB81FA89BB89134486
:10171000BB827C23FB740023BB74BB8A7B74BB8AB3
:101720001B0A9BB23B74BA7CFB7C1146184600F046
:101730003FF80346FB82B7F91630002B02D0B7F909
:10174000163031E03A7C7B7C1146184600F078F880
:101750000346FB82B7F91630002B02D0B7F91630DA
:1017600022E0FA8901230021B868FFF715FB034640
:10177000FB82B7F91630002B02D0B7F9163013E010
:10178000BB89002B0ED0BA89012300217868FFF7AE
:1017900003FB0346FB82B7F91630002B02D0B7F9E2
:1017A000163001E0B7F9163018461837BD4680BD2F
:1017B00080B588B000AF03460A46FB711346BB7183
:1017C0004CF25033BB611D4B1B6800221A64FB793D
:1017D0003B75BB797B75194B1A68136C591C1164E6
:1017E000BA699A4203D24FF6E973FB8320E007F10E
:1017F0000C0107F1140000230222FFF7CDFA034683
:10180000FB837B7B582B02D07B7B002B02D10023F8
:10181000FB830DE07B7B522B03D14FF6FE73FB83E2
:1018200006E07B7B542BD2D14FF6FF73FB83CEE7D0
:10183000B7F91E3018462037BD4680BDAC000020E9
:1018400080B584B000AF03460A46FB711346BB71F6
:10185000FB793B73BB797B7307F10C0000230222F9
:101860000021FFF799FA0346FB81B7F90E30002BF0
:1018700002D0B7F90E3001E0B7F90E301846103734
:10188000BD4680BD80B584B000AF78600B46FB706C
:10189000124B1B6800221A64104B1A68136C591CF7
:1018A00011647A689A4203D24FF6FF73FB810FE00E
:1018B00000237B73FB7807F10D0101220020FFF765
:1018C0006BFA0346FB817B7B552BE5D10023FB8123
:1018D000B7F90E3018461037BD4680BDAC00002069
:1018E00080B584B000AF786000233B7300237B7326
:1018F00007F10C031A460221144800F01DF90346B3
:10190000FB81B7F90E30002B1AD17B7B23F0030348
:10191000DBB27B737A7B7B68DBB21343DBB27B7316
:1019200007F10C031A460221084800F0A1F803460B
:10193000FB81B7F90E30002B02D0B7F90E3001E071
:10194000B7F90E3018461037BD4680BD000005417E
:1019500080B584B000AF78604CF25033BB60114B5F
:101960001B6800225A640F4B1A68536C591C51644F
:10197000BA689A4203D24FF6E973FB810CE07968AA
:10198000002000F055F90346FB81B7F90E30B3F1A2
:10199000FF3F00D1E7E700BFB7F90E301846103718
:1019A000BD4680BDAC00002080B584B000AF0023F0
:1019B0007B600023FB810A23BB81184B1B6800223C
:1019C0001A64164B1A68136C591C1164BA89934235
:1019D00003D94FF6E973FB811AE012233B724A23C5
:1019E0007B725C23BB720023FB72391D07F1080078
:1019F00000230422FFF7D0F90346FB81FB79582B23
:101A000002D10023FB8103E04FF6FF73FB81D8E78F
:101A1000B7F90E3018461037BD4680BDAC00002027
:101A200080B582B000AF12233B714A237B715C23E7
:101A3000BB710023FB713946381D00230222FFF7DA
:101A4000ABF97B78522B0DD07B78002BF3D1394644
:101A50003B1D981C00230222FFF79EF97B78582B30
:101A600002D0E8E700BF00E000BF0837BD4680BDF8
:101A700080B58AB000AFF8600B467A607B81742332
:101A800087F82730002387F826307B8987F82530B0
:101A90007B891B0A9BB287F8243007F11C03F96885
:101AA000184602F079F997F8262097F82730114662
:101AB0001846FFF77DFE03467B84B7F92230002BE2
:101AC00002D0B7F9223032E097F8242097F8253079
:101AD00011461846FFF7B4FE03467B84B7F922305F
:101AE000002B02D0B7F9223021E007F1140107F1F1
:101AF0001C0000230422FFF74FF903467B84B7F94B
:101B00002230002B02D0B7F9223010E07A8900236E
:101B100000217868FFF740F903467B84B7F922304B
:101B2000002B02D0B7F9223001E0B7F92230184675
:101B30002837BD4680BD000080B58AB000AFF86090
:101B40000B467A607B81542387F82730002387F87F
:101B500026307B8987F825307B891B0A9BB287F862
:101B60002430FB68DBB23B77FB681B0ADBB27B7778
:101B7000FB681B0CDBB2BB77FB681B0EDBB2FB7791
:101B800097F8262097F8273011461846FFF710FEE1
:101B900003467B84B7F92230002B02D0B7F92230FC
:101BA0003FE097F8242097F8253011461846FFF7B4
:101BB00047FE03467B84B7F92230002B02D0B7F9E9
:101BC00022302EE007F1140107F11C00002304224B
:101BD000FFF7E2F803467B84B7F92230002B02D0EE
:101BE000B7F922301DE000211048FFF74BFE0346F5
:101BF0007B84B7F92230002B02D0B7F9223010E0F5
:101C00007A89002379680020FFF7C6F803467B84B1
:101C1000B7F92230002B02D0B7F9223001E0B7F932
:101C2000223018462837BD4680BD00BF20A10700DE
:101C300080B584B000AF03463960FB714123FB736C
:101C40000023BB73BA7BFB791343BB73BA7BFB7B6B
:101C500011461846FFF7ACFD0346BB81B7F90C30BF
:101C6000002B02D0B7F90C3016E000210C48FFF72A
:101C700009FE0346BB81B7F90C30002B02D0B7F93F
:101C80000C3009E00023012239680020FFF784F8B6
:101C90000346BB81B7F90C3018461037BD4680BDEE
:101CA00020A1070080B584B000AF78600023FB73EB
:101CB0007B68002B02D16FF001034AE07B680022B1
:101CC0001A707B6800225A607B680833184601F05E
:101CD00065FE224B1B680833184601F05FFE1F4B60
:101CE0001B6818330021184601F087FE0346FB737A
:101CF00097F90F30002B02D06FF0270329E0174B24
:101D00001B681833184601F0F7FE7B6800221A732F
:101D10007B6810330021184601F06FFE0346FB7309
:101D200097F90F30002B02D06FF0270311E00B4B17
:101D30001B6814330021184601F05FFE0346FB7355
:101D400097F90F30002B02D06FF0270301E097F9CD
:101D50000F3018461037BD4680BD00BFAC000020D4
:101D600080B588B000AF03463960FB710023FB8368
:101D70000023BB61704B1B68DB687B613B680433ED
:101D80003B611022002138690BF0B8FAFB79772B00
:101D900050D0772B0DDC1B2B46D01B2B04DC102BDB
:101DA00015D0152B5ED094E01C2B52D0262B3ED0A4
:101DB0008FE0C82B4AD0C82B04DC922B3DD0A42B3B
:101DC0004DD086E0E92B3BD0F22B3CD081E03B6844
:101DD0001433BB60BB6804331521184601F0DCFFE7
:101DE000BB6808335549184601F0D6FFBB680C3371
:101DF0004FF00041184601F0CFFFBB6810334FF49D
:101E00003801184601F0C8FFBB6818334FF0004195
:101E1000184601F0C1FFBB6824330121184601F0C8
:101E2000BBFF2823FB8354E00323FB8351E00823FB
:101E3000FB834EE00123FB834BE00823FB8348E058
:101E40001C23FB8345E01C23FB8342E00C23FB8324
:101E50003FE0394B1B68DB6800221A7039E0012330
:101E6000FB8336E03B681433FB60FB681B78002B78
:101E700023D07B6993F820300A2B03D1FB68022220
:101E80005A700BE07B6993F82030082B03D1FB6874
:101E900001225A7002E0FB6801225A70FB6800229E
:101EA0009A70FB6832229A80FB6800229A71244B58
:101EB0001B68B3F8BE20FB681A81FB685B78022BB5
:101EC00004D11D4B1B68DB6800221A700A23FB83B8
:101ED00000BFFB8BC3F30B039BB21946386901F0BB
:101EE00045FF3B6901331A783B69013342F04002F8
:101EF000D2B21A703B690233FA791A70FB79152B4A
:101F000005D0FB79102B02D0FB791C2B05D10A4B95
:101F10001B682433184601F09FFE074B1B681033E3
:101F20003968184601F056FE012001F0B5F9BB6989
:101F300018462037BD4680BDA40000200400008064
:101F4000D841002080B58AB000AF786000237B6262
:101F50007B680433FB61002387F82330A74B1B68A1
:101F6000DB68BB61A54B1B681B6A7B617B689B7947
:101F7000FB74FB690C33184601F024FF03467B62B7
:101F80007B681433FB60F86901F01CFF0346C3F360
:101F90000B037B81786AFEF789FFFB7C262B00F020
:101FA0009E80262B0DDC152B73D0152B02DC102BFD
:101FB00057D083E11B2B00F08A801C2B00F09F8000
:101FC0007CE1B02B00F03F81B02B05DC492B00F009
:101FD000F880892B07D071E1C82B00F08880F22BA4
:101FE00000F014816AE17B6A002B40F05A81BB69E2
:101FF00001221A70FB690F331B7803F00403002BD6
:1020000013D07B6908225A707D4B1B68D3F8A4302B
:10201000002B00F046817A4B1B68D3F8A4307A6A13
:1020200092B20421104698473BE1FB690F331B78BD
:1020300003F00203002B00F034817B690A225A70FE
:102040006F4B1B68D3F8A430002B00F02A816C4B37
:102050001B68D3F8A4307A6A92B2022110469847DE
:102060001FE1FB690C33184601F0ACFE03467B62AE
:102070007B6A002B40F017817B6901221A70BB69D3
:1020800002221A705D4B1B682433184601F0F8FDDC
:1020900009E1FB690C33184601F094FE03467B62AC
:1020A0007B6A002B40F00181BB6993F82C30002B38
:1020B00003D0BB69012283F82D20504B1B682433C9
:1020C000184601F0DDFDBB6900229A62EDE0FB6974
:1020D0000C33184601F076FE03467B62EEE0FB69A6
:1020E0000C33184601F06EFE03467B62E6E0FB69A6
:1020F0000C33184601F066FE03467B62DEE0FB69A6
:102100000C33184601F05EFE03467B62BB69012278
:102110001A707B6900221A70002387F8233012E0BE
:10212000384B196897F8232013461B019B1A9B0014
:102130000B443C22002118460BF0E0F897F82330BE
:10214000013387F82330304B1B681B7B97F8232023
:102150009A42E5D3FB690F331B7803F00403002B8D
:1021600013D07B6908225A70254B1B68D3F8A43022
:10217000002B00F09C80224B1B68D3F8A4307A6AB5
:1021800092B204211046984791E0FB690F331B7807
:1021900003F00203002B00F08A807B690A225A7048
:1021A000174B1B68D3F8A430002B00F08080144B31
:1021B0001B68D3F8A4307A6A92B20221104698477D
:1021C00075E07B6A002B74D1BB695B6B002B70D010
:1021D000BB699B6B002B6CD0BB699A6B7B8993426C
:1021E00028BF13463B81BB695B6B3A89F968184687
:1021F0000BF079F8BB6900225A635AE0A400002072
:10220000D8410020CC410020E04100207B6A002B17
:1022100051D1BB695B6B002B4DD0BB699B6B002B15
:1022200049D0BB699A6B7B89934228BF13463B8197
:10223000BB695B6B3A89F96818460BF054F8BB69C7
:1022400000225A6337E0FB690C33184601F0BAFDEF
:1022500003467B62F86901F0B5FD0346C3F30B0347
:102260007B817B681433FB607B6A002B25D1BB69C3
:102270005B6B002B21D0BB699B6B002B1DD0BB6916
:102280009A6B7B89934228BF13463B81BB695B6B8A
:102290003A89F96818460BF026F8BB6900225A63A0
:1022A0000BE000BF0AE000BF08E000BF06E000BF8F
:1022B00004E000BF02E000BF00E000BFFB7C892B10
:1022C00039D0FB7C772B1AD1BB6993F83C30002BBB
:1022D00006D01B4B1B681433184601F00DFC2AE096
:1022E000184B1B681B69002B02D17B6A002B22D084
:1022F000134B1B681433184601F0FEFB1BE0FB7CFC
:10230000152B12D10E4B1B6893F85030DBB2152BF6
:1023100011D10B4B1B68002283F85020084B1B681F
:102320001433184601F0E8FB05E0054B1B68143335
:10233000184601F0E1FB002318462837BD4680BD52
:10234000AC000020D841002080B586B000AF034625
:10235000FB710023FB75354B1B68DB683B61334B1E
:102360001B681B6AFB60FB79DD2B0BD0DE2B02D0D8
:10237000CD2B0ED056E03B6901229A62012000F07D
:102380008BFF4FE03B6903229A62012000F0C0FFFF
:1023900048E03B6901221A70FB6800221A70002392
:1023A000FB751DE0224B1968FA7D13461B019B1A31
:1023B0009B000B443C22002118460AF09FFF1D4B56
:1023C0001968FA7D13469B0013449B010B444FF49C
:1023D000A072002118460AF091FFFB7D0133FB75C6
:1023E000154B1B681B7BFA7D9A42DBD3134B1B6892
:1023F000002283F8BC20114B1B680022DA60FB68C6
:1024000000221A733B6900221A7300F03FF83B69FF
:1024100020331022002118460AF070FF012000F03E
:1024200077FF00BF00BF1837BD4680BDA400002065
:10243000CC410020C8410020E0410020D8410020CC
:1024400080B582B000AF0420FEF750FA3B1D0E4964
:10245000184601F066FC0320FEF76DFA0346002BD8
:1024600004D0FFF7DDFA00BF002308E03B1D18464B
:1024700001F067FC0346002BEDD06FF01C031846FB
:102480000837BD4680BD00BF404B4C0080B500AF53
:102490000420FEF777FA00BF80BD80B500AF0022B0
:1024A00000210320FEF7FCF90120FEF71FFA0022AD
:1024B00001210420FEF7F4F90420FEF763FA00BFBF
:1024C00080BD80B582B000AF7860002005F01EF8B6
:1024D00000BF0837BD4680BD80B584B000AF7860CE
:1024E0000023FB600023FB720023BB7200237B727E
:1024F0007B681B8E03F00F03013B0C2B50D801A20D
:1025000052F823F039250000A1250000872500009E
:10251000532500006D250000A1250000A125000025
:10252000532500006D250000A1250000A125000015
:10253000532500006D2500007B6893F820301B01B7
:102540005AB27B6893F820305BB213435BB27B7264
:1025500027E07B6893F821301B015AB27B6893F81F
:1025600021305BB213435BB27B721AE07B6893F855
:1025700020301B015AB27B6893F821305BB21343C1
:102580005BB27B720DE07B6893F820301B015AB27E
:102590007B6893F822305BB213435BB27B7200E03E
:1025A00000BF7B7A202B25D0202B0FDC102B21D0D5
:1025B000102B06DC002B31DB022B1BDD082B19D086
:1025C0002CE0122B1CDD182B1AD027E0802B11D009
:1025D000802B06DC222B1AD0222B11DB282B16D0C5
:1025E0001CE0822B13D0822B0ADB882B05D0AA2B70
:1025F00003D013E00023FB7211E00823FB720EE00E
:102600000123FB727B6893F82330BB7207E002233F
:10261000FB727B6893F82330BB7200E000BF7B68DD
:1026200093F82C30FA7A9A4206D0BA7AFB7A11469D
:10263000184600F007F8F860FB6818461037BD46EA
:1026400080BD00BF80B586B000AF03460A46FB716F
:102650001346BB7100237B61524B1B68DB683B61F7
:102660000121002000F0BCF80346002B40F08880D8
:102670003B691433184601F06DFAF860FB68002BD3
:1026800006D10021002000F0ABF86FF0030385E0D5
:10269000FB681433BB60FB6814330A220021184620
:1026A0000AF02CFE3B69002283F82C203E4B1B686D
:1026B000152283F85020F9681520FFF751FB786147
:1026C000394B1B6814333949184600F071F8012062
:1026D00000F01EFEFEF7DCFB78617B69002B05D065
:1026E0000021002000F07CF87B6957E03B69002264
:1026F00083F82D20FB79002B05D10021002000F06C
:102700006FF800234AE03B691433184601F022FABF
:10271000F860FB68002B06D10021002000F060F873
:102720006FF003033AE0FB6814330A2200211846D5
:102730000AF0E4FD3B69FA7983F82C20BB68FA794A
:102740001A70BB68BA79DA70174B1B68152283F8C8
:102750005020F9681520FFF703FB7861124B1B68C6
:1027600014331249184600F023F80021002000F02D
:1027700037F8FEF78DFB78617B69002B07D102E00B
:102780006FF022030AE03B69012283F82D20FB79D8
:10279000092B02D0012000F0BBFD7B6918461837D9
:1027A000BD4680BDA4000020AC000020C027090069
:1027B00080B582B000AF786039603968786801F020
:1027C0002BF90346002B06D06FF01D00FEF76EFBC1
:1027D0006FF01D0300E0002318460837BD4680BD9A
:1027E00080B584B000AF03460A46FB711346BB7147
:1027F0000023FB60FB79012B19D0022B2DD0002B7D
:1028000056D1BB79012B08D1304B1B6818334EF6DB
:1028100060211846FFF7CCFF4EE0BB79002B4BD16F
:102820002A4B1B681833184601F066F944E0BB795F
:10283000012B08D1254B1B681C334EF6602118462E
:1028400004F06CFF3AE0BB79002B37D11F4B1B68BB
:102850001C33184601F050F930E0BB79012B12D13E
:102860001A4B1B6893F82820184B1B6842F0020291
:10287000D2B283F82820154B1B6820331449184620
:1028800000F0A4FD1CE0BB79002B19D10F4B1B6895
:1028900093F828200D4B1B6822F00202D2B283F875
:1028A00028200A4B1B682033184601F025F907E061
:1028B0006FF00103FB6004E000BF02E000BF00E036
:1028C00000BFFB6818461037BD4680BDAC00002035
:1028D000C027090080B500AF002201210120FDF7CB
:1028E000DFFF0120FEF74EF86420FEF79EFA01207C
:1028F000FDF7FCFF0023184680BD000080B582B0C4
:1029000000AF0023FB800023BB803B1D1946D12074
:1029100000F0FAF80346FB80B7F90630002B02DA24
:10292000B7F9063028E0BB8803F47F43B3F52B4F9B
:1029300020D1BB88DBB2F12B02D16FF008031BE082
:10294000BB88DBB2F22B02D16FF0090314E0BB8825
:10295000DBB2102B04D10A4B1B6801221A6007E07E
:10296000BB88DBB2112B03D1054B1B6802221A6016
:10297000002301E06FF00B0318460837BD4680BD09
:10298000AC00002080B586B000AF0346FB71002389
:10299000BB820023FB8200237B8207F114031A46CB
:1029A00002215648FFF764F80346FB82B7F9163058
:1029B000002B02DAB7F916309CE0FB79422B07D1E5
:1029C000FB791AB24E4B13431BB29BB2BB8206E09B
:1029D000FB791AB24B4B13431BB29BB2BB8207F17C
:1029E00014031946D22000F08FF80346FB82B7F992
:1029F0001630002B02DAB7F916307BE007F10C0332
:102A00004FF49671184601F08CF929E007F1120392
:102A10001946D12000F078F80346FB82B7F916304A
:102A2000002B02DAB7F9163064E0FB79422B05D1AE
:102A30007B8A4AF63232934207D119E07B8A1A46E2
:102A4000FB7943F42B439A4211D007F10C0318464B
:102A500001F077F90346002B02D06FF01B0349E029
:102A6000FB79312B04D0FB79712BCFD100E000BF73
:102A7000FB79312B02D0FB79712B39D107F10C0393
:102A800040F6B831184601F04CF907F11203194627
:102A9000D12000F039F80346FB82B7F91630002B3D
:102AA00002DAB7F9163025E07B8A03F47043B3F5F8
:102AB000204F11D17B8ADBB2232B02D16FF00D03A3
:102AC00018E07B8ADBB2F32B02D16FF00E0311E02A
:102AD0007B8ADBB2AA2B0AD007F10C03184601F05F
:102AE00030F90346002BD0D06FF01B0302E000BF8B
:102AF000B7F9163018461837BD4680BD3C00054171
:102B000000A0FFFF00ABFFFF80B588B000AF034619
:102B10003960FB710023FB8300237B610023BB61D1
:102B200000237B8200233B82FB79D12B11D0D12B58
:102B300008DC422B7AD0712B00F0C080312B00F0E2
:102B4000B080C8E0D42B45D0D52B17D0D22B0DD0D8
:102B5000C1E007F110031A4602216448FEF7ECFFBA
:102B60000346FB833A8A3B681A80B8E03A68022140
:102B70005F48FEF77DFF0346FB83B0E00023BB61A7
:102B800017E0BB6903F540435800BB695A003B6836
:102B900013441A460221FEF76BFF0346FB83B7F985
:102BA0001E30002B02DAB7F91E309AE0BB69013300
:102BB000BB61BB69B3F5006FE3D34AF649337B824F
:102BC00007F112031A4602214948FEF751FF034656
:102BD000FB8384E00023BB6117E0BB6903F5484336
:102BE0005800BB695A003B6813441A460221FEF79D
:102BF0003FFF0346FB83B7F91E30002B02DAB7F91B
:102C00001E306EE0BB690133BB61BB69B3F5006F79
:102C1000E3D34AF64F337B8207F112031A460221AF
:102C20003348FEF725FF0346FB8358E04AF642335C
:102C30007B6107F114031A4602212D48FEF718FFA5
:102C40000346FB83B7F91E30002B02DAB7F91E30BA
:102C500047E007F10C034FF49671184601F061F854
:102C600007F110031A4602212048FEF765FF0346CC
:102C7000FB83B7F91E30002B02DAB7F91E3030E0C3
:102C800007F10C03184601F05CF80346002B02D054
:102C90006FF01B0325E03B8A4AF632329342DFD1C4
:102CA0001DE04AF631337B6107F114031A46022115
:102CB0000F48FEF7DDFE0346FB8310E04AF6713352
:102CC0007B6107F114031A4602210948FEF7D0FE82
:102CD0000346FB8303E04FF6FE73FB8300BFB7F9A7
:102CE0001E3018462037BD4680BD00BF3C00054160
:102CF0003400054180B500AFFDF734FD002000F041
:102D0000CBFA00BF80BD000080B588B000AF0023C3
:102D1000FB6100233B830023FB750023BB82002360
:102D2000BB708B4B1B68DB683B610023FB7300238C
:102D3000BB7300237B7300233B730023FB72FF23D1
:102D4000BB72FF23FB76824B1B681033184600F0E2
:102D50006DFF0346FB737E4B1B682433184600F05F
:102D600065FF03467B733B6993F82D30002B16D02B
:102D7000FB7B002B0BD17B7B002B08D1BB7B002B7B
:102D800005D1FB7A002B02D13B7B002B07D0FFF74C
:102D900057FB0346FB75FB7D002B40F0CE80FB7B91
:102DA000002B38D06A4B1B686A4A5A66BB1C18460F
:102DB000FEF7CEFD0346BB82B7F91430002B04D1D9
:102DC000BB7803F00103002B1BD0614B1B685B6BCE
:102DD00023F00203002B00F0B280012000F084FAFF
:102DE0005D4B1B680833184600F0E6FD5A4B1B6824
:102DF00001225A60584B1B680833184600F0EFFD5B
:102E00009DE0534B1B681033184600F0F9FEF86143
:102E10000123FB7635E07B7B002B32D0BB1C1846B0
:102E2000FEF796FD0346BB82B7F91430002B04D1A0
:102E3000BB7803F00103002B1AD0454B1B685B6B7A
:102E400023F00203002B7CD0012000F04DFA424B0E
:102E50001B680833184600F0AFFD3F4B1B6801228A
:102E60005A603D4B1B680833184600F0B8FD68E017
:102E7000374B1B682433184600F0C2FEF861062366
:102E8000FB76FB7B002B0BD17B7B002B08D1BB7B24
:102E9000002B05D1FB7A002B02D13B7B002B3ED0CF
:102EA000FB6904337B607B689B78FB707B68013334
:102EB0001B781B09BB727B681B88C3F30B033B8326
:102EC000FB78152B08D1BB7A042B05D1012000F02B
:102ED0000BFA0320FDF7A9FF7B6810333A8B1946E4
:102EE0007868FEF7D6FAFB7E012B0BD1184B1B68D6
:102EF000DB681433F969184600F042FEF869FFF701
:102F0000E0FA20E0FB7E062B1DD1BB7A042B02D019
:102F1000BB7A052B17D1F86904F096FB13E03B69E7
:102F200093F82D30002B01D0FFF7B0FAF869FFF7C6
:102F3000C8FA012000F0C4F906E000BF04E000BFB9
:102F400002E000BF00E000BF2037BD4680BD00BFEB
:102F5000A4000020C3240000AC00002080B58AB08B
:102F600000AF0023FB8400233B620023FB610023AE
:102F70007B730023BB6000237B6000237B83994B22
:102F80001B68DB687B61974B1B681B6A3B610220F7
:102F9000FDF7D1FC0346002B1ED1002000F090F974
:102FA000FDF7E7FB904B1B685B68012B40F06181EC
:102FB000012000F0ADF98C4B1B680833184600F077
:102FC000FBFC894B1B6800225A60874B1B68083347
:102FD000184600F004FD4CE17B6993F82D30002B7E
:102FE00007D0FFF72DFA0346FB84FB8C002B40F043
:102FF000428107F10D031846FEF7AAFC03467B83C6
:103000007B8B002B40F039817B7B5BB2002B29DA74
:103010007B7B03F07F03DBB27B7307F108031A4667
:1030200004217248FEF788FD03467B837B8B002BCF
:1030300018D16F4B1B68D3F8B830002B08D06C4BFD
:103040001B68D3F8B830BA6890B2002200219847C4
:1030500080237B603B1D1A4604216648FEF708FD6D
:1030600003467B837B7B03F00803002B2ED10020DB
:1030700000F026F9FDF77DFB0220FDF75CFC03461E
:10308000002B02D0002000F007F9574B1B685B684B
:10309000012B12D1012000F03BF9534B1B68083380
:1030A000184600F089FC504B1B6800225A604E4BBA
:1030B0001B680833184600F092FC7B6993F82D30AA
:1030C000002B00F0DC80FFF7E1F9D8E0454B1B68EE
:1030D000184600F03FFDF861FB69002B03D100208A
:1030E00000F002F9D0E0FB6904333B62386AFEF776
:1030F00099F90346FB847B6993F82D30002B01D0AE
:10310000FFF7C4F9FB8C002B24D0002000F0D8F886
:10311000344B1B68F969184600F032FDFDF729FBB6
:10312000314B1B685B68012B40F0AB80012000F045
:10313000EFF82D4B1B680833184600F03DFC2A4B76
:103140001B6800225A60284B1B680833184600F0A1
:1031500046FC96E03B6A01331B781B09FB733B6A14
:103160009B78BB73BB7B1846FFF7EEF8FB7B042B09
:103170002AD1BB7B892B23D0BB7B102B20D0BB7BE0
:10318000152B1DD0BB7B1B2B1AD0BB7BC82B17D09C
:10319000BB7B1C2B14D0BB7BA42B11D0BB7B492B3E
:1031A0000ED0BB7B262B0BD0BB7B772B08D0BB7BF9
:1031B000922B05D0BB7BE92B02D0BB7BF22B03D13A
:1031C000F869FEF7BFFE1DE0FB7B022B1AD0FB7BEC
:1031D000012B17D0FB7B042B0ED1F86901F02CFEDC
:1031E00010E000BFA4000020AC0000203400054126
:1031F000D841002008000541FB7B052B02D1F8696E
:1032000000F0D8F8224B1B68F969184600F0B8FCAA
:103210000220FDF790FB0346002B02D1002000F0B6
:103220004FF8002000F074F8FDF7A3FA0220FDF734
:1032300082FB0346002B02D0002000F02DF8154B36
:103240001B685B68012B1ED1012000F061F8114B57
:103250001B680833184600F0AFFB0E4B1B680022BA
:103260005A600C4B1B680833184600F0B8FB00BFCF
:1032700009E000BF08E000BF06E000BF04E000BFB7
:1032800002E000BF00E000BF2837BD4680BD00BFA0
:10329000A4000020AC00002080B582B000AF7860B0
:1032A000054B1B685B6C054A1268796810469847A5
:1032B00000BF0837BD4680BDB0000020E0410020BF
:1032C00080B582B000AF7860054B1B689B6C054AE7
:1032D000126879681046984700BF0837BD4680BD20
:1032E000B0000020E041002080B582B000AF7860DF
:1032F000054B1B68DB6C054A1268796810469847D5
:1033000000BF0837BD4680BDB0000020E04100206E
:1033100080B582B000AF7860054B1B681B6D054A15
:10332000126879681046984700BF0837BD4680BDCF
:10333000B0000020E041002080B582B000AF78608E
:103340003960064B1B689B6D054A10683A687968BE
:103350009847034618460837BD4680BDB000002098
:10336000E041002080B500AF06490020FFF7E4FFF0
:1033700005490120FFF7E0FF04490220FFF7DCFFC9
:1033800000BF80BD5D2F0000092D0000D17A000034
:1033900080B584B000AFF860B9607A603B603B688C
:1033A0007A68B968F86800F03BF8034618461037A9
:1033B000BD4680BD80B582B000AF7860786800F00F
:1033C00083F9034618460837BD4680BD80B582B0F4
:1033D00000AF786039603968786800F01DFB0346FB
:1033E000002B06D06FF01D0004F090F86FF01D0365
:1033F00000E0002318460837BD4680BD80B582B086
:1034000000AF7860054B1B687A68DA62786804F070
:103410007DF800BF0837BD4680BD00BFAC0000206E
:1034200080B58CB000AFF860B9607A603B60002373
:10343000BB6200237B62A14B1B681B683B629F4BF6
:103440001B685B68FB61FA6813461B019B1A9B00B3
:103450001A46FB6913445B78DBB2002B07D1FB688B
:103460001946092005F0E6FA4FF0FF3322E13B6AE6
:103470001B6A1433184600F06DFBB861BB69002B62
:1034800008D1FB6819466FF0030005F0D3FA4FF03E
:10349000FF330FE1BB6914337B61BB6904333B61CC
:1034A00010220021386909F029FF1C2200217869C7
:1034B00009F024FFFA6813461B019B1A9B001A4669
:1034C000FB6913449B781B09DBB203F00F03022B4B
:1034D00029D17B690421184600F048FC7B6903F17F
:1034E0000C003B6804330422194609F0FCFE7B699A
:1034F00003F10A023B685B881946104600F036FC6F
:10350000FA6813461B019B1A9B001A46FB69134479
:103510009B7803F00F03012B02D13823FB852BE0AE
:103520002C23FB8528E07B690621184600F01EFC51
:103530007B6903F10C003B6808331022194609F03F
:10354000D2FE7B6903F10A023B685B88194610468C
:1035500000F00CFCFA6813461B019B1A9B001A46EC
:10356000FB6913449B7803F00F03012B02D14C231A
:10357000FB8501E04023FB85FA6813461B019B1A7B
:103580009B001A46FB691344DB7E03F00203002B09
:1035900008D07B687D2B01D8062200E00822FB8D35
:1035A0001344FB85FA6813461B019B1A9B001A46BD
:1035B000FB6913441A787B699A70FA6813461B01F9
:1035C0009B1A9B001A46FB691344DA787B69DA7010
:1035D0007B6904337A6892B21146184600F0C6FB44
:1035E0007B690833FA8D1146184600F0BFFBFB8D4E
:1035F0007A6813447B62FB8D1C3BFB85FB8D183383
:103600007A69134404337A68B968184609F06BFE86
:103610007B6A9BB2C3F30B039BB21946386900F077
:10362000A5FB3B6901331A783B69013342F0500234
:10363000D2B21A703B6A2433B969184600F0CAFA4C
:103640000120FFF729FE1E4B1968FA6813469B00FC
:1036500013449B010B4493F82210194B1868FA6825
:1036600013469B0013449B01034441F00402D2B271
:1036700083F82220124B1968FA6813469B00134402
:103680009B010B4430330F49184605F065F903469A
:10369000BB62BB6A002B07D0FB681946B86A05F00D
:1036A000C9F94FF0FF3305E0FB68184605F0ACF9A7
:1036B000B862BB6A18463037BD4680BDE041002085
:1036C000C8410020C027090080B58EB000AF7860E7
:1036D000002387F8373000233B630023FB628D4BC8
:1036E0001B685B68BB627B6814337B627B68043356
:1036F0003B623B6A02331B783B63386A00F062FB33
:103700000346C3F30B03FB833B6A0C33184600F0FC
:1037100059FB0346FB623B6B012B0AD17E4B1B68B6
:10372000D3F8A0307A6802F11401FA8B0020984790
:10373000EBE07B6A9B78184605F022F9B861B9691D
:10374000F86A05F077F97B6ADB7887F83730BB6970
:10375000002B06DB6F4B1B681B7B1A46BB69934231
:1037600002DB4FF0FF33D1E0BA6913461B019B1A0D
:103770009B001A46BB6A13447B617B6A043318467C
:1037800000F020FB03463B617B6A0833184600F0DB
:1037900019FB0346FB607B69DB7E5BB2002B29DBF8
:1037A0007B695B6B002B23D07B69DB7E03F002031C
:1037B000002B15D0FA681346DB009B1A9B001C3BBC
:1037C0007A6A134497F837201A707B695B6BB86983
:1037D000FA68013A796A11443A690132984707E078
:1037E0007B695B6BB869796AFA6811443A699847F2
:1037F00000238BE0474B1B689B7B012B0FD17B6920
:103800005B6A002B02D04FF0FF337FE07A6AFB68DF
:103810001A447B69DA617B693A695A6213E07B6911
:103820009B6A002B0CD07B69986A7A6AFB68134408
:103830003A69194609F057FD7B693A69DA6202E094
:103840007B690022DA627B699B7803F00F03022B0D
:1038500021D17B6A0A33184600F0B4FA03461A46AF
:103860007B69DA807B699B781B09DBB2022B09D16B
:103870007B6903F108007B6A0C330422194609F0C6
:1038800032FD08E07B6903F108007B6A0C331022EB
:10389000194609F028FD214B1968BA6913469B00A7
:1038A00013449B010B4493F822101C4B1868BA690F
:1038B00013469B0013449B01034421F00202D2B241
:1038C00083F82220154B1968BA6913469B001344EC
:1038D0009B010B4493F82310104B1868BA691346E8
:1038E0009B0013449B01034441F00102D2B283F8D0
:1038F00023200A4B1968BA6913469B0013449B01A5
:103900000B442C33184600F0F7F8002318463837DC
:10391000BD4680BDE0410020D8410020C8410020C4
:1039200080B500AF114B1B6893F8283003F00103FA
:10393000002B05D00D4B1B680C33184600F0DCF84B
:103940000A4B1B6893F8283003F00203002B05D0C4
:10395000064B1B682033184600F0CEF8034B1B685B
:10396000002283F8282000BF80BD00BFAC000020EB
:1039700080B483B000AF00237B607B6818460C37AF
:10398000BD465DF8047B704780B483B000AF7860BB
:1039900000BF0C37BD465DF8047B704780B483B030
:1039A00000AF78607B6800221A60002318460C374D
:1039B000BD465DF8047B704780B483B000AF78608B
:1039C00000BF7B681B68012BFBD07B6801221A605B
:1039D000002318460C37BD465DF8047B704780B461
:1039E00083B000AF78607B6800221A60002318461D
:1039F0000C37BD465DF8047B704780B483B000AFE0
:103A0000786039607B683A681A60002318460C3782
:103A1000BD465DF8047B704780B586B000AF786026
:103A200039602B4B1B681B687B617B683B613B6982
:103A30001B68002B06D03B691B685A1E3B691A6045
:103A4000002340E03B68002B10D104E07B69343355
:103A5000184600F03DF93B691B68002BF6D03B6926
:103A60001B685A1E3B691A6000232CE007F10C0307
:103A70003968184600F055F90CE07B693433184674
:103A800000F026F907F10C03184600F05AF9034636
:103A9000002B07D13B68002B05D03B691B68002B2E
:103AA000EBD000E000BF3B691B68002B02D03B68F5
:103AB000002B02D14FF0FF3305E03B691B685A1E13
:103AC0003B691A60002318461837BD4680BD00BF09
:103AD000E041002080B485B000AF78607B68FB6077
:103AE000FB681B685A1CFB681A60002318461437D1
:103AF000BD465DF8047B704780B485B000AF786048
:103B00007B68FB60FB681B685A1CFB681A6000231B
:103B100018461437BD465DF8047B704790B587B0F2
:103B200002AFF860B9607A603B60084B1B689C6923
:103B3000074B18683B6800937B68BA68F968A04730
:103B4000034618461437BD4690BD00BFB0000020A4
:103B5000E041002080B582B000AF7860064B1B6862
:103B6000DB69064A1268796810469847034618468A
:103B70000837BD4680BD00BFB0000020E0410020F6
:103B800080B582B000AF78603960064B1B681B6A55
:103B9000054A10683A687968984703461846083716
:103BA000BD4680BDB0000020E041002080B582B05D
:103BB00000AF7860054B1B689B6A054A12687968FC
:103BC0001046984700BF0837BD4680BDB0000020B2
:103BD000E041002080B582B000AF78603960064BCC
:103BE0001B68DB6A054A10683A687968984700BF25
:103BF0000837BD4680BD00BFB0000020E041002076
:103C000080B582B000AF7860064B1B681B6B064A1C
:103C10001268796810469847034618460837BD462B
:103C200080BD00BFB0000020E041002080B582B020
:103C300000AF7860064B1B685B6B064A12687968B8
:103C400010469847034618460837BD4680BD00BF5A
:103C5000B0000020E041002080B582B000AF786065
:103C6000054B1B689B6B054A12687968104698479C
:103C700000BF0837BD4680BDB0000020E0410020F5
:103C800080B582B000AF7860054B1B68DB6B054ADE
:103C9000126879681046984700BF0837BD4680BD56
:103CA000B0000020E041002080B582B000AF786015
:103CB000054B1B68DB68054A12687968104698470F
:103CC00000BF0837BD4680BDB0000020E0410020A5
:103CD00080B582B000AF7860054B1B685B69054A10
:103CE000126879681046984700BF0837BD4680BD06
:103CF000B0000020E041002080B400AF044B1B68FE
:103D0000DA6B0132DA6300BFBD465DF8047B7047B1
:103D1000AC00002080B500AFFDF7AEF803461846B2
:103D200080BD80B582B000AF78603960FFF7F2FFE8
:103D300002463B681A447B681A6000BF0837BD46DC
:103D400080BD90B585B000AF78607B681C68FFF7D8
:103D5000E1FF0346E31AFB60FB68002B01DA012355
:103D600000E0002318461437BD4690BD80B582B0F0
:103D700000AF78600B467B80054B1B685B6E054A85
:103D800010687A887968984700BF0837BD4680BDBB
:103D9000B0000020E041002080B582B000AF786024
:103DA0003960064B1B689B6E054A10683A68796853
:103DB000984700BF0837BD4680BD00BFB000002057
:103DC000E041002080B582B000AF7860064B1B68F0
:103DD000DB6E064A12687968104698470346184613
:103DE0000837BD4680BD00BFB0000020E041002084
:103DF00080B582B000AF7860064B1B681B6F064A27
:103E00001268796810469847034618460837BD4639
:103E100080BD00BFB0000020E041002080B48BB026
:103E200000AF0346FB710B46BB7113467B71FB79F8
:103E3000DB09DBB23B77FB799B09DBB203F00103C3
:103E4000DBB27B77FB795B09DBB203F00103DBB20A
:103E5000BB77FB791B09DBB203F00103DBB2FB7715
:103E6000FB79DB08DBB203F00103DBB287F820301B
:103E7000FB799B08DBB203F00103DBB287F821304A
:103E8000FB795B08DBB203F00103DBB287F8223079
:103E9000FB7903F00103DBB287F82330BB7903F031
:103EA0000103DBB23B75BB795B08DBB203F00103B6
:103EB000DBB27B75BB799B08DBB203F00103DBB29D
:103EC000BB75BB79DB08DBB203F00103DBB2FB752A
:103ED000BB791B09DBB203F00103DBB23B76BB7994
:103EE0005B09DBB203F00103DBB27B76BB799B0994
:103EF000DBB203F00103DBB2BB76BB79DB09DBB2DB
:103F0000FB76FA7E97F823305340DAB2B97E97F801
:103F100022304B40DBB25340DAB2797E97F8213041
:103F20004B40DBB25340DBB2FB74BA7E97F82230D1
:103F30005340DAB2797E97F821304B40DBB25340E0
:103F4000DAB2397E97F820304B40DBB25340DBB217
:103F5000BB747A7E97F821305340DAB2397E97F8F5
:103F600020304B40DBB25340DAB2F97DFB7F4B404F
:103F7000DBB25340DBB27B743A7E97F8203053407B
:103F8000DAB2F97DFB7F4B40DBB25340DAB2B97D48
:103F9000BB7F4B40DBB25340DBB23B747A7D7B7F0F
:103FA0005340DAB2B97DBB7F4B40DBB25340DAB24B
:103FB000F97DFB7F4B40DBB25340DAB2F97E97F8D4
:103FC00023304B40DBB25340DBB2FB733A7D3B7F87
:103FD0005340DAB2797D7B7F4B40DBB25340DAB29B
:103FE000B97DBB7F4B40DBB25340DAB2B97E97F864
:103FF00022304B40DBB25340DBB2BB733A7D3B7F98
:104000005340DAB2797D7B7F4B40DBB25340DAB26A
:10401000B97E97F822304B40DBB25340DBB27B7362
:104020003A7D3B7F5340DAB2F97E97F823304B401C
:10403000DBB25340DAB2B97E97F822304B40DBB2A4
:104040005340DBB23B737B79002B3AD13B7B03F0CF
:104050000103DAB27B7B5B00DBB203F00203DBB26D
:104060001343DAB2BB7B9B00DBB203F00403DBB289
:104070001343DAB2FB7BDB00DBB203F00803DBB2F5
:104080001343DAB23B7C1B01DBB203F01003DBB25B
:104090001343DAB27B7C5B01DBB203F02003DBB2BB
:1040A0001343DAB2BB7C9B01DBB203F04003DBB20B
:1040B0001343DAB2FB7CDB01DBB2134387F8273012
:1040C00037E0FB7C03F00103DAB2BB7C5B00DBB2C0
:1040D00003F00203DBB21343DAB27B7C9B00DBB25A
:1040E00003F00403DBB21343DAB23B7CDB00DBB248
:1040F00003F00803DBB21343DAB2FB7B1B01DBB234
:1041000003F01003DBB21343DAB2BB7B5B01DBB21B
:1041100003F02003DBB2134387F8273097F82730EA
:10412000DB4387F8273097F8273003F03F0387F801
:10413000273097F8273018462C37BD465DF8047BAA
:10414000704780B584B000AF7860FF23BB73002355
:10415000FB7313E0FB7B7A6813441878FB7B052B19
:104160000CBF01230023DBB21A46BB7B1946FFF7C5
:1041700055FE0346BB73FB7B0133FB73FB7B052BB7
:10418000E8D9BB7B18461037BD4680BD80B584B0EA
:1041900000AF78600023FB737B68002B02D16FF0C7
:1041A00001037DE07B6800221A707B6800225A6060
:1041B0007B6808331846FFF7F1FB7B6800221A730F
:1041C000394B1B68203300211846FFF716FC0346C5
:1041D000FB7397F90F30002B02D06FF027035FE0DD
:1041E000314B1B681C3300211846FFF706FC0346C1
:1041F000FB7397F90F30002B02D06FF027034FE0CD
:10420000294B1B68243300211846FFF7F6FB0346B1
:10421000FB7397F90F30002B02D06FF027033FE0BC
:10422000214B1B6820331846FFF766FC1E4B1B68AA
:104230001C331846FFF760FC7B68103300211846DA
:10424000FFF7DBFB0346FB7397F90F30002B02D01F
:104250006FF0270324E0144B1B681033002118462D
:10426000FFF7CBFB0346FB7397F90F30002B02D00F
:104270006FF0270314E00C4B1B680C330021184629
:10428000FFF7BBFB0346FB7397F90F30002B02D0FF
:104290006FF0270304E07B6800225A6297F90F3021
:1042A00018461037BD4680BDAC00002080B5A0B0D8
:1042B00000AF03463960FB710023A7F87E3000236E
:1042C000BB67002387F877300023A7F87C303B6872
:1042D00004333B67FB79113BDE2B00F24F8501A2D3
:1042E00052F823F0614600007D4D0000EF470000CA
:1042F000234800007D4D0000DB4C00009946000083
:104300007D4D0000934900007D4D00007D4D000073
:104310007D4D00002B4700007D4D00007D4D0000CD
:104320007D4D0000B14C00007D4D0000D14C0000DF
:10433000FB4A0000734A00007D4D00007D4D0000E7
:104340007D4D00001B4A00007D4D00007D4D0000AA
:104350007D4D00007D4D00007D4D00007D4D000035
:104360007D4D00009B4C0000A94C0000A94C0000B2
:104370007D4D00007D4D00007D4D00007D4D000015
:104380007D4D00007D4D00007D4D00007D4D000005
:104390007D4D00007D4D00007D4D00007D4D0000F5
:1043A000B94600007B4A0000354A0000F34A00008D
:1043B000D34A00007D4D00007D4D00007148000093
:1043C0007D4D00007D4D00007D4D000083480000C4
:1043D000AD470000474A00007D4D00007D4D0000C4
:1043E000294C00009F4A00009F4A0000854C0000B5
:1043F0007D4D0000E34A00006F4C00007D4D000041
:104400007D4D00007D4D00007D4D00007D4D000084
:104410007D4D00007D4D00007D4D00007D4D000074
:104420007D4D00007D4D00007D4D00007D4D000064
:104430007D4D00007D4D00007D4D00007D4D000054
:104440007D4D00007D4D0000934800003F4A000074
:10445000C34A0000254B00007D4D0000714700005D
:104460007D4D00007D4D00008B4900007D4D00001A
:10447000754600007D4D00007D4D00007D4D000023
:104480007D4D00007D4D00007D4D00005149000034
:10449000BD4900007D4D00007D4D0000614C0000D5
:1044A0007D4D0000E34C00007D4D00007D4D00007F
:1044B0007D4D00007D4D00007D4D00007D4D0000D4
:1044C0007D4D00007D4D00007D4D00007D4D0000C4
:1044D0007D4D00007D4D00007D4D00007D4D0000B4
:1044E0008D4A00007D4D00007D4D00007D4D000097
:1044F0007D4D00007D4D00007D4D0000C94B00004A
:104500007D4D0000074C0000454C0000534C00005E
:10451000374C00007D4D00007D4D00007D4D0000BA
:104520007D4D00007D4D0000134A00007D4D0000D0
:104530007D4D00008B4800007D4D0000B94C00000F
:104540007D4D00007D4D00007D4D00007D4D000043
:104550007D4D00007D4D00007D4D00007D4D000033
:104560007D4D0000FF4B00007D4D00007D4D0000A3
:10457000AD4A00007D4D00007D4D00007D4D0000E6
:104580007D4D00007D4D00007D4D00007D4D000003
:10459000CB4A0000514700007D4600007D4D0000E1
:1045A0007D4D00007D4D00007D4D00007D4D0000E3
:1045B0007D4D00007D4D00007D4D0000234A000030
:1045C0007D4D0000C14C00007D4D0000EB4C000013
:1045D0007D4D00007D4D00007D4D00007D4D0000B3
:1045E0007D4D00007D4D00007D4D00007D4D0000A3
:1045F0007D4D00007D4D00007D4D00007D4D000093
:104600007D4D00007D4D00007D4D00009F4A000063
:104610007D4D00007D4D00007D4D00007D4D000072
:104620007D4D00007D4D00004B4B00007D4D000096
:10463000C94C00007D4D0000B54A00007D4C0000D3
:104640007D4D00007D4D00002B4900009F4A000079
:10465000EB4A0000DB4A00007D4D0000934C000057
:104660003B681433BB60BB6800221A700123A7F8B3
:104670007E3088E32023A7F87E3084E33B68143340
:104680007B657B6D01221A807B6D40F62A125A8071
:104690000423A7F87E3076E33B6814337B617869A6
:1046A000C04B1B681B6A30330622194608F01BFEFC
:1046B0000623A7F87E3066E33B6814333B623B6A0F
:1046C0001B7887F8773097F87730A7F87C3097F821
:1046D0007730002B03D097F87730012B0DD13B6A50
:1046E00001331846FFF72DFD03461B021AB2B7F936
:1046F0007C3013431BB2A7F87C303B681433022292
:104700000021184608F0FAFD3B681433B7F87C2006
:1047100011461846FFF72AFB0223A7F87E30A14B6B
:104720001B681B6A40221A732DE33B681433BB617C
:10473000BB6901221A70BB6903225A70BB6902333C
:1047400001211846FFF712FB0423A7F87E301AE375
:104750003B6814333B653B6D00221A703B6D01339F
:104760009149184608F02DFE5023A7F87E300AE341
:104770003B681433BB63BB6B00211846FFF70CFB8F
:10478000BB6B043304211846FFF706FBBB6B0833F1
:1047900028211846FFF700FBBB6B0C33002118469D
:1047A000FFF7FAFA1023A7F87E30ECE23B681433E7
:1047B000BB62BB6A7D49184608F003FEBB6A203322
:1047C0007B49184608F0FDFDBB6A03F580730021A4
:1047D0001846FFF7E1FABB6A03F58273754918467C
:1047E00008F0EFFD4FF4AB73A7F87E30CBE23B68E7
:1047F0001433FB60FB682C3300211846FFF7B6FA30
:10480000FB6893F82B30002B03D1FB68002283F860
:104810002B20FB68002283F82B203223A7F87E3060
:10482000B1E23B6814333B613B6900229A703B69FB
:104830000222DA703B69022283F866203B696A3300
:104840004FF47A711846FFF7A7FA3B6903F16F003E
:10485000594B1B6804330622194608F044FD7523A2
:10486000A7F87E304F4B1B681B6A14221A738AE22A
:104870003B6814337B627B6A5B880B33A7F87E301E
:1048800081E2C423A7F87E307DE26323A7F87E305F
:1048900079E23B6814333B633B681B7DAB2B0FD144
:1048A0003B685B7D012B16D13B6B01211846FFF75E
:1048B0005DFA3B6B023301211846FFF757FA0AE015
:1048C0003B6B01211846FFF751FA3B6B0233002185
:1048D0001846FFF74BFA3B6B04330A211846FFF7E3
:1048E00045FA3B6B063304211846FFF73FFA3B6B52
:1048F00008330A211846FFF739FA3B6B0A330F21B8
:104900001846FFF733FA3B6B0C3314211846FFF7B8
:104910002DFA3B6B00229A730F23A7F87E30214BB0
:104920001B681B6A6A221A732DE23B681433FB660C
:10493000FB6E01211846FFF72FFAFB6E043340F29D
:10494000DC511846FFF712FA0623A7F87E301AE268
:104950003B681433FB63FB6B00211846FFF71CFA1E
:10496000FB6B04330A211846FFF716FAFB6B08337A
:1049700004211846FFF710FA0C23A7F87E30094BE4
:104980001B681B6A7B221A73FDE10C23A7F87E309B
:10499000F9E10823A7F87E30024B1B681B6A192235
:1049A0001A73F0E1A400002024E9000028E90000C7
:1049B00030E9000040E90000D84100203B68143392
:1049C0003B643B6C0E3300211846FFF7CFF93B6C7C
:1049D000103300211846FFF7C9F93B6C1233002150
:1049E0001846FFF7C3F93B6C143300211846FFF754
:1049F000BDF93B6C163300211846FFF7B7F93B6C45
:104A0000183300211846FFF7B1F91C23A7F87E30B0
:104A1000B9E10423A7F87E30B5E11623A7F87E306C
:104A2000B1E10323A7F87E30C64B1B681B6AC7227F
:104A30001A73A8E14FF4C773A7F87E30A3E10723E8
:104A4000A7F87E309FE13B681433FB62FB6ADB789A
:104A5000002B04D04FF4AF63A7F87E3093E1FB6ADC
:104A600004331846FFF7AEF903468633A7F87E30C5
:104A700089E18223A7F87E3085E12D23A7F87E30D7
:104A8000B04B1B681B6A41221A737CE12423A7F8F0
:104A90007E30AC4B1B681B6AA1221A7373E1386F1E
:104AA000FFF790F90346A7F87E306CE13E23A7F8A4
:104AB0007E3068E1386FFFF785F90346A7F87E304E
:104AC00061E10323A7F87E305DE10423A7F87E307F
:104AD00059E15E23A7F87E3055E14323A7F87E30E5
:104AE00051E12423A7F87E304DE18423A7F87E30DE
:104AF00049E10423A7F87E3045E13B681433FB61AC
:104B0000FB69032283F86A20FB69642283F86B2027
:104B1000FB696C3304211846FFF728F96E23A7F8C8
:104B20007E3030E13B6814337B637B6B0021184699
:104B3000FFF71CF97B6B02334FF499711846FFF7AE
:104B400015F90423A7F87E301DE13B681433BB66DA
:104B5000BB6E1B78013B0E2B00F2128101A252F8B2
:104B600023F000BFA14B0000A94B0000A14B0000A7
:104B7000A14B0000A14B0000A14B0000A14B000085
:104B8000A14B0000B94B0000A14B0000B14B00004D
:104B9000A14B0000A14B0000A14B0000A14B000065
:104BA0003423A7F87E300EE05423A7F87E300AE0C5
:104BB0006723A7F87E3006E0386FFFF703F9034656
:104BC000A7F87E3000BFDBE03B6814337B647B6C6E
:104BD00000211846FFF7CAF87B6C02330021184603
:104BE000FFF7C4F87B6C043314211846FFF7D4F8A0
:104BF0007B6C0F221A720923A7F87E30C3E01423BE
:104C0000A7F87E30BFE03B681433FB64FB6C0233D3
:104C10001846FFF7D7F80346A7F84A30B7F84A30E6
:104C20000433A7F87E30AEE0386FFFF7CBF80346C9
:104C3000A7F87E30A7E0386FFFF7C4F80346A7F85F
:104C40007E30A0E0386FFFF7BDF80346A7F87E304E
:104C500099E0386FFFF7B6F80346A7F87E3092E088
:104C6000386FFFF7AFF80346A7F87E308BE0386F58
:104C7000FFF7A8F80346A7F87E3084E0DF23A7F803
:104C80007E3080E0386FFFF79DF80346A7F87E304E
:104C900079E01B23A7F87E3075E0386FFFF792F8B4
:104CA0000346A7F87E306EE00423A7F87E306AE062
:104CB0000523A7F87E3066E00A23A7F87E3062E07D
:104CC0000423A7F87E305EE01523A7F87E305AE073
:104CD00040F20D53A7F87E3055E00223A7F87E304E
:104CE00051E00123A7F87E304DE03B6814337B662A
:104CF0007B6E1846FFF77CF838663B6E013B082B4D
:104D000040D801A252F823F02D4D0000354D00008F
:104D10003D4D0000494D00006B4D0000854D0000E9
:104D2000854D0000734D0000734D0000E123A7F88E
:104D30007E3022E0AD23A7F87E301EE04423A7F8A2
:104D40007E301AE0A40000203B681433FB65FB6D45
:104D500046331846FFF736F80346A7F85A30B7F837
:104D60005A304C33A7F87E3007E04323A7F87E3053
:104D700003E00423A7F87E3000BF03E000BF02E099
:104D800000BF00E000BF10220021386F08F0B6FA23
:104D9000B7F87E30C3F30B039BB21946386FFEF7AA
:104DA000E5FF3B6F01331A783B6F013342F040025D
:104DB000D2B21A703B6F0233FA791A70074B1B6834
:104DC000243339681846FEF705FF0120FEF764FA20
:104DD000BB6F18468037BD4680BD00BFA4000020D1
:104DE00080B485B000AF786039600023FB730FE0BA
:104DF000FB7B7A6813441B78BB73BB7B2C2B0BD0DB
:104E0000FB7B3A681344BA7B1A70FB7B0133FB735C
:104E1000FB7B172BECD900E000BFFB7B3A68134407
:104E200000221A70FB7B01337A681344184614374A
:104E3000BD465DF8047B70472DE9F041A8B002AF94
:104E40007860002387F87E30002387F87D300023C8
:104E500087F87C30002387F87B30002387F87A308E
:104E60000023C7F894300023C7F890300023A7F838
:104E7000783000237B6700233B670023A7F88E3040
:104E80000023A7F86E30002387F86D30002387F8E1
:104E90006C30002387F86B30002387F88D300023B7
:104EA00087F86A3000237B66174B1B681B6A3B66DA
:104EB000154B1B68DB68FB657B6804337B677B688D
:104EC0009B7987F87E307B6814333B67786FFEF7F9
:104ED00079FF0346C3F30B03A7F88E307B6F0C33C7
:104EE0001846FEF76FFF0346C7F89030064B1B6865
:104EF00024331846FEF79AFE034687F86C3097F87D
:104F00007E30113B02E000BFA4000020E72B01F23D
:104F1000968701A252F823F0D9520000775500007D
:104F20000F5B00004D5C00003F6E00003F6E000014
:104F30003F6E00001F570000475F00003F6E0000FB
:104F40003F6E00003F6E00003F6E00003F6E0000AD
:104F50003F6E00003F6E00003F6E0000516C00008D
:104F60003F6E00003F6E00003F6E00003F6E00008D
:104F70003F6E00003F6E0000F35E00003F6E0000D9
:104F80003F6E00003F6E00003F6E00003F6E00006D
:104F90003F6E00006B5A00003F6E0000B36A0000D5
:104FA0003F6E00003F6E00003F6E00003F6E00004D
:104FB0003F6E00003F6E00003F6E00004156000053
:104FC0003F6E00003F6E00003F6E00003F6E00002D
:104FD0003F6E00003F6E00008D5D0000815F0000AD
:104FE000236400000F6600003F6E00003F6E00006B
:104FF0003F6E0000F75500008B560000D5560000AC
:105000003F6E00003F6E00003F6E0000C75800007A
:105010003F6E00003F6E0000D5640000D5640000C4
:10502000036A0000955A00003F6E00003F6E0000CA
:105030003F6E00003F6E0000796800007968000054
:105040003F6E00003F6E00003F6E00003F6E0000AC
:105050003F6E00003F6E0000DD610000A9630000AC
:105060003F6E0000C76500003F6E00003F6E00000D
:105070003F6E00003F6E00003F6E0000035C0000CA
:10508000176900003F6E00003F6E00003F6E000099
:105090003F6E0000896D00003F6E0000AD550000BE
:1050A0003F6E0000ED5200003F6E00003F6E0000BA
:1050B0003F6E00003F6E00003F6E00003F6E00003C
:1050C0003F6E00003F6E00003F6E00003F6E00002C
:1050D0003F6E00003F6E0000256C00003F6E000038
:1050E0003F6E00003F6E00003F6E00003F6E00000C
:1050F0003F6E00003F6E00003F6E00003F6E0000FC
:105100003F6E00003F6E00003F6E00003F6E0000EB
:105110003F6E00003F6E00003F6E00003F6E0000DB
:105120003F6E00003F6E00003F6E00003F6E0000CB
:105130003F6E00003F6E00003F6E00003F6E0000BB
:105140003F6E00003F6E0000CB6800003F6E000025
:105150003F6E00003F6E00008D5D00001D5F00008F
:105160003F6E00003F6E00004F6B00003F6E00007E
:105170003D6B00003F6E00003F6E00008F6400003A
:10518000176700003F6E00003F6E00003F6E00009A
:105190003F6E00003F6E00003F6E00003F6E00005B
:1051A0003F6E00003F6E00003F6E00003F6E00004B
:1051B0003F6E00003F6E00003F6E00003F6E00003B
:1051C0003F6E00009D6C00003F6E00003F6E0000CF
:1051D0003F6E00003F6E00003F6E0000BF5A0000AF
:1051E000E55A00003F6E00003F6E00003F6E000079
:1051F0006D5F00003F6E00003F6E00003F6E0000DC
:10520000B96D00001B6E00003F6E00003F6E000095
:105210003F6E00003F6E00003F6E00003F6E0000DA
:105220003F6E00003F6E00003F6E00003F6E0000CA
:105230003F6E00003F6E00003F6E00003F6E0000BA
:105240003F6E00003F6E00003F6E00003F6E0000AA
:105250003F6E00003F6E00003F6E00005966000088
:105260003F6E0000976B0000976B0000075A00002C
:10527000F16A00003F6E00003F6E00003F6E0000CC
:105280004D650000A5680000B95200007F6900006C
:10529000AB690000F76D00005F5800003F6E000032
:1052A0003F6E00003F6E00003F6E00003F6E00004A
:1052B0003F6E0000AF5E0000B74B1B689B6D002B7C
:1052C00001F0BF85B44B1B689B6DD7F8902092B25C
:1052D0001046984701F0B5BDD7F89030002B41F04B
:1052E000B2853B6E02221A7001F0ADBD0023C7F8F3
:1052F00088300023C7F884300023C7F880303B6F24
:10530000BB64BB6C1B7887F86A30A44B1A6897F8AB
:105310006A30342101FB03F313441B6B002B16D1BD
:105320009E4B1A6897F86A30342101FB03F313444B
:105330001B68C7F88830994B1A6897F86A3034218F
:1053400001FB03F313445B68C7F8843020E0934B00
:105350001A6897F86A30342101FB03F313440C33C5
:10536000C7F888308D4B1A6897F86A30342101FBF2
:1053700003F313441433C7F88430884B1A6897F842
:105380006A30342101FB03F313441C33C7F8803027
:10539000D7F88830002B09D008220021D7F88800E0
:1053A00007F0ACFFD7F8883000225A60D7F8843075
:1053B000002B09D008220021D7F8840007F09EFFB7
:1053C000D7F8843000225A60D7F88030002B09D0FB
:1053D00008220021D7F8800007F090FFD7F880302E
:1053E00000225A60B7F88E30002B75D0002387F862
:1053F0008D306AE0BB6C5B68002B1FD0BB6C5968BA
:10540000674B186897F88D2013461B019B1A9B0069
:1054100003441B7821FA03F303F00103002B0DD0A2
:10542000D7F888305B685A1CD7F888305A6097F8EC
:105430008D30D7F88810184602F088F9BB6CDB680D
:10544000002B1FD0BB6CD968554B186897F88D207E
:1054500013461B019B1A9B0003441B7821FA03F39C
:1054600003F00103002B0DD0D7F884305B685A1C81
:10547000D7F884305A6097F88D30D7F884101846E2
:1054800002F064F9BB6C5969454B186897F88D2098
:1054900013461B019B1A9B0003441B7821FA03F35C
:1054A00003F00103002B0BD03E4B196897F88D20B9
:1054B00013469B0013449B010B44012283F83420C4
:1054C00097F88D30013387F88D30374B1B681B7B85
:1054D00097F88D209A428DD3304B1A6897F86A302E
:1054E000342101FB03F313441B6B002B01F0AD844B
:1054F0002A4B1A6897F86A30342101FB03F31344EE
:105500001C6B264B1A6897F86A30342101FB03F3B1
:10551000134403F10C00214B1A6897F86A303421C8
:1055200001FB03F3134403F114051C4B1A6897F8AD
:105530006A30342101FB03F3134403F11C02D7F852
:1055400090302946A047154B1A6897F86A303421E5
:1055500001FB03F3134400221A63104B1A6897F8F7
:105560006A30342101FB03F31344002283F82C201A
:10557000002301F08BBED7F89030002B41F06784F8
:105580003B6E03221A70FB6D1B8E43F001039AB22F
:10559000FB6D1A8601F05BBCD8410020DC41002085
:1055A000CC410020C8410020E0410020D7F89030D5
:1055B000002B41F04E843B6E5B6A002B01F0498466
:1055C0003B6E9B6A002B01F044843B6E9A6AB7F8ED
:1055D0008E30934228BF1346A7F878303B6E5B6A43
:1055E000B7F87820396F184607F07DFE3B6E002231
:1055F0005A6201F02EBCD7F89030002B41F02B847A
:105600003B6E5B6A002B01F026843B6E9B6A002B8D
:1056100001F021843B6E9A6AB7F88E30934228BF1E
:105620001346A7F878303B6E5B6AB7F87820396F7D
:10563000184607F058FE3B6E00225A6201F00BBC80
:10564000D7F89030002B41F008843B6E5B6A002B4A
:1056500001F003843B6E9B6A002B01F0FE833B6EDE
:105660009A6AB7F88E30934228BF1346A7F878306D
:105670003B6E5B6AB7F87820396F184607F033FE47
:105680003B6E00225A6201F0E8BBD7F89030002B45
:1056900041F0E5833B6E5B6A002B01F0E0833B6EDB
:1056A0009B6A002B01F0DB833B6E9A6AB7F88E3061
:1056B000934228BF1346A7F878303B6E5B6AB7F871
:1056C0007820396F184607F00EFE3B6E00225A62B2
:1056D00001F0C5BBD7F89030002B41F0C2833B6E80
:1056E0005B6A002B01F0BD833B6E9B6A002B01F0CF
:1056F000B8833B6E9A6AB7F88E30934228BF134640
:10570000A7F878303B6E5B6AB7F87820396F184697
:1057100007F0E9FD3B6E00225A6201F0A2BBD7F808
:105720009030002B41F09F833B6E5B6A002B01F0B1
:105730009A833B6E9B6A002B01F095833B6E93F836
:105740002C30042B5AD13B6E5B6A002B00F0828018
:105750003B6E9B6A002B7DD0B7F88E203B6E9B6A18
:105760009A4203D33B6E9B6A9BB200E08623A7F864
:1057700078303B6F1A783B6E5B6A92B21A803B6F4F
:105780005A783B6E5B6A92B25A803B6E5B6A181D18
:105790003B6F48332222194607F0A5FD3B6E5B6A3A
:1057A00003F126003B6F42330622194607F09BFDAA
:1057B0003B6E5B6A3A6F92F86C2083F82C203B6E4C
:1057C0005B6A03F12D003B6F02334022194607F05C
:1057D0008AFD3B6E5B6A03F16D003B6F6E33042202
:1057E000194607F080FD3B6E5B6A03F171003B6F69
:1057F0007E331022194607F076FD2BE03B6E93F8BE
:105800002C30072B26D13B6E5B6A002B22D03B6EDF
:105810009B6A002B1ED0B7F88E203B6E9B6A9A4283
:1058200003D33B6E9B6A9BB200E0F223A7F878306B
:105830003B6E5B6A18463B6F7A330222194607F0CB
:1058400052FD3B6E5B6A981C3B6F9F33F0221946FA
:1058500007F049FD3B6E00225A6201F004BBD7F805
:105860009030002B41F001833B6E5B6A002B25D00A
:105870003B6E9B6A002B21D03B6E93F82C30092B9A
:105880001CD13B6E5B6A002B18D03B6E9B6A002BD1
:1058900014D0B7F88E203B6E9B6A9A4203D33B6EBE
:1058A0009B6A9BB200E08623A7F878303B6E5B6A68
:1058B000B7F87820396F184607F015FD3B6E0022C7
:1058C0005A6201F0D2BAD7F89030002B41F0CF8263
:1058D0003B6E5B6A002B01F0CA823B6E9B6A002B19
:1058E00001F0C5823B6E93F82C30042B5AD13B6EED
:1058F0005B6A002B00F082803B6E9B6A002B7DD0A0
:10590000B7F88E203B6E9B6A9A4203D33B6E9B6A2C
:105910009BB200E08623A7F878303B6F03F17E024C
:105920003B6E5C6A1046FEF74DFA034623803B6FE0
:1059300003F128023B6E5C6A1046FEF743FA034609
:1059400063803B6E5B6A0433396F2222184607F08E
:10595000CAFC3B6E5B6A03F126003B6F22330622D2
:10596000194607F0C0FC3B6E5B6A03F12D003B6FEC
:105970002A334022194607F0B6FC3B6E5B6A03F1FE
:105980006D003B6F6A330422194607F0ACFC3B6E96
:105990005B6A03F171003B6F6E331022194607F00A
:1059A000A2FC2BE03B6E93F82C30062B26D13B6EED
:1059B0005B6A002B22D03B6E9B6A002B1ED0B7F88F
:1059C0008E203B6E9B6A9A4203D33B6E9B6A9BB2CE
:1059D00000E08623A7F878303B6E5B6A18463B6F81
:1059E0007E330222194607F07EFC3B6E5B6A981CF0
:1059F0003B6F8033C022194607F075FC3B6E0022D6
:105A00005A6201F034BA7B6F05331B78032B10D137
:105A1000B04B1B685B6A002B0BD0AE4B1B685B6AFC
:105A2000D7F8902090B27A6F0532127811469847D5
:105A300014E07B6F05331B78042B0FD1A54B1B683B
:105A40009B6A002B0AD0A34B1B689B6AD7F8902057
:105A500090B27A6F053212781146984700210220E1
:105A6000FCF7BEFE002301F011BC9A4B1B68D3F873
:105A70009030002B01F0FD81964B1B68D3F89030DD
:105A8000D7F8902090B2B7F88E20396F984700234E
:105A900001F0FCBB8F4B1B68D3F88C30002B01F05E
:105AA000EA818C4B1B68D3F88C30D7F8902090B2E9
:105AB000B7F88E20396F9847002301F0E7BB854B7C
:105AC0001B68DB6F002B01F0D881824B1B68DB6FFA
:105AD000D7F8902090B2B7F88E20396F98470023FE
