:10000000000008200502000031020000310200005B
:100010003102000031020000310200003102000014
:100020003102000031020000310200003102000004
:10003000310200003002000031020000190F000000
:1000400031020000310200003102000031020000E4
:1000500031020000310200003102000031020000D4
:1000600031020000310200003102000031020000C4
:1000700031020000E10700003102000031020000FF
:1000800031020000310200003102000031020000A4
:100090003102000031020000310200003102000094
:1000A0003102000031020000310200003102000084
:1000B0003102000031020000310200003102000074
:1000C0003102000031020000310200003102000064
:1000D0003102000031020000310200003102000054
:1000E0003102000031020000310200003102000044
:1000F0003102000031020000310200003102000034
:100100003102000031020000310200003102000023
:100110003102000031020000310200003102000013
:100120003102000031020000310200003102000003
:1001300031020000310200003102000031020000F3
:1001400031020000310200003102000031020000E3
:1001500010B5054C237833B9044B13B10448AFF301
:1001600000800123237010BD8000002000000000EB
:1001700020DD000008B5034B1BB103490348AFF372
:10018000008008BD000000008400002020DD000089
:10019000154B002B08BF134B9D46A3F5803A002159
:1001A0008B460F461348144A121A0CF097F80F4B5F
:1001B000002B00D098470E4B002B00D09847002012
:1001C000002104000D000D48002802D00C48AFF3B8
:1001D00000800CF045F82000290000F049FA0CF0EE
:1001E0002BF800BF000008000000082000000000FD
:1001F0000000000080000020D0410020000000002E
:1002000000000000064880470649074A074B9A420B
:10021000BEBF51F8040B42F8040BF8E7FFF7B8FF34
:10022000410300002CDD00000000002080000020C1
:10023000FEE700BF80B483B000AF334BD3F89430F7
:1002400003F00703023B042B49D801A252F823F024
:10025000750200006D02000065020000D50200007A
:100260007D020000294B1B687B603CE04FF400439B
:100270007B6038E0264B1B687B6034E0224B9B6838
:100280001B0C03F01F03073B072B1FD801A252F8DA
:1002900023F000BFB5020000CD020000CD02000037
:1002A000CD020000BB020000CD020000C102000030
:1002B000C7020000174B7B600BE0174B7B6008E028
:1002C000164B7B6005E0164B7B6002E000237B60F1
:1002D00000BF08E0134B1B685B087B6003E0114B19
:1002E0001B687B6000BF084BD3F800311B0A03F08A
:1002F0001F0301337A68B2FBF3F318460C37BD468F
:100300005DF8047B704700BF00400E4004000020F1
:10031000000000200024F4000048E801006CDC022A
:1003200080F0FA020800002080B400AF034B1B6885
:100330001846BD465DF8047B704700BF00000020F2
:1003400080B400AF074B084A9A60064BD3F8883058
:10035000044A43F47003C2F8883000BFBD465DF81C
:10036000047B704700ED00E00000000080B400AFA7
:100370004FF400431846BD465DF8047B704780B4D7
:1003800000AF4FF47A731846BD465DF8047B7047A2
:1003900080B400AF034B1B681846BD465DF8047B74
:1003A000704700BF0400002080B500AF0249032061
:1003B00003F044FB00BF80BDD906000080B588B0C3
:1003C00004AF0023FB60674BBB606FF07F437B6033
:1003D000644B3B600021062000F0D4FEF860FB680F
:1003E000002B05D0F96860480BF080FFFB68B4E093
:1003F0005E480BF07BFFFFF7D7FF14225C4901201A
:1004000009F0C8FEF860FB68002B05D0F968594870
:100410000BF06CFFFB68A0E0554957480BF066FFF6
:10042000391D07F1080200230393002302930023E0
:1004300001933B4600930B460021042009F0CAFDBE
:10044000F860FB68002B05D0F9684C480BF04EFFB4
:10045000FB6882E0BB68D9B2BB681B0ADAB2BB6832
:100460001B0CD8B2BB681B0E0093034644480BF02C
:100470003DFF042302936423019300230093002390
:10048000002202213F480AF07BF8F860FB68002B4D
:1004900005D0F9683C480BF029FFFB685DE03B485C
:1004A0000BF024FF00F088F8F860FB68002B01D007
:1004B000FB6852E002F014FD35480BF017FF354899
:1004C0000BF014FF344800F00EFD00F0A1FFF860BF
:1004D000FB68002B05D0F96830480BF007FFFB687C
:1004E0003BE02F480BF002FF43F698212D4800F027
:1004F0004DFDF860FB68002B04DBFB6843F6982297
:10050000934205DDF96828480BF0F0FEFB6824E013
:1005100026480BF0EBFE312001F07AF8F860FB681A
:10052000002B05D0F96822480BF0E0FEFB6814E0D0
:10053000142200210E480BF0D1FE14220C49012098
:1005400009F028FEF860FB68002B01D0FB6804E08E
:10055000074918480BF0CAFEFB6818461037BD461D
:1005600080BD00BFC0A80A01F0D2000028D300005F
:10057000C00000204CD3000084D30000A0D30000B2
:10058000C8D30000E8D30000F4D300001CD400005E
:1005900034D400004CD40000905F010080D40000EF
:1005A000B0D40000D4000020D0D40000FCD400005F
:1005B0001CD5000048D5000080B582B000AF0023F4
:1005C0007B6000F019FF1C4B1B78012B14D107F046
:1005D000D5FB78607B68002B05D0796817480BF055
:1005E00085FE7B6823E016480BF080FE15480BF073
:1005F0007DFE114B00221A700F4B1B78022B07D186
:100600000D4B00221A7010480BF070FE7B680EE054
:10061000094B1B78032BD4D1074B00221A7009F029
:10062000ABFD7860796809480BF060FE7B6818467E
:100630000837BD4680BD00BFBC0000206CD500005F
:10064000ACD50000D0D50000F0D5000010D60000D9
:1006500080B500AF00F0D0FE044B1B78002BF9D022
:10066000024B00221A7000BF00BF80BDBC000020FA
:1006700080B582B000AF43F69821144800F086FCA4
:1006800078607B68002B04DB7B6843F698229342FA
:1006900001DD7B6815E0312000F0BAFF78607B68EF
:1006A000002B05D079680A480BF020FE7B6808E033
:1006B00008480BF01BFEFFF781FE7860FFF7C8FFCC
:1006C0007B6818460837BD4680BD00BFD4000020B7
:1006D00040D6000074D6000080B582B000AF03465B
:1006E0003960FB713B68002B14D1FB79592B02D088
:1006F0005A2B07D019E00E4B01221A700D480BF04F
:10070000F5FD11E00A4B02221A700B480BF0EEFDCA
:1007100000BF09E0064B03221A703B68184607F039
:100720000DFA06480BF0E2FD00BF0837BD4680BD5C
:10073000BC00002098D60000C8D60000FCD60000FF
:1007400080B483B000AF0346FB7197F90730002BEC
:100750000BDBFB7903F01F02074997F907305B09B0
:10076000012000FA02F241F8232000BF0C37BD46F9
:100770005DF8047B704700BF00E100E080B483B007
:1007800000AF0346FB7197F90730002B10DBFB79B4
:1007900003F01F02094997F907305B09012000FAAD
:1007A00002F2203341F82320BFF34F8FBFF36F8F46
:1007B00000BF0C37BD465DF8047B704700E100E0E8
:1007C00080B483B000AF7860044A7B68C2F82434F8
:1007D00000BF0C37BD465DF8047B704700800840C1
:1007E00080B500AF064B1B68002B02D0044B1B6882
:1007F00098474AF6AA20FFF7E3FF00BF80BD00BF7D
:100800006C3B002080B483B000AF7860044A7B6802
:10081000136000BF0C37BD465DF8047B704700BF16
:100820006C3B002080B500AF0D20FFF7A7FF00BF95
:1008300080BD80B500AF0D20FFF782FF00BF80BDF7
:1008400080B485B000AF786039607B6803F10473D1
:10085000DA003B6813449B00FB60FB681B6818468A
:100860001437BD465DF8047B704780B485B000AF97
:10087000786039607B6803F18063FB60FB683A68ED
:100880001A6000BF1437BD465DF8047B704780B521
:1008900082B000AF03463960FB71FB79002B16D0A4
:1008A000FB79012B13D0FB79022B10D0FB79032BA2
:1008B0000DD0FB79042B0AD0FB79052B07D0FB79EF
:1008C000062B04D0FB79072B01D0FB79082BFA7992
:1008D00013465B0013441B011C3303F1804303F5F3
:1008E000082339681846FFF7ABFF03461846083758
:1008F000BD4680BD80B582B000AF03463960FB7154
:10090000FB79002B16D0FB79012B13D0FB79022B3E
:1009100010D0FB79032B0DD0FB79042B0AD0FB7987
:10092000052B07D0FB79062B04D0FB79072B01D0D0
:10093000FB79082BFA7913465B0013441B010C3337
:1009400003F1804303F5082301213A6801FA02F21A
:1009500011461846FFF789FF00BF0837BD4680BD26
:1009600080B582B000AF0346FB710B46BB711346E6
:100970007B71012115480AF0DBFA002304220C21C7
:1009800000200BF0BDF90C2100200BF04FFA0346BC
:100990007B71002301220D2100200BF0B1F90D2104
:1009A00000200BF043FA03467B71012304220B2144
:1009B00001200BF0A5F90B2101200BF037FA0346BB
:1009C0007B7100BF0837BD4680BD00BF00550A00DF
:1009D00080B582B000AF0346FB71FB79042B05D1D3
:1009E000012304220C2100200BF08AF9FB79032B50
:1009F00005D1012301220D2100200BF081F9FB79A3
:100A0000012B06D1012307220B2101200BF078F9DD
:100A100000BF00BF0837BD4680BD80B584B000AFC1
:100A20000346FB710023FB73FB79042B05D10C21DA
:100A30000020FFF72CFF0346FB73FB79032B05D146
:100A40000D210020FFF723FF0346FB73FB79022BE8
:100A500005D109210120FFF71AFF0346FB73FB7B39
:100A600018461037BD4680BD80B582B000AF034642
:100A7000FB71FB79042B03D10D210020FFF73AFF16
:100A8000FB79032B03D10C210020FFF733FFFB7907
:100A9000062B03D10D210020FFF72CFFFB79012B42
:100AA00004D10B210120FFF725FF00BF00BF08374D
:100AB000BD4680BD80B483B000AF03463960FB7192
:100AC00097F90730002B0ADB3B68DAB20C4997F93B
:100AD00007305201D2B20B4483F800230AE03B688E
:100AE000DAB20849FB7903F00F03043B5201D2B29A
:100AF0000B441A7600BF0C37BD465DF8047B704787
:100B000000E100E000ED00E080B582B000AF786069
:100B10007B68013BB3F1807F01D301230FE00A4AD8
:100B20007B68013B536007214FF0FF30FFF7C2FFA6
:100B3000054B00229A60044B07221A6000231846D6
:100B40000837BD4680BD00BF10E000E080B483B030
:100B500000AF78604FF06043D3F8803E03F00103AC
:100B6000002B13D04FF06043D3F8003E03F0010395
:100B7000002B0BD000E000BF4FF060431B68002B40
:100B8000F9D04FF060437A68D2B21A707B68184689
:100B90000C37BD465DF8047B7047000080B400AFA1
:100BA0004FF0804301225A64184BD3F8B030174AF3
:100BB00043F00103C2F8B030144BD3F8E030134ACD
:100BC00043F00803C2F8E030114B1B68104A43F4AD
:100BD000805313600D4BD3F8E0300C4A23F0080328
:100BE000C2F8E030094BD3F8B030084A23F00103D3
:100BF000C2F8B030074B1B68064A43F4F843136051
:100C000000BFBD465DF8047B704700BF00400E404A
:100C100034400540A4310E4080B582B000AF034699
:100C2000FB71FB791846FFF791FF0346184608371A
:100C3000BD4680BD80B400AF00231846BD465DF8B8
:100C4000047B7047B0B588B000AF0023FB61012181
:100C500023480AF06DF922480AF012FAF8610023DD
:100C600004220C2104200BF04BF8012304220D2157
:100C700004200BF045F8012304220A2104200BF084
:100C80003FF8012301220B2104200BF039F8154B0A
:100C90003C1D1D460FCD0FC495E8030084E80300FA
:100CA00001237B74104BFB6001237B760023BB8206
:100CB0000123BB7400233B713B1D19460B480BF00D
:100CC00093F90A4B00229A67084B0F225A670521B5
:100CD00006480BF03FF900BF2037BD46B0BD00BF4E
:100CE0000072040094D80000404B4C00000001400A
:100CF00080B483B000AF354BD3F8B030334A43F003
:100D00002003C2F8B030324BD3F84034304A43F0BD
:100D10001003C2F840342E4BD3F844342C4A23F04D
:100D20000303C2F844342A4BD3F8F430284A23F49E
:100D30007063C2F8F430264BD3F8F430244A43F4FD
:100D40008063C2F8F43015237B60204B10221A66B2
:100D500000BF1E4BD3F8903003F02003002BF8D0D7
:100D60001C4B1B681B4A43F001031360194BDB68E3
:100D7000184A43F08073D360174B40F2FF321A6079
:100D8000164A7B681361154B0222C3F8F020134BFF
:100D90004FF48072C3F804234FF06043104AC3F845
:100DA000B02F4FF060430F4AC3F8802E4FF06043DE
:100DB000D3F8003E4FF0604243F00103C2F8003E1A
:100DC00000BF0C37BD465DF8047B704700400E4005
:100DD00000800840F0ED00E0001000E0000004E0BA
:100DE00055CEACC50900010080B582B002AFFFF757
:100DF000D5FEFFF77DFF012113480AF099F8002383
:100E00000122092101200AF07BFF01230193002325
:100E1000009301230922092101200AF0D7FEFFF7E0
:100E200011FF0A480AF02CF90246094BA3FB0223E2
:100E30009B091846FFF768FE0346002B00D000BE52
:100E400000BFBD4680BD00BF00550A007000020013
:100E5000D34D621080B586B000AFF860B96011461E
:100E60001A460B46FB8013467B71FB68002B02D1B0
:100E7000124BFB6004E0BB68002B01D10F4BBB6041
:100E80000023FB8210E0FB8AFA6813441B781946A2
:100E90000B480BF0B1F90146FB8ABA681344CAB299
:100EA0001A70FB8A0133FB82FA8AFB889A42EAD3E2
:100EB000002318461837BD4680BD00BF703B002098
:100EC0000000014080B483B000AF3B600346FB717B
:100ED0000B46BB7113467B71002318460C37BD4689
:100EE0005DF8047B704780B584B000AF78607B68A4
:100EF000002B0CD000F01EF8F86000F01BF8024642
:100F0000FB68D31A7A689A42F7D800BF00E000BFA6
:100F10001037BD4680BD000080B400AF044B1B6895
:100F20000133034A136000BFBD465DF8047B704780
:100F30009C00002080B400AF034B1B681846BD46E0
:100F40005DF8047B704700BF9C00002080B400AFB8
:100F5000044B1B68DB685B681846BD465DF8047B84
:100F6000704700BFA000002080B483B000AF78605D
:100F7000054B1B68DB687A685A6000BF0C37BD46BA
:100F80005DF8047B704700BFA000002080B586B0EC
:100F900002AF786039600023FB600023BB607B6890
:100FA00003F00303002B0BD07B6803F003023B68C4
:100FB0001344043B3B607B68033323F003037B60F3
:100FC0003A68002178680BF089F900F00FFB0346BE
:100FD0001A46BB681344BB603A68BB689A4201D2A8
:100FE000BB68B6E05D4A7B6813607B683A681A604C
:100FF0007B6804337B605A4A7B6813607B686C3380
:101000007B60584A7B6813607B6820337B60564A5C
:101010007B6813607B6844337B60544A7B68136051
:101020007B68F0337B60524A7B6813607B6803F512
:10103000A0637B604F4A7B6813607B68D0337B6022
:101040004D4A7B6813607B68C4337B60444B1B68EC
:101050007A681A647B680C337B6008F039FA404B7D
:101060001B6818464FF4C8634FF4CA62796803F0EE
:10107000CBF87B6803F5CA637B60404A7B681360EA
:101080007B6854337B60364B1B687A68DA607B6818
:1010900040337B60324B1B68DB68184600F064FF0E
:1010A0002F4B1B68DB6803F114004FF4C8634FF447
:1010B000CA62796803F0A8F87B6803F5CA637B60AD
:1010C000274B1B687A681A627B6838337B60244B35
:1010D0001B681B6A184603F0CFFB214B1B681B6A79
:1010E00003F114004FF4C8634FF4CA62796803F047
:1010F0008BF87B6803F5CA637B60194B1B6834333C
:10110000184603F047F902F065FC154B1B682433C1
:10111000184603F0C1F8124B1B681033184603F051
:10112000BBF87B680D4A12689B1A1A463B689342CB
:1011300004D27B68094A12689B1A0AE0104B00939C
:101140000123012201210020FFF7BCFE01F017FE60
:10115000BB6818461037BD4680BD00BFA400002004
:10116000A0000020BC410020B8410020B441002074
:10117000B0410020C4410020C0410020A800002050
:10118000E543000080B588B000AF03460A46FB8007
:101190001346BB800023FB61614B1B68DB68BB61AE
:1011A0005F4B1B681B6A7B61BB69BA881A86BB6987
:1011B0001B8E23F001039AB2BB691A8607F108035C
:1011C0004EF66021184603F022F910E0544B1B68DC
:1011D0003433184603F0F2F807F10803184603F019
:1011E00026F90346002B02D06FF0170394E0BB6989
:1011F0001B78DBB2002BE9D07B695B78DBB2002B7C
:101200003ED07B695B78DBB2092B04D07B695B78CD
:10121000DBB20A2B16D17B691B78DBB2022B06D915
:10122000BB691B8E43F001039AB2BB691A867B69C6
:1012300000225A7000BFFFF789FEF861FB69002B9E
:1012400013D010E0374B1B6810333749184602F0B3
:1012500059FF0346002BD4D06FF01D00FFF784FE2A
:101260006FF01D0358E0FB6956E008F085FFF86158
:10127000FB69002B01D0FB694EE045F65A234BE099
:10128000BB691B78DBB2012B02D06FF0020343E095
:101290000121002001F0AAFD0346002B3AD1BB69D1
:1012A0001433184602F0CCFF38613B69002B06D19D
:1012B0000021002001F09AFD6FF003032CE03B6950
:1012C00014332822002118460BF008F83B69143328
:1012D000FB607B69FA88DA86F868BB881A04FB88A9
:1012E0001343194603F0CEF83969102000F09AFE36
:1012F000F8610C4B1B6814334EF66021184601F060
:101300005DFD0021002001F071FDFFF71FFEF86177
:10131000FB6901E06FF0220318462037BD4680BD0F
:10132000A0000020A8000020400D030080B586B07A
:1013300000AF78600B467B8000237B612B4B1B68E2
:10134000DB683B613B691B78DBB2002B0BD105E00E
:10135000264B1B683433184603F030F83B691B7882
:10136000DBB2012BF4D10121002001F03FFD034647
:10137000002B34D13B691433184602F061FFF8604A
:10138000FB68002B06D10021002001F02FFD6FF03B
:10139000030326E07B68002B06D03B697A685A631A
:1013A0007A883B699A6305E03B6900225A633B698E
:1013B00000229A63F968492000F034FE78610C4BF2
:1013C0001B6814330B49184601F0F8FC002100207B
:1013D00001F00CFDFFF7BAFD78617B6901E06FF069
:1013E000220318461837BD4680BD00BFA00000206C
:1013F000A800002020A1070080B500AF034B1B68A8
:101400003433184602F0DAFF00BF80BDA000002090
:1014100080B582B000AF00237B6000233B6000F00A
:10142000E5F803461A463B6813443B606A4B1B6869
:10143000002B02D14FF0FF33CAE0FFF7F3F9674BFF
:101440001B683C33184602F04EFE644B1B68DB6899
:101450001033184602F047FE03467B607B68002B82
:1014600002D06FF02803B3E05C4B1B68DB680833E5
:10147000184602F01EFE5A4B1B680833184602F04D
:1014800018FE564B1B680833184602F02CFE034624
:101490007B607B68002B02D06FF0280398E04F4BF5
:1014A0001B68DB681C33184602F01DFE03467B6098
:1014B0007B68002B02D06FF0280389E0484B1B6843
:1014C0001833184602F00FFE03467B607B68002B42
:1014D00002D06FF028037BE0414B1B6814331846A1
:1014E00002F001FE03467B607B68002B02D06FF0A8
:1014F00028036DE03A4B1B682033184602F0F3FDD9
:1015000003467B607B68002B02D06FF028035FE00E
:10151000334B1B680C33184602F0E5FD03467B6035
:101520007B68002B02D06FF0280351E02C4B1B6826
:101530001C33184602F0D7FD03467B607B68002B06
:1015400002D06FF0280343E0254B1B681033184688
:1015500002F0C9FD03467B607B68002B02D06FF070
:10156000280335E01D4B1B681B6A1033184602F038
:10157000BAFD03467B607B68002B02D06FF0280326
:1015800026E0164B1B681B6A1C33184602F0ABFDA5
:1015900003467B607B68002B02D06FF0280317E0C6
:1015A0000E4B1B681B6A0833184602F082FD0D4B78
:1015B00000221A600C4B00221A60074B1B683A6825
:1015C000002118460AF08AFE034B00221A6000230D
:1015D00018460837BD4680BDA4000020A0000020AA
:1015E000A8000020B4410020B041002080B483B0A6
:1015F00000AF00237B607B6803F5E0531C337B6006
:101600007B6818460C37BD465DF8047B70470000C8
:1016100080B584B000AF0346FB710023FB60FFF789
:10162000E3FB01F05DFC0346FB60FB68002B01D08F
:10163000FB6853E06420FFF756FC00F017FB0346FD
:10164000FB60FB68002B01D0FB6847E007F1080353
:101650004EF66021184602F0DAFE01F055FC034612
:10166000FB60FB68002B05DAFB6813F10C0F01D05F
:10167000FB6833E007F10803184602F0D8FE034682
:10168000002B02D06FF0180328E0FB6813F10C0F59
:10169000E3D0FB79312B03D1002000F083FA0CE07A
:1016A000FB79712B09D1022000F07CFA0346FB6024
:1016B000FB68002B01DAFB6810E0FB79184601F0AB
:1016C00067FC0346FB60FB68002B01DAFB6805E062
:1016D0000448FFF797F8FFF7ACF8FB681846103797
:1016E000BD4680BD0133000090B587B000AF786083
:1016F00007F10C03184600F05FF80346FB82B7F9C8
:101700001630002B02D0B7F9163020E007F10C0399
:101710000233184602F0CCFE0346043B9CB207F1AC
:101720000C03184602F0C4FE0346043B9BB21A4663
:101730002146786800F08EF80346FB82B7F9163030
:10174000002B02D0B7F9163001E0B7F91630184671
:101750001C37BD4690BD80B586B000AFF860B9605B
:101760001346FB80F86800F0E9F80346FB82B7F9FE
:101770001630002B02D0B7F9163019E0FB88002B89
:1017800014D0FB8803339BB223F00303FB80F8885B
:1017900000230022B96800F011F90346FB82B7F973
:1017A0001630002B02D0B7F9163001E0B7F9163029
:1017B00018461837BD4680BD80B584B000AF78604C
:1017C0005C23FB730023BB7304237B7300233B73F5
:1017D000BA7BFB7B1146184600F04CF903467B812F
:1017E000B7F90A30002B02D0B7F90A302CE03A7B67
:1017F0007B7B1146184600F085F903467B81B7F9DB
:101800000A30002B02D0B7F90A301DE00121104840
:1018100000F09AF903467B81B7F90A30002B02D019
:10182000B7F90A3010E00123042279680020FFF79D
:1018300011FB03467B81B7F90A30002B02D0B7F9C0
:101840000A3001E0B7F90A3018461037BD4680BDAE
:1018500020A1070080B588B000AF78600B467B8080
:1018600013463B800023BB613B88033323F0030313
:10187000BB615D23FB750023BB75BB697B75BB69D1
:101880001B0A3B75BA7DFB7D1146184600F0F2F845
:101890000346FB83B7F91E30002B02D0B7F91E3088
:1018A00046E03A7D7B7D1146184600F02BF9034651
:1018B000FB83B7F91E30002B02D0B7F91E3037E09A
:1018C00001211D4800F040F90346FB83B7F91E30A3
:1018D000002B02D0B7F91E302AE07B88002B0FD0F6
:1018E0007A8807F10C0100230020FFF7B3FA0346C2
:1018F000FB83B7F91E30002B02D0B7F91E3017E07A
:101900007B68002B12D0BB699AB27B88D31A9AB23B
:10191000012379680020FFF79DFA0346FB83B7F99E
:101920001E30002B02D0B7F91E3001E0B7F91E308F
:1019300018462037BD4680BD20A1070080B588B07D
:1019400000AF78607C23FB770023BB7710237B7785
:1019500000233B77BA7FFB7F1146184600F08AF8D8
:1019600003467B83B7F91A30002B02D0B7F91A303F
:1019700020E03A7F7B7F1146184600F0C3F803460B
:101980007B83B7F91A30002B02D0B7F91A3011E077
:10199000786807F1080101231022FFF75BFA03467C
:1019A0007B83B7F91A30002B02D0B7F91A3001E067
:1019B000B7F91A3018462037BD4680BD80B586B0CD
:1019C00000AFB9607B600346FB811346BB81FA8997
:1019D000BB891344BB827C23FB740023BB74BB8A8A
:1019E0007B74BB8A1B0A9BB23B74BA7CFB7C11469E
:1019F000184600F03FF80346FB82B7F91630002B7B
:101A000002D0B7F9163031E03A7C7B7C114618469B
:101A100000F078F80346FB82B7F91630002B02D0AD
:101A2000B7F9163022E0FA8901230021B868FFF7E0
:101A300011FA0346FB82B7F91630002B02D0B7F932
:101A4000163013E0BB89002B0ED0BA890123002188
:101A50007868FFF7FFF90346FB82B7F91630002BD1
:101A600002D0B7F9163001E0B7F91630184618372A
:101A7000BD4680BD80B588B000AF03460A46FB7105
:101A80001346BB714CF25033BB611D4B1B680022E7
:101A90001A64FB793B75BB797B75194B1A68136C1B
:101AA000591C1164BA699A4203D24FF6E973FB8359
:101AB00020E007F10C0107F1140000230222FFF7D8
:101AC000C9F90346FB837B7B582B02D07B7B002B21
:101AD00002D10023FB830DE07B7B522B03D14FF619
:101AE000FE73FB8306E07B7B542BD2D14FF6FF7352
:101AF000FB83CEE7B7F91E3018462037BD4680BDC0
:101B0000A800002080B584B000AF03460A46FB71F0
:101B10001346BB71FB793B73BB797B7307F10C00F8
:101B2000002302220021FFF795F90346FB81B7F954
:101B30000E30002B02D0B7F90E3001E0B7F90E30AD
:101B400018461037BD4680BD80B584B000AF7860C0
:101B50000B46FB70124B1B6800221A64104B1A686C
:101B6000136C591C11647A689A4203D24FF6FF73C2
:101B7000FB810FE000237B73FB7807F10D0101224D
:101B80000020FFF767F90346FB817B7B552BE5D1EE
:101B90000023FB81B7F90E3018461037BD4680BDD3
:101BA000A800002080B584B000AF786000233B73AC
:101BB00000237B7307F10C031A460221144800F03E
:101BC0001DF90346FB81B7F90E30002B1AD17B7B40
:101BD00023F00303DBB27B737A7B7B68DBB21343B6
:101BE000DBB27B7307F10C031A460221084800F0B0
:101BF000A1F80346FB81B7F90E30002B02D0B7F9EC
:101C00000E3001E0B7F90E3018461037BD4680BDE2
:101C10000000054180B584B000AF78604CF25033CD
:101C2000BB60114B1B6800225A640F4B1A68536C3F
:101C3000591C5164BA689A4203D24FF6E973FB818A
:101C40000CE07968002000F055F90346FB81B7F9F4
:101C50000E30B3F1FF3F00D1E7E700BFB7F90E3018
:101C600018461037BD4680BDA800002080B584B05E
:101C700000AF00237B600023FB810A23BB81184B4C
:101C80001B6800221A64164B1A68136C591C1164E5
:101C9000BA89934203D94FF6E973FB811AE0122304
:101CA0003B724A237B725C23BB720023FB72391D9B
:101CB00007F1080000230422FFF7CCF80346FB815C
:101CC000FB79582B02D10023FB8103E04FF6FF7311
:101CD000FB81D8E7B7F90E3018461037BD4680BDF6
:101CE000A800002080B582B000AF12233B714A23C8
:101CF0007B715C23BB710023FB713946381D0023C7
:101D00000222FFF7A7F87B78522B0DD07B78002BAF
:101D1000F3D139463B1D981C00230222FFF79AF8A5
:101D20007B78582B02D0E8E700BF00E000BF0837FF
:101D3000BD4680BD80B58AB000AFF8600B467A60C2
:101D40007B81742387F82730002387F826307B892E
:101D500087F825307B891B0A9BB287F8243007F16E
:101D60001C03F968184602F08DFB97F8262097F8B7
:101D7000273011461846FFF77DFE03467B84B7F9EE
:101D80002230002B02D0B7F9223032E097F824201D
:101D900097F8253011461846FFF7B4FE03467B84BA
:101DA000B7F92230002B02D0B7F9223021E007F139
:101DB000140107F11C0000230422FFF74BF803462F
:101DC0007B84B7F92230002B02D0B7F9223010E023
:101DD0007A89002300217868FFF73CF803467B846A
:101DE000B7F92230002B02D0B7F9223001E0B7F961
:101DF000223018462837BD4680BD000080B58AB025
:101E000000AFF8600B467A607B81542387F8273057
:101E1000002387F826307B8987F825307B891B0AC9
:101E20009BB287F82430FB68DBB23B77FB681B0A68
:101E3000DBB27B77FB681B0CDBB2BB77FB681B0E4E
:101E4000DBB2FB7797F8262097F827301146184623
:101E5000FFF710FE03467B84B7F92230002B02D037
:101E6000B7F922303FE097F8242097F82530114643
:101E70001846FFF747FE03467B84B7F92230002B54
:101E800002D0B7F922302EE007F1140107F11C004F
:101E900000230422FEF7DEFF03467B84B7F92230DD
:101EA000002B02D0B7F922301DE000211048FFF7C7
:101EB0004BFE03467B84B7F92230002B02D0B7F9E2
:101EC000223010E07A89002379680020FEF7C2FFF3
:101ED00003467B84B7F92230002B02D0B7F92230B9
:101EE00001E0B7F9223018462837BD4680BD00BF53
:101EF00020A1070080B584B000AF03463960FB71B4
:101F00004123FB730023BB73BA7BFB791343BB7381
:101F1000BA7BFB7B11461846FFF7ACFD0346BB813D
:101F2000B7F90C30002B02D0B7F90C3016E00021C5
:101F30000C48FFF709FE0346BB81B7F90C30002BB4
:101F400002D0B7F90C3009E00023012239680020E3
:101F5000FEF780FF0346BB81B7F90C3018461037F7
:101F6000BD4680BD20A1070080B584B000AF786079
:101F70000023FB737B68002B02D16FF001034AE062
:101F80007B6800221A707B6800225A607B680833E5
:101F9000184602F05FF8224B1B680833184602F01F
:101FA00059F81F4B1B6818330021184602F08CF8B3
:101FB0000346FB7397F90F30002B02D06FF0270315
:101FC00029E0174B1B681833184602F00BF97B68A1
:101FD00000221A737B6810330021184602F074F84F
:101FE0000346FB7397F90F30002B02D06FF02703E5
:101FF00011E00B4B1B6814330021184602F064F803
:102000000346FB7397F90F30002B02D06FF02703C4
:1020100001E097F90F3018461037BD4680BD00BF6C
:10202000A800002080B588B000AF03463960FB717E
:102030000023FB830023BB61F14B1B68DB687B61E2
:102040003B6804333B61FB79CF2B02D9FB79DA2B58
:1020500007D9FB79CE2B04D01022002138690AF071
:102060003DF9FB79103BE22B00F2958201A252F878
:1020700023F000BF052400009725000097250000ED
:10208000972500009725000099240000972500005F
:102090009725000097250000972500009725000050
:1020A0005D2400008724000097250000972500008C
:1020B0009725000097250000972500009725000030
:1020C0009725000097250000972500006324000055
:1020D0009725000097250000972500009725000010
:1020E0009725000097250000972500009725000000
:1020F00097250000972500009725000097250000F0
:1021000097250000972500009725000097250000DF
:1021100097250000972500009725000097250000CF
:1021200097250000972500009725000097250000BF
:1021300097250000972500009725000097250000AF
:10214000972500009725000097250000972500009F
:10215000972500009725000097250000972500008F
:10216000972500009725000097250000972500007F
:10217000972500009725000097250000972500006F
:10218000972500009725000097250000972500005F
:10219000972500009725000097250000972500004F
:1021A000972500009725000097250000972500003F
:1021B000972500009725000097250000972500002F
:1021C000972500009725000097250000972500001F
:1021D000972500009725000097250000972500000F
:1021E00097250000972500009725000097250000FF
:1021F00097250000972500009725000097250000EF
:1022000097250000972500009725000097250000DE
:1022100069240000972500009725000097250000FD
:1022200097250000972500009725000097250000BE
:1022300097250000972500009725000097250000AE
:10224000972500009725000097250000972500009E
:10225000972500009725000097250000972500008E
:10226000972500009725000097250000972500007E
:102270009725000097250000972500006F24000097
:10228000972500009725000097250000972500005E
:10229000972500009725000097250000972500004E
:1022A000972500009725000097250000972500003E
:1022B000972500009725000097250000972500002E
:1022C0009725000093240000972500009725000023
:1022D000972500009725000097250000972500000E
:1022E00097250000972500009725000097250000FE
:1022F00097250000972500009725000097250000EE
:1023000097250000972500009725000097250000DD
:1023100097250000972500009725000097250000CD
:1023200097250000972500009725000097250000BD
:1023300097250000972500009725000097250000AD
:10234000972500009725000097250000972500009D
:1023500097250000812400009725000097250000A4
:102360009725000097250000972500008B25000089
:102370009725000007250000132500001F250000F9
:102380002B25000037250000432500004F250000C5
:102390005B25000067250000732500007F250000F5
:1023A000972500009725000097250000972500003D
:1023B000972500009725000097250000972500002D
:1023C000972500009725000097250000972500001D
:1023D0009725000097250000752400009725000030
:1023E00097250000972500009725000097250000FD
:1023F0009725000097250000972500007B2400000A
:10240000A00000203B681433BB60BB68043301218B
:10241000184602F037F8BB6808331221184602F05C
:1024200031F8BB680C334FF00041184602F02AF82F
:10243000BB6810334FF44011184602F023F8BB6814
:1024400018330021184602F01DF8BB682433002120
:10245000184602F017F82823FB839CE00323FB8334
:1024600099E00823FB8396E00123FB8393E0082394
:10247000FB8390E01C23FB838DE01C23FB838AE01D
:102480000C23FB8387E05D4B1B68DB6800221A701E
:1024900081E00123FB837EE03B681433FB60FB6833
:1024A0001B78002B23D07B6993F820300A2B03D1B3
:1024B000FB6802225A700BE07B6993F82030082BEE
:1024C00003D1FB6801225A7002E0FB6801225A70B6
:1024D000FB6800229A70FB6832229A80FB68002217
:1024E0009A71474B1B68B3F8BE20FB681A81FB68E2
:1024F0005B78022B04D1414B1B68DB6800221A7009
:102500000A23FB8347E0386901F0D2FF0346FB83CF
:1025100041E0386901F0CCFF0346FB833BE03869BA
:1025200001F0C6FF0346FB8335E0386901F0C0FFC8
:102530000346FB832FE0386901F0BAFF0346FB83B3
:1025400029E0386901F0B4FF0346FB8323E03869D2
:1025500001F0AEFF0346FB831DE0386901F0A8FFE0
:102560000346FB8317E0386901F0A2FF0346FB83B3
:1025700011E0386901F09CFF0346FB830BE03869EA
:1025800001F096FF0346FB8305E0386901F090FFF8
:102590000346FB8300BFFB8BC3F30B039BB21946BF
:1025A000386901F059FF3B6901331A783B690133FF
:1025B00042F04002D2B21A703B690233FA791A70C3
:1025C000FB79152B05D0FB79102B02D0FB791C2B46
:1025D00005D10A4B1B682433184601F0B3FE074BA4
:1025E0001B6810333968184601F06AFE012001F0BB
:1025F0008BF9BB6918462037BD4680BDA00000207E
:10260000C041002080B58AB000AF786000237B62B3
:102610007B680433FB61002387F82330BB4B1B68C6
:10262000DB68BB61B94B1B681B6A7B617B689B796C
:10263000FB74FB690C33184601F03AFF03467B62DA
:102640007B681433FB60F86901F032FF0346C3F383
:102650000B037B81786AFEF787FCFB7CD02B00F0B4
:102660004281D02B26DC262B00F0CB80262B0FDCE2
:10267000152B00F0A080152B03DC102B00F08380BD
:10268000A8E21B2B00F0B5801C2B00F0CA80A1E251
:10269000B02B00F04C82B02B05DC492B00F00B82F4
:1026A000892B32D096E2C82B00F0B380CE2B00F0FD
:1026B000E2818FE2D62B00F06882D62B12DCD32B7E
:1026C00000F02C81D32B06DCD12B00F06082D22BC2
:1026D00000F012817EE2D42B00F05B82D52B00F05B
:1026E000418177E2D92B00F08681D92B06DCD72BEC
:1026F00000F05881D82B00F05E816BE2DA2B00F0FD
:102700009A81F22B00F0F68164E27B6A002B40F0A4
:102710004282BB6901221A70FB690F331B7803F0F8
:102720000403002B13D07B6908225A70784B1B6876
:10273000D3F8A430002B00F02E82754B1B68D3F821
:10274000A4307A6A92B204211046984723E2FB69CA
:102750000F331B7803F00203002B00F01C827B690F
:102760000A225A706A4B1B68D3F8A430002B00F081
:102770001282674B1B68D3F8A4307A6A92B20221A6
:102780001046984707E2FB690C33184601F090FEAB
:1027900003467B627B6A002B40F0FF817B6901224C
:1027A0001A70BB6902221A70584B1B6824331846F2
:1027B00001F0DCFDF1E1FB690C33184601F078FE15
:1027C00003467B627B6A002B40F0E981BB6993F88A
:1027D0002C30002B03D0BB69012283F82D204B4BFA
:1027E0001B682433184601F0C1FDBB6900229A62C0
:1027F000D5E1FB690C33184601F05AFE03467B62B3
:10280000E8E1FB690C33184601F052FE03467B6297
:10281000E0E1FB690C33184601F04AFE03467B6297
:10282000D8E1FB690C33184601F042FE03467B6297
:10283000BB6901221A707B6900221A70002387F895
:10284000233012E0334B196897F8232013461B01FD
:102850009B1A9B000B443C220021184609F03EFDC8
:1028600097F82330013387F823302B4B1B681B7BF1
:1028700097F823209A42E5D3FB690F331B7803F0C6
:102880000403002B13D07B6908225A70204B1B686D
:10289000D3F8A430002B00F084811D4B1B68D3F8C3
:1028A000A4307A6A92B204211046984779E1FB6914
:1028B0000F331B7803F00203002B00F072817B6959
:1028C0000A225A70124B1B68D3F8A430002B00F078
:1028D00068810F4B1B68D3F8A4307A6A92B2022148
:1028E000104698475DE17B6A002B40F05C81BB6934
:1028F000022283F83C2056E17B6A002B40F0558190
:10290000BB69022283F83C204FE100BFA0000020F9
:10291000C0410020B4410020C84100207B6A002B48
:1029200040F04581BB69032283F83C20BB695B6BA7
:10293000002B00F03C81BB699B6B002B00F03781C2
:10294000BB699A6B7B89934228BF13463B81BB6965
:102950005B6B3A89F968184609F0B5FCBB6900223F
:102960005A6324E17B6A002B40F02381BB695B6BD7
:10297000002B00F01E81BB699B6B002B00F01981BE
:10298000BB699A6B7B89934228BF13463B81BB6925
:102990005B6B3A89F968184609F095FCBB6900221F
:1029A0005A6306E17B6A002B40F00581BB69042273
:1029B00083F83C20FFE07B6A002B40F0FE80BB697F
:1029C0005B6B002B00F0F980BB699B6B002B00F068
:1029D000F480BB699A6B7B89934228BF13463B8185
:1029E000BB695B6B3A89F968184609F06CFCBB69F6
:1029F00000225A63E1E07B6A002B40F0E080BB6973
:102A00005B6B002B00F0DB80BB699B6B002B00F045
:102A1000D680BB699A6B7B89934228BF13463B8162
:102A2000BB695B6B3A89F968184609F04CFCBB69D5
:102A300000225A63C3E07B6A002B40F0C280BB696E
:102A40005B6B002B00F0BD80BB699B6B002B00F023
:102A5000B880BB699A6B7B89934228BF13463B8140
:102A6000BB695B6B3A89F968184609F02CFCBB69B5
:102A700000225A63A5E07B6A002B40F0A480BB696A
:102A80005B6B002B00F09F80BB699B6B002B00F001
:102A90009A80BB699A6B7B89934228BF13463B811E
:102AA000BB695B6B3A89F968184609F00CFCBB6995
:102AB00000225A6387E07B6A002B40F08680BB6966
:102AC0005B6B002B00F08180BB699B6B002B7CD083
:102AD000BB699A6B7B89934228BF13463B81BB69D4
:102AE0005B6B3A89F968184609F0EDFBBB69002277
:102AF0005A636AE07B6A002B69D1BB695B6B002B70
:102B000065D0BB699B6B002B61D0BB699A6B7B89DD
:102B1000934228BF13463B81BB695B6B3A89F968D6
:102B2000184609F0D0FBBB6900225A634FE0FB69ED
:102B30000C33184601F0BCFC03467B62F86901F0D7
:102B4000B7FC0346C3F30B037B817B681433FB6044
:102B50007B6A002B3DD1BB695B6B002B39D0BB6915
:102B60009B6B002B35D0BB699A6B7B89934228BF46
:102B700013463B81BB695B6B3A89F968184609F0DB
:102B8000A2FBBB6900225A6323E000BF22E000BF22
:102B900020E000BF1EE000BF1CE000BF1AE000BF45
:102BA00018E000BF16E000BF14E000BF12E000BF55
:102BB00010E000BF0EE000BF0CE000BF0AE000BF65
:102BC00008E000BF06E000BF04E000BF02E000BF75
:102BD00000E000BFFB7C892B39D0FB7C772B1AD11E
:102BE000BB6993F83D30002B06D01B4B1B68143398
:102BF000184601F0F7FA2AE0184B1B681B69002BF6
:102C000002D17B6A002B22D0134B1B681433184669
:102C100001F0E8FA1BE0FB7C152B12D10E4B1B6870
:102C200093F85030DBB2152B11D10B4B1B680022EF
:102C300083F85020084B1B681433184601F0D2FA71
:102C400005E0054B1B681433184601F0CBFA00234E
:102C500018462837BD4680BDA8000020C04100208E
:102C600080B586B000AF0346FB710023FB753B4B7C
:102C70001B68DB683B61394B1B681B6AFB60FB7997
:102C8000DD2B0BD0DE2B02D0CD2B19D061E03B69C0
:102C900001229A62012000F037FE5AE03B690322CC
:102CA0009A623B6993F82C30092B05D13B690122CC
:102CB0009A62012000F028FE012000F061FE48E049
:102CC0003B6901221A70FB6800221A700023FB7511
:102CD0001DE0234B1968FA7D13461B019B1A9B00CC
:102CE0000B443C220021184609F0F8FA1D4B1968E4
:102CF000FA7D13469B0013449B010B444FF4A072D2
:102D00000021184609F0EAFAFB7D0133FB75164BEA
:102D10001B681B7BFA7D9A42DBD3144B1B68002295
:102D200083F8BC20114B1B680022DA60FB6800228C
:102D30001A733B6900221A7300F01AF83B692033BA
:102D400010220021184609F0C9FA012000F018FEEF
:102D500000BF00BF1837BD4680BD00BFA0000020E7
:102D6000B4410020B0410020C8410020C0410020F3
:102D700080B500AF0420FDF777FE00BF80BD80B5B1
:102D800000AF002200210320FDF7EAFD0120FDF73E
:102D90001FFE002201210420FDF7E2FD0420FDF7C3
:102DA00063FE00BF80BD80B582B000AF78600020B8
:102DB00004F0C4FE00BF0837BD4680BD80B582B0B8
:102DC00000AF786039603968786801F09BF9034694
:102DD000002B06D06FF01D00FEF7C6F86FF01D0344
:102DE00000E0002318460837BD4680BD80B584B09A
:102DF00000AF03460A46FB711346BB710023FB601C
:102E0000FB79012B19D0022B2DD0002B56D1BB7989
:102E1000012B08D1304B1B6818334EF66021184641
:102E2000FFF7CCFF4EE0BB79002B4BD12A4B1B6840
:102E30001833184601F0D6F944E0BB79012B08D1CC
:102E4000254B1B681C334EF66021184604F07EFFAC
:102E50003AE0BB79002B37D11F4B1B681C33184657
:102E600001F0C0F930E0BB79012B12D11A4B1B687D
:102E700093F82820184B1B6842F00202D2B283F864
:102E80002820154B1B6820331449184600F0EEFD2E
:102E90001CE0BB79002B19D10F4B1B6893F828203D
:102EA0000D4B1B6822F00202D2B283F828200A4B95
:102EB0001B682033184601F095F907E06FF0010315
:102EC000FB6004E000BF02E000BF00E000BFFB6861
:102ED00018461037BD4680BDA8000020C027090055
:102EE00080B500AF002201210120FDF739FD01204E
:102EF000FDF7BAFD6420FDF7F6FF0120FDF768FD40
:102F00000023184680BD000080B582B000AF0023CA
:102F1000FB800023BB803B1D1946D12000F0FAF84E
:102F20000346FB80B7F90630002B02DAB7F906300A
:102F300028E0BB8803F47F43B3F52B4F20D1BB8837
:102F4000DBB2F12B02D16FF008031BE0BB88DBB2D0
:102F5000F22B02D16FF0090314E0BB88DBB2102B17
:102F600004D10A4B1B6801221A6007E0BB88DBB260
:102F7000112B03D1054B1B6802221A60002301E0CC
:102F80006FF00B0318460837BD4680BDA80000202F
:102F900080B586B000AF0346FB710023BB820023DF
:102FA000FB8200237B8207F114031A460221564854
:102FB000FEF7C0FE0346FB82B7F91630002B02DA9B
:102FC000B7F916309CE0FB79422B07D1FB791AB296
:102FD0004E4B13431BB29BB2BB8206E0FB791AB285
:102FE0004B4B13431BB29BB2BB8207F11403194630
:102FF000D22000F08FF80346FB82B7F91630002B81
:1030000002DAB7F916307BE007F10C034FF4967142
:10301000184601F0FCF929E007F112031946D12006
:1030200000F078F80346FB82B7F91630002B02DA7D
:10303000B7F9163064E0FB79422B05D17B8A4AF65A
:103040003232934207D119E07B8A1A46FB7943F466
:103050002B439A4211D007F10C03184601F0E7F90F
:103060000346002B02D06FF01B0349E0FB79312BA4
:1030700004D0FB79712BCFD100E000BFFB79312B5D
:1030800002D0FB79712B39D107F10C0340F6B8312E
:10309000184601F0BCF907F112031946D12000F0DF
:1030A00039F80346FB82B7F91630002B02DAB7F97C
:1030B000163025E07B8A03F47043B3F5204F11D11D
:1030C0007B8ADBB2232B02D16FF00D0318E07B8AE1
:1030D000DBB2F32B02D16FF00E0311E07B8ADBB27F
:1030E000AA2B0AD007F10C03184601F0A0F90346F9
:1030F000002BD0D06FF01B0302E000BFB7F91630F1
:1031000018461837BD4680BD3C00054100A0FFFFB2
:1031100000ABFFFF80B588B000AF03463960FB719C
:103120000023FB8300237B610023BB6100237B82A0
:1031300000233B82FB79D12B11D0D12B08DC422B11
:103140007AD0712B00F0C080312B00F0B080C8E045
:10315000D42B45D0D52B17D0D22B0DD0C1E007F101
:1031600010031A4602216448FEF748FE0346FB831B
:103170003A8A3B681A80B8E03A6802215F48FEF755
:10318000D9FD0346FB83B0E00023BB6117E0BB69B8
:1031900003F540435800BB695A003B6813441A4684
:1031A0000221FEF7C7FD0346FB83B7F91E30002B53
:1031B00002DAB7F91E309AE0BB690133BB61BB6923
:1031C000B3F5006FE3D34AF649337B8207F112036C
:1031D0001A4602214948FEF7ADFD0346FB8384E011
:1031E0000023BB6117E0BB6903F548435800BB6986
:1031F0005A003B6813441A460221FEF79BFD034622
:10320000FB83B7F91E30002B02DAB7F91E306EE0EF
:10321000BB690133BB61BB69B3F5006FE3D34AF609
:103220004F337B8207F112031A4602213348FEF71F
:1032300081FD0346FB8358E04AF642337B6107F188
:1032400014031A4602212D48FEF774FD0346FB8342
:10325000B7F91E30002B02DAB7F91E3047E007F14C
:103260000C034FF49671184601F0D1F807F11003E2
:103270001A4602212048FEF7C1FD0346FB83B7F939
:103280001E30002B02DAB7F91E3030E007F10C03D4
:10329000184601F0CCF80346002B02D06FF01B0358
:1032A00025E03B8A4AF632329342DFD11DE04AF6EE
:1032B00031337B6107F114031A4602210F48FEF7F0
:1032C00039FD0346FB8310E04AF671337B6107F159
:1032D00014031A4602210948FEF72CFD0346FB831E
:1032E00003E04FF6FE73FB8300BFB7F91E301846AC
:1032F0002037BD4680BD00BF3C000541340005417C
:1033000080B500AFFDF78EFA002000F0FDFA00BF97
:1033100080BD000080B588B000AF0023FB610023B2
:103320003B830023FB820023BB70834B1B68DB685D
:103330003B610023FB730023BB7300237B730023DB
:103340003B730023FB72FF23BB72FF23FB767A4B98
:103350001B681033184600F0DFFF0346FB73764B03
:103360001B682433184600F0D7FF03467B73FB7BB2
:10337000002B38D0704B1B68704A5A66BB1C18462D
:10338000FEF748FC0346FB82B7F91630002B04D148
:10339000BB7803F00103002B1BD0674B1B685B6BF2
:1033A00023F00203002B00F0BE80012000F0D4FACD
:1033B000634B1B680833184600F05AFE604B1B68CD
:1033C00001225A605E4B1B680833184600F063FE0A
:1033D000A9E0594B1B681033184600F087FFF861CD
:1033E0000123FB7636E07B7B002B33D0BB1C1846D9
:1033F000FEF710FC0346FB82B7F91630002B04D110
:10340000BB7803F00103002B1BD04B4B1B685B6B9D
:1034100023F00203002B00F08880012000F09CFACA
:10342000474B1B680833184600F022FE444B1B68CC
:1034300001225A60424B1B680833184600F02BFEED
:1034400073E03D4B1B682433184600F04FFFF861D2
:103450000623FB76FB7B002B0BD17B7B002B08D15B
:10346000BB7B002B05D1FB7A002B02D13B7B002BD1
:103470003ED0FB6904337B607B689B78FB707B6884
:1034800001331B781B09BB727B681B88C3F30B03DA
:103490003B83FB78152B08D1BB7A042B05D1012087
:1034A00000F05AFA0320FDF71EFD7B6810333A8BBB
:1034B00019467868FEF74FF9FB7E012B0BD11E4BA6
:1034C0001B68DB681433F969184600F0CFFEF86911
:1034D000FFF769FC2BE0FB7E062B28D1BB7A042B7F
:1034E00002D0BB7A052B22D1F86904F0C5FB1EE09F
:1034F0003B6993F82D30002B0ED03B699B6A012B62
:103500000AD1002200210F48FEF725F9012000F022
:1035100023FA3B6902229A62F869FFF744FC012012
:1035200000F006FA04E000BF02E000BF00E000BFC8
:103530002037BD4680BD00BFA0000020A72D0000A1
:10354000A8000020ACD8000080B58AB000AF0023EE
:10355000FB8400233B620023FB6100237B73002379
:10356000BB6000237B6000237B838B4B1B68DB6885
:103570007B61894B1B681B6A3B610220FDF74DFA9A
:103580000346002B1ED1002000F0D2F9FDF751F9BF
:10359000824B1B685B68012B40F0A481012000F086
:1035A000EFF97E4B1B680833184600F061FD7B4B3A
:1035B0001B6800225A60794B1B680833184600F0DC
:1035C0006AFD8FE17B6993F82D30002B01D0FEF767
:1035D00089FB07F10D031846FEF71CFB03467B83AE
:1035E0007B8B002B40F080817B7B5BB2002B29DA48
:1035F0007B7B03F07F03DBB27B7307F108031A4682
:1036000004216748FEF7FAFB03467B837B8B002B84
:1036100018D1644B1B68D3F8B830002B08D0614B2D
:103620001B68D3F8B830BA6890B2002200219847DE
:1036300080237B603B1D1A4604215B48FEF77AFB22
:1036400003467B837B7B03F00803002B27D10020FC
:1036500000F06EF9FDF7EDF80220FDF7DEF9034604
:10366000002B02D0002000F04FF94C4B1B685B6828
:10367000012B40F03B81012000F082F9474B1B6891
:103680000833184600F0F4FC444B1B6800225A60D3
:10369000424B1B680833184600F0FDFC26E13E4B08
:1036A0001B68184600F0CCFDF861FB69002B03D1C4
:1036B000002000F051F920E1FB6904333B62386AD5
:1036C000FEF712F80346FB84FB8C002B24D000206D
:1036D00000F02EF9304B1B68F969184600F0C6FD62
:1036E000FDF7A7F82D4B1B685B68012B40F00081AC
:1036F000012000F045F9294B1B680833184600F0FB
:10370000B7FC264B1B6800225A60244B1B68083309
:10371000184600F0C0FCEBE03B6A01331B781B0944
:10372000FB733B6A9B78BB73FB7B042B3ED1BB7B5B
:10373000CD2B05D0BB7BDE2B02D0BB7BDD2B35D167
:10374000BB7B1846FFF78CFA134B1B68F9691846C8
:1037500000F08CFD002000F0EBF8002000F010F9E4
:10376000FDF767F80D4B1B685B68012B40F0C280CA
:10377000012000F005F9094B1B680833184600F0DA
:1037800077FC064B1B6800225A60044B1B68083309
:10379000184600F080FCADE0A0000020A80000204A
:1037A00034000541C041002008000541FB7B042B8B
:1037B0004ED1BB7B892B47D0BB7B102B44D0BB7B2E
:1037C000152B41D0BB7B1B2B3ED0BB7BC82B3BD0EA
:1037D000BB7B1C2B38D0BB7BA42B35D0BB7B492BB0
:1037E00032D0BB7B262B2FD0BB7B772B2CD0BB7B47
:1037F000922B29D0BB7BE92B26D0BB7BF22B23D08D
:10380000BB7BD12B20D0BB7BD62B1DD0BB7BD42B3D
:103810001AD0BB7BD02B17D0BB7BD52B14D0BB7B56
:10382000D72B11D0BB7BD32B0ED0BB7BD22B0BD095
:10383000BB7BD92B08D0BB7BD82B05D0BB7BDA2B2D
:1038400002D0BB7BCE2B03D1F869FEF7DBFE12E082
:10385000FB7B022B0FD0FB7B012B0CD0FB7B042BC3
:1038600003D1F86901F05EFE05E0FB7B052B02D178
:10387000F86900F0D7F8224B1B68F969184600F088
:10388000F5FC0220FDF7C9F80346002B02D1002009
:1038900000F04EF8002000F073F8FCF7CAFF022099
:1038A000FDF7BBF80346002B02D0002000F02CF8F7
:1038B000144B1B685B68012B1ED1012000F060F8DF
:1038C000104B1B680833184600F0D2FB0D4B1B68E9
:1038D00000225A600B4B1B680833184600F0DBFBD4
:1038E00000BF09E000BF08E000BF06E000BF04E041
:1038F00000BF02E000BF00E000BF2837BD4680BD2A
:10390000A0000020A800002080B582B000AF786041
:10391000054B1B685B6C054A12687968104698472E
:1039200000BF0837BD4680BDAC000020C841002064
:1039300080B582B000AF7860054B1B689B6C054A70
:10394000126879681046984700BF0837BD4680BDA9
:10395000AC000020C841002080B582B000AF786084
:10396000054B1B68DB6C054A12687968104698475E
:1039700000BF0837BD4680BDAC000020C841002014
:1039800080B582B000AF7860054B1B681B6D054A9F
:10399000126879681046984700BF0837BD4680BD59
:1039A000AC000020C841002080B582B000AF786034
:1039B0003960064B1B689B6D054A10683A68796848
:1039C0009847034618460837BD4680BDAC00002026
:1039D000C841002080B500AF06490020FFF7E4FF92
:1039E00005490120FFF7E0FF04490220FFF7DCFF53
:1039F00000BF80BD49350000153300001181000073
:103A000080B584B000AFF860B9607A603B603B6815
:103A10007A68B968F86800F05FF80346184610370E
:103A2000BD4680BD80B582B000AF7860786800F098
:103A3000A7F9034618460837BD4680BD80B483B059
:103A400000AF786039607B68112B02D96FF00F03EB
:103A500004E0054B1B683A681A64002318460C37CB
:103A6000BD465DF8047B7047C041002080B582B040
:103A700000AF786039603968786800F043FB03462E
:103A8000002B06D06FF01D0004F058F86FF01D03F6
:103A900000E0002318460837BD4680BD80B400AF63
:103AA000034B1B68DB6A1846BD465DF8047B704714
:103AB000A800002080B582B000AF7860054B1B687D
:103AC0007A68DA62786804F039F800BF0837BD46D2
:103AD00080BD00BFA800002080B58CB000AFF860AA
:103AE000B9607A603B600023BB6200237B62A14B1C
:103AF0001B681B683B629F4B1B685B68FB61FA6835
:103B000013461B019B1A9B001A46FB6913445B7802
:103B1000DBB2002B07D1FB681946092005F0C6F877
:103B20004FF0FF3322E13B6A1B6A1433184600F062
:103B300087FBB861BB69002B08D1FB6819466FF0A1
:103B4000030005F0B3F84FF0FF330FE1BB69143306
:103B50007B61BB6904333B6110220021386908F0A6
:103B6000BDFB1C220021786908F0B8FBFA681346F7
:103B70001B019B1A9B001A46FB6913449B781B0987
:103B8000DBB203F00F03022B29D17B690421184615
:103B900000F062FC7B6903F10C003B6804330422F3
:103BA000194608F090FB7B6903F10A023B685B88C9
:103BB0001946104600F050FCFA6813461B019B1A88
:103BC0009B001A46FB6913449B7803F00F03012BFB
:103BD00002D13823FB852BE02C23FB8528E07B6971
:103BE0000621184600F038FC7B6903F10C003B68A5
:103BF00008331022194608F066FB7B6903F10A02BC
:103C00003B685B881946104600F026FCFA681346AC
:103C10001B019B1A9B001A46FB6913449B7803F017
:103C20000F03012B02D14C23FB8501E04023FB85D0
:103C3000FA6813461B019B1A9B001A46FB69134442
:103C4000DB7E03F00203002B08D07B687D2B01D8BC
:103C5000062200E00822FB8D1344FB85FA68134618
:103C60001B019B1A9B001A46FB6913441A787B6957
:103C70009A70FA6813461B019B1A9B001A46FB694F
:103C80001344DA787B69DA707B6904337A6892B21C
:103C90001146184600F0E0FB7B690833FA8D1146A7
:103CA000184600F0D9FBFB8D7A6813447B62FB8DCC
:103CB0001C3BFB85FB8D18337A69134404337A6807
:103CC000B968184608F0FFFA7B6A9BB2C3F30B038E
:103CD0009BB21946386900F0BFFB3B6901331A7883
:103CE0003B69013342F05002D2B21A703B6A24336E
:103CF000B969184600F0E4FA0120FFF705FE1E4BF3
:103D00001968FA6813469B0013449B010B4493F80F
:103D10002210194B1868FA6813469B0013449B0144
:103D2000034441F00402D2B283F82220124B1968F6
:103D3000FA6813469B0013449B010B4430330F4930
:103D4000184604F045FF0346BB62BB6A002B07D050
:103D5000FB681946B86A04F0A9FF4FF0FF3305E08D
:103D6000FB68184604F08CFFB862BB6A184630370F
:103D7000BD4680BDC8410020B0410020C0270900D9
:103D800080B58EB000AF7860002387F8373000230D
:103D90003B630023FB628D4B1B685B68BB627B68E7
:103DA00014337B627B6804333B623B6A02331B78CB
:103DB0003B63386A00F07CFB0346C3F30B03FB83D1
:103DC0003B6A0C33184600F073FB0346FB623B6B07
:103DD000012B0AD17E4B1B68D3F8A0307A6802F120
:103DE0001401FA8B00209847EBE07B6A9B78184619
:103DF00004F002FFB861B969F86A04F057FF7B6A02
:103E0000DB7887F83730BB69002B06DB6F4B1B680C
:103E10001B7B1A46BB69934202DB4FF0FF33D1E0B4
:103E2000BA6913461B019B1A9B001A46BB6A1344CE
:103E30007B617B6A0433184600F03AFB03463B6122
:103E40007B6A0833184600F033FB0346FB607B694E
:103E5000DB7E5BB2002B29DB7B695B6B002B23D005
:103E60007B69DB7E03F00203002B15D0FA68134652
:103E7000DB009B1A9B001C3B7A6A134497F837209F
:103E80001A707B695B6BB869FA68013A796A114408
:103E90003A690132984707E07B695B6BB869796AD8
:103EA000FA6811443A69984700238BE0474B1B6836
:103EB0009B7B012B0FD17B695B6A002B02D04FF0FB
:103EC000FF337FE07A6AFB681A447B69DA617B69B9
:103ED0003A695A6213E07B699B6A002B0CD07B69BC
:103EE000986A7A6AFB6813443A69194608F0EBF954
:103EF0007B693A69DA6202E07B690022DA627B69F7
:103F00009B7803F00F03022B21D17B6A0A331846FA
:103F100000F0CEFA03461A467B69DA807B699B780B
:103F20001B09DBB2022B09D17B6903F108007B6A14
:103F30000C330422194608F0C6F908E07B6903F146
:103F400008007B6A0C331022194608F0BCF9214B9B
:103F50001968BA6913469B0013449B010B4493F8FC
:103F600022101C4B1868BA6913469B0013449B012E
:103F7000034421F00202D2B283F82220154B1968C3
:103F8000BA6913469B0013449B010B4493F823101A
:103F9000104B1868BA6913469B0013449B010344F5
:103FA00041F00102D2B283F823200A4B1968BA69A2
:103FB00013469B0013449B010B442C33184600F01E
:103FC00011F9002318463837BD4680BDC84100208E
:103FD000C0410020B041002080B500AF114B1B68EC
:103FE00093F8283003F00103002B05D00D4B1B681C
:103FF0000C33184600F0F6F80A4B1B6893F828308B
:1040000003F00203002B05D0064B1B682033184633
:1040100000F0E8F8034B1B68002283F8282000BF5B
:1040200080BD00BFA800002080B483B000AF002393
:104030007B607B6818460C37BD465DF8047B704793
:1040400080B483B000AF786000BF0C37BD465DF828
:10405000047B704780B483B000AF78607B68002237
:104060001A60002318460C37BD465DF8047B704784
:1040700080B483B000AF786000BF7B681B68012B01
:10408000FBD07B6801221A60002318460C37BD461E
:104090005DF8047B704780B483B000AF78607B68C4
:1040A00000221A60002318460C37BD465DF8047BD9
:1040B000704780B483B000AF7860002318460C3797
:1040C000BD465DF8047B704780B483B000AF786074
:1040D00039607B683A681A60002318460C37BD4681
:1040E0005DF8047B704780B483B000AF78607B6874
:1040F00000221A60002318460C37BD465DF8047B89
:104100007047000080B586B000AF786039602B4BF7
:104110001B681B687B617B683B613B691B68002BEC
:1041200006D03B691B685A1E3B691A60002340E0B9
:104130003B68002B10D104E07B693433184600F053
:104140003DF93B691B68002BF6D03B691B685A1E82
:104150003B691A6000232CE007F10C03396818460C
:1041600000F055F90CE07B693433184600F026F96D
:1041700007F10C03184600F05AF90346002B07D14B
:104180003B68002B05D03B691B68002BEBD000E09F
:1041900000BF3B691B68002B02D03B68002B02D19B
:1041A0004FF0FF3305E03B691B685A1E3B691A60FC
:1041B000002318461837BD4680BD00BFC841002007
:1041C00080B485B000AF78607B68FB60FB681B68DB
:1041D0005A1CFB681A60002318461437BD465DF868
:1041E000047B704780B485B000AF78607B68FB606B
:1041F000FB681B685A1CFB681A60002318461437BA
:10420000BD465DF8047B704790B587B002AFF8609B
:10421000B9607A603B60084B1B689C69074B186863
:104220003B6800937B68BA68F968A0470346184664
:104230001437BD4690BD00BFAC000020C84100202F
:1042400080B582B000AF7860064B1B68DB69064A18
:104250001268796810469847034618460837BD46E5
:1042600080BD00BFAC000020C841002080B582B0F6
:1042700000AF78603960064B1B681B6A054A1068FE
:104280003A6879689847034618460837BD4680BDA6
:10429000AC000020C841002080B582B000AF78603B
:1042A000054B1B689B6A054A126879681046984757
:1042B00000BF0837BD4680BDAC000020C8410020CB
:1042C00080B582B000AF78603960064B1B68DB6A4E
:1042D000054A10683A687968984700BF0837BD46B4
:1042E00080BD00BFAC000020C841002080B582B076
:1042F00000AF7860064B1B681B6B064A1268796832
:1043000010469847034618460837BD4680BD00BF93
:10431000AC000020C841002080B582B000AF7860BA
:10432000064B1B685B6B064A126879681046984713
:10433000034618460837BD4680BD00BFAC000020CC
:10434000C841002080B582B000AF7860054B1B6883
:104350009B6B054A126879681046984700BF08377A
:10436000BD4680BDAC000020C841002080B582B0B1
:1043700000AF7860054B1B68DB6B054A12687968F3
:104380001046984700BF0837BD4680BDAC000020EE
:10439000C841002080B582B000AF7860054B1B6833
:1043A000DB68054A126879681046984700BF0837ED
:1043B000BD4680BDAC000020C841002080B582B061
:1043C00000AF7860054B1B685B69054A1268796825
:1043D0001046984700BF0837BD4680BDAC0000209E
:1043E000C841002080B400AF044B1B68DA6B013277
:1043F000DA6300BFBD465DF8047B7047A80000206B
:1044000080B500AFFCF796FD0346184680BD80B529
:1044100082B000AF78603960FFF7F2FF02463B6878
:104420001A447B681A6000BF0837BD4680BD90B54E
:1044300085B000AF78607B681C68FFF7E1FF03463A
:10444000E31AFB60FB68002B01DA012300E0002384
:1044500018461437BD4690BD80B582B000AF786075
:104460000B467B80054B1B685B6E054A10687A889B
:104470007968984700BF0837BD4680BDAC00002072
:10448000C841002080B582B000AF78603960064B2B
:104490001B689B6E054A10683A687968984700BFA8
:1044A0000837BD4680BD00BFAC000020C8410020D9
:1044B00080B582B000AF7860064B1B68DB6E064AA1
:1044C0001268796810469847034618460837BD4673
:1044D00080BD00BFAC000020C841002080B582B084
:1044E00000AF7860064B1B681B6F064A126879683C
:1044F00010469847034618460837BD4680BD00BFA2
:10450000AC000020C841002080B48BB000AF03464F
:10451000FB710B46BB7113467B71FB79DB09DBB288
:104520003B77FB799B09DBB203F00103DBB27B77BE
:10453000FB795B09DBB203F00103DBB2BB77FB79EC
:104540001B09DBB203F00103DBB2FB77FB79DB086D
:10455000DBB203F00103DBB287F82030FB799B0864
:10456000DBB203F00103DBB287F82130FB795B0893
:10457000DBB203F00103DBB287F82230FB7903F0F2
:104580000103DBB287F82330BB7903F00103DBB210
:104590003B75BB795B08DBB203F00103DBB27B75D3
:1045A000BB799B08DBB203F00103DBB2BB75BB79BF
:1045B000DB08DBB203F00103DBB2FB75BB791B093F
:1045C000DBB203F00103DBB23B76BB795B09DBB204
:1045D00003F00103DBB27B76BB799B09DBB203F00E
:1045E0000103DBB2BB76BB79DB09DBB2FB76FA7E7B
:1045F00097F823305340DAB2B97E97F822304B4017
:10460000DBB25340DAB2797E97F821304B40DBB20F
:104610005340DBB2FB74BA7E97F822305340DAB2D3
:10462000797E97F821304B40DBB25340DAB2397EC5
:1046300097F820304B40DBB25340DBB2BB747A7E3C
:1046400097F821305340DAB2397E97F820304B404A
:10465000DBB25340DAB2F97DFB7F4B40DBB2534013
:10466000DBB27B743A7E97F820305340DAB2F97DA2
:10467000FB7F4B40DBB25340DAB2B97DBB7F4B408E
:10468000DBB25340DBB23B747A7D7B7F5340DAB2BE
:10469000B97DBB7F4B40DBB25340DAB2F97DFB7F83
:1046A0004B40DBB25340DAB2F97E97F823304B40EF
:1046B000DBB25340DBB2FB733A7D3B7F5340DAB24F
:1046C000797D7B7F4B40DBB25340DAB2B97DBB7F53
:1046D0004B40DBB25340DAB2B97E97F822304B4000
:1046E000DBB25340DBB2BB733A7D3B7F5340DAB25F
:1046F000797D7B7F4B40DBB25340DAB2B97E97F8CD
:1047000022304B40DBB25340DBB27B733A7D3B7FC0
:104710005340DAB2F97E97F823304B40DBB2534076
:10472000DAB2B97E97F822304B40DBB25340DBB2AD
:104730003B737B79002B3AD13B7B03F00103DAB268
:104740007B7B5B00DBB203F00203DBB21343DAB224
:10475000BB7B9B00DBB203F00403DBB21343DAB292
:10476000FB7BDB00DBB203F00803DBB21343DAB2FE
:104770003B7C1B01DBB203F01003DBB21343DAB264
:104780007B7C5B01DBB203F02003DBB21343DAB2C4
:10479000BB7C9B01DBB203F04003DBB21343DAB214
:1047A000FB7CDB01DBB2134387F8273037E0FB7C6F
:1047B00003F00103DAB2BB7C5B00DBB203F002035F
:1047C000DBB21343DAB27B7C9B00DBB203F0040361
:1047D000DBB21343DAB23B7CDB00DBB203F008034D
:1047E000DBB21343DAB2FB7B1B01DBB203F0100335
:1047F000DBB21343DAB2BB7B5B01DBB203F0200315
:10480000DBB2134387F8273097F82730DB4387F86C
:10481000273097F8273003F03F0387F8273097F8C1
:10482000273018462C37BD465DF8047B704780B5AD
:1048300084B000AF7860FF23BB730023FB7313E0E9
:10484000FB7B7A6813441878FB7B052B0CBF012394
:104850000023DBB21A46BB7B1946FFF755FE034621
:10486000BB73FB7B0133FB73FB7B052BE8D9BB7B65
:1048700018461037BD4680BD80B584B000AF786063
:104880000023FB737B68002B02D16FF001037DE0F6
:104890007B6800221A707B6800225A607B680833AC
:1048A0001846FFF7D7FB7B6800221A73394B1B6849
:1048B000203300211846FFF707FC0346FB7397F9E6
:1048C0000F30002B02D06FF027035FE0314B1B68E5
:1048D0001C3300211846FFF7F7FB0346FB7397F9DB
:1048E0000F30002B02D06FF027034FE0294B1B68DD
:1048F000243300211846FFF7E7FB0346FB7397F9C3
:104900000F30002B02D06FF027033FE0214B1B68D4
:1049100020331846FFF766FC1E4B1B681C331846F5
:10492000FFF760FC7B68103300211846FFF7CCFBD3
:104930000346FB7397F90F30002B02D06FF027036B
:1049400024E0144B1B68103300211846FFF7BCFB12
:104950000346FB7397F90F30002B02D06FF027034B
:1049600014E00C4B1B680C3300211846FFF7ACFB1E
:104970000346FB7397F90F30002B02D06FF027032B
:1049800004E07B6800225A6297F90F30184610370E
:10499000BD4680BDA800002080B5A0B000AF034692
:1049A0003960FB710023A7F87E300023BB6700232A
:1049B00087F877300023A7F87C303B6804333B67E7
:1049C000FB79113BDE2B00F24F8501A252F823F058
:1049D0004D4D000069540000DB4E00000F4F0000F9
:1049E00069540000C7530000854D00006954000061
:1049F0007D500000695400006954000069540000B3
:104A0000174E00006954000069540000695400000A
:104A10009D53000069540000BD530000E7510000A1
:104A20005F5100006954000069540000695400009F
:104A300007510000695400006954000069540000E7
:104A40006954000069540000695400006954000072
:104A500087530000955300009553000069540000EF
:104A60006954000069540000695400006954000052
:104A70006954000069540000695400006954000042
:104A8000695400006954000069540000A54D0000FD
:104A90006751000021510000DF510000BF510000AC
:104AA00069540000695400005B4F00006954000025
:104AB00069540000695400006D4F0000994E0000D9
:104AC0003351000069540000695400001553000080
:104AD0008B5100008B51000071530000695400009D
:104AE000CF5100005B53000069540000695400007E
:104AF00069540000695400006954000069540000C2
:104B000069540000695400006954000069540000B1
:104B100069540000695400006954000069540000A1
:104B20006954000069540000695400006954000091
:104B3000695400007D4F00002B510000AF51000070
:104B400011520000695400005D4E000069540000DD
:104B5000695400007550000069540000614D000068
:104B60006954000069540000695400006954000051
:104B700069540000695400003B500000A950000037
:104B800069540000695400004D530000695400004E
:104B9000CF530000695400006954000069540000BC
:104BA0006954000069540000695400006954000011
:104BB0006954000069540000695400006954000001
:104BC00069540000695400006954000079510000E4
:104BD00069540000695400006954000069540000E1
:104BE0006954000069540000B55200006954000087
:104BF000F3520000315300003F53000023530000E4
:104C000069540000695400006954000069540000B0
:104C100069540000FF50000069540000695400000E
:104C2000754F000069540000A5530000695400004E
:104C30006954000069540000695400006954000080
:104C40006954000069540000695400006954000070
:104C5000EB520000695400006954000099510000B3
:104C60006954000069540000695400006954000050
:104C7000695400006954000069540000B7510000F5
:104C80003D4E0000694D0000695400006954000069
:104C90006954000069540000695400006954000020
:104CA00069540000695400000F510000695400006D
:104CB000AD53000069540000D75300006954000050
:104CC00069540000695400006954000069540000F0
:104CD00069540000695400006954000069540000E0
:104CE00069540000695400006954000069540000D0
:104CF00069540000695400008B51000069540000A1
:104D000069540000695400006954000069540000AF
:104D1000695400003752000069540000B553000088
:104D200069540000A151000069530000695400005B
:104D300069540000155000008B510000D75100004D
:104D4000C7510000695400007F5300003B681433D2
:104D5000BB60BB6800221A700123A7F87E3088E38D
:104D60002023A7F87E3084E33B6814337B657B6D9A
:104D700001221A807B6D40F62A125A800423A7F87C
:104D80007E3076E33B6814337B617869C04B1B68E7
:104D90001B6A30330622194607F095FA0623A7F856
:104DA0007E3066E33B6814333B623B6A1B7887F8CE
:104DB000773097F87730A7F87C3097F87730002B6A
:104DC00003D097F87730012B0DD13B6A0133184699
:104DD000FFF72DFD03461B021AB2B7F97C301343CF
:104DE0001BB2A7F87C303B6814330222002118461E
:104DF00007F074FA3B681433B7F87C201146184664
:104E0000FFF72AFB0223A7F87E30A14B1B681B6A21
:104E100040221A732DE33B681433BB61BB69012246
:104E20001A70BB6901225A70BB690233012118460E
:104E3000FFF712FB0423A7F87E301AE33B68143314
:104E40003B653B6D00221A703B6D0133914918465A
:104E500007F0A7FA5023A7F87E300AE33B68143323
:104E6000BB63BB6B00211846FFF70CFBBB6B043325
:104E700004211846FFF706FBBB6B083328211846B0
:104E8000FFF700FBBB6B0C3300211846FFF7FAFA63
:104E90001023A7F87E30ECE23B681433BB62BB6A98
:104EA0007D49184607F07DFABB6A20337B491846D6
:104EB00007F077FABB6A03F5807300211846FFF705
:104EC000E1FABB6A03F582737549184607F069FA7F
:104ED0004FF4AB73A7F87E30CBE23B681433FB6032
:104EE000FB682C3300211846FFF7B6FAFB6893F8ED
:104EF0002B30002B03D1FB68002283F82B20FB68AA
:104F0000002283F82B203223A7F87E30B1E23B68E1
:104F100014333B613B6900229A703B690222DA70CC
:104F20003B69002283F866203B696A3300211846FA
:104F3000FFF7A8FA3B6903F16F005A4B1B68043373
:104F40000622194607F0BFF97523A7F87E30504BAB
:104F50001B681B6A14221A738BE23B6814337B6252
:104F60007B6A5B880B33A7F87E3082E2C423A7F804
:104F70007E307EE26323A7F87E307AE23B6814330A
:104F80003B633B681B7DAB2B0FD13B685B7D012BEB
:104F900016D13B6B01211846FFF75EFA3B6B0233DB
:104FA00001211846FFF758FA0AE03B6B0121184629
:104FB000FFF752FA3B6B023300211846FFF74CFA19
:104FC0003B6B04330A211846FFF746FA3B6B063366
:104FD00004211846FFF740FA3B6B08330A211846B4
:104FE000FFF73AFA3B6B0A330F211846FFF734FA02
:104FF0003B6B0C3314211846FFF72EFA3B6B002253
:105000009A730F23A7F87E30214B1B681B6A6A2214
:105010001A732EE23B681433FB66FB6E01211846BF
:10502000FFF730FAFB6E043340F2DC511846FFF70D
:1050300013FA0623A7F87E301BE23B681433FB63A8
:10504000FB6B00211846FFF71DFAFB6B04330A21A6
:105050001846FFF717FAFB6B083304211846FFF7D1
:1050600011FA0C23A7F87E30094B1B681B6A7B22C0
:105070001A73FEE10C23A7F87E30FAE10823A7F8A3
:105080007E30034B1B681B6A19221A73F1E100BFC3
:10509000A000002020DA000024DA00002CDA000052
:1050A0003CDA0000C04100203B6814333B643B6C99
:1050B0000E3300211846FFF7CFF93B6C1033002167
:1050C0001846FFF7C9F93B6C123300211846FFF769
:1050D000C3F93B6C143300211846FFF7BDF93B6C54
:1050E000163300211846FFF7B7F93B6C183300213F
:1050F0001846FFF7B1F91C23A7F87E30B9E1042365
:10510000A7F87E30B5E11623A7F87E30B1E103237E
:10511000A7F87E30C64B1B681B6AC7221A73A8E12A
:105120004FF4C773A7F87E30A3E10723A7F87E30BA
:105130009FE13B681433FB62FB6ADB78002B04D0F1
:105140004FF4AF63A7F87E3093E1FB6A043318464F
:10515000FFF7AEF903468633A7F87E3089E1822354
:10516000A7F87E3085E12D23A7F87E30B04B1B6871
:105170001B6A41221A737CE12423A7F87E30AC4BD2
:105180001B681B6AA1221A7373E1386FFFF790F94D
:105190000346A7F87E306CE13E23A7F87E3068E135
:1051A000386FFFF785F90346A7F87E3061E10323E6
:1051B000A7F87E305DE10423A7F87E3059E15E2335
:1051C000A7F87E3055E14323A7F87E3051E1242330
:1051D000A7F87E304DE18423A7F87E3049E104230F
:1051E000A7F87E3045E13B681433FB61FB6903227D
:1051F00083F86A20FB69642283F86B20FB696C33B7
:1052000004211846FFF728F96E23A7F87E3030E115
:105210003B6814337B637B6B00211846FFF71CF956
:105220007B6B02334FF499711846FFF715F904238D
:10523000A7F87E301DE13B681433BB66BB6E1B785C
:10524000013B0E2B00F2128101A252F823F000BFA5
:105250008D520000955200008D5200008D520000CA
:105260008D5200008D5200008D5200008D520000C2
:10527000A55200008D5200009D5200008D5200008A
:105280008D5200008D5200008D5200003423A7F88B
:105290007E300EE05423A7F87E300AE06723A7F89B
:1052A0007E3006E0386FFFF703F90346A7F87E303B
:1052B00000BFDBE03B6814337B647B6C0021184645
:1052C000FFF7CAF87B6C023300211846FFF7C4F8D9
:1052D0007B6C043314211846FFF7D4F87B6C0F2243
:1052E0001A720923A7F87E30C3E01423A7F87E3092
:1052F000BFE03B681433FB64FB6C02331846FFF7D6
:10530000D7F80346A7F84A30B7F84A300433A7F86D
:105310007E30AEE0386FFFF7CBF80346A7F87E305B
:10532000A7E0386FFFF7C4F80346A7F87E30A0E087
:10533000386FFFF7BDF80346A7F87E3099E0386F65
:10534000FFF7B6F80346A7F87E3092E0386FFFF714
:10535000AFF80346A7F87E308BE0386FFFF7A8F868
:105360000346A7F87E3084E0DF23A7F87E3080E094
:10537000386FFFF79DF80346A7F87E3079E01B23CE
:10538000A7F87E3075E0386FFFF792F80346A7F86C
:105390007E306EE00423A7F87E306AE00523A7F88C
:1053A0007E3066E00A23A7F87E3062E00423A7F887
:1053B0007E305EE01523A7F87E305AE040F20D53B0
:1053C000A7F87E3055E00223A7F87E3051E0012394
:1053D000A7F87E304DE03B6814337B667B6E184641
:1053E000FFF77CF838663B6E013B082B40D801A2E2
:1053F00052F823F0195400002154000029540000F1
:1054000035540000575400007154000071540000DE
:105410005F5400005F540000E123A7F87E3022E0D3
:10542000AD23A7F87E301EE04423A7F87E301AE0B3
:10543000A00000203B681433FB65FB6D4633184623
:10544000FFF736F80346A7F85A30B7F85A304C330E
:10545000A7F87E3007E04323A7F87E3003E004235B
:10546000A7F87E3000BF03E000BF02E000BF00E00D
:1054700000BF10220021386F06F030FFB7F87E30F1
:10548000C3F30B039BB21946386FFEF7E5FF3B6F82
:1054900001331A783B6F013342F04002D2B21A70E6
:1054A0003B6F0233FA791A70074B1B682433396853
:1054B0001846FEF705FF0120FEF726FABB6F1846D7
:1054C0008037BD4680BD00BFA000002080B485B0FD
:1054D00000AF786039600023FB730FE0FB7B7A68D4
:1054E00013441B78BB73BB7B2C2B0BD0FB7B3A6824
:1054F0001344BA7B1A70FB7B0133FB73FB7B172BC6
:10550000ECD900E000BFFB7B3A68134400221A701C
:10551000FB7B01337A68134418461437BD465DF8A7
:10552000047B70472DE9F041A8B002AF78600023FA
:1055300087F87E30002387F87D30002387F87C30A1
:10554000002387F87B30002387F87A300023C7F8E0
:1055500094300023C7F890300023A7F87830002358
:105560007B6700233B670023A7F88E300023A7F852
:105570006E30002387F86D30002387F86C300023ED
:1055800087F86B30002387F88D30002387F86A3066
:1055900000237B66174B1B681B6A3B66154B1B6819
:1055A000DB68FB657B6804337B677B689B7987F8E6
:1055B0007E307B6814333B67786FFEF779FF0346D4
:1055C000C3F30B03A7F88E307B6F0C331846FEF73E
:1055D0006FFF0346C7F89030064B1B68243318460C
:1055E000FEF79AFE034687F86C3097F87E30113B41
:1055F00002E000BFA0000020E72B01F2968701A285
:1056000052F823F0C5590000635C0000FB61000004
:10561000396300002B7500002B7500002B7500000E
:105620000B5E0000336600002B7500002B75000038
:105630002B7500002B7500002B7500002B750000EA
:105640002B7500002B7500003D7300002B750000CA
:105650002B7500002B7500002B7500002B750000CA
:105660002B750000DF6500002B7500002B75000016
:105670002B7500002B7500002B7500002B750000AA
:10568000576100002B7500009F7100002B75000012
:105690002B7500002B7500002B7500002B7500008A
:1056A0002B7500002B7500002D5D00002B75000090
:1056B0002B7500002B7500002B7500002B7500006A
:1056C0002B750000796400006D6600000F6B000010
:1056D000FB6C00002B7500002B7500002B75000083
:1056E000E35C0000775D0000C15D00002B750000E9
:1056F0002B7500002B750000B35F00002B750000B8
:105700002B750000C16B0000C16B0000EF70000042
:10571000816100002B7500002B7500002B750000C7
:105720002B750000656F0000656F00002B75000091
:105730002B7500002B7500002B7500002B750000E9
:105740002B750000C9680000956A00002B750000E9
:10575000B36C00002B7500002B7500002B7500004A
:105760002B7500002B750000EF6200000370000035
:105770002B7500002B7500002B7500002B750000A9
:10578000757400002B750000995C00002B750000FB
:10579000D95900002B7500002B7500002B750000F7
:1057A0002B7500002B7500002B7500002B75000079
:1057B0002B7500002B7500002B7500002B75000069
:1057C0002B750000117300002B7500002B75000075
:1057D0002B7500002B7500002B7500002B75000049
:1057E0002B7500002B7500002B7500002B75000039
:1057F0002B7500002B7500002B7500002B75000029
:105800002B7500002B7500002B7500002B75000018
:105810002B7500002B7500002B7500002B75000008
:105820002B7500002B7500002B7500002B750000F8
:105830002B750000B76F00002B7500002B75000062
:105840002B75000079640000096600002B750000CC
:105850002B7500003B7200002B75000029720000C0
:105860002B7500002B7500007B6B0000036E0000A1
:105870002B7500002B7500002B7500002B750000A8
:105880002B7500002B7500002B7500002B75000098
:105890002B7500002B7500002B7500002B75000088
:1058A0002B7500002B7500002B7500002B75000078
:1058B000897300002B7500002B7500002B7500000C
:1058C0002B7500002B750000AB610000D16100005A
:1058D0002B7500002B7500002B7500005966000029
:1058E0002B7500002B7500002B750000A5740000BF
:1058F000077500002B7500002B7500002B7500004C
:105900002B7500002B7500002B7500002B75000017
:105910002B7500002B7500002B7500002B75000007
:105920002B7500002B7500002B7500002B750000F7
:105930002B7500002B7500002B7500002B750000E7
:105940002B7500002B750000456D00002B750000C5
:105950008372000083720000F3600000DD710000BC
:105960002B7500002B7500002B750000396C0000B2
:10597000916F0000A55900006B7000009770000047
:10598000E37400004B5F00002B7500002B750000D6
:105990002B7500002B7500002B7500002B75000087
:1059A0009B650000B74B1B689B6D002B01F0BF850A
:1059B000B44B1B689B6DD7F8902092B21046984765
:1059C00001F0B5BDD7F89030002B41F0B2853B6EA9
:1059D00002221A7001F0ADBD0023C7F88830002301
:1059E000C7F884300023C7F880303B6FBB64BB6CC2
:1059F0001B7887F86A30A44B1A6897F86A3034210C
:105A000001FB03F313441B6B002B16D19E4B1A684A
:105A100097F86A30342101FB03F313441B68C7F87D
:105A20008830994B1A6897F86A30342101FB03F3E8
:105A300013445B68C7F8843020E0934B1A6897F8EA
:105A40006A30342101FB03F313440C33C7F8883068
:105A50008D4B1A6897F86A30342101FB03F3134425
:105A60001433C7F88430884B1A6897F86A303421A9
:105A700001FB03F313441C33C7F88030D7F8883098
:105A8000002B09D008220021D7F8880006F026FC58
:105A9000D7F8883000225A60D7F88430002B09D01C
:105AA00008220021D7F8840006F018FCD7F88430CB
:105AB00000225A60D7F88030002B09D0082200213C
:105AC000D7F8800006F00AFCD7F8803000225A6030
:105AD000B7F88E30002B75D0002387F88D306AE040
