S00E00004157535F496F542E73333790
S2140000000000082005020000310200003102000056
S214000010310200003102000031020000310200000F
S21400002031020000310200003102000031020000FF
S21400003031020000300200003102000001240000FE
S21400004031020000310200003102000031020000DF
S21400005031020000310200003102000031020000CF
S21400006031020000310200003102000031020000BF
S21400007031020000C91C00003102000031020000FD
S214000080310200003102000031020000310200009F
S214000090310200003102000031020000310200008F
S2140000A0310200003102000031020000310200007F
S2140000B0310200003102000031020000310200006F
S2140000C0310200003102000031020000310200005F
S2140000D0310200003102000031020000310200004F
S2140000E0310200003102000031020000310200003F
S2140000F0310200003102000031020000310200002F
S214000100310200003102000031020000310200001E
S214000110310200003102000031020000310200000E
S21400012031020000310200003102000031020000FE
S21400013031020000310200003102000031020000EE
S21400014031020000310200003102000031020000DE
S21400015010B5054C237833B9044B13B10448AFF3FC
S21400016000800123237010BDFC1200200000000058
S2140001704096010008B5034B1BB103490348AFF393
S214000180008008BD0000000000130020409601001B
S214000190154B002B08BF134B9D46A3F5803A002154
S2140001A08B460F461348144A121A16F040FF0F4BA0
S2140001B0002B00D098470E4B002B00D0984700200D
S2140001C0002104000D000D48002802D00C48AFF3B3
S2140001D0008016F0D5FE2000290001F0CBF916F0BD
S2140001E0BBFE00BF00000800000008200000000062
S2140001F000000000FC120020E4A000200000000028
S21400020000000000064880470649074A074B9A4206
S214000210BEBF51F8040B42F8040BF8E7FFF7B8FF2F
S214000220410300004C96010000000020FC12002054
S214000230FEE700BF80B483B000AF334BD3F89430F2
S21400024003F00703023B042B49D801A252F823F01F
S214000250750200006D02000065020000D502000075
S2140002607D020000294B1B687B603CE04FF4004396
S2140002707B6038E0264B1B687B6034E0224B9B6833
S2140002801B0C03F01F03073B072B1FD801A252F8D5
S21400029023F000BFB5020000CD020000CD02000032
S2140002A0CD020000BB020000CD020000C10200002B
S2140002B0C7020000174B7B600BE0174B7B6008E023
S2140002C0164B7B6005E0164B7B6002E000237B60EC
S2140002D000BF08E0134B1B685B087B6003E0114B14
S2140002E01B687B6000BF084BD3F800311B0A03F085
S2140002F01F0301337A68B2FBF3F318460C37BD468A
S2140003005DF8047B704700BF00400E4004000020EC
S214000310000000200024F4000048E801006CDC0225
S21400032080F0FA020800002080B400AF034B1B6880
S2140003301846BD465DF8047B704700BF00000020ED
S21400034080B400AF074B084A9A60064BD3F8883053
S214000350044A43F47003C2F8883000BFBD465DF817
S214000360047B704700ED00E00000000080B400AFA2
S2140003704FF400431846BD465DF8047B704780B4D2
S21400038000AF4FF47A731846BD465DF8047B70479D
S21400039080B400AF034B1B681846BD465DF8047B6F
S2140003A0704700BF0400002090B5C9B000AF07F149
S2140003B00C0420600C461046194607F10A03224634
S2140003C01A8007F1090302461A70BB1D0A461A80F6
S2140003D007F1100318464FF488731A46002116F0EA
S2140003E026FE07F1100307F10C0212681A6007F1E7
S2140003F0100307F10A0212889A8007F110030222FE
S2140004001A7207F1100342F603029A8107F11003ED
S21400041002221A7707F110030622DA8307F1100387
S21400042007F10902127883F82020BB1D1A8807F10D
S214000430100322331146184609F092FDB7F834210E
S21400044007F1100324331146184609F089FD07F119
S2140004501003184602F070F800BF07F59277BD4605
S21400046090BD82B090B5C7B000AF3C1D206007F5C8
S214000470947080E80C00BB1C0A461A8007F108033B
S21400048018464FF488731A46002116F0D0FD07F17F
S21400049008033A1D12681A6007F10803BA1C12888E
S2140004A09A8007F108030833142207F5947118465A
S2140004B016F099FD07F1080397F83C211A7797F88C
S2140004C04431F02B28BFF023DBB29AB207F10803C1
S2140004D0DA8307F10803DB8B1A4607F1080320339B
S2140004E0D7F84011184616F07EFD07F108031846A7
S2140004F002F022F897F83C3103F01003002B2AD0C4
S21400050007F108034FF488720021184616F08FFD95
S21400051007F108033A1D12681A60BB1C1B880133DA
S2140005209AB207F108039A8007F1080302221A72AA
S21400053007F1080342F602129A8107F108030A221D
S2140005401A7707F108030222DA8307F10803184630
S21400055001F0F2FF00BF00BF07F58E77BD46BDE88D
S214000560904002B070470000F0B593B006AF07F1B8
S2140005701C0300221A605A609A60DA601A6107F15A
S214000580140300221A605A603B4600221A605A6022
S2140005909A60DA601A6102233B774AF6BB233B84F3
S2140005A007F114030193FB6A009307F11C030FCBBA
S2140005B001F09DFF02233B7741F6A1233B847E6931
S2140005C03B8B01331FFA83FC3B8B02331FFA83FEFF
S2140005D06D4607F11C040FCC0FC523682B607346CD
S2140005E0082261463046FFF7DFFE3B8BDBB2023364
S2140005F0DAB24F4B1A7002233B7741F6A1233B84B5
S2140006007D693B8B02339EB2142305933B460493CD
S214000610082303936C4607F1240393E8070084E855
S214000620070007F11C030CCB31462846FFF719FFDD
S21400063002233B7741F6B1333B847E693B8B033321
S2140006401FFA83FC3B8B04331FFA83FE6D4607F1CB
S2140006501C040FCC0FC523682B6073460A22614624
S2140006603046FFF7A1FE3B8B04339AB2314B1A801B
S21400067002233B7741F6B1333B847D693B8B0433E1
S2140006809EB2142305933B4604930A2303936C46B9
S21400069007F1240393E8070084E8070007F11C032A
S2140006A00CCB31462846FFF7DCFE02233B7741F6AB
S2140006B0C1433B847E693B8B05331FFA83FC3B8B2F
S2140006C006331FFA83FE6D4607F11C040FCC0FC5D8
S2140006D023682B607346122261463046FFF764FE9D
S2140006E03B8B06339AB2144B1A8002233B7741F6B3
S2140006F0C1433B847D693B8B06339EB2142305932E
S2140007003B460493122303936C4607F1240393E8B5
S214000710070084E8070007F11C030CCB3146284687
S214000720FFF79FFE002318463437BD46F0BD00BFD6
S21400073094130020961300209813002080B400AF76
S214000740054B00221A60054B4FF0FF321A6000BFBF
S214000750BD465DF8047B7047181300201C1300206C
S21400076080B483B000AF786001227B689A40054B66
S2140007701B681343034A136000BF0C37BD465DF881
S214000780047B70471813002080B483B000AF7860F5
S21400079001227B6802FA03F3DA43054B1B68134019
S2140007A0034A136000BF0C37BD465DF8047B7047F4
S2140007B01813002080B483B000AF00237B600EE0E7
S2140007C001227B6802FA03F31A460A4B1B681340A1
S2140007D0002B01D07B6807E07B6801337B607B6879
S2140007E01F2BEDD94FF0FF3318460C37BD465DF88A
S2140007F0047B70471813002080B582B000AF786085
S2140008007B681A78094B1A707B68013306221946F2
S214000810074816F0E8FB7B68DA7E044BDA710120A5
S214000820FFF79EFF00BF0837BD4680BD201300209F
S2140008302113002080B582B000AF78600822796866
S214000840044816F0D0FB0120FFF78AFF00BF0837E8
S214000850BD4680BD2013002080B582B000AF786012
S2140008600B467B8008227968044816F0BCFB022001
S214000870FFF776FF00BF0837BD4680BD281300206F
S21400088080B582B000AF78600520FFF769FF00BF33
S2140008900837BD4680BD80B582B000AF78600620C0
S2140008A0FFF75EFF00BF0837BD4680BD80B582B04B
S2140008B000AF78600720FFF753FF00BF0837BD463C
S2140008C080BD80B582B000AF03463960FB8008204B
S2140008D0FFF746FF00BF0837BD4680BD80B582B033
S2140008E000AF03463960FB800920FFF739FF00BFE1
S2140008F00837BD4680BD000080B584B000AF034613
S2140009003960FB800023FB603B6808331B887B81D3
S2140009103E4B1B789AB23B6808331B889A4271D1CB
S2140009203B68DB7A7B727B7A323B062B65D801A26A
S21400093052F823F06909000051090000D7090000A9
S2140009408709000097090000B5090000E9090000C2
S2140009502F4B00221A70142200212E4816F067FB37
S2140009602D4B05221A704EE0322200212B4816F03D
S2140009705EFB3B680E331946284816F0F0FB0D2048
S214000980FFF7EEFE3FE03B689A7B254B1A700E2081
S214000990FFF7E6FE37E0142200211E4816F047FB5C
S2140009A03B680E3319461F4816F0D9FB1A4B062231
S2140009B01A7028E014220021164816F038FB1A4B4D
S2140009C01B78002B03D01020FFF7CAFE1BE0112077
S2140009D0FFF7C6FE17E0142200210E4816F027FB8C
S2140009E00D4B0C221A700EE014220021094816F056
S2140009F01EFB1320FFF7B4FE05E00C4816F020FBA4
S214000A0000BF00E000BF1037BD4680BD9413002035
S214000A1084120020045600203C56002000190020B6
S214000A203A56002018560020B018002068820100B0
S214000A3080B59CB014AF3B461F220021184616F026
S214000A40F6FA02233B7001237B700623BB70FFF788
S214000A5075FEFFF789FD002305930023049300230A
S214000A600393384B02930023019300230093002343
S214000A70354A3649002004F02DFD0023129300234A
S214000A8011930023109300230F9300230E9300234B
S214000A900D9300230C9300230B9300230A9300234B
S214000AA0099300230893002307930023069300234B
S214000AB0059300230493264B0393002302930023FD
S214000AC0019300230093002300220021002004F05D
S214000AD075FD00230693002305930023049300234B
S214000AE0039300230293002301931A4B00931A4B9F
S214000AF01A4A1B491B4804F025FD1B4801F059FD06
S214000B00194816F034FB0346DBB20133DBB2FB7048
S214000B1009233B713B4605331349184616F01FFB65
S214000B20114816F024FB03469BB205339AB23B46A7
S214000B301146184601F0B2FC01F07CFC00BF2037DD
S214000B40BD4680BDF90700005908000035080000C2
S214000B50F9080000DD080000C3080000AD0800002A
S214000B6097080000810800007C82010080B5F2B082
S214000B7000AF0023C7F8C0310023C7F8BC3107F523
S214000B80CE7300221A605A609A60DA601A6107F51E
S214000B90C47300221A605A609A60DA601A823B1D9B
S214000BA0D24A12881A803B46D14A12681A6000233D
S214000BB087F8BB31002387F8BA31FFF7FBFDC7F88B
S214000BC0B401D7F8B431B3F1FF3F00F0E881D7F8AD
S214000BD0B431013B142B00F2E48101A252F823F059
S214000BE0350C0000430C0000EB0D0000A30F0000C6
S214000BF0A30F0000A30F0000A30F0000A30F000028
S214000C00A30F00005D0C0000A30F0000A30F000060
S214000C10CB0D0000D30D00003B0D0000C90C0000FA
S214000C20090D00006D0D0000730C00009F0D000004
S214000C30BD0E00000120FFF7A7FDAE4B01221A7083
S214000C40ABE10220FFF7A0FD01F0F4FBC7F8C001FE
S214000C50D7F8C031002B00F09D81F5E70A20FFF79A
S214000C6093FDA54B1B88A54A1421184601F072FC7B
S214000C7093E11320FFF788FD07F5CE7314220021B9
S214000C80184616F0D4F907F16C0312221946012013
S214000C9014F01AFAC7F8C001082387F89C31082315
S214000CA087F89D3107F16C0107F5CE7302330822F1
S214000CB0184616F098F9904B1B8807F5CE7214214B
S214000CC0184601F047FC68E11020FFF75DFD07F5C8
S214000CD0CE7314220021184616F0A9F907F5CE7334
S214000CE00233184616F043FA03465BB287F89D3186
S214000CF0072387F89C31804B1B8807F5CE7214219A
S214000D00184601F027FC48E11120FFF73DFD07F5E6
S214000D10CE7314220021184616F089F9072387F8A7
S214000D209C31002387F89D31734B1B8807F5CE72E4
S214000D301421184601F00EFC2FE10F20FFF724FDCA
S214000D4007F5CE7314220021184616F070F9012319
S214000D5087F89D31042387F89C31674B1B8807F57D
S214000D60CE721421184601F0F5FB16E11220FFF7AB
S214000D700BFD07F5CE7314220021184616F057F91E
S214000D80022387F89C31002387F89D315A4B1B8835
S214000D9007F5CE721421184601F0DCFBFDE01420A6
S214000DA0FFF7F2FC07F5CE7314220021184616F062
S214000DB03EF9012387F89C314F4B1B8807F5CE720E
S214000DC01421184601F0C6FBE7E00D20FFF7DCFC17
S214000DD0E3E00E20FFF7D8FC494B1B78302B40F0A1
S214000DE0DB80484B06221A70D6E00320FFF7CCFCC7
S214000DF007F5CE7314220021184616F018F90323BF
S214000E0087F89C31404B1B785BB287F89D313A4B94
S214000E101B8807F5CE721421184601F09BFB0023B1
S214000E2087F8C73143E007F5CE7314220021184631
S214000E3016F0FDF897F8C731334A2E2101FB03F36D
S214000E40134409331B785BB287F89C312C2387F850
S214000E509D3107F5CE73023397F8C7212E2101FB8B
S214000E6002F2083228490A4404321146184616F09F
S214000E7076F907F5CE730233184616F078F903466E
S214000E8087F8B33197F8B331023387F8B3311F4B85
S214000E901B8807F5CE721421184601F05BFB0A206A
S214000EA001F095FA97F8C731013387F8C731164B2A
S214000EB01B7897F8C7219A42B5D36EE01520FFF746
S214000EC063FC07F5CE7314220021184616F0AFF81F
S214000ED0022387F89C31012387F89D312C2387F85D
S214000EE09E31002387F8C63124E000BFB48201009B
S214000EF0B8820100F15C0020961300203013002019
S214000F003A5600203C56002068190020981300200E
S214000F1097F8C631254AD25C97F8C631033352B2E9
S214000F2007F5E4710B4403F82C2C97F8C63101330F
S214000F3087F8C63197F8C631052BE9D997F8C63138
S214000F40033307F5E47213442C2203F82C2C11E02B
S214000F5097F8C631154AD25C97F8C631043352B2B8
S214000F6007F5E4710B4403F82C2C97F8C6310133CF
S214000F7087F8C63197F8C631092BE9D90C4B1B8880
S214000F8007F5CE721421184601F0E4FA094816F067
S214000F9057F802E000BF00E000BF00BF01E000BF5E
S214000FA000E000BF07F5E477BD4680BD64980020EA
S214000FB0961300209882010080B582B000AF0346E9
S214000FC03960FB801346BB80FB88013B042B2DD881
S214000FD001A252F823F000BFED0F00000D10000034
S214000FE0151000001D1000002510000040F202221F
S214000FF00021104816F01BF8BB881A4639680D48C1
S21400100015F0F1FF0320FFF7ABFB0FE01520FFF70D
S214001010A7FB0BE01420FFF7A3FB07E00F20FFF76A
S2140010209FFB03E01220FFF79BFB00BF00BF0837C3
S214001030BD4680BD6819002080B485B000AF7860DA
S21400104039607B6803F1C063FB60FB683A681A602E
S21400105000BF1437BD465DF8047B704780B485B08A
S21400106000AF786039607B6803F18063FB60FB68E3
S2140010703A681A6000BF1437BD465DF8047B7047B7
S21400108080B582B000AF03463960FB71FB79002B58
S21400109016D0FB79012B13D0FB79022B10D0FB79ED
S2140010A0032B0DD0FB79042B0AD0FB79052B07D038
S2140010B0FB79062B04D0FB79072B01D0FB79082B94
S2140010C0FA7913465B0013441B010C3303F180438B
S2140010D003F5082301213A6801FA02F21146184680
S2140010E0FFF7BCFF00BF0837BD4680BD80B582B0A5
S2140010F000AF03463960FB71FB79002B16D0FB79F5
S214001100012B13D0FB79022B10D0FB79032B0DD0CB
S214001110FB79042B0AD0FB79052B07D0FB79062B2D
S21400112004D0FB79072B01D0FB79082BFA791346FC
S2140011305B0013441B010C3303F1804303F50823C3
S21400114001213A6801FA02F211461846FFF774FFC9
S21400115000BF0837BD4680BD80B586B000AFF860DA
S214001160B9603B601346FB80FF23FB7501212448D2
S21400117014F06EFD002301220821022015F050FC19
S214001180002301220921022015F04AFC0023042234
S2140011900A21072015F044FC002304220D21072015
S2140011A015F03EFC174B1B78DBB2002B12D10A2140
S2140011B00720FFF765FF0D210720FFF761FF114BA2
S2140011C001221A70104815F03BFF00F04DF9034657
S2140011D0FB7511E00A210720FFF788FF0D21072085
S2140011E0FFF784FF074B00221A70084815F028FF07
S2140011F000F03AF90346FB7500BF1837BD4680BDC0
S21400120000550A00F25C00202084010034840100AE
S21400121080B485B000AF0346B9607A60FB8100BF3A
S2140012201437BD465DF8047B7047000080B584B077
S21400123000AF78603960FF23FB73144815F000FF99
S2140012407B68002B1DD078680DF06CF90346002BE8
S21400125003D00F4815F0F4FE14E00E4815F0F0FE2B
S21400126078680EF0F5FA0346FB7397F90F30032BF8
S21400127003D1094815F0E4FE04E0084815F0E0FE46
S21400128000E000BF1037BD4680BD00BF48840100A7
S2140012905884010098840100D4840100F084010081
S2140012A080B58AB000AF00237B62092387F823301D
S2140012B007F1100300221A605A609A60DA601A82F8
S2140012C03B4600221A605A609A60C3F80B2043F629
S2140012D09821534801F0C4F978627B6A002B04DB3E
S2140012E07B6A43F69822934201DD7B6A94E03120C4
S2140012F001F0DEFC78627B6A002B05D0796A4948EB
S21400130015F09EFE7B6A87E0474815F099FE02209E
S21400131006F04EFE0D21002001F010FB78627B6A7D
S214001320002B05D0796A414815F08AFE7B6A73E087
S2140013303F4815F085FEFFF77BFB01F0DFFB786288
S2140013407B6A002B05D0796A3A4815F079FE7B6AED
S21400135062E0394815F074FE3B460F22194601201C
S21400136013F0B2FE78627B6A002B05D0796A3348A8
S21400137015F066FE7B6A4FE000220021052013F080
S21400138083FE786200220021032013F07DFE78623F
S21400139000220021042013F077FE786240F2BC524F
S2140013A02749052013F070FE78627B6A002B05D073
S2140013B0796A244815F044FE7B6A2DE0224815F031
S2140013C03FFE4FF499622149032013F05DFE7862D8
S2140013D07B6A002B05D0796A1D4815F031FE7B6AC2
S2140013E01AE01C4815F02CFE40F28F621A490420C1
S2140013F013F04AFE78627B6A002B05D0796A17489C
S21400140015F01EFE7B6A07E0154815F019FE154913
S214001410022014F04FF8002318462837BD4680BD3A
S214001420C05D002004850100388501005C85010050
S21400143094850100B8850100EC8501000C8601004A
S214001440680B002038860100708601000C00002022
S21400145094860100D0860100D8040020F88601009A
S2140014603C8701001112000080B58AB000AFFF2350
S21400147087F827300023FB7000233B75344BFB6155
S21400148000237B75324815F072FE03463B6201234B
S2140014903B71304BFB6000237B712E4815F067FED6
S2140014A003463B612C4B01221A702C4B1B78DBB297
S2140014B0012B23D12A4815F05AFE03469AB23B1D4B
S2140014C0274928480EF09FFB034687F8273097F9F0
S2140014D0273013F11C0F03D1234815F0B1FD09E0A6
S2140014E097F92730002B05D097F9273019461F4863
S2140014F015F0A6FD1E4B00221A7023E0184815F0C2
S21400150036FE03469AB207F11403154915480EF045
S2140015107AFB034687F8273097F9273013F11C0F1C
S21400152003D1114815F08CFD09E097F92730002B00
S21400153005D097F9273019460C4815F081FD0C4B5D
S21400154000221A7097F9273018462837BD4680BD06
S2140015504811002028110020BC5D0020F25C00200D
S2140015606C8701009C130020A8870100C887010033
S214001570F35C0020B0B5AAB002AFFF2387F89F3017
S2140015808F4B07F168041D460FCD0FC40FCD0FC457
S21400159095E80F0084E80F008A4B07F130041D46DB
S2140015A00FCD0FC40FCD0FC40FCD0FC495E80300A9
S2140015B084E80300002387F86830834BFB66834B80
S2140015C01B689BB2A7F87030814B7B67814BBB676B
S2140015D0814BFB6744F62063C7F8843041F28833BA
S2140015E0C7F88830012387F88C307C4BC7F89030DA
S2140015F00023C7F894304FF41673FB87012387F84F
S2140016004030042387F83430754BBB63744815F0BC
S214001610AEFD03469BB2BB87002387F84130714B73
S214001620BB65704815F0A3FD03469BB2A7F85C3077
S2140016306D4B3B666C4815F09AFD03469BB2A7F8C7
S21400164064306A4B07F114041D460FCD0FC495E8AD
S214001650070084E80700664B3C1D0FCB84E80F00AC
S214001660C823C7F89830584B7B61584B1B689BB211
S2140016703B83584B3B62584B7B62554BFB610023C8
S21400168087F828300023FB62FFF70AFE00F002F915
S214001690FFF76CFA574B1B78032B02D001F0EAFADF
S2140016A0F4E700BF07F16803194653480CF014FE30
S2140016B0034687F89F3097F99F30002B03D04F489A
S2140016C015F0BEFC02E04E4815F0BAFC4D4B7B60B0
S2140016D0434BBB60424815F04AFD03469BB2BB81B4
S2140016E0494815F0ADFC07F13003194642480DF0A5
S2140016F0C5FF034687F89F3097F99F30002B03D02D
S214001700424815F09DFC02E0414815F099FC41481E
S21400171015F096FC012138480CF016FF034687F8B2
S2140017209F3097F99F30002B03D03B4815F088FC7C
S21400173002E03A4815F084FC394815F081FC394837
S21400174015F015FD03469AB2374B0193374B0093BD
S2140017500023344928480EF0AEFD034687F89F3034
S21400176097F99F30002B03D0314815F069FC02E052
S214001770304815F065FC304B1B78DBB2012B10D1DE
S214001780FFF772FE034687F89F3097F99F30002BCD
S21400179003D02A4815F054FC0CE0294815F050FCFC
S2140017A008E0284815F04CFC42F2107112480FF081
S2140017B0CDF8F9E700BF1846A037BD46B0BD00BF5C
S2140017C0D4910100049201008011002080120020B4
S2140017D0680B00200C000020D80400202D1200000A
S2140017E0E88701006811002074110020349301007E
S2140017F050930100589800209C130020F0870100A9
S2140018001488010034880100408801005C880100CB
S2140018107488010090880100B0880100D888010013
S214001820F888010014890100E8150020591100000D
S2140018304C89010060890100F35C0020808901006A
S21400184098890100B889010080B485B000AF0346CE
S214001850B9607A60FB81074B01221A70064B0022A2
S2140018601A70064B0B221A7000BF1437BD465DF87F
S214001870047B7047B2180020B01800203C560020A9
S21400188080B500AF0249002013F014FE00BF80BDF3
S2140018904918000080B58AB004AF00237B61A34BD3
S2140018A01B780E2B00F2A38101A252F823F000BF92
S2140018B0ED180000EF1B0000B51A00009D1B00008D
S2140018C0EF1B00000F19000059190000EF1B000065
S2140018D0EF1B0000EF1B0000EF1B0000A51B000025
S2140018E0BD1B0000EF1B00001D1A0000062000F0C4
S2140018F06EFDFFF7C5FF8E4B1B78002B03D08B4B7E
S2140019000E221A7078E1894B01221A7074E1894B15
S21400191040F202221A8040F202220021864815F088
S21400192086FB844B1B88844A0021002012F060FC52
S21400193078617B69002B04D07969804815F080FBBC
S2140019405AE17A4B01221A707A4B1B881A467A495A
S2140019500120FFF731FB4FE1794B1B78002B03D0BA
S214001960774B1B78302B06D100220021754812F0E9
S214001970CFFD78612BE0724B1B78012B03D0704BA8
S2140019801B78312B06D1704A01216E4812F0C0FD3B
S21400199078611CE06A4B1B78022B03D0684B1B78DF
S2140019A0322B06D1684A0221664812F0B1FD7861F2
S2140019B00DE0634B1B78062B03D0614B1B78362B50
S2140019C005D1614A06215F4812F0A2FD78617B6965
S2140019D0002B1CD05D4B1B780133DAB25B4B1A70C0
S2140019E05A4B1B78052B0DD1584B00221A70584BBA
S2140019F001221A70012256490520FFF7DDFA4B4BEB
S214001A000D221A707969534815F01AFBF4E04F4B13
S214001A1000221A70454B02221A70EDE04E4B1B78DE
S214001A20002B00F0E680464B1B78002B03D0444B7F
S214001A301B78302B06D100220021424812F068FDA8
S214001A4078612BE03E4B1B78012B03D03C4B1B7878
S214001A50312B06D13C4A01213A4812F059FD7861F3
S214001A601CE0374B1B78022B03D0354B1B78322BF0
S214001A7006D1354A0221334812F04AFD78610DE05E
S214001A802F4B1B78062B03D02D4B1B78362B05D1FE
S214001A902D4A06212B4812F03BFD78617B69002B0E
S214001AA004D079692B4815F0CBFAA5E01F4B02222B
S214001AB01A709EE00023039312230293274B019390
S214001AC000230093002300220121042013F0B0F825
S214001AD078617B69002B49D01C4B1B780133DAB246
S214001AE01A4B1A70194B1B78032B19D1174B00226F
S214001AF01A70174B01221A7013F052F878617B693E
S214001B00002B0DD1164B00221A70164B01221A70AC
S214001B1001220F490520FFF74FFA044B0D221A70D9
S214001B207969114815F08CFA66E000BF3C56002033
S214001B30F05C0020629800207C9800203C8B01001E
S214001B403A5600200019002018560020B41800202D
S214001B50B1180020648B01008412002064980020D5
S214001B60B0180020B3180020908B0100254B0022EF
S214001B701A70254B01221A70244B01221A70244B2E
S214001B8000221A70234B00221A70234B03221A706D
S214001B9001221D490220FFF70FFA2DE01F4B0322FA
S214001BA01A7029E01E4B01221A70012218490320E0
S214001BB0FFF702FA184B0E221A701DE012F0F0FF23
S214001BC078617B69002B16D17969164815F038FACA
S214001BD0104B01221A700C4B00221A7001220D497C
S214001BE00420FFF7E9F90C4B01221A7003E000BF4E
S214001BF002E000BF00E000BF00BF18461837BD4631
S214001C0080BD00BFB4180020B018002060980020E7
S214001C10B2180020B31800203C5600205898002028
S214001C2084120020B88B010080B483B000AF034656
S214001C30FB7197F90730002B0BDBFB7903F01F02D3
S214001C40074997F907305B09012000FA02F241F8CC
S214001C50232000BF0C37BD465DF8047B704700BFED
S214001C6000E100E080B483B000AF0346FB7197F953
S214001C700730002B10DBFB7903F01F02094997F9A8
S214001C8007305B09012000FA02F2203341F82320D6
S214001C90BFF34F8FBFF36F8F00BF0C37BD465DF8A5
S214001CA0047B704700E100E080B483B000AF78604A
S214001CB0044A7B68C2F8243400BF0C37BD465DF882
S214001CC0047B70470080084080B500AF064B1B6859
S214001CD0002B02D0044B1B6898474AF6AA20FFF751
S214001CE0E3FF00BF80BD00BF809A002080B483B0B1
S214001CF000AF7860044A7B68136000BF0C37BD46AF
S214001D005DF8047B704700BF809A002080B500AF66
S214001D100D20FFF7A7FF00BF80BD80B500AF0D20E8
S214001D20FFF782FF00BF80BD80B485B000AF78604B
S214001D3039607B6803F10473DA003B6813449B0048
S214001D40FB60FB681B6818461437BD465DF8047BCD
S214001D50704780B485B000AF786039607B6803F167
S214001D608063FB60FB683A681A6000BF1437BD46A4
S214001D705DF8047B704780B582B000AF03463960DB
S214001D80FB71FB79002B16D0FB79012B13D0FB7966
S214001D90022B10D0FB79032B0DD0FB79042B0AD035
S214001DA0FB79052B07D0FB79062B04D0FB79072B94
S214001DB001D0FB79082BFA7913465B0013441B010C
S214001DC01C3303F1804303F5082339681846FFF7F0
S214001DD0ABFF034618460837BD4680BD80B582B0C7
S214001DE000AF03463960FB71FB79002B16D0FB79F8
S214001DF0012B13D0FB79022B10D0FB79032B0DD0CF
S214001E00FB79042B0AD0FB79052B07D0FB79062B30
S214001E1004D0FB79072B01D0FB79082BFA791346FF
S214001E205B0013441B010C3303F1804303F50823C6
S214001E3001213A6801FA02F211461846FFF789FFB7
S214001E4000BF0837BD4680BD80B582B000AF0346F0
S214001E50FB710B46BB7113467B710121154813F0CD
S214001E60F7FE002304220C21002014F0D9FD0C21DB
S214001E70002014F06BFE03467B71002301220D2127
S214001E80002014F0CDFD0D21002014F05FFE034667
S214001E907B71012304220B21012014F0C1FD0B21CC
S214001EA0012014F053FE03467B7100BF0837BD4681
S214001EB080BD00BF00550A0080B582B000AF034663
S214001EC0FB71FB79042B05D1012304220C21002091
S214001ED014F0A6FDFB79032B05D1012301220D2169
S214001EE0002014F09DFDFB79012B06D1012307226B
S214001EF00B21012014F094FD00BF00BF0837BD463B
S214001F0080BD80B584B000AF0346FB710023FB7331
S214001F10FB79042B05D10C210020FFF72CFF03468C
S214001F20FB73FB79032B05D10D210020FFF723FF60
S214001F300346FB73FB79022B05D109210120FFF72D
S214001F401AFF0346FB73FB7B18461037BD4680BD61
S214001F5080B582B000AF0346FB71FB79042B03D13A
S214001F600D210020FFF73AFFFB79032B03D10C214C
S214001F700020FFF733FFFB79062B03D10D2100204D
S214001F80FFF72CFFFB79012B04D10B210120FFF773
S214001F9025FF00BF00BF0837BD4680BD80B483B0B4
S214001FA000AF03463960FB7197F90730002B0ADB58
S214001FB03B68DAB20C4997F907305201D2B20B44AB
S214001FC083F800230AE03B68DAB20849FB7903F09D
S214001FD00F03043B5201D2B20B441A7600BF0C37F3
S214001FE0BD465DF8047B704700E100E000ED00E0D0
S214001FF080B582B000AF78607B68013BB3F1807F2C
S21400200001D301230FE00A4A7B68013B5360072196
S2140020104FF0FF30FFF7C2FF054B00229A60044BDB
S21400202007221A60002318460837BD4680BD00BF49
S21400203010E000E080B483B000AF78604FF06043FB
S214002040D3F8803E03F00103002B13D04FF060431B
S214002050D3F8003E03F00103002B0BD000E000BFD6
S2140020604FF060431B68002BF9D04FF060437A684E
S214002070D2B21A707B6818460C37BD465DF8047BF2
S2140020807047000080B400AF4FF0804301225A64CE
S214002090184BD3F8B030174A43F00103C2F8B030FB
S2140020A0144BD3F8E030134A43F00803C2F8E0308C
S2140020B0114B1B68104A43F4805313600D4BD3F842
S2140020C0E0300C4A23F00803C2F8E030094BD3F89E
S2140020D0B030084A23F00103C2F8B030074B1B6843
S2140020E0064A43F4F843136000BFBD465DF8047B20
S2140020F0704700BF00400E4034400540A4310E40FB
S21400210080B582B000AF0346FB71FB791846FFF737
S21400211091FF034618460837BD4680BD80B400AF21
S21400212000231846BD465DF8047B7047B0B588B0FE
S21400213000AF0023FB610121234813F089FD2248EC
S21400214013F02EFEF861002304220C21042014F064
S21400215067FC012304220D21042014F061FC0123F6
S21400216004220A21042014F05BFC012301220B2127
S214002170042014F055FC154B3C1D1D460FCD0FC416
S21400218095E8030084E8030001237B74104BFB6092
S21400219001237B760023BB820123BB7400233B71A3
S2140021A03B1D19460B4814F0AFFD0A4B00229A67F8
S2140021B0084B0F225A670521064814F05BFD00BF46
S2140021C02037BD46B0BD00BF007204004C8D010034
S2140021D0404B4C000000014080B483B000AF354B4C
S2140021E0D3F8B030334A43F02003C2F8B030324B55
S2140021F0D3F84034304A43F01003C2F840342E4B34
S214002200D3F844342C4A23F00303C2F844342A4B50
S214002210D3F8F430284A23F47063C2F8F430264B1F
S214002220D3F8F430244A43F48063C2F8F43015231C
S2140022307B60204B10221A6600BF1E4BD3F89030EE
S21400224003F02003002BF8D01C4B1B681B4A43F0FE
S21400225001031360194BDB68184A43F08073D360A0
S214002260174B40F2FF321A60164A7B681361154B13
S2140022700222C3F8F020134B4FF48072C3F80423F5
S2140022804FF06043104AC3F8B02F4FF060430F4A38
S214002290C3F8802E4FF06043D3F8003E4FF0604204
S2140022A043F00103C2F8003E00BF0C37BD465DF8A0
S2140022B0047B704700400E4000800840F0ED00E0D0
S2140022C0001000E0000004E055CEACC50900010097
S2140022D080B582B002AFFFF7D5FEFFF77DFF012184
S2140022E0134813F0B5FC002301220921012014F045
S2140022F097FB012301930023009301230922092160
S214002300012014F0F3FAFFF711FF0A4813F048FD16
S2140023100246094BA3FB02239B091846FFF768FEFB
S2140023200346002B00D000BE00BFBD4680BD00BFE8
S21400233000550A0070000200D34D621080B586B0CA
S21400234000AFF860B96011461A460B46FB8013468C
S2140023507B71FB68002B02D1124BFB6004E0BB686C
S214002360002B01D10F4BBB600023FB8210E0FB8AE1
S214002370FA6813441B7819460B4814F0CDFD014645
S214002380FB8ABA681344CAB21A70FB8A0133FB820E
S214002390FA8AFB889A42EAD3002318461837BD46C5
S2140023A080BD00BF849A00200000014080B483B046
S2140023B000AF3B600346FB710B46BB7113467B7157
S2140023C0002318460C37BD465DF8047B704780B581
S2140023D084B000AF78607B68002B0CD000F01EF84D
S2140023E0F86000F01BF80246FB68D31A7A689A4237
S2140023F0F7D800BF00E000BF1037BD4680BD000024
S21400240080B400AF044B1B680133034A136000BF5F
S214002410BD465DF8047B7047B818002080B400AF56
S214002420034B1B681846BD465DF8047B704700BF2B
S214002430B818002080B584B000AF3B4600221A6072
S2140024405A609A60DA6001233B7080237B70002319
S214002450BB700023FB703B4604330F49184607F059
S21400246033FE7B89002B02D14FF480737B81BB89BE
S214002470002B02D14FF40073BB810023BB730723EC
S214002480FB733B4600221946752005F06DFC03469B
S21400249018461037BD4680BDC88E010080B58AB08C
S2140024A000AF78600B467B8007F1080320220021EE
S2140024B0184614F0BCFD7B881F2B28BF1F239BB239
S2140024C0DBB23B723B7A1A4607F1080301337968A0
S2140024D0184614F088FD07F10803002219469C20D0
S2140024E005F042FC034618462837BD4680BD84B03A
S2140024F080B586B000AF07F1200C8CE80F003B4695
S21400250000221A605A609A60DA601A615A613B4685
S214002510142207F12001184614F065FD3B467A6B3D
S2140025201946922005F020FC034618461837BD468B
S214002530BDE8804004B0704780B582B000AF7860D8
S21400254000227968932005F00FFC034618460837EA
S214002550BD4680BD80B5C0B000AF3B461A6003469E
S214002560FB800B46BB8007F10C03F42200211846C3
S21400257014F05DFDFB88BB81BB88F02B28BFF023E1
S2140025809BB2FB81FB8919463B4607F10C02101DE6
S2140025900A46196814F027FD07F10C0300221946B5
S2140025A0942005F0E1FB0346184607F58077BD4604
S2140025B080BD80B590B000AF786007F10C03332281
S2140025C00021184614F033FD786814F0D0FD034659
S2140025D0312B05D8786814F0CAFD0346DBB200E05C
S2140025E0312387F83F3097F83F2007F10C0301337B
S2140025F07968184614F0F7FC97F83F3007F1400268
S2140026001344002203F8332C07F10C03002219466A
S214002610012005F0A9FB034618464037BD4680BD9D
S21400262080B400AF044B1B68DB685B681846BD4689
S2140026305DF8047B704700BFBC18002080B483B0F0
S21400264000AF7860054B1B68DB687A685A6000BF8D
S2140026500C37BD465DF8047B704700BFBC180020F1
S21400266080B586B002AF786039600023FB60002337
S214002670BB607B6803F00303002B0BD07B6803F082
S21400268003023B681344043B3B607B68033323F040
S21400269003037B603A680021786814F0C8FC00F0F9
S2140026A0F5FA03461A46BB681344BB603A68BB6833
S2140026B09A4201D2BB6828E1964A7B6813607B6821
S2140026C03A681A607B6804337B60934A7B681360C1
S2140026D07B68AC337B60914A7B6813607B682033F1
S2140026E07B608F4A7B6813607B6844337B608D4ACF
S2140026F07B6813607B68F0337B608B4A7B68136073
S2140027007B6803F5A0637B60884A7B6813607B6800
S214002710D0337B60864A7B6813607B68C4337B60FB
S2140027207D4B1B687A681A647B680C337B6010F0FC
S214002730DBFF794B1B6818464FF4C8634FF4CA6238
S214002740796807F0E5FA7B6803F5CA637B60794A27
S2140027507B6813607B6854337B606F4B1B687A68BA
S214002760DA607B6840337B606B4B1B68DB6818461F
S21400277005F02AFC684B1B68DB6803F11400642331
S2140027807422796807F0C4FA7B6874337B60624B06
S2140027901B687A681A627B6838337B605E4B1B68FE
S2140027A01B6A184607F0A4FE5B4B1B681B6A03F106
S2140027B014004FF4C8634FF4CA62796807F0A8FAA9
S2140027C07B6803F5CA637B60534B1B68343318463B
S2140027D007F064FB06F0B4FE4F4B1B682433184624
S2140027E007F0DEFA4C4B1B681033184607F0D8FA91
S2140027F0494B1B687A68DA667B68D0337B60464B49
S2140028001B68DB6E184601F019FC434B1B68DB6E39
S21400281003F11C004FF496734FF49E72796807F02C
S21400282077FA7B6803F59E737B603B4B1B687033BF
S214002830184607F0B5FA384B1B687A68C3F890203C
S2140028407B68D0337B60344B1B68D3F890301846D7
S21400285001F0F4FB304B1B68D3F8903003F11C00FA
S2140028604FF482634FF48462796807F051FA7B680C
S21400287003F584637B60284B1B687A68C3F8A42042
S2140028807B68D0337B60244B1B68D3F8A430184693
S21400289001F0D4FB204B1B68D3F8A43003F11C00D6
S2140028A04FF496734FF49E72796807F031FA7B689E
S2140028B003F59E737B60184B1B687A689A667B6884
S2140028C010337B60144B1B687968184601F0FAFBDE
S2140028D003461A467B6813447B607B680D4A126881
S2140028E09B1A1A463B68934204D27B68094A1268D0
S2140028F09B1A0AE0104B00930123012201210020BD
S214002900FFF754FD05F0D5FFBB6818461037BD46E7
S21400291080BD00BFC0180020BC180020D0A000203A
S214002920CCA00020C8A00020C4A00020D8A0002072
S214002930D4A00020C4180020ED9E000080B588B00A
S21400294000AF03460A46FB801346BB800023FB61AC
S214002950674B1B68DB68BB61654B1B681B6A7B614A
S214002960BB69BA881A86BB691B8E23F001039AB22C
S214002970BB691A8607F108034EF66021184607F071
S214002980CAFA10E05A4B1B683433184607F09AFA16
S21400299007F10803184607F0CEFA0346002B02D0CC
S2140029A06FF01703A0E0BB691B78DBB2002BE9D001
S2140029B07B695B78DBB2002B3ED07B695B78DBB251
S2140029C0092B04D07B695B78DBB20A2B16D17B69B6
S2140029D01B78DBB2022B06D9BB691B8E43F00103C2
S2140029E09AB2BB691A867B6900225A7000BFFFF74D
S2140029F017FEF861FB69002B13D010E03D4B1B68F7
S214002A0010333D49184607F001F90346002BD4D091
S214002A106FF01D00FFF712FE6FF01D0364E0FB6908
S214002A2062E012F043FBF861FB69002B01D0FB6902
S214002A305AE045F65A2357E0BB691B78DBB2012BF8
S214002A4002D06FF002034FE00121002005F068FF7E
S214002A500346002B3CD1BB691433184607F074F9C3
S214002A6038613B69002B06D10021002005F058FF95
S214002A706FF0030338E03B69143328220021184620
S214002A8014F0D5FA3B691433FB607B69FA88DA8662
S214002A90F868BB881A04FB881343194607F076FAD1
S214002AA03969102005F0EEFAF861124B1B681433F2
S214002AB04EF66021184605F01BFF0021002005F0A9
S214002AC02FFFFFF7ADFDF861FB69002B0BD102E08D
S214002AD06FF0220308E0BB880D2B02D0BB88052BC5
S214002AE001D101F019FBFB6918462037BD4680BDB1
S214002AF0BC180020C4180020400D030080B584B028
S214002B0000AF0023FB60264B1B68DB68BB6001211F
S214002B10002005F005FF0346002B3AD1BB681433AE
S214002B20184607F011F978607B68002B06D1002163
S214002B30002005F0F5FE6FF003032CE07B681433ED
S214002B403B603B6800221A703B6801225A703B6863
S214002B5000229A703B680022DA703B6801221A71E4
S214002B603B6830229A607968C82005F08BFAF860D6
S214002B700C4B1B6814334EF66021184605F0B8FE61
S214002B800021002005F0CCFEFFF74AFDF860FB6848
S214002B9001E06FF0220318461037BD4680BD00BF27
S214002BA0BC180020C418002080B586B000AF78603E
S214002BB00B467B8000237B612B4B1B68DB683B61ED
S214002BC03B691B78DBB2002B0BD105E0264B1B685C
S214002BD03433184607F076F93B691B78DBB2012BD5
S214002BE0F4D10121002005F09BFE0346002B34D1D2
S214002BF03B691433184607F0A7F8F860FB68002B0B
S214002C0006D10021002005F08BFE6FF0030326E0BE
S214002C107B68002B06D03B697A685A637A883B69E2
S214002C209A6305E03B6900225A633B6900229A6377
S214002C30F968492005F026FA78610C4B1B681433B6
S214002C400B49184605F054FE0021002005F068FEEA
S214002C50FFF7E6FC78617B6901E06FF02203184617
S214002C601837BD4680BD00BFBC180020C418002021
S214002C7020A1070080B500AF034B1B68343318460D
S214002C8007F020F900BF80BDBC18002080B483B0D8
S214002C9000AF00237B607B6803F5085324337B601A
S214002CA07B6818460C37BD465DF8047B704700000D
S214002CB080B584B000AF0346FB710023FB60FFF7CE
S214002CC007FB05F0A7FE0346FB60FB68002B01D060
S214002CD0FB6853E06420FFF77AFB00F017FB03461F
S214002CE0FB60FB68002B01D0FB6847E007F1080398
S214002CF04EF66021184607F00EF905F09FFE0346D3
S214002D00FB60FB68002B05DAFB6813F10C0F01D0A3
S214002D10FB6833E007F10803184607F00CF9034692
S214002D20002B02D06FF0180328E0FB6813F10C0F9D
S214002D30E3D0FB79312B03D1002000F083FA0CE0BE
S214002D40FB79712B09D1022000F07CFA0346FB6068
S214002D50FB68002B01DAFB6810E0FB79184605F0EB
S214002D60B1FE0346FB60FB68002B01DAFB6805E05A
S214002D700448FEF7BBFFFEF7D0FFFB681846103787
S214002D80BD4680BD358E000090B587B000AF786038
S214002D9007F10C03184600F05FF80346FB82B7F90C
S214002DA01630002B02D0B7F9163020E007F10C03DE
S214002DB00233184607F000F90346043B9CB207F1BD
S214002DC00C03184607F0F8F80346043B9BB21A4675
S214002DD02146786800F08EF80346FB82B7F9163075
S214002DE0002B02D0B7F9163001E0B7F916301846B6
S214002DF01C37BD4690BD80B586B000AFF860B960A0
S214002E001346FB80F86800F0E9F80346FB82B7F942
S214002E101630002B02D0B7F9163019E0FB88002BCD
S214002E2014D0FB8803339BB223F00303FB80F8889F
S214002E3000230022B96800F011F90346FB82B7F9B7
S214002E401630002B02D0B7F9163001E0B7F916306D
S214002E5018461837BD4680BD80B584B000AF786090
S214002E605C23FB730023BB7304237B7300233B7339
S214002E70BA7BFB7B1146184600F04CF903467B8173
S214002E80B7F90A30002B02D0B7F90A302CE03A7BAB
S214002E907B7B1146184600F085F903467B81B7F91F
S214002EA00A30002B02D0B7F90A301DE00121104885
S214002EB000F09AF903467B81B7F90A30002B02D05E
S214002EC0B7F90A3010E00123042279680020FFF7E2
S214002ED035FA03467B81B7F90A30002B02D0B7F9E2
S214002EE00A3001E0B7F90A3018461037BD4680BDF3
S214002EF020A1070080B588B000AF78600B467B80C5
S214002F0013463B800023BB613B88033323F0030357
S214002F10BB615D23FB750023BB75BB697B75BB6915
S214002F201B0A3B75BA7DFB7D1146184600F0F2F889
S214002F300346FB83B7F91E30002B02D0B7F91E30CC
S214002F4046E03A7D7B7D1146184600F02BF9034695
S214002F50FB83B7F91E30002B02D0B7F91E3037E0DE
S214002F6001211D4800F040F90346FB83B7F91E30E7
S214002F70002B02D0B7F91E302AE07B88002B0FD03A
S214002F807A8807F10C0100230020FFF7D7F90346E3
S214002F90FB83B7F91E30002B02D0B7F91E3017E0BE
S214002FA07B68002B12D0BB699AB27B88D31A9AB280
S214002FB0012379680020FFF7C1F90346FB83B7F9C0
S214002FC01E30002B02D0B7F91E3001E0B7F91E30D4
S214002FD018462037BD4680BD20A1070080B588B0C2
S214002FE000AF78607C23FB770023BB7710237B77CA
S214002FF000233B77BA7FFB7F1146184600F08AF81D
S21400300003467B83B7F91A30002B02D0B7F91A3083
S21400301020E03A7F7B7F1146184600F0C3F803464F
S2140030207B83B7F91A30002B02D0B7F91A3011E0BB
S214003030786807F1080101231022FFF77FF903469D
S2140030407B83B7F91A30002B02D0B7F91A3001E0AB
S214003050B7F91A3018462037BD4680BD80B586B011
S21400306000AFB9607B600346FB811346BB81FA89DB
S214003070BB891344BB827C23FB740023BB74BB8ACE
S2140030807B74BB8A1B0A9BB23B74BA7CFB7C1146E2
S214003090184600F03FF80346FB82B7F91630002BBF
S2140030A002D0B7F9163031E03A7C7B7C11461846E0
S2140030B000F078F80346FB82B7F91630002B02D0F2
S2140030C0B7F9163022E0FA8901230021B868FFF725
S2140030D035F90346FB82B7F91630002B02D0B7F954
S2140030E0163013E0BB89002B0ED0BA8901230021CD
S2140030F07868FFF723F90346FB82B7F91630002BF2
S21400310002D0B7F9163001E0B7F91630184618376E
S214003110BD4680BD80B588B000AF03460A46FB7149
S2140031201346BB714CF25033BB611D4B1B6800222B
S2140031301A64FB793B75BB797B75194B1A68136C5F
S214003140591C1164BA699A4203D24FF6E973FB839D
S21400315020E007F10C0107F1140000230222FFF71C
S214003160EDF80346FB837B7B582B02D07B7B002B42
S21400317002D10023FB830DE07B7B522B03D14FF65D
S214003180FE73FB8306E07B7B542BD2D14FF6FF7396
S214003190FB83CEE7B7F91E3018462037BD4680BD04
S2140031A0C418002080B584B000AF03460A46FB7101
S2140031B01346BB71FB793B73BB797B7307F10C003D
S2140031C0002302220021FFF7B9F80346FB81B7F976
S2140031D00E30002B02D0B7F90E3001E0B7F90E30F2
S2140031E018461037BD4680BD80B584B000AF786005
S2140031F00B46FB70124B1B6800221A64104B1A68B1
S214003200136C591C11647A689A4203D24FF6FF7306
S214003210FB810FE000237B73FB7807F10D01012291
S2140032200020FFF78BF80346FB817B7B552BE5D10F
S2140032300023FB81B7F90E3018461037BD4680BD17
S214003240C418002080B584B000AF786000233B73BC
S21400325000237B7307F10C031A460221144800F082
S214003260F5F80346FB81B7F90E30002B1AD17B7BAD
S21400327023F00303DBB27B737A7B7B68DBB21343FA
S214003280DBB27B7307F10C031A460221084800F0F4
S21400329079F80346FB81B7F90E30002B02D0B7F958
S2140032A00E3001E0B7F90E3018461037BD4680BD27
S2140032B00000054180B584B000AF78604CF2503312
S2140032C0BB60114B1B6800225A640F4B1A68536C84
S2140032D0591C5164BA689A4203D24FF6E973FB81CF
S2140032E00CE07968002000F02DF90346FB81B7F961
S2140032F00E30B3F1FF3F00D1E7E700BFB7F90E305D
S21400330018461037BD4680BDC418002080B584B06E
S21400331000AF00237B600023FB810A23BB81184B90
S2140033201B6800221A64164B1A68136C591C116429
S214003330BA89934203D94FF6E973FB811AE0122348
S2140033403B724A237B725C23BB720023FB72391DDF
S21400335007F1080000230422FEF7F0FF0346FB8176
S214003360FB79582B02D10023FB8103E04FF6FF7355
S214003370FB81D8E7B7F90E3018461037BD4680BD3A
S214003380C418002080B58AB000AFF8600B467A609B
S2140033907B81742387F82730002387F826307B89C3
S2140033A087F825307B891B0A9BB287F8243007F103
S2140033B01C03F968184606F0E9FD97F8262097F8EA
S2140033C0273011461846FFF7A5FE03467B84B7F95B
S2140033D02230002B02D0B7F9223032E097F82420B2
S2140033E097F8253011461846FFF7DCFE03467B8427
S2140033F0B7F92230002B02D0B7F9223021E007F1CE
S214003400140107F11C0000230422FEF797FF034671
S2140034107B84B7F92230002B02D0B7F9223010E0B7
S2140034207A89002300217868FEF788FF03467B84AC
S214003430B7F92230002B02D0B7F9223001E0B7F9F5
S214003440223018462837BD4680BD000080B58AB0B9
S21400345000AFF8600B467A607B81542387F82730EC
S214003460002387F826307B8987F825307B891B0A5E
S2140034709BB287F82430FB68DBB23B77FB681B0AFD
S214003480DBB27B77FB681B0CDBB2BB77FB681B0EE3
S214003490DBB2FB7797F8262097F8273011461846B8
S2140034A0FFF738FE03467B84B7F92230002B02D0A4
S2140034B0B7F922303FE097F8242097F825301146D8
S2140034C01846FFF76FFE03467B84B7F92230002BC1
S2140034D002D0B7F922302EE007F1140107F11C00E4
S2140034E000230422FEF72AFF03467B84B7F9223026
S2140034F0002B02D0B7F922301DE000211048FFF75C
S21400350073FE03467B84B7F92230002B02D0B7F94E
S214003510223010E07A89002379680020FEF70EFF3B
S21400352003467B84B7F92230002B02D0B7F922304D
S21400353001E0B7F9223018462837BD4680BD00BFE7
S21400354020A1070080B584B000AF03463960FB7148
S2140035504123FB730023BB73BA7BFB791343BB7316
S214003560BA7BFB7B11461846FFF7D4FD0346BB81AA
S214003570B7F90C30002B02D0B7F90C3016E000215A
S2140035800C48FFF731FE0346BB81B7F90C30002B21
S21400359002D0B7F90C3009E0002301223968002078
S2140035A0FEF7CCFE0346BB81B7F90C301846103741
S2140035B0BD4680BD20A1070080B485B000AF03469D
S2140035C03960FB80FF23FB81FB8841F206029342B1
S2140035D01DD1754B1B68DB6EDB7C002B07D10223ED
S2140035E0FB81714B1B68D3F890203B681A606E4BCA
S2140035F01B68DB6EDB7C012B07D10323FB816A4B48
S2140036001B68D3F8A4203B681A60FB89A9E1FB88F5
S21400361040F2055293422FD0FB88002B02D0FB8845
S214003620072B29D9FB888C2B02D9FB888F2B23D913
S214003630FB88A62B20D0FB88A72B1DD0FB88B3F5D4
S214003640977F19D0FB8848F21002934214D0FB886B
S21400365048F2150293420FD0FB8848F21C029342B0
S2140036600AD0FB889A2B07D0FB88BE2B04D0FB8899
S21400367040F22F12934207D10123FB814A4B1B686D
S214003680DA6E3B681A606BE1FB88072B02D9FB8871
S2140036903D2B7FD9FB883D2B02D9FB88412B79D95E
S2140036A0FB88912B76D0FB88972B02D9FB889B2B27
S2140036B070D9FB889C2B02D9FB88A02B6AD9FB8883
S2140036C0A92B67D0FB88CB2B02D9FB88F12B61D9BD
S2140036D0FB8840F2091293425CD0FB88FE2B59D03F
S2140036E0FB88FF2B56D0FB88B3F5817F03D3FB887E
S2140036F0B3F5827F4ED9FB88B3F5805F04D3FB8891
S21400370041F21702934245D9FB88B3F5885F04D38C
S214003710FB8841F2021293423CD9FB88B3F5905FD6
S21400372004D3FB8841F20C22934233D9FB88B3F5CD
S214003730985F04D3FB8841F21D3293422AD9FB8856
S214003740B3F5A05F04D3FB8841F21442934221D91B
S214003750FB8841F24F42934204D9FB8841F2524221
S214003760934217D9FB88B3F5A35F13D0FB8841F2C9
S214003770614293420ED0FB8841F23E52934209D0FA
S214003780FB8841F23F52934204D0FB8840F20D1270
S21400379093420BD10223FB81034B1B68D3F8902086
S2140037A03B681A60DCE000BFBC180020FB88B3F55D
S2140037B0997F00F08180FB8840F2351293427BD0DF
S2140037C0FB88B3F59B7F77D0FB8840F2611293426B
S2140037D072D0FB88B3F59A7F6ED0FB8841F22F52E9
S2140037E0934269D0FB8841F23052934264D0FB8802
S2140037F041F2315293425FD0FB8841F233529342FA
S2140038005AD0FB8841F23452934255D0FB8841F29D
S2140038103552934250D0FB8841F2365293424BD0F9
S214003820FB8841F23752934246D0FB8841F2385229
S214003830934241D0FB8841F2325293423CD0FB88FF
S214003840B3F5B47F38D0FB8841F23952934233D077
S214003850FB8840F2691293422ED0FB88B3F5B57F01
S2140038602AD0FB8840F26B12934225D0FB88B3F532
S214003870B67F21D0FB8840F26D1293421CD0FB88A5
S214003880B3F5B77F18D0FB8841F23A52934213D073
S214003890FB8841F23B5293420ED0FB8841F22E52F7
S2140038A0934209D0FB8841F23E52934204D0FB88F3
S2140038B040F20D12934208D10223FB812C4B1B6869
S2140038C0D3F890203B681A604AE0FB88742B02D934
S2140038D0FB888C2B3CD9FB88912B02D9FB88972B35
S2140038E036D9FB889C2B33D0FB88A02B02D9FB88CB
S2140038F0A52B2DD9FB88A82B2AD0FB88A92B02D96B
S214003900FB88B82B24D9FB88B92B02D9FB88C02B9F
S2140039101ED9FB88C12B1BD0FB88F12B02D9FB8854
S214003920FD2B15D9FB8840F20112934210D0FB887C
S214003930B3F5827F03D9FB88B3F5867F08D9FB8869
S214003940B3F5A85F0CD3FB8841F23D52934207D8EB
S2140039500323FB81064B1B68D3F8A4203B681A6040
S214003960FB8918461437BD465DF8047B704700BFD8
S214003970BC18002080B485B000AF03460A46FB8022
S2140039801346BB800023FB60BB88022B07D0032BAB
S21400399067D0012B40F09A80514BFB6099E0FB8882
S2140039A0212B02D9FB88232B0BD9FB88CB2B02D9E2
S2140039B0FB88CF2B05D9FB88FD2B05D9FB88FF2B71
S2140039C002D8474BFB604BE0FB88CF2B02D9FB8825
S2140039D0D12B04D9FB8840F20D12934202D1414B01
S2140039E0FB603DE0FB88232B02D9FB882C2B0DD9EE
S2140039F0FB88D22B02D9FB88ED2B07D9FB88B3F5C1
S214003A00817F06D3FB88B3F5827F02D2364BFB60FC
S214003A1026E0FB882C2B05D9FB883A2B02D8304BA6
S214003A20FB601DE0FB883A2B05D9FB883D2B02D8AE
S214003A302B4BFB6014E0FB883D2B05D9FB88412B04
S214003A4002D8274BFB600BE0FB881E2B05D9FB88B2
S214003A50212B02D8224BFB6002E0224BFB6038E0B1
S214003A6037E0FB88742B02D9FB887E2B13D9FB88A2
S214003A709B2B02D9FB88C02B0DD9FB8840F2051280
S214003A80934208D0FB8840F20712934203D0FB888B
S214003A90B3F5604F02D1124BFB6016E0FB887E2B1D
S214003AA002D9FB88972B0AD9FB88C02B03D9FB8841
S214003AB0B3F5817F03D3FB88B3F5837F02D10A4B2E
S214003AC0FB6002E0074BFB6003E002E0054BFB6097
S214003AD000BFFB6818461437BD465DF8047B704788
S214003AE068A7040000E20400B09B040080B586B01E
S214003AF000AF786000237B610023FB7400233B82C9
S214003B000023FB607B6804337B617B6902331846C5
S214003B1006F052FA03463B8207F10C023B8A114636
S214003B201846FFF749FD0346FB74FB7CFF2B14D0B9
S214003B30FB681C337968184606F01CF9FB689B7C0A
S214003B40002B0BD1FB680021184600F00AF8FB6832
S214003B501833184606F0CAF800E000BF1837BD460E
S214003B6080BD80B483B000AF786039607B683A6807
S214003B701A6000BF0C37BD465DF8047B704780B402
S214003B8083B000AF78607B681B6818460C37BD466C
S214003B905DF8047B7047000080B584B000AF7860A5
S214003BA00023FB731D4B1B68D3F8A430BB600023B7
S214003BB0FB732BE07868FA7B1346DB0013445B004C
S214003BC03833BA68134402330622194613F0FCF958
S214003BD00346002B17D1FA7BB9681346DB00134463
S214003BE05B000B44413319787B689B79FA7B0B4466
S214003BF0D8B2B9681346DB0013445B000B4441336C
S214003C0002461A7005E0FB7B0133FB73FB7B032B3C
S214003C10D0D900BF1037BD4680BD00BFBC180020FD
S214003C2080B584B000AF78600023FB732A4B1B6816
S214003C30D3F8A430BB600023FB7345E0FA7BB96879
S214003C401346DB0013445B000B4446331B78002B03
S214003C5037D1FA7B1346DB0013445B003833BA686F
S214003C601344981C7B6801330622194613F0BBF9EF
S214003C70FA7BB9681346DB0013445B000B444633FB
S214003C8001221A70FA7BB9681346DB0013445B0006
S214003C900B44423301221A70FA7BB9681346DB00E4
S214003CA013445B000B44413301221A70FA7BB96857
S214003CB01346DB0013445B000B444A3301221A70A0
S214003CC005E0FB7B0133FB73FB7B032BB6D900BF00
S214003CD01037BD4680BD00BFBC18002080B584B03C
S214003CE000AF78600023FB732F4B1B68D3F8A4301B
S214003CF0BB600023FB7350E07868FA7B1346DB005A
S214003D0013445B003833BA6813440233062219465C
S214003D1013F05AF90346002B3CD1FA7BB9681346D8
S214003D20DB0013445B000B44463300221A70FA7B18
S214003D30B9681346DB0013445B000B444133002292
S214003D401A70FA7BB9681346DB0013445B000B4419
S214003D50473300221A70FA7BB9681346DB00134417
S214003D605B000B44423300221A70FA7BB968134694
S214003D70DB0013445B000B44483300221A80FA7BB6
S214003D80B9681346DB0013445B000B444A33002239
S214003D901A7005E0FB7B0133FB73FB7B032BABD96F
S214003DA000BF1037BD4680BDBC18002090B58BB054
S214003DB000AFF860B9607A6000237B8400233B8400
S214003DC00023FB6100237B83BB680433FB61FB6934
S214003DD00233184606F0F0F803467B84BB681433BB
S214003DE07B62F86906F0E8F80346C3F30B033B83EF
S214003DF0FB690C33184606F0DFF803463B84B7F938
S214003E0020301946F868FFF7ACFEFB681B8A7A8CF0
S214003E109A4240F0A280FB681B8A40F20552934209
S214003E2003D1FB6801229A8002E0FB6800229A8098
S214003E30FB681B8A7B83FB6800221A82FB68DB68B0
S214003E40002B0CD0FB68DB683A8B796A184613F0B7
S214003E50CAF8FB68DB687B62FB680022DA60FB68F6
S214003E609B7C002B6FD07B8BB3F5847F65D1B7F935
S214003E702030002B61D17B6A7B61FB6893F8CC30E5
S214003E8019467B699879FA680B46DB000B445B00A1
S214003E9013444A3302461A707B699B79002B2AD159
S214003EA07B69DA79FB6893F8CC30194613461A46D4
S214003EB0920013445B00D8B2FA680B46DB000B4452
S214003EC05B001344423302461A707B69DA79FB685A
S214003ED093F8CC30194613461A46920013445B00FA
S214003EE0D8B2FA680B46DB000B445B001344413340
S214003EF002461A701DE0FB6893F8CC3019467B69C1
S214003F00D879FA680B46DB000B445B001344423357
S214003F1002461A70FB6893F8CC3019467B69D8794C
S214003F20FA680B46DB000B445B0013444133024641
S214003F301A70FB68002283F8CC20FB6818331846FA
S214003F4005F0D4FE12E07B68002B0FD03B8B798CFB
S214003F507C687A6AF868A04708E07B68002B05D082
S214003F603B8B798C7C687A6AF868A047B7F9203072
S214003F7018462C37BD4690BD80B588B000AF786037
S214003F800023BB610023FB750023BB820023FB8359
S214003F900023FB6000233B617B680433BB61BB6985
S214003FA00233184606F008F80346BB82BB8A41F285
S214003FB00602934208D17B6814333B611C4B1B6896
S214003FC0DB6E3A699279DA7407F10C02BB8A114605
S214003FD01846FFF7F1FA0346FB75FB7DFF2B01D170
S214003FE0002320E0FB7D012B08D1FB6800227968C6
S214003FF01846FFF7DBFE0346FB8313E0FB7D022B30
S21400400008D1FB680B4A79681846FFF7CFFE0346CF
S214004010FB8307E0FB68084A79681846FFF7C6FE88
S2140040200346FB83FB8B18462037BD4680BD00BF8A
S214004030BC180020514100008156000080B584B0B5
S21400404000AF78600023FB737B68002B02D16FF013
S214004050010333E07B6800229A807B6800221A60A6
S2140040607B6800221A827B680022DA607B6818333D
S2140040700021184605F0BBFD0346FB7397F90F3089
S214004080002B02D06FF0270318E07B681433002162
S214004090184605F0ACFD0346FB7397F90F30002B6E
S2140040A002D06FF0270309E07B681433184605F04A
S2140040B01DFE7B6800229A6297F90F30184610376B
S2140040C0BD4680BD80B485B000AF786039607B683F
S2140040D09B6EFB6000237B81FB683A685A607B68B6
S2140040E0D3F8A430FA681A637B89D0337B817B8946
S2140040F03A681A44FB689A607B68D3F89030FA688E
S2140041001A637B8903F5DE737B817B891846143737
S214004110BD465DF8047B704780B582B000AF0A4BA1
S2140041201B68DB6E7B607B6840F205521A827B68F8
S21400413001229A747B6818330449184605F066FD18
S21400414000BF0837BD4680BDBC18002000E2040052
S21400415080B588B000AFF8607A601A460B467B815F
S21400416013463B81FB681B6B9B68FB61EA4B1B6835
S214004170DB68BB610023FB82F868FFF700FD03469F
S214004180FB827B8941F21232934200F08A8541F22B
S2140041901232934200F3408141F21702934200F03C
S2140041A0D28241F21702934200F3918041F2090253
S2140041B0934200F0658341F2090293423EDC41F2ED
S2140041C00202934200F0A58241F20202934215DCFD
S2140041D0D02B00F02484D02B05DC1D2B00F072823F
S2140041E01E2B01F072B9B3F5805F00F0788241F2C1
S2140041F00102934200F0808201F067B941F20502A5
S214004200934200F0BA8241F2050293420BDC41F27F
S2140042100302934200F08A8241F20402934200F0C5
S2140042209F8201F052B941F20702934200F0C68223
S21400423041F20702934200F3CE82ABE241F2100253
S214004240934200F0918341F2100293421FDC41F248
S2140042500C02934200F03A8341F20C0293420BDCCC
S21400426041F20A02934200F0188341F20B02934295
S21400427000F0208301F029B941F20E02934200F0CB
S2140042803F8341F20E02934200F3A2832BE341F2F6
S2140042901302934200F0828341F2130293420BDC36
S2140042A041F21102934200F06C8341F212029342F3
S2140042B000F0918201F009B941F21502934200F034
S2140042C0978241F21502934200F3CB8273E341F2E8
S2140042D00A22934200F0188441F20A2293424DDCEF
S2140042E041F20222934200F0A98341F20222934255
S2140042F01EDC41F20212934200F0298341F20212C0
S21400430093420ADCB3F5885F00F0078341F201129E
S214004310934200F00F8301F0D8B8B3F5905F00F039
S214004320648341F20122934200F06C8301F0CDB821
S21400433041F20522934200F0A88341F205229342FF
S2140043400BDC41F20322934200F0858341F2042203
S214004350934200F08D8301F0B8B841F207229342F1
S21400436000F0B48341F207229342C0F29B8341F2ED
S2140043700822934200F0B98301F0A7B841F2053253
S214004380934200F0388441F2053293421EDC41F23B
S2140043900132934200F0E58341F2013293420ADC97
S2140043A041F20C22934200F0BE83B3F5985F00F012
S2140043B0C98301F08AB841F20332934200F0EF83DA
S2140043C041F20332934200F30884D9E341F2083203
S2140043D0934200F02C8441F2083293420BDC41F207
S2140043E00632934200F0EA8341F20732934200F02D
S2140043F0108401F06AB841F20A32934200F0338426
S21400440041F20A329342C0F2208441F211329342C2
S21400441000F0378401F059B841F20F42934200F0A1
S214004420AE8541F20F42934200F3A58041F201426D
S214004430934200F0E08441F2014293424EDC41F2A6
S2140044401832934200F0798441F21832934220DC0D
S21400445041F21532934200F04C8441F215329342F9
S2140044600BDC41F21332934200F0278441F21432FF
S214004470934200F0328401F028B841F2163293429B
S21400448000F0438441F21732934200F04A8401F070
S2140044901CB841F21B32934200F0778441F21B3283
S2140044A093420BDC41F21932934200F0528441F2FF
S2140044B01A32934200F05D8401F007B841F21D32D3
S2140044C0934200F07E8441F21D329342C0F269842A
S2140044D0B3F5A05F00F0818400F0F7BF41F2084218
S2140044E0934200F0EA8441F20842934222DC41F211
S2140044F00442934200F0A98441F2044293420DDC48
S21400450041F20242934200F0848441F20342934215
S21400451000F08D8400F0D9BFBC18002041F206429E
S214004520934200F0AE8441F20642934200F3B78411
S21400453000F099BC41F20B42934200F0E88441F24D
S2140045400B4293420BDC41F20942934200F0C384D3
S21400455041F20A42934200F0CC8400F0B6BF41F22A
S2140045600D42934200F0EF8441F20D42934200F375
S214004570F88400F0DABC41F23052934200F06F85C6
S21400458041F2305293424DDC41F25042934200F0E9
S2140045900E8641F25042934220DC41F21242934290
S2140045A000F0178541F2124293420BDC41F21042B2
S2140045B0934200F0F28441F21142934200F0FB84F1
S2140045C000F083BF41F21342934200F0108541F29F
S2140045D01442934200F0198500F077BFB3F5A35F4D
S2140045E000F00F86B3F5A35F0BDC41F25142934215
S2140045F000F0EB8541F25242934200F0F48500F061
S21400460064BF41F22E52934200F00D8541F22E52C5
S214004610934200F3168541F26142934200F0FF8513
S21400462000F053BF41F23752934200F06C8541F2DE
S2140046303752934220DC41F23352934200F02B85EE
S21400464041F2335293420BDC41F23152934200F076
S214004650148541F23252934200F09B8500F035BF3C
S21400466041F23552934200F0328541F23552934280
S21400467000F33B8500F01DBD41F23A52934200F034
S2140046806C8541F23A5293420BDC41F23852934227
S21400469000F0478541F23952934200F0508500F011
S2140046A014BF41F23E52934200F0B18041F23F52B5
S2140046B0934200F0BB8041F23B52934200F05B8590
S2140046C000F003BFFB691B6C002B00F03186FB6912
S2140046D01B6CFA8A79681046984700F029BEFB6979
S2140046E01B68002B00F02686FB691B68FA8A79682F
S2140046F01046984700F01EBEFB699B68002B00F032
S2140047001B86FB699B68FA8A79681046984700F012
S21400471013BEFB695B68002B00F01086FB695B68C4
S214004720FA8A79681046984700F008BEFB691B694C
S214004730002B00F00586FB691B69FA8A796810462B
S214004740984700F0FDBDFB691B6D002B00F0FA8555
S214004750FB691B6DFA8A79681046984700F0F2BD2F
S214004760FB695B69002B00F0EF85FB695B69FA8AE1
S21400477079681046984700F0E7BDFB69DB69002BB7
S21400478000F0E485FB69DB69FA8A79681046984789
S21400479000F0DCBDFB69DB68002B00F0D985BB6947
S2140047A0002283F82C20BB6900229A62FB69DB6832
S2140047B0FA8A79681046984700F0CABDFB691B6AFA
S2140047C0002B00F0C785FB691B6AFA8A79681046D9
S2140047D0984700F0BFBDFB699B69002B00F0BC85C5
S2140047E0FB699B69FA8A79681046984700F0B4BD61
S2140047F0FB69D3F85831002B00F0B085FB69D3F87D
S2140048005831FA8A79681046984700F0A7BDFB69C8
S214004810D3F88031002B00F0A385FB69D3F88031F4
S214004820FA8A79681046984700F09ABDA54B1B682F
S2140048301B69002B0CD17B681B781846FDF7FEFE23
S214004840A14B1B681433184605F050FA00F03DBE25
S2140048509C4B1B681B69FA8A79681046984700F0DB
S21400486034BEFB69D3F87C31002B00F07B85FB69F6
S214004870D3F87C31FA8A79681046984700F072BD02
S214004880FB695B6A002B00F06F85FB695B6AFA8A3E
S21400489079681046984700F067BDFB699B6A002B55
S2140048A000F06485FB699B6AFA8A79681046984727
S2140048B000F05CBDFB69DB6A002B00F05985FB69E4
S2140048C0DB6AFA8A1046984700F052BDFB691B6BFC
S2140048D0002B00F04F85FB691B6BFA8A796810463F
S2140048E0984700F047BDFB695B6B002B00F04485E2
S2140048F0FB695B6BFA8A79681046984700F03CBD06
S214004900FB69DB6B002B00F03985FB69DB6BFA8AF1
S21400491079681046984700F031BDFB695B6E002B46
S21400492000F02E85FB695B6EFA8A79681046984718
S21400493000F026BDFB69DB6D002B00F02385FB69CC
S214004940DB6DFA8A79681046984700F01BBDFB6954
S2140049501B6E002B00F01885FB691B6EFA8A7968BF
S2140049601046984700F010BDFB699B6C002B00F0CA
S2140049700D85FB699B6CFA8A79681046984700F0AB
S21400498005BDFB69DB6C002B00F00285FB69DB6C68
S214004990FA8A79681046984700F0FABCFB695B6DA6
S2140049A0002B00F0F784FB695B6DFA8A7968104685
S2140049B0984700F0EFBCFB699B6D002B00F0EC8481
S2140049C0FB699B6DFA8A79681046984700F0E4BC4C
S2140049D0FB699B6B002B00F0E184FB699B6BFA8AFA
S2140049E079681046984700F0D9BCFB699B6E002B8F
S2140049F000F0D684FB699B6EFA8A79681046984761
S214004A0000F0CEBCFB69DB6E002B00F0CB84FB69AC
S214004A10DB6EFA8A79681046984700F0C3BCFB69DB
S214004A20D3F88C30002B00F0BF84FB69D3F88C30B1
S214004A30FA8A79681046984700F0B6BCFB691B6F87
S214004A40002B00F0B384FB691B6FFA8A7968104666
S214004A50984700F0ABBCFB695B6F002B00F0A884A6
S214004A60FB695B6FFA8A79681046984700F0A0BC2D
S214004A70FB699B6F002B00F09D84FB699B6FFA8A95
S214004A8079681046984700F095BCFB69DB6F002BF1
S214004A9000F09284FB69DB6FFA8A796810469847C3
S214004AA000F08ABCFB69D3F88030002B00F08684C7
S214004AB0FB69D3F88030FA8A79681046984700F088
S214004AC07DBC00BFD4A00020C4180020FB69D3F82A
S214004AD08430002B00F07484FB69D3F88430FA8AA3
S214004AE079681046984700F06BBCFB69D3F88830AD
S214004AF0002B00F06784FB69D3F88830FA8A79685F
S214004B001046984700F05EBCFB69D3F89030002B47
S214004B1000F05A84FB69D3F89030FA8A7968104618
S214004B20984700F051BCFB69D3F89430002B00F096
S214004B304D84FB69D3F89430FA8A79681046984712
S214004B4000F044BCFB69D3F89830002B00F040849A
S214004B50FB69D3F89830FA8A79681046984700F0CF
S214004B6037BCFB69D3F89C30002B00F03384FB691C
S214004B70D3F89C30FA8A79681046984700F02ABC29
S214004B80FB69D3F8A030002B00F02684FB69D3F82D
S214004B90A030FA8A79681046984700F01DBCFB6979
S214004BA0D3F8A430002B00F01984FB69D3F8A430A6
S214004BB0FA8A79681046984700F010BCFB69D3F86B
S214004BC0A830002B00F00C84FB69D3F8A830FA8AD2
S214004BD079681046984700F003BCFB69D3F8AC3000
S214004BE0002B00F0FF83FB69D3F8AC30FA8A7968B3
S214004BF010469847F6E3FB69D3F8B030002B00F078
S214004C00F383FB69D3F8B030FA8A79681046984780
S214004C10EAE3FB69D3F8B430002B00F0E783FB69C6
S214004C20D3F8B430FA8A796810469847DEE3FB6911
S214004C30D3F8B830002B00F0DB83FB69D3F8B8302C
S214004C40FA8A796810469847D2E3FB69D3F8BC30F5
S214004C50002B00F0CF83FB69D3F8BC30FA8A796862
S214004C6010469847C6E3FB69D3F8C030002B00F027
S214004C70C383FB69D3F8C030FA8A79681046984730
S214004C80BAE3FB69D3F8C430002B00F0B783FB69A6
S214004C90D3F8C4307A680632127811467868984796
S214004CA0ACE3FB69D3F8C830002B00F0A983FB699E
S214004CB0D3F8C83078689847A2E3FB69D3F8CC30BD
S214004CC0002B00F09F83FB69D3F8CC307A6806325D
S214004CD0127811467868984794E3FB69D3F8D03089
S214004CE0002B00F09183FB69D3F8D03078689847A2
S214004CF08AE3FB69D3F8D430002B00F08783FB6986
S214004D00D3F8D4307868984780E3FB69D3F8D83076
S214004D10002B00F07D83FB69D3F8D830786898477D
S214004D2076E3FB69D3F8DC30002B00F07383FB6975
S214004D30D3F8DC30786898476CE3FB69D3F8E0304A
S214004D40002B00F06983FB69D3F8E0307868984759
S214004D5062E3FB69D3F8E430002B00F05F83FB6965
S214004D60D3F8E4307A6806321278114678689847A5
S214004D7054E3FB69D3F8E830002B00F05183FB695D
S214004D80D3F8E830786898474AE3FB69D3F8EC3004
S214004D90002B00F04783FB69D3F8EC30786898471F
S214004DA040E3FB69D3F8F030002B00F03D83FB694D
S214004DB0D3F8F0307A680632127811467868984749
S214004DC032E3FB69D3F8F430002B00F02F83FB6945
S214004DD0D3F8F4307868984728E3FB69D3F8F830BE
S214004DE0002B00F02583FB69D3F8F830FA8A79683F
S214004DF0104698471CE3FB69D3F8FC30002B00F004
S214004E001983FB69D3F8FC30FA8A7968104698470C
S214004E1010E3FB69D3F80031002B00F00D83FB692B
S214004E20D3F80031FA8A79681046984704E3FB699C
S214004E30D3F80431002B00F00183FB69D3F804316A
S214004E40FA8A796810469847F8E2FB69D3F8083181
S214004E50002B00F0F582FB69D3F80831FA8A7968EE
S214004E6010469847ECE2FB69D3F80C31002B00F0B3
S214004E70E982FB69D3F80C31FA8A796810469847BC
S214004E80E0E2FB69D3F81031002B00F0DD82FB690D
S214004E90D3F81031FA8A796810469847D4E2FB694D
S214004EA0D3F81431002B00F0D182FB69D3F814310B
S214004EB0FA8A796810469847C8E2FB69D3F8183131
S214004EC0002B00F0C582FB69D3F81831FA8A79689E
S214004ED010469847BCE2FB69D3F81C31002B00F063
S214004EE0B982FB69D3F81C31FA8A7968104698476C
S214004EF0B0E2FB69D3F82031002B00F0AD82FB69ED
S214004F00D3F82031FA8A796810469847A4E2FB69FC
S214004F10D3F82431002B00F0A182FB69D3F82431AA
S214004F20FA8A79681046984798E2FB69D3F82831E0
S214004F30002B00F09582FB69D3F82831FA8A79684D
S214004F40104698478CE2FB69D3F82C31002B00F012
S214004F508982FB69D3F82C31FA8A7968104698471B
S214004F6080E2FB69D3F83031002B00F07D82FB69CC
S214004F70D3F83031FA8A79681046984774E2FB69AC
S214004F80D3F83431002B00F07182FB69D3F834314A
S214004F90FA8A79681046984768E2FB69D3F8383190
S214004FA0002B00F06582FB69D3F83831FA8A7968FD
S214004FB0104698475CE2FB69D3F83C31002B00F0C2
S214004FC05982FB69D3F83C31FA8A796810469847CB
S214004FD050E2FB69D3F84031002B00F04D82FB69AC
S214004FE0D3F84031FA8A79681046984744E2FB695C
S214004FF0D3F84431002B00F04182FB69D3F84431EA
S214005000FA8A79681046984738E2FB69D3F848313F
S214005010002B00F03582FB69D3F84831FA8A7968AC
S214005020104698472CE2FB69D3F88431002B00F039
S2140050302982FB69D3F88431FA8A79681046984742
S21400504020E2FB69D3F88831002B00F01D82FB6953
S214005050D3F88831FA8A79681046984714E2FB69D3
S214005060D3F88C31002B00F01182FB69D3F88C3119
S214005070FA8A79681046984708E2FB69D3F89031B7
S214005080002B00F00582FB69D3F89031FA8A796824
S21400509010469847FCE1FB69D3F89831002B00F0E6
S2140050A0F981FB69D3F89831FA8A796810469847EF
S2140050B0F0E1FB69D3F89C31002B00F0ED81FB6931
S2140050C0D3F89C31FA8A796810469847E4E1FB6980
S2140050D0D3F8A031002B00F0E181FB69D3F8A031B2
S2140050E0FA8A796810469847D8E1FB69D3F8A43164
S2140050F0002B00F0D581FB69D3F8A431FA8A7968D1
S21400510010469847CCE1FB69D3F8A831002B00F095
S214005110C981FB69D3F8A831FA8A7968104698479E
S214005120C0E1FB69D3F8AC31002B00F0BD81FB6910
S214005130D3F8AC31FA8A796810469847B4E1FB692F
S214005140D3F8B031002B00F0B181FB69D3F8B03151
S214005150FA8A796810469847A8E1FB69D3F8B43113
S214005160002B00F0A581FB69D3F8B431FA8A796880
S214005170104698479CE1FB69D3F8B831002B00F045
S2140051809981FB69D3F8B831FA8A7968104698474E
S21400519090E1FB69D3F89431002B00F08D81FB6918
S2140051A0D3F89431FA8A79681046984784E1FB6907
S2140051B0D3F84C31002B00F08181FB69D3F84C31D9
S2140051C0FA8A79681046984778E1FB69D3F8503137
S2140051D0002B00F07581FB69D3F85031FA8A7968A4
S2140051E0104698476CE1FB69D3F85431002B00F069
S2140051F06981FB69D3F85431FA8A79681046984772
S21400520060E1FB69D3F85C31002B00F05D81FB693F
S214005210D3F85C31FA8A79681046984754E17B687F
S2140052203B613B695B7A1B09DBB20A2B72D801A291
S21400523052F823F0615200007B5200001553000024
S2140052401553000095520000AF520000C9520000EE
S214005250E35200001553000015530000FB520000F7
S214005260FB69D3F86431002B56D0FB69D3F8643160
S214005270FA8A7968104698474EE0FB69D3F8683199
S214005280002B4BD0FB69D3F86831FA8A7968104650
S214005290984743E0FB69D3F86C31002B40D0FB699C
S2140052A0D3F86C31FA8A79681046984738E0FB697B
S2140052B0D3F87031002B35D0FB69D3F87031FA8AF9
S2140052C07968104698472DE0FB69D3F87431002BB7
S2140052D02AD0FB69D3F87431FA8A79681046984761
S2140052E022E0FB69D3F87831002B06D0FB69D3F8AF
S2140052F07831FA8A796810469847FB69D3F86031A6
S214005300002B13D0FB69D3F86031FA8A796810460F
S21400531098470BE000BFD8E000BFD6E000BFD4E05F
S21400532000BFD2E000BFD0E000BFCEE000BFCCE0C0
S21400533000BFCAE000BFC8E000BFC6E000BFC4E0D0
S21400534000BFC2E000BFC0E000BFBEE000BFBCE0E0
S21400535000BFBAE000BFB8E000BFB6E000BFB4E0F0
S21400536000BFB2E000BFB0E000BFAEE000BFACE000
S21400537000BFAAE000BFA8E000BFA6E000BFA4E010
S21400538000BFA2E000BFA0E000BF9EE000BF9CE020
S21400539000BF9AE000BF98E000BF96E000BF94E030
S2140053A000BF92E000BF90E000BF8EE000BF8CE040
S2140053B000BF8AE000BF88E000BF86E000BF84E050
S2140053C000BF82E000BF80E000BF7EE000BF7CE060
S2140053D000BF7AE000BF78E000BF76E000BF74E070
S2140053E000BF72E000BF70E000BF6EE000BF6CE080
S2140053F000BF6AE000BF68E000BF66E000BF64E090
S21400540000BF62E000BF60E000BF5EE000BF5CE09F
S21400541000BF5AE000BF58E000BF56E000BF54E0AF
S21400542000BF52E000BF50E000BF4EE000BF4CE0BF
S21400543000BF4AE000BF48E000BF46E000BF44E0CF
S21400544000BF42E000BF40E000BF3EE000BF3CE0DF
S21400545000BF3AE000BF38E000BF36E000BF34E0EF
S21400546000BF32E000BF30E000BF2EE000BF2CE0FF
S21400547000BF2AE000BF28E000BF26E000BF24E00F
S21400548000BF22E000BF20E000BF1EE000BF1CE01F
S21400549000BF1AE000BF18E000BF16E000BF14E02F
S2140054A000BF12E000BF10E000BF0EE000BF0CE03F
S2140054B000BF0AE000BF08E000BF06E000BF04E04F
S2140054C000BF02E000BF00E000BF00BF2037BD46BF
S2140054D080BD00BF80B487B000AFF860B9607A6066
S2140054E03B60174B1B68D3F8A4301B6B5B687B6173
S2140054F07B69FA681A607B69BA685A607B697A6861
S2140055009A607B693A68DA607B693A6AC3F89820E1
S2140055107B697A6AC3F89C207B69BA6AC3F8A020C4
S2140055207B69FA6AC3F8A4207B693A6B1A617B69C7
S2140055307A6BDA6100BF1C37BD465DF8047B7047A6
S214005540BC18002080B487B000AFF860B9607A60FD
S2140055503B60194B1B68D3F8A4301B6B5B687B6100
S2140055607B69FA681A627B69BA685A627B697A68EC
S214005570DA627B693A681A637B693A6A5A637B69BE
S2140055807A6AC3F8AC207B69BA6AC3F8B0207B6934
S214005590FA6AC3F8A8207B693A6BC3F8B4207B6923
S2140055A07A6B9A627B69BA6B9A6300BF1C37BD46FA
S2140055B05DF8047B704700BFBC18002080B487B03D
S2140055C000AFF860B9607A603B602C4B1B68D3F87C
S2140055D0A4301B6B5B687B617B69FA68DA637B6966
S2140055E0BA681A647B697A685A647B693A689A640E
S2140055F07B693A6ADA647B697A6A1A657B69BA6A91
S2140056005A657B69FA6A9A657B693A6BDA657B69E3
S2140056107A6B1A667B69BA6B5A667B69FA6B9A660E
S2140056207B693A6CDA667B69BA6C5A677B697A6C16
S2140056301A677B69FA6C9A677B693A6DDA677B69E9
S2140056407A6DC3F880207B69BA6DC3F884207B69C5
S214005650FA6DC3F888207B693A6EC3F88C207B69A4
S2140056607A6EC3F890207B69BA6EC3F8942000BFA8
S2140056701C37BD465DF8047B704700BFBC18002091
S21400568080B588B000AFF8607A601A460B467B811A
S21400569013463B81FB681B6B5B68BB610023FB8288
S2140056A00023FB77F868FEF76AFA0346FB827B89DD
S2140056B041F21252934200F0118241F2125293428A
S2140056C079DC41F20252934200F06A8141F20252C2
S2140056D093422EDC872B15DC852B80F27382812B80
S2140056E000F04C82812B06DC7F2B00F02F82802B73
S2140056F000F03882ADE3832B00F06482832B00F346
S214005700558247E241F20602934200F0128141F2CE
S2140057100602934203DC8C2B00F39B835EE2B3F518
S214005720A85F00F0168141F20152934200F01E81FC
S2140057308FE341F20A52934200F0798141F20A5215
S214005740934219DC41F20552934200F0528141F235
S214005750055293420ADC41F20352934200F02D8137
S21400576041F20452934200F0358172E341F208524E
S214005770934240F34D8106E141F20E52934200F00F
S214005780B48041F20E5293420ADC41F20C5293422C
S21400579000F04D8141F20C52934200F3578164E1D0
S2140057A041F21052934200F06F8141F21052934240
S2140057B000F37481A3E041F22152934200F0AB80E3
S2140057C041F2215293423BDC41F21952934200F0DF
S2140057D0328241F21952934214DC41F2155293423E
S2140057E005DC41F21452934280F2048280E141F2D9
S2140057F01752934200F0FE8141F21752934200F393
S21400580010828BE141F21D52934200F0938141F2E7
S2140058101D5293420ADC41F21B52934200F023824F
S21400582041F21B52934200F3F18110E241F21F5203
S214005830934200F03082B3F5A95F80F238821EE210
S21400584041F22A52934200F04A8241F22A5293428F
S21400585023DC41F22452934200F0598241F2245252
S21400586093420ADC41F22252934200F02C8241F22B
S2140058702352934200F03F82EBE241F226529342DB
S21400588000F05F8241F226529342C0F24C8241F20F
S2140058902752934200F06082DBE241F2305293429C
S2140058A000F0108141F2305293420FDC41F22C524C
S2140058B0934200F0678241F22C529342C0F2578224
S2140058C041F22D52934200F06682C2E241F23D520E
